:020000040000FA
:10000000D8140020D5000000DD000000DF00000053
:1000100000000000000000000000000000000000E0
:10002000000000000000000000000000E1000000EF
:100030000000000000000000E3000000E5000000F8
:10004000E7000000E7000000E7000000E700000014
:10005000E7000000E7000000E7000000E700000004
:10006000E7000000E70000009D350000B936000001
:10007000D5370000E9380000E7000000E700000085
:10008000E7000000E7000000E7000000E7000000D4
:10009000E7000000E7000000E7000000E7000000C4
:1000A000E7000000E7000000E7000000E7000000B4
:1000B00041070000E7000000791C0000E700000095
:1000C0000348854600F02AFB00480047454D0000E4
:1000D000D81400200448804704480047FEE7FEE7A4
:1000E000FEE7FEE7FEE7FEE7152E0000C100000078
:1000F00030B50B46014600202022012409E00D46C0
:10010000D5409D4205D31D469540491B2546954047
:1001100040191546521E002DF1DC30BD70B500248B
:100120002546002801DA01244042002901DA012590
:100130004942FFF7DDFFAC4200D04042002C00D026
:10014000494270BDF0B51FB40646002082B0054696
:100150004024019100901BE0019922460F46304651
:1001600000F024FA049A059B801A994110D3104696
:100170001946224600F00AFA361A8F4101972246A4
:1001800001200021009F00F001FA38184D41009035
:100190002046641E0028DFDC019B00982946324679
:1001A00007B0F0BDF0B51FB486B0002000900190FC
:1001B00002900698069980B204900798090C0204F0
:1001C0000014114307900027089D099806913E46A8
:1001D0003C4603900398A9B20204000C03900498D3
:1001E0002D0C154348430021224600F0CFF9C719D2
:1001F000714110340E46402CECDB3846029A00F078
:10020000C5F9009A019B801800905941029801910C
:10021000103002904028CCDB00980BB0F0BD0346B4
:100220000B439B0703D009E008C9121F08C0042A2A
:10023000FAD203E00B780370401C491C521EF9D21D
:100240007047D2B201E00270401C491EFBD27047D9
:100250000022F6E710B513460A4604461946FFF792
:10026000F0FF204610BD0000F0B507460846584094
:1002700087B0C00F049048000E4659004008490856
:10028000BC1A884105D2384631461E4617460B46F1
:1002900002465800400810434CD0300D03904005F2
:1002A0005900400D490D0590401A0290402872DA1D
:1002B00018030121000B09050843019004980092DE
:1002C000002805D0019952420020884100920190F7
:1002D000029840210A1A0199009800F057F9054642
:1002E0000C466B4607CB00F072F9C0197141039AB6
:1002F0000E0D0023D71756401A467A40164344D0B5
:10030000049A002A2DD0029A012A039A15DC1205BC
:10031000C01A914101263605001C7141D20F059E7D
:10032000D2070093019202962A46234600F06FF905
:1003300007B0F0BD38463146FAE71605224A0F46A7
:10034000B218C01AB74101210905001C4F4100181D
:100350007F41114618187941E20F10436D1964412D
:1003600013E0E2076D0815436408C2071443039ABB
:1003700001261205C01A91413605001C7141CE07B5
:10038000400830434908C01851412A46234600F02E
:1003900031F9CDE7FFE7049801224000C117121A96
:1003A00000238B4104983146C417381AA141EEE767
:1003B00030B40124E407634030BC55E730B4012475
:1003C000E407614030BC4FE70000E0FFF0B51FB428
:1003D00088B00B990998002448400999C00F49003A
:1003E00049080991C0070B990090490049080B91F1
:1003F00009990898A64608431CD00B990A98084307
:1004000018D0099801244000420D4800410D099878
:1004100024050003000B204309900B980003000BF8
:1004200020430B9050181C4940180022019014469C
:10043000104605E0002001460DB0F0BD032801DAAA
:10044000034600E003239C46C11A0AAE0AE05F009F
:1004500008ADED5B4F00F75B7D430027AA187C4198
:10046000491C5B1E6145F2DD410004AB5A52210478
:10047000120C0A43240C401C0828DFDB0198029070
:100480000099704601910090059B049A079906987F
:1004900000F0BDF8D0E700000DFCFFFFF0B50C4602
:1004A0005C4085B0E40FE40703944C000026640828
:1004B00059009446490802460296224321D06246DA
:1004C0000A431ED06200570D4A000E032303550D48
:1004D000012402462C492405781B1B0B360B4018BF
:1004E00023432643614600901C46501AB44103D36F
:1004F0000098401C009002E0921800985B41002890
:1005000003DA0020014605B0F0BD002001210905F5
:100510000746864611E064461D46141BB54106D3C6
:100520006546521BB341744607430C43A646CD07AC
:1005300040084908284392185B4105460D43EAD11B
:100540001046184313D06046194650407140084386
:1005500006D06046101AB34106D20122002306E0FD
:1005600000220123DB0702E00122D243531000984E
:1005700074460105381C6141029C039D00196941C4
:1005800000F038F8BFE70000FD03000010B5202A96
:1005900004DB0146203A9140002010BD9140202309
:1005A0009C1A0346E3401943904010BD10B5202A21
:1005B00004DB0846203AD040002110BD0B46D34052
:1005C000D0402024A21A91400843194610BD10B50E
:1005D000202A06DBCB170846203A1041C1170B43EF
:1005E00006E00B461341D0402024A21A9140084354
:1005F000194610BD10B5002B08DA0024401C6141DB
:1006000092185B411A4301D14008400010BDF0B57B
:100610001FB482B005460C0003D0084603F0DEFD8F
:1006200002E003F0DBFD2030024600902146284620
:10063000FFF7ACFF049B059A04460F46184311438D
:10064000084314D0184610431BD0009840210A1AC2
:1006500018460599FFF7AAFF05460E46009A059928
:100660000498FFF793FF084305D0012004E02046DB
:10067000394607B0F0BD0020C11705430E432C4397
:10068000374300990E986305401A7905E40A002261
:100690000C43FD0A0A3002D500200146E9E70105B6
:1006A000101969410C9C0D9D00196941FFF7A2FFCB
:1006B000DFE700004A0009030123090B1B0519436A
:1006C0000A4B10B5520D9A4202DA0020014610BDC5
:1006D000064B34339A4203DC9A1AFFF767FF10BDCA
:1006E000034BD218FFF752FF10BD0000FF030000BC
:1006F000CDFBFFFF10B5002904DB0124E4074042D5
:100700008C412146002B04DB1C460123DB075242AF
:10071000A341994200D1904210BD0000064C012532
:10072000064E05E0E36807CC2B430C3C9847103499
:10073000B442F7D3FFF7C8FC105500003055000055
:1007400000BF4148C068C007C00F01214840484071
:10075000002878D000BF3C48006908404840484025
:10076000002870D000BF01203749086100BF37481A
:100770000088002804DD35480088401E3349088081
:1007800033480088002804DD31480088401E304985
:10079000088030480088002804DD2E480088401E6C
:1007A0002C4908802C480088002804DD2A4800884D
:1007B000401E2949088029480088002804DD274870
:1007C0000088401E2549088024484068002804D03D
:1007D00022484068401E214948602048008900287E
:1007E00004DD1E480089401E1C4908811C48007811
:1007F000002804DD1A480078401E1949087019487D
:100800000088002804DD17480088401E154908802C
:1008100015480088002804DD13480088401E12494E
:10082000088012480088002804DD10480088401E17
:100830000E4908800E480088002804DD0C48008816
:10084000401E0B49088070470030014074000020B2
:100850007C000020080000205E000020F402002040
:10086000430000205A0000207A0000205C00002095
:100870004800002010B501F007FC01F0F5FB00F086
:1008800003F800F009F810BD08B5022000901C2103
:10089000684601F01BF808BD00BF0448006801214C
:1008A00008430249086000BF704700000030014063
:1008B0007CB502F0BBF90A2000F0E8FD002409E055
:1008C0000A2000F0E3FD02F0B1F961006A465052DF
:1008D000601CC4B2032CF3DB002500241BE0600085
:1008E0006946085AC01300280ED06000085A00213B
:1008F000C943081A401C61006A46505260006946AC
:10090000085A281A85B204E060006946085A40195E
:1009100085B2601CC4B2032CE1DBE81301280ED1C0
:10092000801E401B401C85B203212846FFF7F6FBC2
:1009300085B20020C043401B401C85B204E0032167
:100940002846FFF7EBFB85B228467CBD10B5082191
:10095000014800F003FF10BD000D004010B508482D
:100960000078002802D0012806D102E0FFF7EEFF50
:1009700003E001F01DFD00E000BF00BF10BD00005E
:100980005200002010B50821014800F0E1FE10BD22
:10099000000D004010B508480078002802D001285A
:1009A00006D102E0FFF7EEFF03E001F009FD00E0F1
:1009B00000BF00BF10BD00005200002070B505460A
:1009C00008480570FFF7E6FFFFF772FF0446FFF7E0
:1009D000C5FF232C02DD2046233884B2264630464C
:1009E00070BD0000520000200FB410B5B4B00E4826
:1009F0000078002804D134B010BC08BC04B01847FB
:100A000037A80190C82102A8019B369A03F0D0FBB9
:100A1000044600200190002C03DDA1B202A803F0DF
:100A200047F800BFE7E70000000000200121016057
:100A30007047000070B50446012500BF20680028FB
:100A40000BD02068012808D02068022805D0206833
:100A5000032802D02068042801D1012000E00020F2
:100A6000002801D100BFFEE700BF00BFA06800283A
:100A700002D0A068012801D1012000E00020002858
:100A800001D100BFFEE700BF00BFE068002808D02A
:100A9000E068082805D0E068102802D0E06818282F
:100AA00001D1012000E00020002801D100BFFEE7B5
:100AB00000BF2068042814D100BF6068002808D057
:100AC0006068012805D06068022802D060680328A9
:100AD00001D1012000E00020002801D100BFFEE785
:100AE0001AE000BF606800280ED0606801280BD0B3
:100AF0006068022808D06068032805D06068042870
:100B000002D06068052801D1012000E00020002803
:100B100001D100BFFEE700BFFF2001302649896BED
:100B20000143254A916300BF206804280ED10421A7
:100B3000224800F037FA6168880120494969C022DB
:100B4000914301431D4A516100BF20E000211B4831
:100B500000F028FA2068184940318968890889001E
:100B60000143154A4032916000BF61688800114618
:100B700089681C22914301430F4A4032916000BFB3
:100B800090131146C9680143D16000BF00BFA0683F
:100B90000A494969890889000143084A516100BF2F
:100BA000E06811464969182291430143034A5161A3
:100BB00000BF284670BD000000240040005C0140DA
:100BC0008168490849008160704781684908490087
:100BD00081607047816901221204914381617047ED
:100BE000026A4B005B089A430262704781680122E7
:100BF0001143816070478168022211438160704710
:100C0000026A4B005B081A4302627047F8B505465A
:100C10000C4601200090002600BFDB48854201D130
:100C2000012000E00020002801D100BFFEE700BF46
:100C300000BF2068002804D00121490220688842B2
:100C400001D1012000E00020002801D100BFFEE713
:100C500000BF00BF6068002804D00121C90260689D
:100C6000884201D1012000E00020002801D100BF0E
:100C7000FEE700BF00BFE068002802D0E06804285B
:100C800001D1012000E00020002801D100BFFEE7D3
:100C900000BF00BF2069002808D02069012805D0C6
:100CA0002069022802D02069032801D1012000E038
:100CB0000020002801D100BFFEE700BF00BF2020B8
:100CC000005D002803D02020005D012801D1012013
:100CD00000E00020002801D100BFFEE700BF00BFF8
:100CE000606A002821D001214904606A88421CD032
:100CF0004900606A884218D003214904606A88422A
:100D000013D00121C904606A88420ED0052149042C
:100D1000606A884209D003218904606A884204D04D
:100D200007214904606A884201D1012000E00020C7
:100D3000002801D100BFFEE700BF00BFA06A002865
:100D400026D001210905A06A884221D04900A06A65
:100D500088421DD003210905A06A884218D00121CC
:100D60008905A06A884213D005210905A06A884236
:100D70000ED003214905A06A884209D00721090540
:100D8000A06A884204D00121C905A06A884201D125
:100D9000012000E00020002801D100BFFEE700BFD5
:100DA000012000037949496B0143784A516300BF30
:100DB00000BF77480068C007C00F01214840484085
:100DC00000280DD100BF01207149886000BF00BF1D
:100DD00008460068012108436D49086000BF00BF54
:100DE00000BF6B480068022108436949086000BFE2
:100DF00005E07D208002864200D30AE0761C00BF19
:100E000063488068C007C00F01214840484000285F
:100E1000EFD000BF2846FFF7D8FE2846FFF7DAFEDE
:100E200000BFA86801210843A86000BF00BF564862
:100E3000006908435449086100BF002600BF00BF95
:100E40005148006810210840070900BF761C701C3B
:100E5000002801D0002FF2D0012F7DD100BF10203B
:100E60004949086000BF2846FFF7AFFE00BFA868E9
:100E7000384001214840484000287DD12068A969B8
:100E80007A0291430143A96100BF6068A969920099
:100E900091430143A96100BF207A002806D000BF1A
:100EA000A86951100843A86100BF07E000BFA86906
:100EB000012189028843A86100BF00BF607A002831
:100EC00007D000BFA869FF2101310843A86100BF16
:100ED00007E000BFA869FF2101318843A86100BF76
:100EE00000BFE068A969042291430143A96100BFE2
:100EF00000BF686920218843686100BF2069E968F4
:100F0000890889000143E96000BF6069A969F0228E
:100F100091430143A96100BFA069E969914301437D
:100F2000E96100BFE069E969090909010143E96173
:100F300000BF2020005D00281AD0606AA96907223E
:100F4000520491430143A96100BFA06AA9690F221D
:100F500012059143014301E011E00DE0A96100BFDA
:100F600000BFA869012109040843A86100BF08E087
:100F70002846FFF72FFE04E00020009001E000204B
:100F800000900098F8BD0000005C01400024004083
:100F900000A4014001460868C007C00F012250406C
:100FA00050407047426904239A430A4342617047A4
:100FB00041690122114341617047000070B5054647
:100FC0000C46052600BF6148854201D1012000E0A2
:100FD0000020002801D100BFFEE700BF00BFA068CD
:100FE00000280BD0A068102808D0A068202805D0C1
:100FF000A068402802D0A068602801D1012000E04C
:101000000020002801D100BFFEE700BF00BF6069DB
:10101000002808D0FF2101316069884203D04900CF
:101020006069884201D1012000E00020002801D140
:1010300000BFFEE700BF00BF2069012802D0206981
:10104000002801D1012000E00020002801D100BFCC
:10105000FEE700BF00BF2068002802D0206880287B
:1010600001D1012000E00020002801D100BFFEE7EF
:1010700000BF206836494968802291430143344AC1
:10108000516000BF102000F091F80120C00300F073
:101090007DF8A069296B090A09020143296300BF91
:1010A000A068202804D0402803D060280BD101E09C
:1010B00000BF00BF0021284600F05AF82846A1686A
:1010C00000F050F808E02846A16800F051F800212F
:1010D000284600F047F800BF00BFE068E96A090C45
:1010E00009040143E96200BF606929680322120212
:1010F00091430143296000BF6068A96A090C090493
:101100000143A96200BF2069012806D100BF2868F9
:1011100080210843286000BF06E000BF28688021C6
:101120008843286000BF00BF2846FFF741FF00E06A
:10113000761E064800F00EF8002801D1002EF7D1E7
:1011400000BF01200149086100BF70BD00300140AF
:101150004024004001460869C007C00F01225040EA
:1011600050407047026860239A430A430260704708
:10117000026810239A430A43026070470249C96B10
:101180000143014AD1637047002400400249C96805
:101190000143014AD1607047402400400249C968B8
:1011A0000143014AD1607047402400400249096868
:1011B0000143014A116070474024004010B50024EB
:1011C00000BF1B48006807210902084005221202DF
:1011D000811A904218D006DC00280DD00121890226
:1011E000401A1DD10CE0C81FF938002810D0FF3874
:1011F0000138002814D10FE000F0FCF8044613E099
:1012000000F0F8F844080FE000F0F4F884080BE070
:1012100000F0F0F8C40807E000F0ECF8040903E07F
:1012200000F0E8F8044600BF00BF204610BD0000F3
:101230000024004010B5002400BF1B4800680721AF
:101240000904084005221204811A904218D006DCD5
:1012500000280DD001218904401A1DD10CE0012085
:101260000004081A10D001210904401A14D10FE01B
:10127000FFF7A4FF044613E0FFF7A0FF44080FE0C8
:10128000FFF79CFF84080BE0FFF798FFC40807E016
:10129000FFF794FF040903E0FFF790FF044600BF47
:1012A00000BF204610BD00000024004070B500249F
:1012B000002500BF2648C06802210840002802D04F
:1012C000022807D103E000F047F8044606E0214871
:1012D000046803E000F040F8044600BF00BF00BF10
:1012E0001B48C068702108400107090F00291FD161
:1012F0000011030002F0A1FF080506080A0C1214F1
:101300001A1C16E0640814E0A40812E0E40810E0D7
:101310000C212046FEF7ECFE04460AE0240908E012
:1013200018212046FEF7E4FE044602E0640900E0CE
:1013300000BF00BF00BF0648C0687F210904084005
:10134000000C451C204668430446204670BD000042
:101350000024004084000020002000BF0D4949689F
:101360000F2212041140002908D001221204891A08
:1013700006D0891A06D0891A08D105E0064807E088
:10138000064805E0064803E0064801E0024800BFC1
:1013900000BF70470024004000127A000024F400CF
:1013A00000366E010048E801002000BF1049496A7C
:1013B000032212041140002908D001221204891AC4
:1013C00007D0891A08D0891A0CD108E04B204003B5
:1013D0000BE04B20C00208E04B20800205E04B20D0
:1013E000400202E04B20400300BF00BF70470000F6
:1013F0000024004010B5002400BF144800684007D6
:10140000400F030002F019FF0705090C1A1014170A
:101410001A00FFF7A1FF044614E00D48046811E02C
:10142000FFF744FF04460DE0FFF7BEFF044609E066
:101430000848046806E00124E40303E0FFF78CFF9A
:10144000044600BF00BF204610BD0000002400403D
:101450008400002080000020034989681C229143F9
:101460000143014A916070474024004006480069EA
:101470000421084304490861084600690121084322
:10148000014908617047000000E000E038B50446FB
:101490000EE07D20C00000F015F800BF0020009095
:1014A00006480749086008460068009000BF00BF72
:1014B0002046641E0028ECD138BD00005A5A341270
:1014C0000014014010B504460C490D480068FEF7B1
:1014D0000FFE444301200006844200D900E020466C
:1014E0000446601E074948610020886100BF054826
:1014F0000069C003C00F0028F9D010BD40420F00A2
:101500008800002000E000E0826A8BB29A43826289
:10151000704702688BB29A430260704782688BB250
:101520009A438260704742688BB29A434260704728
:10153000026A8BB29A43026270470246D0698BB24C
:1015400018408BB2984201D1012070470020FCE77F
:101550000246D0698BB218408BB2984201D101206B
:1015600070470020FCE70000F8B506460C4600274F
:10157000002500BF724886420ED071484030864236
:101580000AD06F488030864206D06D48C03086420F
:1015900002D06C48864201D1012000E000200028E2
:1015A00001D100BFFEE700BF00BF2068002805D9B9
:1015B00065492068884201D8012000E00020002809
:1015C00001D100BFFEE700BF00BF6068032808D05C
:1015D0006068002805D06068012802D06068022891
:1015E00001D1012000E00020002801D100BFFEE76A
:1015F00000BF00BFA068012802D0A068002801D168
:10160000012000E00020002801D100BFFEE700BF5C
:1016100000BFE068002802D0E068012801D1012065
:1016200000E00020002801D100BFFEE700BF00BF9E
:101630006069002802D06069012801D1012000E022
:101640000020002801D100BFFEE700BF80203F49F5
:10165000496B01433D4A516300BF6AE00121B94033
:10166000206808400546002D62D0606803281AD122
:1016700029463046FFF74DFF29463046FFF753FF16
:1016800029463046FFF74AFF6069012806D100BFAE
:10169000B06AA9B20843B06200BF33E029463046C1
:1016A000FFF732FF2EE029463046FFF72DFF606836
:1016B000002806D100BF3068A9B20843306000BFDF
:1016C00003E029463046FFF724FFA068002804D134
:1016D00029463046FFF722FF06E000BFB068A9B2F6
:1016E0000843B06000BF00BFE068002806D000BF1C
:1016F0007068A9B20843706000BF03E02946304615
:10170000FFF711FF606802280DD12069012806D17A
:1017100000BF306AA9B20843306200BF03E0294627
:101720003046FFF705FF29463046626800F01CF896
:101730007F1C2068F840002890D10120F8BD0000EF
:10174000000C0040000D0040FFFF0000002400409E
:101750008AB2826170478AB2826170478AB24261FE
:1017600070478AB24261704730B5C3680C464C433B
:1017700065006419A3430C464C4354432343C360A0
:1017800030BD0000FEB505460C4600260120019044
:10179000002700BF3F48854201D1012000E0002022
:1017A000002801D100BFFEE700BF00BF3A496068D2
:1017B000884201D2012000E00020002801D100BFB2
:1017C000FEE700BF00BF2068002814D02068012871
:1017D00011D0206802280ED0206803280BD0206882
:1017E000042808D02068052805D02068062802D0E3
:1017F0002068072801D1012000E00020002801D145
:1018000000BFFEE700BF20202449496B0143234A63
:10181000516300BF00BF0020009021482860286865
:10182000009000BF2068002100916968C908C900C4
:10183000014369602968009100BF284600F032F832
:101840000746606800281AD0002F0CD100BF284638
:1018500000F028F8012812D03046761CFF21F5311F
:101860008842F4D30BE000BF284600F01BF80028A4
:1018700005D03046761CFF21F5318842F4D36068EC
:10188000002100910105090DE9602968009100BF60
:101890000198FEBD00140140FF0F0000002400402D
:1018A0005A5A341208B50146002200928A6810057F
:1018B000000D0A68009208BD00214160022101600C
:1018C000704710B5FFF7D2FD10BD000070B505469A
:1018D0000C462868032801D90320286020460028E8
:1018E00005DBC206D20E01219140094A116000BFFA
:1018F0002046296800F06CFD2046002806DBC20661
:10190000D20E01219140024A803A116000BF70BDA1
:1019100080E100E041680122114341607047416865
:101920000122114341607047416801221143416027
:10193000704741680122114341607047F8B5054680
:101940000C46002700200090002600BFAD488542CD
:101950000BD0AD48854208D0AC48854205D0AC4894
:10196000854202D0AB48854201D1012000E0002031
:10197000002801D100BFFEE700BF00BF206800289B
:1019800014D02068012811D0206802280ED02068C9
:1019900003280BD02068002808D02068042805D030
:1019A0002068082802D020680C2801D1012000E01E
:1019B0000020002801D100BFFEE700BF00BFA068E3
:1019C000C02808D0A068002805D0A068402802D010
:1019D000A068802801D1012000E00020002801D16A
:1019E00000BFFEE700BF00BF2069002805D02069C6
:1019F000102802D02069202801D1012000E0002019
:101A0000002801D100BFFEE700BF00BFE06800284A
:101A100004D0FF210131E068884201D1012000E0BB
:101A20000020002801D100BFFEE700BF00BF6069B1
:101A3000002808D06069022805D06069012802D01A
:101A40006069032801D1012000E00020002801D1B5
:101A500000BFFEE700BF6B4885422CD120686E496D
:101A600049688908890001436B4A516000BF2068BA
:101A7000002806D0012808D002280AD0032810D157
:101A80000BE0FFF7D7FB00900FE0FFF765FC00903D
:101A90000BE0FFF7AFFC009007E0604800680090A3
:101AA00003E0FFF7C7FB009000BF00BF616800982C
:101AB000FEF71EFB461E544885422CD1206856492D
:101AC00049680C2291430143534A516000BF20688A
:101AD000002806D0042808D008280AD00C2810D1E5
:101AE0000BE0FFF7A7FB00900FE0FFF735FC00903D
:101AF0000BE0FFF77FFC009007E04848006800908B
:101B000003E0FFF797FB009000BF00BF61680098FB
:101B1000FEF7EEFA461E3B48854206D18015FFF7D8
:101B20002DFBA815FFF73AFB35E03748854206D173
:101B30004015FFF723FB6815FFF730FB2BE0334818
:101B400085420BD1C014FFF719FBFFF773FB009020
:101B500061680098FEF7CCFA461E1CE02C488542CE
:101B60000BD18014FFF70AFBFFF764FB009061685C
:101B70000098FEF7BDFA461E0DE0264885420AD1C0
:101B80004014FFF7FBFAFFF755FB009061680098DF
:101B9000FEF7AEFA461E207DC007C00F002806D013
:101BA00000BF286801210843286000BF00BF022150
:101BB00060690840002805D000BF286808432860F5
:101BC00000BF00BF00BFA869000C00043043A8613B
:101BD00000BFE0682968FF22013291430143296078
:101BE00000BFA0682968C02291430143296000BF5B
:101BF00020692968302291430143296000BF0127F1
:101C00003846F8BD002001400068014000700140E6
:101C1000007401400078014040240040840000200E
:101C20004269520A52020A43426170474269520AAB
:101C300052020A43426170474269520A52020A4301
:101C4000426170474269520A52020A434261704738
:101C50001CB506A000680190012001AB044A0421D4
:101C60000090044801F0BCF91CBD00001D000000FC
:101C70007703002022C00000042008494969014080
:101C8000814201D1012100E00021012904D1042079
:101C90000249486100BF00BF70470000C00D00400E
:101CA000F3B581B00E4600270C20FFF7D5FB19498C
:101CB0001948FEF795FF18480199FEF7A1FF16484D
:101CC000FEF7B4FE1448FEF791FF1348FEF793FFAA
:101CD00000BF1148FFF75EF904467F1C781C0028FE
:101CE00001D0002CF5D0012C10D10B48FEF79EFE40
:101CF00000BF0948806A80B230600748FEF760FF85
:101D000005480199FEF76CFF002500E001252846F3
:101D1000FEBD0000FFFF0F00005C0140F1B58AB07E
:101D2000002008900790069008A800F035F805906C
:101D300006A90A98FFF7B4FF04900898002821D05C
:101D4000059800281ED1049800281BD10F49069839
:101D500002F05BFA0E4A1489002506460F46224619
:101D60002B46FEF71FFA019100900A49089802F0ED
:101D70004CFA02460B460391029001990098FEF737
:101D8000E1F9079007980BB0F0BD0000B80B000018
:101D900000FBFF1FFF0F0000F8B5064600270C20D0
:101DA000FFF75AFB00BF20480069012108431E4984
:101DB000086100BF1D491E48FEF712FF01210906F8
:101DC0001B48FEF71DFF1A48FEF730FE1848FEF7C5
:101DD0000DFF1748FEF70FFF00BF1548FFF7DAF8B1
:101DE00004467F1C781C002801D0002CF5D0012C63
:101DF00017D10F48FEF71AFE00BF0D48806A80B267
:101E000030600B48FEF7DCFE21060948FEF7E8FECD
:101E100000BF05480069A0430349086100BF0025D1
:101E200000E001252846F8BD00A40140FFFF0F0097
:101E3000005C014000B587B0FF2001300190012017
:101E400002900390002004900590069001A91B4881
:101E5000FFF78AFB012040020190012002900390CD
:101E6000002004900590069001A91448FFF77CFB20
:101E700040200190012002900390002004900590E2
:101E8000069001A90D48FFF76FFB8020019001200B
:101E900002900390002004900590069001A9074845
:101EA000FFF762FB012149020448FFF75AFC802139
:101EB0000248FFF756FC07B000BD0000800C004050
:101EC00010B508480078002800D110BD06480078F9
:101ED000002800D0F9E700200249087000F014F84B
:101EE00000BFF2E7420000204300002010B500F0E0
:101EF00013F801200249087014200249087010BD2F
:101F0000420000204300002010B510210148FFF7D7
:101F100025FC10BD400C004010B510210148FFF712
:101F200017FC10BD400C00401FB50120009003209D
:101F300001900020029003906846FEF77BFD1FBDD4
:101F400000B591B020200B9003200C9000200D9044
:101F50000E900F9010900BA93E48FFF705FB102044
:101F60000B9003200C9000200D900E900F9010907D
:101F70000BA93848FFF7F8FA0120C0020B900320A4
:101F80000C9000200D900E900F9010900BA93148EE
:101F9000FFF7EAFA04200B9003200C9000200D902C
:101FA0000E900F9010900BA92A48FFF7DDFA082039
:101FB0000B9003200C9000200D900E900F9010902D
:101FC0000BA92448FFF7D0FA0120C0020B90032090
:101FD0000C9000200D900E900F9010900BA91D48B2
:101FE0004038FFF7C1FA012000030B9003200C904A
:101FF00000200D900E900F9010900BA915484038BE
:10200000FFF7B2FA002000900190012168460172AA
:1020100041720020039004900590502006900F20FC
:102020000790002108A801700320400409900120B6
:1020300080050A9069460848FEF7E8FD40210648F9
:10204000FEF7DEFD012109060348FEF7D9FD11B0B8
:1020500000BD0000C00C0040005C014010B5FFF75F
:1020600063FFFFF76DFF10BD00BF01200549086148
:1020700000BF00BF0846C068012108430149C8608D
:1020800000BF70470030014000B587B000200090CD
:102090001F20019000200290054803900020059029
:1020A0000690049069460348FEF788FF07B000BD1C
:1020B000E70300000030014010B5032000041D4973
:1020C00049680F221204914301431A4A516000BF2C
:1020D00000BF10464068012108431146486000BF18
:1020E000002015490968890889000143124A1160D6
:1020F00000BF00BF0F490968C908C90001430D4A64
:10210000116000BF00BF1146096807221202914307
:102110000143084A116000BF00BF11460968072249
:10212000120491430143034A116000BF00F0D4FD43
:1021300010BD0000002400400010004000B58DB02C
:102140000120400307900220089000200990012000
:102150000A9000200B900C9007A91148FFF704FA91
:1021600001208003079002200890002009900A9027
:102170000B900C9007A90A48FFF7F6F90020019090
:102180004B20C001029003200690402003900020C5
:102190000490059001A90348FFF7D0FB0DB000BDE6
:1021A000000C00400020014010B500BFFF200130AE
:1021B0000949886000BF00BF084640688915084388
:1021C0000549486000BF00BF0120886000BF084685
:1021D000FFF7A5FB10BD00000020014000B58DB049
:1021E00001204003079002200890002009900A90E7
:1021F0000B900C9007A91148FFF7B6F90120800356
:10220000079002200890002009900A900B900C90F3
:1022100007A90A48FFF7A8F9002001904B20C00148
:102220000290032006904020039000200490059027
:1022300001A90348FFF782FB0DB000BD400C004030
:102240000068014010B500BFFF20013009498860D7
:1022500000BF00BF0846406889150843054948602B
:1022600000BF00BF0120886000BF0846FFF752FB97
:1022700010BD00000068014000B58DB0012007903E
:10228000022008900020099001200A9000200B9065
:102290000C9007A91048FFF767F9022007900890F3
:1022A000002009900A900B900C9007A90A48FFF7AC
:1022B0005BF9002001904B20C001029003200690A2
:1022C0004020039000200490059001A90348FFF7E7
:1022D00035FB0DB000BD0000400C00400070014017
:1022E00010B500BFFF2001300949886000BF00BF62
:1022F00008464068891508430549486000BF00BF8B
:102300000120886000BF0846FFF70EFB10BD0000EB
:102310000070014000B58DB00120079002200890A8
:102320000020099001200A9000200B900C9007A932
:102330001048FFF719F90220079008900020099033
:102340000A900B900C9007A90A48FFF70DF900209E
:1023500001904B20C0010290032006904020039082
:1023600000200490059001A90348FFF7E7FA0DB09B
:1023700000BD0000000C00400074014010B500BF1B
:10238000FF2001300949886000BF00BF084640684F
:10239000891508430549486000BF00BF01208860D7
:1023A00000BF0846FFF7C5FA10BD000000740140E9
:1023B00010B504210148FFF7CBF910BD000D004016
:1023C00010B504210148FFF7C3F910BD000D00400E
:1023D00010B5002819DB1A4A03231B02D218830800
:1023E0009B00D2588307DC0EFF23A3409A438B0740
:1023F0001B0E8407E40EA3401A43114B032424024E
:102400001B198408A4001A5118E00E4A03071B0F79
:10241000083B9B089B00D2588307DC0EFF23A34098
:102420009A438B071B0E8407E40EA3401A43054B07
:102430000407240F083CA408A4001A5110BD000092
:1024400000E100E01CED00E000B587B01020019035
:10245000012002900020039004900590069001A9AD
:102460009148FFF781F82020019001200290002080
:10247000039004900590069001A98B484030FFF727
:1024800073F8102001900120029000200390049026
:102490000590069001A984484030FFF765F80120B7
:1024A000019002900020039004900590069001A9ED
:1024B0007D48C030FFF758F80220019001200290BB
:1024C0000020039004900590069001A97648C03042
:1024D000FFF74AF8082001900120029000200390A5
:1024E00004900590069001A96F48C030FFF73CF8B2
:1024F0000420019001200290002003900490059098
:10250000069001A96848C030FFF72EF80820019016
:10251000012002900020039004900590069001A9EC
:1025200061484030FFF720F804200190012002901C
:102530000020039004900590069001A95A4840306D
:10254000FFF712F801200003019001200290002003
:10255000039004900590069001A95348FFF704F8F2
:102560000220019001200290039000200490059029
:10257000069001A94C488030FEF7F6FF0820019034
:10258000012002900020039004900590069001A97C
:1025900045484038FEF7E8FF0420019001200290F2
:1025A0000020039004900590069001A93E48403811
:1025B000FEF7DAFF01200190002002900390012035
:1025C000049000200590069001A937484030FEF79E
:1025D000CBFF012000030190002002900390012016
:1025E000049000200590069001A92F488030FEF746
:1025F000BBFF0120C0030190002002900390012046
:10260000049000200590069001A92748FEF7ACFF32
:1026100020200190002002900390012004900020CF
:102620000590069001A92048C030FEF79DFF0120CB
:102630000003019001200290002003900490059077
:10264000069001A918484038FEF78EFF0120C0020D
:1026500001900120029000200390049005900690C4
:1026600001A911484038FEF77FFFFFF74DFC02F04B
:1026700063FA02F03DFF02F06FFA02F031FF02F060
:1026800073FAFEF763F902F019FB02F01FFB02F088
:1026900025FB02F033FBFFF7CDFB02F03FFB02F01E
:1026A00003FB07B000BD0000400C004070B50446BD
:1026B0000D4605480078002800D170BD2946204607
:1026C00001F0F6F900BFF8E70000002070B50446FD
:1026D0000D462946204601F0EBF970BD10B50648BD
:1026E00000780649C8700846C0781930087106217C
:1026F0000248FFF7EBFF10BD000300206000002040
:1027000070B500240025C821A848FDF7A1FD682266
:102710002146641CA5484254AD222146641C425403
:1027200000222146641C4254A14802782146641CC0
:102730009E4842549E4802792146641C9B4842545C
:102740009B4880880004020E2146641C974842542E
:102750009748027A2146641C944842549448008960
:102760000004020E2146641C904842549048027BAB
:102770002146641C8D4842548D48808901122246AE
:10278000641C8A4881548A48827B2146641C87489D
:1027900042548748C08901122246641C83488154F0
:1027A0008348027C2146641C804842548048008A49
:1027B00001122246641C7D4881547D48027D2146D9
:1027C000641C7A4842547A48808A0004020E2146EA
:1027D000601C84B2754842547548027E2146601CD4
:1027E00084B2724842547248008B0004020E2046A4
:1027F000611C8CB26D490A546D48027F2046611CF1
:102800008CB26A490A546A48808B00122146621CC5
:1028100094B2664A50546648827F2146601C84B256
:10282000624842546248C27F2046611C8CB25F49B4
:102830000A545F48203002782046611C8CB25B4904
:102840000A545B48203042782046611C8CB25749BC
:102850000A5408190F2256492231FDF7E0FC2046A0
:102860000F3084B2514908190F2251493131FDF717
:10287000D6FC20460F3084B24C49081914224C492A
:102880004031FDF7CCFC2046143084B2484840303B
:10289000027D2046611C8CB244490A5444484030B1
:1028A000C27D2046611C8CB240490A5440484030E9
:1028B000827E2046611C8CB23C490A543C48403020
:1028C000C27E2046611C8CB238490A543848C06D1B
:1028D000C2B22046611C8CB234490A543448C06DDF
:1028E0000004020E2046611C8CB230490A540819BB
:1028F00010222F496031FDF792FC2046103084B23F
:1029000001212B4860300174027C2046611C8CB28E
:1029100026490A54012126486030C174C27C2046F1
:10292000611C8CB221490A5421486030027D204646
:10293000611C8CB21D490A5400222046611C8CB2D5
:102940001A490A54084601191948833002780A7056
:1029500040784870A01C84B2144801191448813092
:1029600002790A7040794870A01C84B2A01C0F49FB
:1029700088700020085500BF08E00C48005D0B4936
:10298000495D401809490855681C85B2A542F4DB29
:10299000601C84B216222046611C8CB203490A5482
:1029A00021460248FFF792FE70BD00007806002025
:1029B00000030020F8B507460D46002400262548F0
:1029C0000078002800D1F8BDC8212348FDF740FC5D
:1029D00068222046611C8CB21F490A54AF2220464F
:1029E000611C8CB21C490A5400222046611C8CB226
:1029F00019490A54194802782046611C8CB21649BC
:102A00000A5408192A463946FDF709FC601984B2B0
:102A1000A01C1149887000200855002608E00E48C7
:102A2000005D0D49895D40180B490855701C86B240
:102A3000A642F4DB601C84B216222046611C8CB2D4
:102A400005490A5421460448FFF740FE02F074F895
:102A500000BFB8E7590000207806002000030020DE
:102A6000F3B581B005460024002000900026002721
:102A7000CEE0601D0299884200DDCAE0285D68282A
:102A800036D1601C285CAA2833D1A01C2E5C642E91
:102A90002EDAE01C285C604909788842F0D1A01940
:102AA000285C1628ECD100200090002707E0E019F0
:102AB000295C00980818C0B20090781C87B2701E7C
:102AC000B842F4DCA019401E295C00988142D7D19D
:102AD000002052490870201D291806224E487D30DA
:102AE000FDF79DFB02F088FCFFF7F8FDA01984B20A
:102AF0008CE0601C285CAC2841D1E01C285C464975
:102B0000097888423BD1601D285C162837D1601CAB
:102B1000285CAC287AD1A01C2E5C642E76DAE01CEE
:102B2000285C3D490978884270D1A019401E285C74
:102B300016286BD100200090002707E0E019295CDF
:102B400000980818C0B20090781C87B2B01EB84236
:102B5000F4DCA019801E295C0098814256D1002027
:102B60002E4908702E48807A012805D1FFF7C8FD4C
:102B70007D2000012B490880A01984B246E0601C2A
:102B8000285CAE2842D1E01C285C234909788842A1
:102B90003CD1201D285C682838D1601C285CAE28F8
:102BA00034D1A01C2E5C642E30DAE01C285C1A495B
:102BB000097888422AD1A019401E285C162825D100
:102BC00000200090002707E0E019295C0098081811
:102BD000C0B20090781C87B2B01EB842F4DCA019D5
:102BE000801E295C0098814210D101200B49087099
:102BF0000D480078002801D101F0A6FFB21F91B264
:102C0000221DA81801F036F8A01984B2601C84B205
:102C10002FE700BFFEBD0000000300205900002088
:102C2000F4020020480000204400002070B5002479
:102C300000250720254908709F20487001F0E1F920
:102C4000802001F093F9002001F090F902211F4843
:102C500001F0C9F901F0E8F910201C4908700020C2
:102C6000487001F0CEF9802001F080F9052001F0D4
:102C70007DF90221154801F0B6F901F0D5F91420CB
:102C8000FEF704FC01F0BDF9802001F06FF904208B
:102C900001F06CF901F0B5F9812001F067F902212A
:102CA0000B4801F032F901F0BFF909480078000241
:102CB00008490880084600880549497840180549B0
:102CC0000880084604882546284670BD500000202C
:102CD000F00300200404002010B5464800684007B7
:102CE000400F030001F0A9FA073C050A3C0F3237F8
:102CF0003C00414800684149086051E000F008F993
:102D00003E4908604CE03B48406A8003800F002841
:102D100006D0012809D002280CD0032814D10EE0D7
:102D20004B204003354908600EE04B20C002334978
:102D3000086009E04B2080023049086004E04B2025
:102D400040022E49086000BF00BF29E02C480068FF
:102D50002A49086024E07D200002284908601FE01D
:102D6000244840680003000F002813D0012804D035
:102D7000022806D003280CD107E022481F4908602A
:102D80000CE021481D49086008E020481B49086004
:102D900004E000BF1E481949086000BF00BF00BF23
:102DA00000BF144800684005400F042806D00528DD
:102DB0000AD006280ED0072818D111E00F48006865
:102DC00040080E49086012E00C48006880080B4972
:102DD00008600CE009480068C0080849086006E07F
:102DE0000648006800090549086000E000BF00BF10
:102DF00010BD000000240040840000208800002056
:102E0000800000200024F40000366E010048E80134
:102E100000127A0010B53948406B012109030843BC
:102E2000364948630846406B80210843334948636C
:102E3000084600680121C90608433049086055204A
:102E4000C8610320090548602D488069000C2C49A1
:102E5000098BC94389B2884202D12948806900E0C0
:102E60001020C006C00E274988632548C03000687E
:102E7000000C2349C0310988C94389B2884203D173
:102E80001F48C030006800E08020C0B21B49886045
:102E90001B48C0304068000C1949C0318988C943BB
:102EA00089B2884203D11648C030406800E08020D3
:102EB000C0B21249886212488030006A000C104982
:102EC0008031098CC94389B2884203D10C488030D3
:102ED000006A00E08020C0B2084948610A484068A2
:102EE000FF218131084308494860052007490860EF
:102EF00001204860FFF7F0FE10BD000000240040F4
:102F000080FAFF1F00200040C00C00400028004055
:102F100010B500242C48C0688007C00F002802D0DC
:102F200001281BD117E0284840680003000F002843
:102F30000DD0012804D0022804D0032806D103E0D4
:102F4000224C06E0224C04E0224C02E000BF224C5E
:102F500000BF00BF02E02148046800BF00BF1A485C
:102F6000C0684006400F030001F067F90805070933
:102F70000B0D13151B1D00BF15E0640813E0A4081A
:102F800011E0E4080FE00C212046FDF7B1F80446FB
:102F900009E0240907E018212046FDF7A9F80446B6
:102FA00001E0640900BF00BF0748C0684002400E4E
:102FB000401C44430448C0680007C00F002800D0EC
:102FC0006400204610BD0000002400400024F400EE
:102FD00000366E010048E80100127A0084000020EB
:102FE000FFB581B0074615460A9E002400200090D8
:102FF00068222146641C344842542A782146641CC5
:1030000042546A782146641C4254AA782146641CC2
:103010004254EA782146641C42542A792146641CB1
:1030200042546A792146641C425400222146641CA1
:1030300042542146641C42542246641C0299815425
:1030400030461230C2B22146641C1F4842543046FA
:1030500012300004020E2146641C1B4842542146D3
:10306000641C47543804020E2146641C164842541E
:1030700000222146641C4254014608193246049934
:10308000FDF7CDF8A01984B221460F4802F00EFAE0
:1030900000900098C2B22046611C8CB20A490A54C2
:1030A000009800122146621C94B2074A505416221E
:1030B0002046611C8CB204490A542146024800F0A3
:1030C000D9FD05B0F0BD000040070020F3B587B082
:1030D00005460024002700200690059004900390E8
:1030E000029001900026D1E12046113008998842D3
:1030F00000DDCCE1285D682870D1002720460B3028
:103100002F5C3F02401E285CC01987B2E119089865
:10311000814263DCE019401E285C1628ECD10020B7
:103120000690E019801E285C069006980002069022
:10313000E019C01E295C0698081880B20690F91E96
:10314000281902F0B3F90590059906988842D3D161
:10315000601C29180622CF48FDF761F8E01D285CA5
:10316000002876D120460830285C002872D12046FD
:103170000930285C8138030001F05FF8060405FD82
:10318000FCFBFAFB77E10020049020460D30285C20
:10319000049004980002049020460C30295C0498A6
:1031A000081880B20490BC4904984018002816D032
:1031B000202806D0B9494018002808D002287DD11F
:1031C00088E00020B6490880B649087035E1002043
:1031D000B34908800220B34908702EE154E12BE086
:1031E000204611308019285C002800D125E0039882
:1031F000002808D1204611308019285C2E2819D1CA
:10320000F0B2039016E00298002808D12046113051
:103210008019285C2E280DD1F0B202900AE00198A6
:10322000002807D1204611308019285C2E2801D1B2
:10323000F0B20190701C86B2D2E700BF039801285B
:1032400009D120461130285C3038C1B296488176C9
:1032500014E015E111E1039802280FD12046113046
:10326000285C0007010E90488176817E204612304E
:10327000285C30380818C1B28B48817603990298CF
:10328000401A02280AD12046113003994018401CE8
:10329000285C0007010E84481A3041700298301AE9
:1032A000022810D180481A30427820461130029905
:1032B0004018401C285C3038101800E0BCE0C1B257
:1032C00079481A30417000207549088001207549FD
:1032D0000870B2E020461130285C7349403908700C
:1032E00020461330285C4880084680780006000C91
:1032F00048800846418820461230285C08186A49F0
:103300004039488020461530285C8880084600797E
:103310000006000C88800846818820461430285C0E
:10332000081861494039888020461630285C887129
:1033300020461730285CC87120461830285C087277
:1033400020461930285C487220461A30285C887262
:1033500020461B302918042253483538FCF75FFFFC
:1033600020461F30285C50494039C873204603E08E
:103370007FE07FE064E062E02130285C088208465C
:10338000007C0006000C08820846018A2046203096
:10339000285C081844494039088220462230291800
:1033A0000F2241482E38FCF73AFF204631302918C9
:1033B0000F223D481F38FCF732FF204640302918C5
:1033C000142239481038FCF72AFF20465430295C73
:1033D0003548017120465530291810223248401DC9
:1033E000FCF71DFF20466530295C2F4841752046BB
:1033F0006630295C2C48817520466730295C2A4854
:10340000C17520466830295C27480176204669301E
:10341000295C254841760079212806DA224800797E
:10342000022802DD00201E49088020A0FDF7DCFAFA
:1034300004201C49087000E000BF00BF1BE01AE038
:103440000020049020460D30285C0490049800026F
:10345000049020460C30295C0498081880B204902F
:10346000174904984018002800D100E000BF00BFB1
:1034700001E000E000BF00BF00E000BF00BF00E0CF
:1034800000BF00BFE01984B2601C84B22CE600BF0C
:1034900009B0F0BD77030020EFDFFFFF1030FFFF22
:1034A000F402002045000020C8030020B2E9D1AF9B
:1034B000C9CFB8E6D0C5CFA2B7B5BBD80D0A0000BA
:1034C000DE3FFFFF10B5294800780B284DD101F0F1
:1034D00073FB7D21C90088420AD92548407D01211E
:1034E00008432349487501F023FC01F0D3FB05E0B4
:1034F0001F48407D022108431D49487501F067FBC4
:103500007D21C90088420AD91948807D01210843DC
:103510001749887501F002FC01F0C6FB05E014486C
:10352000807D02210843124988751148407D032897
:103530001BD10F48807D032817D101210C48C1758C
:1035400001F03AFB7D21C90088420ED201F03FFB19
:103550007D21C900884208D20121054881760020DA
:103560000449088003200449087010BD440000206D
:1035700040030020F40200204500002008B5002090
:10358000034B044A022100900348FFF729FD08BDC0
:10359000660000207703002003F00000F8B5002447
:1035A00000250026002700BF33484068FF21013175
:1035B0000840000A044600BF2F4880680840000AFF
:1035C000054600BF2C484068C007C00F0121484095
:1035D0004840064600BF28488068084048404840A8
:1035E0000746002C19D0012D17D100BF22480069D1
:1035F0002249234A1288885421480088401C2049C7
:10360000088008460088C82801DB002008800120C7
:103610001C49087064201C490880012E2AD1012F02
:1036200028D11A48407919490979884209D100BF3F
:1036300011484068B0431049486000BF0120144958
:103640000870124840791149097988420CDA0F480C
:1036500000680E4A5279815C0748FEF7E7FA0B488A
:103660004079401C0949487100BF01200249886027
:1036700000BF00BFF8BD0000002001401004002082
:1036800056000020540000205E0000206806002044
:103690005800002010B5FEF751FDFEF785FD00F043
:1036A00003F800F069FA10BD08B5022000900A2165
:1036B0006846FEF70BF908BDF8B500240025002682
:1036C000002700BF33484068FF2101310840000A4D
:1036D000044600BF2F4880680840000A054600BF26
:1036E0002C484068C007C00F0121484048400646AA
:1036F00000BF284880680840484048400746002CE2
:1037000019D0012D17D100BF224800692249234A50
:103710001288885421480088401C204908800846A7
:103720000088C82801DB0020088001201C4908709F
:1037300064201C490880012E2AD1012F28D11A4863
:10374000407919490979884209D100BF1148406878
:10375000B0431049486000BF012014490870124866
:1037600040791149097988420CDA0F4800680E4AFD
:103770005279815C0748FEF753FA0B484079401CA8
:103780000949487100BF01200249886000BF00BF9D
:10379000F8BD0000006801408C00002004000020FB
:1037A0000300002008000020E402002002000020A6
:1037B00010B5FEF713FDFEF745FD00F003F800F02D
:1037C00051FA10BD08B5002000900B216846FEF7A5
:1037D0007DF808BDF8B5002400250026002700BFAD
:1037E00032484068FF2101310840000A044600BF0A
:1037F0002E4880680840000A054600BF2B484068F4
:10380000C007C00F012148404840064600BF274876
:1038100080680840484048400746002C19D0012DD8
:1038200017D100BF214800692149224A12888854D3
:1038300020480088401C1F49088008460088C82886
:1038400001DB0020088001201B49087064201B490F
:103850000880012E28D1012F26D119484079184916
:10386000097988420CDA16480068154A5279815C59
:103870000E48FEF7E1F912484079401C10494871A2
:1038800000BF01200949886000BF0D4840790C49FC
:103890000979884208D100BF0448406840084000C8
:1038A0000249486000BF00BFF8BD00000070014041
:1038B00008080020700000206E0000207400002026
:1038C000600A002010B5FEF7D7FCFEF709FD00F0F6
:1038D00003F800F065FA10BD08B5022000900C2135
:1038E0006846FDF7F3FF08BDF8B500240025002663
:1038F000002700BF32484068FF2101310840000A1C
:10390000044600BF2E4880680840000A054600BFF4
:103910002B484068C007C00F012148404840064678
:1039200000BF274880680840484048400746002CB0
:1039300019D0012D17D100BF214800692149224A21
:103940001288885420480088401C1F490880084677
:103950000088C82801DB0020088001201B4908706E
:1039600064201B490880012E28D1012F26D1194837
:1039700040791849097988420CDA16480068154AD6
:103980005279815C1448FEF75DF912484079401C79
:103990001049487100BF01200949886000BF0D48E7
:1039A00040790C490979884208D100BF0448406831
:1039B000400840000249486000BF00BFF8BD000059
:1039C00000740140700A002078000020760000207A
:1039D0007C000020C80C00200078014010B5FEF7E4
:1039E00099FCFEF7CBFC00F003F800F043FA10BDA1
:1039F00008B5022000900D216846FDF767FF08BD5D
:103A000010B586B00446002C01D1019001E00220DF
:103A1000019001208003009000200290012003907B
:103A200000200490059069460248FDF79DFD06B010
:103A300010BD0000000C004010B5174800780128A8
:103A400008D10020144908700520FDF71FFD002053
:103A5000FFF7D6FF1148007801281BD110480088D5
:103A6000002817D1FEF742FA00200C4908700D48D3
:103A700002880D490D48FCF7D2FB0A4801880B4823
:103A8000FEF714FE074801880848FEF7E9FF00200A
:103A90000449088010BD0000580000205400002098
:103AA0005E0000205600002010040020D8040020F2
:103AB00070B505460C46002C00D170BD6420274926
:103AC000088000BF2648007925494979884203D0FB
:103AD000224800880028F5D10320FDF7D7FC642098
:103AE000204908801D49088013E0012080031E49F9
:103AF000C9690140814201D1012100E00021002972
:103B000002D1642017490880164800885A2800DA34
:103B100003E0124800880028E7D100BF0120FFF72A
:103B20006FFF002011490870224629461048FCF713
:103B300076FB0F480A4908600C710120487100BFEC
:103B40000C49886000BF0846FDF7E9FE044800689C
:103B500001780848FEF76AF800BFAEE75A00002077
:103B6000680600205C000020000C00405800002087
:103B7000A005002000200140012002490871487181
:103B8000704700006806002010B51548007801282D
:103B900024D114480088002820D1FEF7A7F900207E
:103BA0000F4908701048028810491148FCF737FB8C
:103BB0000D4801880E48FEF7FDFE0B4801880C48B1
:103BC000FEF774FD084801880948FFF77FFAC8210D
:103BD0000748FCF73DFB00200349088010BD0000AA
:103BE0000300002008000020040000208C000020BA
:103BF0005401002070B505460C46002C00D170BD64
:103C00007D20C0001349088000BF13480079124985
:103C10004979884203D00F4800880028F5D1224610
:103C200029460E48FCF7FBFA0C480B4908600C715A
:103C30000120487100BF0A49886000BF0846FDF7AF
:103C400069FE0548006801780548FDF7E9FF00BFF7
:103C5000D5E7000006000020E40200201C0200203E
:103C60000068014001200249087148717047000056
:103C7000E4020020F8B505460E46002412480078FC
:103C8000012817D100BF0FE000BF002000900F48AF
:103C90000F49086008460068009000BF32210D48B7
:103CA000FFF7A8FF601C84B2282CEDDB05210A4831
:103CB000FFF7A0FF31462846FEF7F8FC31462846BC
:103CC000FFF798FFF8BD0000410000205A5A341257
:103CD000001401400A0000203C00002010B50E48EE
:103CE0000078012816D10D480088002812D1FEF76F
:103CF000FDF80020084908700948028809490A4867
:103D0000FCF78DFA06480188074800F00FF80020FC
:103D10000349088010BD00006E00002074000020E0
:103D20007000002008080020D008002070B505466B
:103D30000C46002C00D170BD64201549088000BFDE
:103D40001448007913494979884203D01048008803
:103D50000028F5D10120FDF799FB224629460E489F
:103D6000FCF75DFA0C480B4908600C7101204871A2
:103D700000BF0A49886000BF0846FDF7D5FD054829
:103D8000006801780548FDF757FF00BFD3E7000042
:103D900072000020600A0020980900200070014095
:103DA000012002490871487170470000600A002034
:103DB00010B50E480078012816D10D48008800285B
:103DC00012D1FEF793F800200849087009480288CC
:103DD00009490A48FCF723FA06480188074800F019
:103DE0000FF800200349088010BD00007600002075
:103DF0007C00002078000020700A0020380B002092
:103E000070B505460C46002C00D170BD64201549E4
:103E1000088000BF1448007913494979884203D0CB
:103E2000104800880028F5D10120FDF72FFB22461D
:103E300029460E48FCF7F3F90C480B4908600C7151
:103E40000120487100BF0A49886000BF0846FDF79D
:103E500070FD0548006801780548FDF7F3FE00BFD6
:103E6000D3E700007A000020C80C0020000C0020DE
:103E70000074014001200249087148717047000038
:103E8000C80C00200EB501A8FDF716FD01A90748D2
:103E9000FDF778FC00BF002000900548034908604A
:103EA00008460068009000BF0EBD000000140140ED
:103EB0005A5A3412002002E000BF411CC8B2322816
:103EC000FADB704770B50025002000F043F90020B0
:103ED00000F0C2F8FFF7EEFF002412E0012000F02E
:103EE000BBF8FFF7E7FF00F01BF9002802D08020A5
:103EF00020410543002000F0AFF8FFF7DBFF601C16
:103F0000C4B2082CEADB284670BD70B506460D46E3
:103F1000002428E0FFF7D6FF3055681EA04210DDD0
:103F2000012000F017F9002000F0C8F8FFF7C2FFE9
:103F3000012000F091F8FFF7BDFF002000F08CF8A1
:103F40000FE0012000F006F9012000F0B7F8FFF7BC
:103F5000B1FF012000F080F8FFF7ACFF002000F077
:103F60007BF8601CC4B2AC42D4DB70BD70B50446B3
:103F7000012000F0EFF8002000F06EF8002518E0B6
:103F800080202040002803D0012000F097F802E0B4
:103F9000002000F093F8FFF78DFF012000F05CF89F
:103FA000FFF788FF002000F057F86006040E681C39
:103FB000C5B2082DE4DB002000F0CCF8FFF77AFF53
:103FC000012000F049F8FFF775FF00F0A9F800287C
:103FD00002D100F041F802E0002000F03DF8FFF7C8
:103FE00069FF012070BD70B505460E46002404E04F
:103FF000285DFFF7BBFF601CC4B2B442F8DB0120B0
:1040000070BD10B5012000F0A5F8012000F056F8B1
:10401000012000F021F8FFF74DFF002000F04EF8DE
:10402000002000F019F810BD10B5012000F092F842
:10403000002000F043F8012000F00EF8FFF73AFFEF
:10404000012000F03BF8002000F006F8FFF732FFF7
:10405000012000F001F810BD10B50446012C13D169
:1040600014480078002802D001280BD105E0FF2178
:1040700001311148FDF775FB05E040210E48FDF7C1
:1040800070FB00E000BF13E00A480078002802D06F
:1040900001280BD105E0FF2101310748FDF75BFB4B
:1040A00005E040210448FDF756FB00E000BF00BFDB
:1040B00010BD000052000020800C004010B50446E6
:1040C000012C13D114480078002802D001280BD10C
:1040D00005E0012149021148FDF743FB05E080217D
:1040E0000E48FDF73EFB00E000BF13E00A480078F1
:1040F000002802D001280BD105E001214902074820
:10410000FDF729FB05E080210448FDF724FB00E0D2
:1041100000BF00BF10BD000052000020800C004016
:1041200010B50A480078002802D001280BD105E01C
:10413000012149020648FDF70BFA10BD8021044811
:10414000FDF706FAF9E70020F7E70000520000202B
:10415000800C004010B586B0044601200290039008
:10416000002004900590012C02D10120019001E073
:10417000002001900C480078002802D001280FD1BF
:1041800007E001204002009069460848FDF7ECF97D
:1041900007E08020009069460448FDF7E5F900E05B
:1041A00000BF00BF06B010BD52000020800C0040D0
:1041B0007CB51546024600201C4600290BD0491E3E
:1041C00000920191044B6A462146284600F00CF902
:1041D000009A002111707CBD214B00002021020CAF
:1041E00001D010211046020A01D0104608390209F8
:1041F00001D01046091F820801D01046891E4208CE
:1042000001D0881E7047081A7047F8B582B28BB289
:10421000040C0D0C10465843002126465E43370C13
:1042200036048019794116466E43370C36048019DE
:10423000794126466E438919F8BD30B47446641E30
:104240002578641CAB4204D3635D5B00E31830BC8B
:1042500018471D46F8E702E008C8121F08C1002AE7
:10426000FAD170477047002001E001C1121F002AF7
:10427000FBD17047F0B51FB486B00998089A030DBA
:104280000021024314D05148514A181850430514D4
:104290001198012810981AD0281A401C00264D4F5A
:1042A0004D49009601910490002812DA444211E031
:1042B0001198012449A3012801D11098C1430698FF
:1042C000119A84600360C26041600BB0F0BD40424F
:1042D000E4E70446210500203F4A001C51410391B8
:1042E000029012E0E00707D032463B460199009861
:1042F000FCF76CF80191009032463B461046194697
:10430000FCF764F806460F466410002CEAD10498C6
:10431000039B0028029A0999089806DAFCF756F8D8
:10432000019B009AFCF752F805E0FCF7B7F8019BF7
:10433000009AFCF7B3F804460E460022284BFCF71F
:10434000D9F903D80020C043014607E00022254BDD
:1043500020463146FBF788FFFCF7ACF9102409E052
:10436000002C0ADB0A220023FBF7ECFE079B30320D
:104370001A55641E02460A43F2D11122641C079B9F
:10438000121B1C19119B012B03D0012308430ED1D2
:104390000AE0084304D0112010900020119077E724
:1043A0001098151A6D1E0BE01098824202DD002352
:1043B0006D1C03E0824201DA00236D1E002BEED05B
:1043C000069811998260C16030C07EE701FCFFFF52
:1043D000104D0000000014400000F03F30000000CD
:1043E0000000F0430000E03FFFB597B0064600250F
:1043F00018E2252877D100242746FD49049400E0DF
:104400000443761C32780120203A90400842F7D1CC
:1044100030782A280ED00222307801463039092916
:1044200016D804990A235943303940181443761C8E
:104430000490F1E7189802C804911890002904DA52
:104440000120400304434842049002200443761CA8
:1044500030782E2814D1042004437078761C2A2842
:1044600009D11898761C80C8189009E00A214F439A
:10447000303FC719761C3078014630390929F5D903
:1044800030786C2810D006DC4C281AD068280ED062
:104490006A2817D104E0742813D07A2812D110E0CA
:1044A0000120400504430CE00121090501E003213E
:1044B00009050C437178814203D1012000052418BD
:1044C000761C761C3078119066280BD013DC5828A7
:1044D0007DD009DC00287BD04528F6D04628F4D0D2
:1044E00047281AD1A5E118E0632835D0642870D098
:1044F000652812D19DE170286CD008DC6728F1D0C6
:1045000069287BD06E280DD06F2806D1BAE07328B9
:104510002ED0752871D0782859D01A9A19999047B9
:104520006D1C7EE16002400F022809D003280DD0E7
:104530000428189801680DD00D60001D189070E1D6
:104540001898EA1701680D604A60F6E71898016844
:104550000D80F2E70D70F0E718986A460178117245
:10456000001D18900020507202A80090012005E064
:10457000189802C8189000200091C04361070DD51B
:10458000002101E00199491C0191B94212DA8142EE
:10459000F8DB009A515C0029F4D10BE0002101E026
:1045A0000199491C01918142FADB019A0099895CC9
:1045B0000029F5D1019904981A9B471A21463846DB
:1045C000199A00F097FA0199401945180BE04FE04D
:1045D0002CE113E04EE0009800990078491C00910E
:1045E0001A9A199990470198401E0190401CF2D1E7
:1045F000214638461A9B199A10E137E00A2000211B
:10460000009001916002410F022907D0189A01CA57
:104610001892C2179446032908D00AE01898C01DC2
:10462000C108C90005C91891944607E000B2C21735
:104630009446042902D140B2C1178C46002261463B
:10464000944506DA0A460021404291418C462D21CC
:1046500002E0210504D52B216A461173012103E0F4
:10466000E10701D02021F7E7029155E00A200AE096
:10467000102008E010200090002104200443019144
:10468000082703E008200021019100906002410FFB
:10469000022907D0189A01CA1892002294460329C9
:1046A00008D008E01898C01DC108C90005C91891B4
:1046B000944603E080B2042900D1C0B200210291E7
:1046C000210729D51199702906D0009A1021019B44
:1046D0004A401A4305D00EE040216A461173012179
:1046E00008E06146014306D030216A4611731199F2
:1046F000517302210291009A0821019B4A401A43FA
:104700000AD16146014301D1610705D530216A46CE
:10471000117301217F1E02911199582904D035A1EE
:104720000E910DA90D910DE037A1F9E76146019BAE
:10473000009AFBF707FD0E9B8C469B5C0D9A521E60
:104740000D92137061460143F0D10D9805A9081A26
:1047500020300190600703D501200004844300E06D
:1047600001270198874201DD381A00E000200199F5
:1047700000904118029809180498401A0490E00328
:1047800006D421461A9B199A049800F0B3F94519EA
:10479000002706E003A81A9AC05D199990476D1C7E
:1047A0007F1C02988742F5DBE0030CD521461A9B5B
:1047B000199A049800F09EF9451904E01A9A3020DD
:1047C000199990476D1C0099481E00900029F5DC4E
:1047D00008E00D980D990078491C0D911A9A1999C5
:1047E00090476D1C0199481E01900029F1DC63E19E
:1047F00009280100303132333435363738396162B7
:10480000636465660000000030313233343536377A
:1048100038394142434445460000000000F05AF94F
:104820004519761C3078002800D0E2E528461BB0F8
:10483000F0BD600700D406271898C01DC108C90044
:1048400048680A680831C30FDB071891190001D0C6
:104850009CA108E0210501D59BA104E0E10701D05E
:104860009AA100E09AA1430011985B081091652875
:104870000CD006DC452809D046281DD0472841D158
:1048800041E0662818D067283CD13CE00021112F78
:1048900001DB112000E0781C0191009008A911A80B
:1048A000FFF7E8FC139905910021119A15927F1CDE
:1048B00012980197009150E00120C0070390012059
:1048C000019008A9009711A8FFF7D4FC139A149936
:1048D00005920022119B009212981593059A01925D
:1048E000002901D0104602E0791C40180190381AC6
:1048F00001D5019804E04042401E0090781C0190D0
:10490000C01B029043E0012F00DA01270021112F84
:1049100001DD112000E038460191009008A911A89E
:10492000FFF7A8FC13990591119A0021129815928E
:104930000091019721070CD40599B94201DB019937
:1049400000E00191012904DD159A491E515C3029CE
:1049500006D0B84201DA011D05DA0121029115E005
:104960000199491EEDE7002805DC009941180091E6
:104970000199091A03E0019A411C914200DD01915D
:104980000099401A401C02900120C00703902007A4
:1049900006D402990198814202DB0020C0430290B4
:1049A00000206946C87707AF012103980337C9077C
:1049B000884224D0022011902B20129003980028C6
:1049C0000CDA404203902D20129007E00A21039850
:1049D000FBF78EFB30317F1E039039701199481E12
:1049E00011900029F2DC03980028EFD1791E12986B
:1049F00008703078202108404530BF1E387006A866
:104A0000C01BC01D039010980078002800D0012022
:104A1000019941180298C0170918039809180498B9
:104A2000401A401E0490E00306D421461A9B199AAE
:104A3000049800F05FF8451910980078002803D01A
:104A40001A9A199990476D1CE00324D521461A9BA8
:104A5000199A049800F04EF845191CE000980028B7
:104A600007DB00990598884203DD1598405C199989
:104A700001E0199930201A9A904700986D1C401C4B
:104A800000900298401E0290002804D11A9A2E200D
:104A9000199990476D1C0199481E01900029DDDC91
:104AA00005E038781A9A7F1C199990476D1C039974
:104AB000481E03900029F4DC21461A9B199A049899
:104AC000ACE600002D0000002B00000020000000DC
:104AD00000000000F8B5044600251E46174688046D
:104AE00004D405E039462020B0476D1C641EF9D57A
:104AF0002846F8BDFFB50446002581B01E46C80310
:104B000001D5302700E02027880404D505E0384689
:104B10000399B0476D1C641EF9D5284605B0F0BD59
:104B20004A68002A06D00A68531C0B601070486857
:104B3000401E48607047000010B502210148FCF794
:104B40000DFE10BDC00C004010B502210148FCF75D
:104B5000FFFD10BDC00C004010B510210148FCF74E
:104B6000F7FD10BD800C004010B502210148FCF794
:104B7000EFFD10BD000D004008B50020034B044AB6
:104B8000022100900348FEF72BFA08BD66000020C2
:104B9000770300201120000008B50020034B044AD1
:104BA000022100900348FEF71BFA08BD66000020B2
:104BB000670000203120000010B500BF0120000474
:104BC000FDF7ACF804460B204443204610BD10B559
:104BD00000BF01204004FDF7A1F804460B20444328
:104BE000204610BD10B500BFFF200130FDF796F83C
:104BF00004460B204443204610BD000010B50020A1
:104C00001E49087001211E48FCF797FC002805D1B9
:104C10001A48007801210843184908700121090346
:104C200017484030FCF789FC002805D1134800786C
:104C300002210843114908700121C9031048403876
:104C4000FCF77BFC002805D10C48007804210843C0
:104C50000A49087020210A488030FCF76EFC0028C1
:104C600005D1064800780821084304490870034824
:104C7000017804A0FBF7B8FE10BD0000000300207F
:104C8000800C0040B5B1C7B0B9A4CEBBCEAA256494
:104C90000D0A000010B5012109030248FCF75EFD72
:104CA00010BD0000000C004010B5012109030248AE
:104CB000FCF74EFD10BD0000000C004010B50821AF
:104CC0000148FCF745FD10BD800C004010B50421E3
:104CD0000148FCF73DFD10BD800C004010B50821D7
:104CE0000148FCF73BFD10BD000C004010B5082149
:104CF0000148FCF72DFD10BD000C004010B504214B
:104D00000148FCF72BFD10BD000C004010B504213C
:104D10000148FCF71DFD10BD000C004010B501213D
:104D2000C9020248FCF71AFD10BD0000000C00404B
:104D300010B50121C9020248FCF70AFD10BD0000B0
:104D4000000C004008B5FCF7BCFDFDF7B5F900F01C
:104D50002FF818E0FEF7C2FFFFF72AF8FEF714FF5E
:104D6000FEF76AFEFDF7ACF800F038F8FEF7AAFB94
:104D700000BF00200090044804490860084600680D
:104D8000009000BF00BFE5E75A5A341200140140FA
:104D900008B50020034B044A022100900348FEF7A7
:104DA0001FF908BD660000207703002001F0000015
:104DB00010B5FDF749FBFEF785FDFEF70FFEFEF788
:104DC000F7FCFEF767FCFBF755FDFDF747F9FFF72A
:104DD00015FF00F041FBFFF755F810BD10B500F0CE
:104DE0009FFAFA480088002800DD10BDF8480078D6
:104DF0000300FFF722FA0D08121F2C517383A5E45C
:104E0000F8F7CBF6F500F3480088002804D1FFF747
:104E100093FEF148EF4908804FE200F069FBFFF78D
:104E20008BFEEE48E9490880ED4808810220E849F8
:104E3000087042E200F064FBFFF77EFEE748E349BA
:104E40000880E74808810320E149087035E2FFF750
:104E500073FEFFF7C7FEE349486008464168E2A0D9
:104E6000FBF7C2FDDF4840681921C90188420ED90D
:104E7000DC4840687D214901884208D20020D3499E
:104E80000880D74808810420D149087003E07D20BC
:104E9000C000CE49088010E2FFF74EFE0020FBF76D
:104EA0008DFDD049888108468189D2A0FBF79CFD01
:104EB000CC48808902280CDDCA4880891E2808DA7F
:104EC0000020C2490880C64808810520C0490870F2
:104ED00003E07D20C000BD490880EEE1FFF734FE0D
:104EE0007D20C000B9490880C6A0FBF77DFDBC4805
:104EF000B64908810620B6490870DEE1C548007849
:104F0000002811D10520C34908707D20C000AF4999
:104F100008800121B34820304170BF48AB49088167
:104F20000720AB4908700AE0BCA0FBF75DFDFFF766
:104F300003FEFFF731FE7D200001A4490880BCE19B
:104F4000B4480078012817D10520B2490870A54857
:104F50008130B7490A7E0271497E41717D20C000CF
:104F60009A4908800020B3490870B34897490881DE
:104F70000B209749087008E0B0A0FBF735FDFFF75C
:104F8000FBFD7D2000019149088096E1A148007851
:104F900003280BD105209F4908709F488B49088141
:104FA0000020088008208A49087007E0A8A0FBF7C5
:104FB0001BFDFCF74DFE8948844908807DE19D4832
:104FC0000078022810DD0520924908707D2000013C
:104FD0007E4908808248088109207D49087010E0D8
:104FE00067E15AE15CE00DE092480078401C91498D
:104FF00008709BA0FBF7F8FCFFF7CAFE77487349DF
:1050000008805AE183480078042840D1052081496E
:1050100008708748801EC07D002808D17148603024
:10502000407D012108436F496031487507E06D48B4
:105030006030407D022108436A49603148757C48F0
:10504000801E007E002808D166486030807D0121E6
:10505000084364496031887507E062486030807DAC
:10506000022108435F4960318875FFF73FFEFFF773
:105070004DFEFFF753FEFFF717FE7D200001534959
:1050800008807A4808810A205149087007E078A012
:10509000FBF7AAFCFEF772FA50484C4908800CE175
:1050A0005C48007804287DD105205A490870604882
:1050B000801EC07D002808D14A486030407D012113
:1050C000084348496031487507E046486030407DF4
:1050D000022108434349603148755548801E007ECF
:1050E000002808D13F486030807D012108433D49B8
:1050F0006031887507E03B486030807D02210843BD
:105100003849603188754A48423800783549C8774F
:1051100047484238408888604548423880888861DE
:10512000434842388079887741484238C1792D48D0
:105130004030C1763E484238417A2A486030017595
:105140003B484238008A2749C8650F223849303920
:1051500024482230FBF763F80F22354921392148D2
:105160003130FBF75CF81422314912391D484030C8
:10517000FBF755F82E48801E01791A48403001751A
:105180002B48801E007921281EDA2948801E0079CC
:10519000022819DD13486030407D03280BD11148E7
:1051A000603000E070E0807D032804D101210D48CB
:1051B0002030017000E080E00020044908801E4893
:1051C00008810C200249087066E00000F40200200B
:1051D000440000204800002088130000B80B0000A5
:1051E0001027000000030020564343B5E7D1B9253E
:1051F000640D0A00B9A9B5E7B5E7C1F725640D0A42
:1052000000000000B0B4BCFCB4A5B7A2BAECCDE27B
:105210000D0A000045000020983A0000B7A2CBCD4F
:10522000B6C1B1EDBAC5D0ADD2E90D0A000000009B
:10523000CA03002046000020204E0000B7A2CBCDBC
:10524000B6C1B0E6B1BEBAC5D0ADD2E90D0A000014
:10525000BFAACABCB7A7C3C5BCECB2E20D0A000026
:10526000C6F4B6AFC9CFB8E60D0A000060EA000088
:10527000B5DAD2BBB4CEB2E9D1AFC9CFB8E6D0C5AA
:10528000CFA20D0A000000000DA0FBF7ADFBFEF75A
:1052900075F90F480F4908800FE00FA0FBF7A4FB3A
:1052A00000F022F801200B49887200200D49087097
:1052B00003E00C200B49087000BF00BF00BF94E55D
:1052C000B2E9D1AFC9CFB8E6D0C5CFA20D0A000070
:1052D000B80B0000F4020020B2E2CAD4CDEAB3C990
:1052E0000D0A00004400002010B500F009F9FFF796
:1052F00023FCFFF731FC00F0F3F8FFF7DFFCFFF7CA
:1053000033FCFFF7DBFCFFF7E1FCFFF7E7FCFFF7FF
:10531000F5FCFFF703FDFFF7C7FCFCF7E7FD10BD49
:1053200000B507484068002803D0054800890028D8
:1053300005D10348807A002801D100F0A9F800BD0A
:10534000F402002010B50020284948608860888158
:10535000C88108824861886188838877C87700217E
:1053600022482030017041700F21801CFAF770FF35
:105370000F211E483130FAF76BFF14211B484030D3
:10538000FAF766FF00211948403041758175C175F3
:10539000017641768176C17600201449C8650846B9
:1053A0000021016641668166C16660300174417406
:1053B0008174C174017500200D49887200210B4869
:1053C0004030017506213730FAF742FF00210748C7
:1053D000603041758175233001704170801E01710C
:1053E000417105200349087010BD00000003002032
:1053F000F40200204500002010B500F02DF8FFF762
:10540000A1FF01200949087009480A4948600A4873
:105410000881002088720880084909A0FBF7E4FA97
:1054200006210648FDF742F910BD000044000020A7
:10543000A0860100F4020020B80B00007D030020CC
:10544000D2D1BFAACABCB2E2CAD4A3ACB1EDBAC52C
:10545000CEAA0D0A0000000010B500F049F8FFF7D1
:105460006BFBFFF779FB00F03BF8FFF727FCFFF73A
:105470007BFBFFF723FCFFF729FCFFF72FFCFFF76F
:105480003DFCFFF74BFCFFF70FFCFCF72FFD10BDB9
:105490000C2004490870012003498872002008800C
:1054A0007047000044000020F402002070B504465C
:1054B0000D460022002300BF0EE01012E65C704093
:1054C000C1B20811414010020E0370404E017040FD
:1054D000484082B2581C83B2AB42EEDB90B270BD42
:1054E00010B501210148FCF733F910BD000D004053
:1054F00010B520210148FCF72BF910BD800C0040AD
:1055000010B520210148FCF729F910BD800C00409E
:1055100030550000000000208C00000056420000C2
:10552000BC5500008C0000204C14000066420000B6
:1055300000000100000000000000AAAAAAAAAAAA6E
:10554000AAAAAAAAAAAAAAAAAAAAAAAAAAAAAAAABB
:10555000AAAAAAAAAAAAAAAAAAAAAAAAAAAAAAAAAB
:10556000AAAAAAAAAAAAAAAAAAAAAAAAFEFEFEFE4B
:10557000FE00000000050000000000000000000028
:10558000000000000000000001000000000000001A
:1055900068AB0600191600AAAAAAAAAAAA000000C7
:1055A0000000640000000000000064000000000033
:0C55B0000080000000127A0000127A0057
:04000005000000C136
:00000001FF
