:020000040000FA
:1000000008150020D5000000DD000000DF00000022
:1000100000000000000000000000000000000000E0
:10002000000000000000000000000000E1000000EF
:100030000000000000000000E3000000E5000000F8
:10004000E7000000E7000000E7000000E700000014
:10005000E7000000E7000000E7000000E700000004
:10006000E7000000E7000000D1370000ED38000095
:10007000093A00001D3B0000E7000000E700000017
:10008000E7000000E7000000E7000000E7000000D4
:10009000E7000000E7000000E7000000E7000000C4
:1000A000E7000000E7000000E7000000E7000000B4
:1000B00041070000E7000000111F0000E7000000FA
:1000C0000348854600F02AFB00480047854F0000A2
:1000D000081500200448804704480047FEE7FEE773
:1000E000FEE7FEE7FEE7FEE7B5300000C1000000D6
:1000F00030B50B46014600202022012409E00D46C0
:10010000D5409D4205D31D469540491B2546954047
:1001100040191546521E002DF1DC30BD70B500248B
:100120002546002801DA01244042002901DA012590
:100130004942FFF7DDFFAC4200D04042002C00D026
:10014000494270BDF0B51FB40646002082B0054696
:100150004024019100901BE0019922460F46304651
:1001600000F024FA049A059B801A994110D3104696
:100170001946224600F00AFA361A8F4101972246A4
:1001800001200021009F00F001FA38184D41009035
:100190002046641E0028DFDC019B00982946324679
:1001A00007B0F0BDF0B51FB486B0002000900190FC
:1001B00002900698069980B204900798090C0204F0
:1001C0000014114307900027089D099806913E46A8
:1001D0003C4603900398A9B20204000C03900498D3
:1001E0002D0C154348430021224600F0CFF9C719D2
:1001F000714110340E46402CECDB3846029A00F078
:10020000C5F9009A019B801800905941029801910C
:10021000103002904028CCDB00980BB0F0BD0346B4
:100220000B439B0703D009E008C9121F08C0042A2A
:10023000FAD203E00B780370401C491C521EF9D21D
:100240007047D2B201E00270401C491EFBD27047D9
:100250000022F6E710B513460A4604461946FFF792
:10026000F0FF204610BD0000F0B507460846584094
:1002700087B0C00F049048000E4659004008490856
:10028000BC1A884105D2384631461E4617460B46F1
:1002900002465800400810434CD0300D03904005F2
:1002A0005900400D490D0590401A0290402872DA1D
:1002B00018030121000B09050843019004980092DE
:1002C000002805D0019952420020884100920190F7
:1002D000029840210A1A0199009800F057F9054642
:1002E0000C466B4607CB00F072F9C0197141039AB6
:1002F0000E0D0023D71756401A467A40164344D0B5
:10030000049A002A2DD0029A012A039A15DC1205BC
:10031000C01A914101263605001C7141D20F059E7D
:10032000D2070093019202962A46234600F06FF905
:1003300007B0F0BD38463146FAE71605224A0F46A7
:10034000B218C01AB74101210905001C4F4100181D
:100350007F41114618187941E20F10436D1964412D
:1003600013E0E2076D0815436408C2071443039ABB
:1003700001261205C01A91413605001C7141CE07B5
:10038000400830434908C01851412A46234600F02E
:1003900031F9CDE7FFE7049801224000C117121A96
:1003A00000238B4104983146C417381AA141EEE767
:1003B00030B40124E407634030BC55E730B4012475
:1003C000E407614030BC4FE70000E0FFF0B51FB428
:1003D00088B00B990998002448400999C00F49003A
:1003E00049080991C0070B990090490049080B91F1
:1003F00009990898A64608431CD00B990A98084307
:1004000018D0099801244000420D4800410D099878
:1004100024050003000B204309900B980003000BF8
:1004200020430B9050181C4940180022019014469C
:10043000104605E0002001460DB0F0BD032801DAAA
:10044000034600E003239C46C11A0AAE0AE05F009F
:1004500008ADED5B4F00F75B7D430027AA187C4198
:10046000491C5B1E6145F2DD410004AB5A52210478
:10047000120C0A43240C401C0828DFDB0198029070
:100480000099704601910090059B049A079906987F
:1004900000F0BDF8D0E700000DFCFFFFF0B50C4602
:1004A0005C4085B0E40FE40703944C000026640828
:1004B00059009446490802460296224321D06246DA
:1004C0000A431ED06200570D4A000E032303550D48
:1004D000012402462C492405781B1B0B360B4018BF
:1004E00023432643614600901C46501AB44103D36F
:1004F0000098401C009002E0921800985B41002890
:1005000003DA0020014605B0F0BD002001210905F5
:100510000746864611E064461D46141BB54106D3C6
:100520006546521BB341744607430C43A646CD07AC
:1005300040084908284392185B4105460D43EAD11B
:100540001046184313D06046194650407140084386
:1005500006D06046101AB34106D20122002306E0FD
:1005600000220123DB0702E00122D243531000984E
:1005700074460105381C6141029C039D00196941C4
:1005800000F038F8BFE70000FD03000010B5202A96
:1005900004DB0146203A9140002010BD9140202309
:1005A0009C1A0346E3401943904010BD10B5202A21
:1005B00004DB0846203AD040002110BD0B46D34052
:1005C000D0402024A21A91400843194610BD10B50E
:1005D000202A06DBCB170846203A1041C1170B43EF
:1005E00006E00B461341D0402024A21A9140084354
:1005F000194610BD10B5002B08DA0024401C6141DB
:1006000092185B411A4301D14008400010BDF0B57B
:100610001FB482B005460C0003D0084603F0DCFD91
:1006200002E003F0D9FD2030024600902146284622
:10063000FFF7ACFF049B059A04460F46184311438D
:10064000084314D0184610431BD0009840210A1AC2
:1006500018460599FFF7AAFF05460E46009A059928
:100660000498FFF793FF084305D0012004E02046DB
:10067000394607B0F0BD0020C11705430E432C4397
:10068000374300990E986305401A7905E40A002261
:100690000C43FD0A0A3002D500200146E9E70105B6
:1006A000101969410C9C0D9D00196941FFF7A2FFCB
:1006B000DFE700004A0009030123090B1B0519436A
:1006C0000A4B10B5520D9A4202DA0020014610BDC5
:1006D000064B34339A4203DC9A1AFFF767FF10BDCA
:1006E000034BD218FFF752FF10BD0000FF030000BC
:1006F000CDFBFFFF10B5002904DB0124E4074042D5
:100700008C412146002B04DB1C460123DB075242AF
:10071000A341994200D1904210BD0000064C012532
:10072000064E05E0E36807CC2B430C3C9847103499
:10073000B442F7D3FFF7C8FCB8560000D856000003
:1007400000BF4B48C068C007C00F01214840484067
:1007500000287DD000BF4648006908404840484016
:100760000028F6D000BF01204149086100BF414880
:100770000088002804DD3F480088401E3D4908806D
:100780003D480088002804DD3B480088401E3A4967
:1007900008803A480088002804DD38480088401E58
:1007A0003649088036480088002804DD344800882F
:1007B000401E3349088033480088002804DD314852
:1007C0000088401E2F4908802E484068002804D029
:1007D0002C484068401E2B4948602A488068002801
:1007E00004D028488068401E264988602648007842
:1007F000002804DD24480078401E2349087023485F
:100800000088002804DD21480088401E1F49088018
:100810001F480088002804DD1D480088401E1C4930
:1008200008801C480088002804DD1A480088401E03
:100830001849088018480088002804DD16480088F8
:10084000401E1549088015480068002806D000E0C1
:100850000DE012480068401E10490860104800680A
:10086000002804D00E480068401E0D4908607047FB
:10087000003001408A000020920000204400002047
:100880003C00002064010020150000203A000020F8
:10089000420000208800002090000020200000205E
:1008A0002800002010B501F051FD01F03FFD00F0DF
:1008B00003F800F009F810BD08B5022000901C21D3
:1008C000684601F04FF908BD00BF044800680121E7
:1008D00008430249086000BF704700000030014033
:1008E00070B5024600200F4C002314E01678521C0D
:1008F0003502684000230CE00125ED030540002D82
:1009000003D045006540A8B201E04504280C5D1CF9
:10091000EBB2082BF0DB0D464E1EB1B2002DE5D137
:1009200070BD0000211000007CB502F097FA0A208B
:1009300000F0E8FD002409E00A2000F0E3FD02F0E9
:100940008DFA61006A465052601CC4B2032CF3DB7E
:10095000002500241BE060006946085AC0130028E7
:100960000ED06000085A0021C943081A401C6100DB
:100970006A46505260006946085A281A85B204E057
:1009800060006946085A401985B2601CC4B2032C45
:10099000E1DBE81301280ED1801E401B401C85B20C
:1009A00003212846FFF7BAFB85B20020C043401B55
:1009B000401C85B204E003212846FFF7AFFB85B257
:1009C00028467CBD10B50821014801F09AF810BDF9
:1009D000000D004010B508480078002802D001281A
:1009E00006D102E0FFF7EEFF03E001F079FE00E040
:1009F00000BF00BF10BD00009700002010B5082107
:100A0000014800F0FBFF10BD000D004010B5084884
:100A10000078002802D0012806D102E0FFF7EEFF9F
:100A200003E001F065FE00E000BF00BF10BD000064
:100A30009700002070B5054608480570FFF7E6FFEF
:100A4000FFF772FF0446FFF7C5FF232C02DD2046A7
:100A5000233884B22646304670BD0000970000203F
:100A60000FB410B5B4B00E480078002804D134B0EB
:100A700010BC08BC04B0184737A80190C82102A8D0
:100A8000019B369A03F092FB044600200190002C53
:100A900003DDA1B202A803F029F900BFE7E70000D7
:100AA00000000020012101607047000070B504467D
:100AB000012500BF206800280BD02068012808D03D
:100AC0002068022805D02068032802D02068042866
:100AD00001D1012000E00020002801D100BFFEE785
:100AE00000BF00BFA068002802D0A068012801D183
:100AF000012000E00020002801D100BFFEE700BF78
:100B000000BFE068002808D0E068082805D0E06849
:100B1000102802D0E068182801D1012000E0002050
:100B2000002801D100BFFEE700BF2068042814D1CF
:100B300000BF6068002808D06068012805D06068A0
:100B4000022802D06068032801D1012000E00020C3
:100B5000002801D100BFFEE71AE000BF606800284E
:100B60000ED0606801280BD06068022808D0606849
:100B7000032805D06068042802D06068052801D1E8
:100B8000012000E00020002801D100BFFEE700BFE7
:100B9000FF2001302649896B0143254A916300BF3C
:100BA000206804280ED10421224800F037FA616839
:100BB000880120494969C022914301431D4A51617E
:100BC00000BF20E000211B4800F028FA20681849E7
:100BD00040318968890889000143154A4032916093
:100BE00000BF61688800114689681C229143014357
:100BF0000F4A4032916000BF90131146C96801430B
:100C0000D16000BF00BFA0680A494969890889000E
:100C10000143084A516100BFE06811464969182242
:100C200091430143034A516100BF284670BD000053
:100C300000240040005C014081684908490081604F
:100C400070478168490849008160704781690122C5
:100C50001204914381617047026A4B005B089A431A
:100C60000262704781680122114381607047816888
:100C70000222114381607047026A4B005B081A43ED
:100C800002627047F8B505460C4601200090002628
:100C900000BFDB48854201D1012000E00020002890
:100CA00001D100BFFEE700BF00BF2068002804D0CC
:100CB000012149022068884201D1012000E0002082
:100CC000002801D100BFFEE700BF00BF6068002818
:100CD00004D00121C9026068884201D1012000E0EE
:100CE0000020002801D100BFFEE700BF00BFE06880
:100CF000002802D0E068042801D1012000E0002093
:100D0000002801D100BFFEE700BF00BF2069002816
:100D100008D02069012805D02069022802D0206966
:100D2000032801D1012000E00020002801D100BFEC
:100D3000FEE700BF00BF2020005D002803D0202078
:100D4000005D012801D1012000E00020002801D130
:100D500000BFFEE700BF00BF606A002821D001216C
:100D60004904606A88421CD04900606A884218D0F1
:100D700003214904606A884213D00121C904606AD2
:100D800088420ED005214904606A884209D00321B7
:100D90008904606A884204D007214904606A884255
:100DA00001D1012000E00020002801D100BFFEE7B2
:100DB00000BF00BFA06A002826D001210905A06A53
:100DC000884221D04900A06A88421DD0032109052C
:100DD000A06A884218D001218905A06A884213D0F0
:100DE00005210905A06A88420ED003214905A06AA1
:100DF000884209D007210905A06A884204D0012150
:100E0000C905A06A884201D1012000E00020002825
:100E100001D100BFFEE700BF012000037949496B03
:100E20000143784A516300BF00BF77480068C0079C
:100E3000C00F01214840484000280DD100BF0120CB
:100E40007149886000BF00BF08460068012108435F
:100E50006D49086000BF00BF00BF6B4800680221F9
:100E600008436949086000BF05E07D208002864292
:100E700000D30AE0761C00BF63488068C007C00F3B
:100E80000121484048400028EFD000BF2846FFF726
:100E9000D3FE2846FFF7DAFE00BFA8680121084309
:100EA000A86000BF00BF5648006908435449086164
:100EB00000BF002600BF00BF514800681021084055
:100EC000070900BF761C701C002801D0002FF2D04B
:100ED000012F7DD100BF10204949086000BF28467E
:100EE000FFF7AAFE00BFA8683840012148404840EB
:100EF00000287DD12068A9697A0291430143A96144
:100F000000BF6068A969920091430143A96100BFD5
:100F1000207A002806D000BFA86951100843A861B4
:100F200000BF07E000BFA869012189028843A861CA
:100F300000BF00BF607A002807D000BFA869FF216A
:100F400001310843A86100BF07E000BFA869FF2185
:100F500001318843A86100BF00BFE068A96904228D
:100F600091430143A96100BF00BF68692021884304
:100F7000686100BF2069E968890889000143E96068
:100F800000BF6069A969F02291430143A96100BFD4
:100F9000A069E96991430143E96100BFE069E9693A
:100FA000090909010143E96100BF2020005D002813
:100FB0001AD0606AA9690722520491430143A961CA
:100FC00000BFA06AA9690F2212059143014301E005
:100FD00011E00DE0A96100BF00BFA869012109046B
:100FE0000843A86100BF08E02846FFF72FFE04E091
:100FF0000020009001E0002000900098F8BD000063
:10100000005C01400024004000A401400146086843
:10101000C007C00F0122504050407047426904236E
:101020009A430A4342617047416901221143416179
:101030007047000070B505460C46052600BF6148A4
:10104000854201D1012000E00020002801D100BF2D
:10105000FEE700BF00BFA06800280BD0A0681028E2
:1010600008D0A068202805D0A068402802D0A06839
:10107000602801D1012000E00020002801D100BF3C
:10108000FEE700BF00BF6069002808D0FF210131E2
:101090006069884203D049006069884201D101201B
:1010A00000E00020002801D100BFFEE700BF00BF24
:1010B0002069012802D02069002801D1012000E028
:1010C0000020002801D100BFFEE700BF00BF20685C
:1010D000002802D02068802801D1012000E00020F3
:1010E000002801D100BFFEE700BF206836494968EB
:1010F000802291430143344A516000BF102000F028
:1011000091F80120C00300F07DF8A069296B090A5D
:1011100009020143296300BFA068202804D04028A9
:1011200003D060280BD101E000BF00BF002128469A
:1011300000F05AF82846A16800F050F808E0284668
:10114000A16800F051F80021284600F047F800BFE0
:1011500000BFE068E96A090C09040143E96200BFC5
:10116000606929680322120291430143296000BF8C
:101170006068A96A090C09040143A96200BF2069DB
:10118000012806D100BF286880210843286000BFDD
:1011900006E000BF286880218843286000BF00BFA8
:1011A0002846FFF741FF00E0761E064800F00EF8E3
:1011B000002801D1002EF7D100BF012001490861AC
:1011C00000BF70BD00300140402400400146086966
:1011D000C007C00F01225040504070470268602392
:1011E0009A430A4302607047026810239A430A43F5
:1011F000026070470249C96B0143014AD1637047DD
:10120000002400400249C9680143014AD160704787
:10121000402400400249C9680143014AD160704737
:1012200040240040024909680143014A11607047A7
:101230004024004010B5002400BF1B48006807216F
:101240000902084005221202811A904218D006DCD9
:1012500000280DD001218902401A1DD10CE0C81FC1
:10126000F938002810D0FF380138002814D10FE0D9
:1012700000F0FCF8044613E000F0F8F844080FE032
:1012800000F0F4F884080BE000F0F0F8C40807E080
:1012900000F0ECF8040903E000F0E8F8044600BFB1
:1012A00000BF204610BD00000024004010B50024FF
:1012B00000BF1B48006807210904084005221204EA
:1012C000811A904218D006DC00280DD00121890433
:1012D000401A1DD10CE001200004081A10D0012191
:1012E0000904401A14D10FE0FFF7A4FF044613E0ED
:1012F000FFF7A0FF44080FE0FFF79CFF84080BE016
:10130000FFF798FFC40807E0FFF794FF040903E024
:10131000FFF790FF044600BF00BF204610BD00004D
:101320000024004070B50024002500BF2648C06896
:1013300002210840002802D0022807D103E000F073
:1013400047F8044606E02148046803E000F040F84E
:10135000044600BF00BF00BF1B48C06870210840A2
:101360000107090F00291FD10011030002F063FFDC
:10137000080506080A0C12141A1C16E0640814E08A
:10138000A40812E0E40810E00C212046FEF7B0FEAD
:1013900004460AE0240908E018212046FEF7A8FECA
:1013A000044602E0640900E000BF00BF00BF064839
:1013B000C0687F2109040840000C451C2046684392
:1013C0000446204670BD0000002400400C000020B0
:1013D000002000BF0D4949680F2212041140002966
:1013E00008D001221204891A06D0891A06D0891A57
:1013F00008D105E0064807E0064805E0064803E096
:10140000064801E0024800BF00BF704700240040CA
:1014100000127A000024F40000366E010048E80152
:10142000002000BF1049496A03221204114000291C
:1014300008D001221204891A07D0891A08D0891A03
:101440000CD108E04B2040030BE04B20C00208E029
:101450004B20800205E04B20400202E04B2040037D
:1014600000BF00BF704700000024004010B50024FA
:1014700000BF144800684007400F030002F0DBFE85
:101480000705090C1A1014171A00FFF7A1FF0446EC
:1014900014E00D48046811E0FFF744FF04460DE036
:1014A000FFF7BEFF044609E00848046806E001248F
:1014B000E40303E0FFF78CFF044600BF00BF2046B3
:1014C00010BD0000002400400C0000200800002097
:1014D000034989681C2291430143014A9160704786
:1014E000402400400648006904210843044908617B
:1014F000084600690121084301490861704700005E
:1015000000E000E038B504460EE07D20C00000F0A9
:1015100015F800BF002000900648074908600846FB
:101520000068009000BF00BF2046641E0028ECD178
:1015300038BD00005A5A34120014014010B5044658
:101540000C490D480068FEF7D3FD44430120000616
:10155000844200D900E020460446601E07494861E5
:101560000020886100BF05480069C003C00F002843
:10157000F9D010BD40420F001000002000E000E054
:10158000014600BF0868002804D0012292070868BD
:10159000904201D1012000E00020002801D100BFCD
:1015A000FEE700BF80200D4A526B02430B4B5A638B
:1015B00000BF0006094A4032D2680243074B40335D
:1015C000DA6000BF08681A4652681B069A43024355
:1015D000024B40335A6000BF012070470024004096
:1015E000FEB504460D460020019067496748006833
:1015F000FEF77EFDC8214843009000BF012C2FD08C
:10160000022C2DD0042C2BD0082C29D0102C27D024
:10161000202C25D0402C23D0802C21D0FF2001303D
:1016200084421DD0400084421AD04000844217D02A
:101630004000844214D04000844211D040008442D3
:101640000ED0400084420BD04000844208D04000BD
:10165000844205D04000844202D04000844201D13F
:10166000012000E00020002801D100BFFEE700BFFC
:1016700000BF2868002808D02868012805D02868FD
:10168000022802D02868032801D1012000E00020B0
:10169000002801D100BFFEE700BF00BF6868002836
:1016A00008D06868012805D06868022802D06868F8
:1016B000032801D1012000E00020002801D100BF53
:1016C000FEE700BF00BFA868012802D0A868002874
:1016D00001D1012000E00020002801D100BFFEE779
:1016E00000BF0294002604E0029840080290701C9B
:1016F000C6B202980128F7D13746F017000FC0197B
:1017000000110001301A4300286898400146B000DB
:101710001F4B1A581F489047A868012809D100BFDD
:101720001C4800696103490B08431A49086100BF5E
:1017300003E02146174800F037F83746F017000F4E
:10174000C0190011800014490B58214611486A68DD
:1017500098470020019003E000BF0198401C0190D1
:10176000009901988842F7D321460A4800F018F8FA
:101770001E20002805DBC206D20E01219140074A37
:10178000116000BF0120FEBD40420F00100000208C
:1017900064560000C00D0040B056000080E200E03A
:1017A0004A03520B4261704702694B035B0B9A4339
:1017B00002617047826A8BB29A4382627047026804
:1017C0008BB29A430260704782688BB29A43826000
:1017D000704742688BB29A4342607047026A8BB28C
:1017E0009A43026270470246D0698BB218408BB2AE
:1017F000984201D1012070470020FCE70246D069E1
:101800008BB218408BB2984201D101207047002062
:10181000FCE70000F8B506460C460027002500BF8F
:10182000724886420ED07148403086420AD06F48D6
:101830008030864206D06D48C030864202D06C4867
:10184000864201D1012000E00020002801D100BF24
:10185000FEE700BF00BF2068002805D96549206861
:10186000884201D8012000E00020002801D100BFFB
:10187000FEE700BF00BF6068032808D0606800284A
:1018800005D06068012802D06068022801D10120DB
:1018900000E00020002801D100BFFEE700BF00BF2C
:1018A000A068012802D0A068002801D1012000E032
:1018B0000020002801D100BFFEE700BF00BFE068A4
:1018C000002802D0E068012801D1012000E00020BA
:1018D000002801D100BFFEE700BF00BF60690028FB
:1018E00002D06069012801D1012000E00020002819
:1018F00001D100BFFEE700BF80203F49496B014393
:101900003D4A516300BF6AE00121B94020680840A8
:101910000546002D62D0606803281AD1294630465A
:10192000FFF74DFF29463046FFF753FF2946304663
:10193000FFF74AFF6069012806D100BFB06AA9B26B
:101940000843B06200BF33E029463046FFF732FF5C
:101950002EE029463046FFF72DFF6068002806D1AB
:1019600000BF3068A9B20843306000BF03E02946D9
:101970003046FFF724FFA068002804D129463046EE
:10198000FFF722FF06E000BFB068A9B20843B060CD
:1019900000BF00BFE068002806D000BF7068A9B291
:1019A0000843706000BF03E029463046FFF711FF8F
:1019B000606802280DD12069012806D100BF306A75
:1019C000A9B20843306200BF03E029463046FFF762
:1019D00005FF29463046626800F099F87F1C2068B0
:1019E000F840002890D10120F8BD0000000C004014
:1019F000000D0040FFFF0000002400408AB2826119
:101A000070478AB2826170470268920892000A4366
:101A10000260704702680C239A430A4302607047D1
:101A2000026803231B059A430A4302607047026859
:101A300003239B059A430A4302607047026803230D
:101A40001B069A430A4302607047026803239B0601
:101A50009A430A4302607047026803231B079A43B4
:101A60000A43026070470268920092080A430260CB
:101A700070474268920892000A4342607047426889
:101A80000C239A430A4342607047426830239A43CA
:101A90000A4342607047026830239A430A43026057
:101AA00070470268C0239A430A4302607047026885
:101AB00003231B029A430A43026070470268032310
:101AC0009B029A430A4302607047026803231B0388
:101AD0009A430A4302607047026803239B039A43B8
:101AE0000A4302607047026803231B049A430A43B7
:101AF00002607047026803239B049A430A43026012
:101B000070478AB2426170478AB24261704730B50D
:101B1000C3680C464C4365006419A3430C464C4310
:101B200054432343C36030BD30B583680C464C43F7
:101B300065006419A3430C464C435443234383601C
:101B400030BD10B50B0C5B435C001C19C368A3438C
:101B50000C0C644354432343C36010BD10B5FFF71E
:101B6000C1FC10BD70B505460C462868032801D994
:101B7000032028602046002805DBC206D20E012182
:101B80009140094A116000BF2046296800F0B8FD65
:101B90002046002806DBC206D20E01219140024AEF
:101BA000803A116000BF70BD80E100E04168012211
:101BB0001143416070474168012211434160704701
:101BC000416801221143416070474168012211437D
:101BD00041607047F8B505460C460027002000908C
:101BE000002600BFAD4885420BD0AD48854208D0E5
:101BF000AC48854205D0AC48854202D0AB4885420E
:101C000001D1012000E00020002801D100BFFEE743
:101C100000BF00BF2068002814D02068012811D020
:101C2000206802280ED0206803280BD020680028E6
:101C300008D02068042805D02068082802D0206831
:101C40000C2801D1012000E00020002801D100BFB4
:101C5000FEE700BF00BFA068C02808D0A068002829
:101C600005D0A068402802D0A068802801D10120BA
:101C700000E00020002801D100BFFEE700BF00BF48
:101C80002069002805D02069102802D0206920286A
:101C900001D1012000E00020002801D100BFFEE7B3
:101CA00000BF00BFE068002804D0FF210131E068D8
:101CB000884201D1012000E00020002801D100BFAE
:101CC000FEE700BF00BF6069002808D060690228F5
:101CD00005D06069012802D06069032801D1012084
:101CE00000E00020002801D100BFFEE700BF6B48E4
:101CF00085422CD120686E494968890889000143D2
:101D00006B4A516000BF2068002806D0012808D027
:101D100002280AD0032810D10BE0FFF7C7FA009081
:101D20000FE0FFF755FB00900BE0FFF79FFB0090E3
:101D300007E060480068009003E0FFF7B7FA009002
:101D400000BF00BF61680098FEF7D2F9461E5448F4
:101D500085422CD12068564949680C2291430143A1
:101D6000534A516000BF2068002806D0042808D0DC
:101D700008280AD00C2810D10BE0FFF797FA009042
:101D80000FE0FFF725FB00900BE0FFF76FFB0090E3
:101D900007E048480068009003E0FFF787FA0090EA
:101DA00000BF00BF61680098FEF7A2F9461E3B48DD
:101DB000854206D18015FFF71DFAA815FFF72AFA0C
:101DC00035E03748854206D14015FFF713FA68150C
:101DD000FFF720FA2BE0334885420BD1C014FFF700
:101DE00009FAFFF763FA009061680098FEF780F93E
:101DF000461E1CE02C4885420BD18014FFF7FAF9EF
:101E0000FFF754FA009061680098FEF771F9461EDA
:101E10000DE0264885420AD14014FFF7EBF9FFF7A1
:101E200045FA009061680098FEF762F9461E207D31
:101E3000C007C00F002806D000BF28680121084352
:101E4000286000BF00BF022160690840002805D05B
:101E500000BF28680843286000BF00BF00BFA86912
:101E6000000C00043043A86100BFE0682968FF222D
:101E7000013291430143296000BFA0682968C02254
:101E800091430143296000BF2069296830229143B2
:101E90000143296000BF01273846F8BD00200140FA
:101EA000006801400070014000740140007801406A
:101EB000402400400C0000204269520A52020A43AA
:101EC000426170474269520A52020A4342617047B6
:101ED0004269520A52020A43426170474269520AF9
:101EE00052020A43426170471CB506A00068019087
:101EF000012001AB044A04210090044801F0C0F91C
:101F00001CBD00001D000000F701002022C00000E1
:101F100001204003084949690140814201D1012162
:101F200000E00021012906D148030349486100BFB0
:101F30000120024908707047C00D00409800002041
:101F4000F3B581B00E4600270C20FFF7C1FA1949FE
:101F50001948FEF781FE18480199FEF78DFE1648D4
:101F6000FEF7A0FD1448FEF77DFE1348FEF77FFE46
:101F700000BF1148FFF74AF804467F1C781C002870
:101F800001D0002CF5D0012C10D10B48FEF78AFDB2
:101F900000BF0948806A80B230600748FEF751FEF2
:101FA00005480199FEF758FE002500E00125284666
:101FB000FEBD0000FFFF0F00005C0140F1B58AB0DC
:101FC000002008900790069008A800F035F80590CA
:101FD00006A90A98FFF7B4FF04900898002821D0BA
:101FE000059800281ED1049800281BD10F49069897
:101FF00002F009F90E4A1489002506460F462246CA
:102000002B46FEF7CFF8019100900A49089802F09C
:10201000FAF802460B460391029001990098FEF7E8
:1020200091F8079007980BB0F0BD0000B80B0000C6
:1020300000FBFF1FFF0F0000F8B5064600270C202D
:10204000FFF746FA00BF20480069012108431E49F6
:10205000086100BF1D491E48FEF7FEFD012109066B
:102060001B48FEF709FE1A48FEF71CFD1848FEF74C
:10207000F9FD1748FEF7FBFD00BF1548FEF7C6FF48
:1020800004467F1C781C002801D0002CF5D0012CC0
:1020900017D10F48FEF706FD00BF0D48806A80B2D9
:1020A00030600B48FEF7CDFD21060948FEF7D4FD50
:1020B00000BF05480069A0430349086100BF00252F
:1020C00000E001252846F8BD00A40140FFFF0F00F5
:1020D000005C014008B50020034B044A0221009037
:1020E000034801F0CDF808BD2C000020F7010020C6
:1020F0000426000008B50020034B044A022100908A
:10210000034801F0BDF808BD2C000020F7010020B5
:102110001212000000B587B0FF20013001900120AD
:1021200002900390002004900590069001A91B489E
:10213000FFF770FB01204002019001200290039004
:10214000002004900590069001A91448FFF762FB57
:1021500040200190012002900390002004900590FF
:10216000069001A90D48FFF755FB80200190012042
:1021700002900390002004900590069001A9074862
:10218000FFF748FB012149020448FFF7BDFC80210D
:102190000248FFF7B9FC07B000BD0000800C00400A
:1021A00010B508480078002800D110BD0648007816
:1021B000002800D0F9E700200249087000F014F868
:1021C00000BFF2E7140000201500002010B500F059
:1021D00013F801200249087014200249087010BD4C
:1021E000140000201500002010B510210148FFF751
:1021F00088FC10BD400C004010B510210148FFF7CD
:10220000FDFB10BD400C00401FB5012000900320D5
:1022100001900020029003906846FEF747FC1FBD26
:1022200010B5FFF7F1FF00F001F810BD00B591B057
:1022300020200B9003200C9000200D900E900F900A
:1022400010900BA93748FFF7E5FA0120C0020B9068
:1022500003200C9000200D900E900F9010900BA971
:102260003048FFF7D7FA04200B9003200C90002091
:102270000D900E900F9010900BA92A48FFF7CAFA04
:1022800008200B9003200C9000200D900E900F90D2
:1022900010900BA92348FFF7BDFA0120C0020B9054
:1022A00003200C9000200D900E900F9010900BA921
:1022B0001C484038FFF7AEFA012000030B900320C2
:1022C0000C9000200D900E900F9010900BA91548C7
:1022D0004038FFF79FFA00200090019001216846E6
:1022E00001724172002003900490059050200690E6
:1022F0000F200790002108A80170032040040990D6
:10230000012080050A9069460748FEF7BBFC402182
:102310000548FEF7B1FC012109060348FEF7ACFCB5
:1023200011B000BDC00C0040005C014000BF0120A6
:102330000549086100BF00BF0846C0680121084385
:102340000149C86000BF70470030014000B587B048
:102350000020009007200190002002900548039083
:10236000002005900690049069460348FEF762FE3F
:1023700007B000BDE70300000030014010B50020A9
:102380001C4949680F22120491430143194A5160C4
:1023900000BF00BF10464068012108431146486055
:1023A00000BF002014490968890889000143124AC6
:1023B000116000BF00BF0F490968C908C900014387
:1023C0000C4A116000BF00BF1146096807221202C3
:1023D00091430143074A116000BF00BF11460968DD
:1023E0000722120491430143024A116000BF00F02A
:1023F000C3FD10BD002400400010004010B500F0E7
:1024000005F800F00BF800F027F810BD08B5002023
:1024100000906846FFF7B4F808BD000000B589B029
:1024200010200390002004900590012006900020C9
:102430000790089003A90748FFF7ECF900200290E5
:1024400000900190694601204003FFF7C9F809B0E8
:1024500000BD0000C00C004008B5002000901E2107
:102460006846FFF77FFB08BD00B58DB00120400333
:102470000790022008900020099001200A90002077
:102480000B900C9007A91148FFF7C4F901208003B5
:10249000079002200890002009900A900B900C9061
:1024A00007A90A48FFF7B6F9002001904B20C001A8
:1024B0000290032006904020039000200490059095
:1024C00001A90348FFF786FB0DB000BD000C0040DA
:1024D0000020014010B500BFFF200130094988608D
:1024E00000BF00BF08464068891508430549486099
:1024F00000BF00BF0120886000BF0846FFF756FB01
:1025000010BD00000020014000B58DB00120400347
:10251000079002200890002009900A900B900C90E0
:1025200007A91148FFF776F90120800307900220E0
:102530000890002009900A900B900C9007A90A4877
:10254000FFF768F9002001904B20C00102900320A2
:1025500006904020039000200490059001A90348B4
:10256000FFF738FB0DB000BD400C00400068014093
:1025700010B500BFFF2001300949886000BF00BFCF
:1025800008464068891508430549486000BF00BFF8
:102590000120886000BF0846FFF70DFB10BD00005A
:1025A0000068014000B58DB001200790022008901E
:1025B0000020099001200A900B9000200C9007A9A0
:1025C0001148FFF727F90220079008900020099092
:1025D0000A9001200B9000200C9007A90A48FFF7F1
:1025E00019F9002001904B20C001029003200690B1
:1025F0004020039000200490059001A90348FFF7B4
:10260000E9FA0DB000BD0000400C00400070014030
:1026100010B500BFFF2001300949886000BF00BF2E
:1026200008464068891508430549486000BF00BF57
:102630000120886000BF0846FFF7C2FA10BD000005
:102640000070014000B58DB0012007900220089075
:102650000020099001200A9000200B900C9007A9FF
:102660001048FFF7D7F80220079008900020099043
:102670000A900B900C9007A90A48FFF7CBF80020AE
:102680000190E12040020290032006904020039038
:1026900000200490059001A90348FFF79BFA0DB0B4
:1026A00000BD0000000C00400074014010B500BFE8
:1026B000FF2001300949886000BF00BF084640681C
:1026C000891508430549486000BF00BF01208860A4
:1026D00000BF0846FFF779FA10BD00000074014002
:1026E00010B504210148FFF789F910BD000D004025
:1026F00010B504210148FFF781F910BD000D00401D
:1027000010B5002819DB1A4A03231B02D2188308CC
:102710009B00D2588307DC0EFF23A3409A438B070C
:102720001B0E8407E40EA3401A43114B032424021A
:102730001B198408A4001A5118E00E4A03071B0F46
:10274000083B9B089B00D2588307DC0EFF23A34065
:102750009A438B071B0E8407E40EA3401A43054BD4
:102760000407240F083CA408A4001A5110BD00005F
:1027700000E100E01CED00E000B587B0042001900E
:10278000012002900020039004900590069001A97A
:102790009248FFF73FF808200190012002900020A6
:1027A000039004900590069001A98C48FFF732F839
:1027B0000120C002019001200290002003900490AB
:1027C0000590069001A98548FFF724F80120000331
:1027D0000190012002900020039004900590069043
:1027E00001A97E48FFF716F8102001900120029001
:1027F0000020039004900590069001A9774840308E
:10280000FFF708F80120C003019000200290039018
:102810000120049000200590069001A96F484030E7
:10282000FEF7F8FF012001900020029003900120A4
:10283000049000200590069001A968488030FEF7BA
:10284000E9FF0420019001200290002003900490F1
:102850000590069001A961488030FEF7DBFF082053
:1028600001900120029000200390049005900690B2
:1028700001A95A488030FEF7CDFF102001900120B9
:1028800002900020039004900590069001A95348FF
:102890008030FEF7BFFF2020019001200290002031
:1028A000039004900590069001A94C488030FEF7F3
:1028B000B1FF0120800301900120029000200390CD
:1028C00004900590069001A944488030FEF7A2FFCD
:1028D0000120C00301900120029000200390049089
:1028E0000590069001A93D488030FEF793FF022035
:1028F0000190012002900020039004900590069022
:1029000001A93648C030FEF785FF01200003019081
:102910000020029003900120049000200590069072
:1029200001A92E48C030FEF775FF012001900290EA
:102930000020039004900590069001A92848FEF716
:1029400069FF022001900120029000200390049072
:102950000590069001A92248FEF75CFF0420019033
:10296000012002900020039004900590069001A998
:102970001B48FEF74FFF0820019001200290002025
:10298000039004900590069001A91548FEF742FFB8
:10299000202001900020029003900120049000204C
:1029A0000590069001A90E48FEF734FFFFF71CFCC6
:1029B00002F048FE02F0BEF802F03CFE02F0DEF843
:1029C000FEF700F8FFF78CFE02F064FA02F06AFAF4
:1029D00000F03CFAFFF79EFB07B000BD000C004082
:1029E000000D004070B504460D46054800780028EB
:1029F00000D170BD2946204601F078F900BFF8E704
:102A00000000002070B504460D462946204601F01E
:102A10006DF970BD10B5064800780649C8700846C3
:102A2000C0781930087106210248FFF7EBFF10BD8E
:102A3000740100201600002070B500240025C82174
:102A4000B848FDF705FC68222146641CB54842548D
:102A5000AD222146641C425400222146641C42548B
:102A6000B14802782146641CAE484254AE4802790F
:102A70002146641CAB484254AB4880880004020ED7
:102A80002146641CA7484254A748027A2146641C88
:102A9000A4484254A44800890004020E2146641C44
:102AA000A0484254A048027B2146641C9D484254E1
:102AB0009D48808901122246641C9A4881540A204C
:102AC0009949C8810846827B2146641C9548425436
:102AD0009548C08901122246641C924881540A20FC
:102AE000914908820846027C2146641C8D48425464
:102AF0008D48008A01122246641C8A488154E120D4
:102B00000001894948610846027D2146641C8548C8
:102B100042548548808A0004020E2146601C84B21B
:102B2000804842548048027E2046611C8CB27D4918
:102B30000A547D48008B0004020E2046611C8CB2B2
:102B400078490A540A20784988830846027F20463B
:102B5000611C8CB273490A547348808B0012214661
:102B6000621C94B26F4A505401206F49887708461E
:102B7000827F2046611C8CB26A490A546A48C27F2F
:102B80002046611C8CB267490A546748203002789D
:102B90002046611C8CB263490A5463482030427855
:102BA0002146601C84B25F484254014608190F2236
:102BB0005D492231FDF733FB20460F3084B259497D
:102BC00008190F2258493131FDF729FB20460F30F3
:102BD00084B254490819142253494031FDF71FFBB0
:102BE0002046143084B250484030027D2046611C9B
:102BF0008CB24C490A544C484030C27D2046611C7E
:102C00008CB248490A5448484030827E2046611CB4
:102C10008CB244490A5444484030C27E2046611C6C
:102C20008CB240490A544048406EC2B22046611CF2
:102C30008CB23C490A543C48406E0004020E2046C7
:102C4000611C8CB237490A540819102236496A317E
:102C5000FDF7E5FA2046103084B201213248603099
:102C60008176827E2046611C8CB22E490A54012155
:102C70002D4860304177427F2046611C8CB2294943
:102C80000A5429486030827F2046611C8CB2254955
:102C90000A5400222046611C8CB222490A5408467C
:102CA000011921488330027B0A70407B4870A01CC8
:102CB00084B21C4801191C488330027C0A70407C95
:102CC0004870A01C84B201222046611C8CB21549B8
:102CD0000A540121144880308174827C2046611C92
:102CE0008CB210490A54A01C88700020085500BFFF
:102CF00008E00C48005D0B49495D4018094908553A
:102D0000681C85B2A542F4DB601C84B21622204602
:102D1000611C8CB203490A5421460248FFF772FE37
:102D200070BD00009C00002074010020F3B581B04C
:102D30000546002400200090002600277EE0601D4C
:102D40000299884200DD7AE0285D682874D1601C11
:102D5000285CAA2831D1A01C2E5C642E6CDAE01C01
:102D6000285C38490978884266D1A019285C162861
:102D700062D100200090002707E0E019295C00984C
:102D80000818C0B20090781C87B2701EB842F4DCFC
:102D900060008019401E295C009881424CD1201DA2
:102DA0002918062227488930FDF739FA02F0F4FB8A
:102DB000FFF730FEA01984B23EE0601C285CAC280E
:102DC0003AD1E01C285C1F490978884234D1601D43
:102DD000285C162830D1601C285CAC282CD1A01CA3
:102DE0002E5C642E28DAE01C285C1649097888429B
:102DF00022D1A019401E285C16281DD10020009069
:102E0000002707E0E019295C00980818C0B200907C
:102E1000781C87B2B01EB842F4DC60008019801EB6
:102E2000295C0098814207D10748007B012801D125
:102E3000FFF702FEA01984B2601C84B27FE700BFD6
:102E4000FEBD0000740100206401002010B50821BF
:102E50000148FEF7D3FD10BD000C004070B5002402
:102E600000250720254908709F20487001F0C7F809
:102E7000802001F079F8002001F076F802211F4847
:102E800001F0AFF801F0CEF810201C4908700020C6
:102E9000487001F0B4F8802001F066F8052001F0D8
:102EA00063F80221154801F09CF801F0BBF81420EA
:102EB000FEF728FB01F0A3F8802001F055F804206C
:102EC00001F052F801F09BF8812001F04DF8022149
:102ED0000B4801F018F801F0A5F809480078000245
:102EE000084908800846008805494978401805497E
:102EF0000880084604882546284670BD95000020B5
:102F0000E40C0020F80C002010B50121C903024890
:102F1000FEF7F7FD10BD0000800C004010B5012148
:102F2000C9030248FEF76AFD10BD0000800C004096
:102F300010B5012189030248FEF7E3FD10BD000032
:102F4000800C004010B5012189030248FEF756FDB0
:102F500010BD0000800C004010B502210148FEF7B2
:102F6000D0FD10BDC00C004010B502210148FEF795
:102F700045FD10BDC00C004010B546480068400734
:102F8000400F030001F057F9073C050A3C0F3237A8
:102F90003C00414800684149086051E000F008F9F0
:102FA0003E4908604CE03B48406A8003800F00289F
:102FB00006D0012809D002280CD0032814D10EE035
:102FC0004B204003354908600EE04B20C0023349D6
:102FD000086009E04B2080023049086004E04B2083
:102FE00040022E49086000BF00BF29E02C4800685D
:102FF0002A49086024E07D200002284908601FE07B
:10300000244840680003000F002813D0012804D092
:10301000022806D003280CD107E022481F49086087
:103020000CE021481D49086008E020481B49086061
:1030300004E000BF1E481949086000BF00BF00BF80
:1030400000BF144800684005400F042806D005283A
:103050000AD006280ED0072818D111E00F480068C2
:1030600040080E49086012E00C48006880080B49CF
:1030700008600CE009480068C0080849086006E0DC
:103080000648006800090549086000E000BF00BF6D
:1030900010BD0000002400400C00002010000020A3
:1030A000080000200024F40000366E010048E8010A
:1030B00000127A0010B53948406B0121090308431A
:1030C000364948630846406B8021084333494863CA
:1030D000084600680121C9060843304908605520A8
:1030E000C8610320090548602D488069000C2C49FF
:1030F000098BC94389B2884202D12948806900E01E
:103100001020C006C00E274988632548C0300068DB
:10311000000C2349C0310988C94389B2884203D1D0
:103120001F48C030006800E08020C0B21B498860A2
:103130001B48C0304068000C1949C0318988C94318
:1031400089B2884203D11648C030406800E0802030
:10315000C0B21249886212488030006A000C1049DF
:103160008031098CC94389B2884203D10C48803030
:10317000006A00E08020C0B2084948610A484068FF
:10318000FF2181310843084948600520074908604C
:1031900001204860FFF7F0FE10BD00000024004051
:1031A00080FAFF1F00200040C00C004000280040B3
:1031B00010B500242C48C0688007C00F002802D03A
:1031C00001281BD117E0284840680003000F0028A1
:1031D0000DD0012804D0022804D0032806D103E032
:1031E000224C06E0224C04E0224C02E000BF224CBC
:1031F00000BF00BF02E02148046800BF00BF1A48BA
:10320000C0684006400F030001F015F808050709E3
:103210000B0D13151B1D00BF15E0640813E0A40877
:1032200011E0E4080FE00C212046FCF761FF0446A2
:1032300009E0240907E018212046FCF759FF04465D
:1032400001E0640900BF00BF0748C0684002400EAB
:10325000401C44430448C0680007C00F002800D049
:103260006400204610BD0000002400400024F4004B
:1032700000366E010048E80100127A000C000020C0
:10328000FFB581B0074615460A9E00240020009035
:1032900068222146641C344842542A782146641C22
:1032A00042546A782146641C4254AA782146641C20
:1032B0004254EA782146641C42542A792146641C0F
:1032C00042546A792146641C425400222146641CFF
:1032D00042540A222146641C42542246641C02992C
:1032E000815430461230C2B22146641C1E484254FA
:1032F000304612300004020E2146641C1A48425423
:103300002146641C47543804020E2146641C1648AA
:10331000425400222146641C425401460819324698
:103320000499FCF77CFFA01984B221460E48FDF7F2
:10333000D7FA00900098C2B22046611C8CB20A49AC
:103340000A54009800122146621C94B2064A505456
:1033500016222046611C8CB203490A5421460248B9
:1033600000F070FD05B0F0BD7C020020F3B587B021
:103370000546002400270020069005900490039045
:10338000029001900090002607E220461430089930
:10339000884200DD02E2285D68287AD120460B30A1
:1033A0002F5C3902401E285C081887B2204609307D
:1033B000285C039020460D30285C0490049801029C
:1033C00020460C30285C081880B20490E119089857
:1033D00081425EDC00200690E019801E285C069089
:1033E00006980102E019C01E285C081880B20690F9
:1033F000F81E81B22846FDF773FA059006990598E4
:1034000088426FD10398822802D084286BD1AAE128
:10341000E44A0498811A90422ED00ADCE24940180E
:10342000002837D0E1494018002847D0202875D11E
:103430000AE0DF480818002871D0DE49401800284B
:1034400013D00228F3D1B4E00020DB490880DB4927
:1034500008700121DA4841702046113029180622EF
:10346000D7486330FCF7DBFE7BE10020D2490880BF
:103470000320D249087074E10020CF49088020461B
:103480001330295CCE48403001720920CB490870C6
:1034900067E180E10020C84908800A20C749087018
:1034A000142F04D10421C6484030417205E0162F84
:1034B00003D10521C2484030417252E12DE020463F
:1034C00011308019285C002800D129E002980028DA
:1034D0000AD1204611308019285C2E281BD1F0B269
:1034E000029018E055E152E10198002808D12046E9
:1034F00011308019285C2E280DD1F0B201900AE01D
:103500000098002807D1204611308019285C2E2809
:1035100001D1F0B20090701C86B2D0E720E1F4E057
:1035200000BF0298012807D120461130285C3038AE
:10353000C1B2A448417012E0029802280FD120467F
:103540001130285C0007010E9E48417041782046EA
:103550001230285C30380818C1B29A48417002997C
:103560000198401A02280AD12046113002994018C9
:10357000401C285C0007010E9248401C41700198D5
:10358000301A02280ED18F48401C42782046113054
:1035900001994018401C285C30381018C1B2894885
:1035A000401C417000208449088002208349087033
:1035B000D7E020461130285C8249603908702046E7
:1035C0001330285C4880084680780006000C48804C
:1035D0000846418820461230285C0818794960392D
:1035E000488020461530285C88800846007900060F
:1035F000000C88800846818820461430285C081812
:1036000070496039888020461630295C6D48017009
:1036100020461730285C6B49603988712046183085
:10362000285CC87120461930285C087220461A3080
:10363000285C487220461B302918042261485638FD
:10364000FCF7EDFD20461F30285C5E496039887329
:1036500020462130285C08820846007C0006000CC9
:1036600008820846018A20462030285C08185549FF
:10367000603908822046223029180F2251484E38DE
:10368000FCF7CDFD2046313029180F224D483F3838
:10369000FCF7C5FD2046403029181422494830382F
:1036A000FCF7BDFD20465430295C464820380171A6
:1036B000204655302918102242481B38FCF7AFFD30
:1036C00020466530295C3F482038417520466630E9
:1036D000295C3C482038817520466730295C394890
:1036E0002038C17520466830295C3648203801767C
:1036F00020466930295C33482038417600202E4925
:1037000008800C202D4908702BE020461430285CDE
:103710002C496039C8650846C06D01022046133047
:10372000285C081827496039C8650846C06D010241
:1037300020461230285C081822496039C8650846BE
:10374000C06D010220461130285C08181D496039FF
:10375000C8650020184908800D201849087000BF6E
:1037600000BF00BF14E0184904984018002804D096
:1037700016494018002807D107E000200E490880AC
:103780000B200E49087000E000BF00BF00E000BF42
:1037900000BFE01984B2601C84B2F6E500BF09B036
:1037A000F0BD000004260000EEEDFFFF01F2FFFF78
:1037B000F495FFFF0FA0FFFF640100201D00002013
:1037C000940100206C020020FFEEFFFFDF50FFFF9E
:1037D000F8B5002400250026002700BF33484068C4
:1037E000FF2101310840000A044600BF2F488068CD
:1037F0000840000A054600BF2C484068C007C00FBB
:10380000012148404840064600BF284880680840DB
:10381000484048400746002C19D0012D17D100BF61
:10382000224800692249234A128888542148008886
:10383000401C2049088008460088C82801DB002079
:10384000088001201C49087064201C490880012E52
:103850002AD1012F28D11A4840791949097988427B
:1038600009D100BF11484068B0431049486000BF0B
:103870000120144908701248407911490979884299
:103880000CDA0F4800680E4A5279815C0748FEF74F
:1038900013FB0B484079401C0949487100BF0120C7
:1038A0000249886000BF00BFF8BD00000020014051
:1038B0004403002036000020340000203C0000209B
:1038C0009C0500203800002010B5FEF7CDFDFEF766
:1038D00001FE00F003F800F045FA10BD08B5022023
:1038E00000900A216846FEF73DF908BDF8B50024AE
:1038F00000250026002700BF33484068FF21013122
:103900000840000A044600BF2F4880680840000AAB
:10391000054600BF2C484068C007C00F0121484041
:103920004840064600BF2848806808404840484054
:103930000746002C19D0012D17D100BF224800697D
:103940002249234A1288885421480088401C204973
:10395000088008460088C82801DB00200880012074
:103960001C49087064201C490880012E2AD1012FAF
:1039700028D11A48407919490979884209D100BFEC
:1039800011484068B0431049486000BF0120144905
:103990000870124840791149097988420CDA0F48B9
:1039A00000680E4A5279815C0748FEF78BFA0B4893
:1039B0004079401C0949487100BF012002498860D4
:1039C00000BF00BFF8BD000000680140AC0500204A
:1039D000400000203F000020440000200408002098
:1039E0003E00002010B5FEF78FFDFEF7C1FD00F090
:1039F00003F800F01FFA10BD08B5012000900B215C
:103A00006846FEF7AFF808BDF8B50024002500268B
:103A1000002700BF32484068FF2101310840000AFA
:103A2000044600BF2E4880680840000A054600BFD3
:103A30002B484068C007C00F012148404840064657
:103A400000BF274880680840484048400746002C8F
:103A500019D0012D17D100BF214800692149224A00
:103A60001288885420480088401C1F490880084656
:103A70000088C82801DB0020088001201B4908704D
:103A800064201B490880012E28D1012F26D1194816
:103A900040791849097988420CDA16480068154AB5
:103AA0005279815C0E48FEF713FA12484079401CA7
:103AB0001049487100BF01200949886000BF0D48C6
:103AC00040790C490979884208D100BF0448406810
:103AD000400840000249486000BF00BFF8BD000038
:103AE000007001401408002086000020840000209F
:103AF0008A0000206C0A002010B5FEF753FDFEF787
:103B000087FD00F003F800F0C3F910BD08B50220EE
:103B100000900C216846FEF725F808BDF8B5002492
:103B200000250026002700BF33484068FF210131EF
:103B30000840000A044600BF2F4880680840000A79
:103B4000054600BF2C484068C007C00F012148400F
:103B50004840064600BF2848806808404840484022
:103B60000746002C19D0012D17D100BF224800694B
:103B70002249234A1288885421480088401C204941
:103B8000088008460088C82801DB00200880012042
:103B90001C49087064201C490880012E2AD1012F7D
:103BA00028D11A48407919490979884209D100BFBA
:103BB00011484068B0431049486000BF01201449D3
:103BC0000870124840791149097988420CDA0F4887
:103BD00000680E4A5279815C0E48FEF77FF90B4867
:103BE0004079401C0949487100BF012002498860A2
:103BF00000BF00BFF8BD0000007401407C0A002037
:103C00008E0000208D00002092000020D40C0020A7
:103C10008C0000200078014010B5FEF713FDFEF780
:103C200045FD00F003F800F03BF910BD08B5022097
:103C300000900D216846FDF795FF08BD10B586B0D0
:103C40000446002C01D1019001E0022001900120E6
:103C50008003009000200290012003900020049037
:103C6000059069460248FDF7D5FD06B010BD00007D
:103C7000000C004010B517480078012808D100203A
:103C8000144908700520FDF73DFC0020FFF7D6FF22
:103C90001148007801281BD110480088002817D14E
:103CA000FEF794FA00200C4908700D4802880D496F
:103CB0000D48FCF7B4FA0A4801880B48FEF792FE5B
:103CC000074801880848FFF731F8002004490880B8
:103CD00010BD000038000020340000203C0000200F
:103CE00036000020440300200C04002070B5054677
:103CF0000C46002C00D170BD64201649088000BF1E
:103D00001548007914494979884203D01148008840
:103D10000028F5D10120FDF7F5FB0120FFF78EFF0C
:103D2000224629460D48FCF77AFA0C480A490860F1
:103D30000C710120487100BF0949886000BF084626
:103D4000FDF734FF0448006801780548FEF7B4F831
:103D500000BFD0E73A0000209C050020D4040020DA
:103D6000002001400120024908714871704700009D
:103D70009C05002010B50E480078012816D10D488A
:103D80000088002812D1FEF721FA002008490870A7
:103D90000948028809490A48FCF741FA064801889F
:103DA0000748FFF7E3FA00200349088010BD000030
:103DB0003F0000204400002040000020AC0500200F
:103DC0007406002070B505460C46002C00D170BD6D
:103DD0007D20C0001349088000BF134800791249B4
:103DE0004979884203D00F4800880028F5D122463F
:103DF00029460E48FCF713FA0C480B4908600C7171
:103E00000120487100BF0A49886000BF0846FDF7DD
:103E1000D2FE0548006801780548FEF753F800BF58
:103E2000D5E7000042000020040800203C070020E5
:103E30000068014001200249087148717047000084
:103E40000408002070B505460E4600240D48007891
:103E5000012809D100BF05E029210B48FFF7B2FF77
:103E6000601C84B23C2CF7DB0B210848FFF7AAFF4B
:103E700031462846FEF7B6FD31462846FFF7A2FF39
:103E800070BD000082000020460000207800002065
:103E90000120024908714871704700006C0A002037
:103EA000012002490871487170470000D40C0020BD
:103EB000002002E000BF411CC8B23228FADB704784
:103EC00070B50025002000F043F9002000F0C2F892
:103ED000FFF7EEFF002412E0012000F0BBF8FFF72F
:103EE000E7FF00F01BF9002802D0802020410543A5
:103EF000002000F0AFF8FFF7DBFF601CC4B2082C15
:103F0000EADB284670BD70B506460D46002428E061
:103F1000FFF7D6FF3055681EA04210DD012000F0EB
:103F200017F9002000F0C8F8FFF7C2FF012000F0E9
:103F300091F8FFF7BDFF002000F08CF80FE00120A2
:103F400000F006F9012000F0B7F8FFF7B1FF0120FB
:103F500000F080F8FFF7ACFF002000F07BF8601C59
:103F6000C4B2AC42D4DB70BD70B50446012000F091
:103F7000EFF8002000F06EF8002518E080202040C7
:103F8000002803D0012000F097F802E0002000F0A4
:103F900093F8FFF78DFF012000F05CF8FFF788FF32
:103FA000002000F057F86006040E681CC5B2082D0A
:103FB000E4DB002000F0CCF8FFF77AFF012000F0EE
:103FC00049F8FFF775FF00F0A9F8002802D100F0CA
:103FD00041F802E0002000F03DF8FFF769FF012002
:103FE00070BD70B505460E46002404E0285DFFF75D
:103FF000BBFF601CC4B2B442F8DB012070BD10B539
:10400000012000F0A5F8012000F056F8012000F092
:1040100021F8FFF74DFF002000F04EF8002000F0DF
:1040200019F810BD10B5012000F092F8002000F042
:1040300043F8012000F00EF8FFF73AFF012000F0EE
:104040003BF8002000F006F8FFF732FF012000F0F7
:1040500001F810BD10B50446012C13D114480078A6
:10406000002802D001280BD105E0FF2101311148C1
:10407000FDF74AFD05E040210E48FDF745FD00E053
:1040800000BF13E00A480078002802D001280BD1B5
:1040900005E0FF2101310748FDF7B3FC05E04021B1
:1040A0000448FDF7AEFC00E000BF00BF10BD0000FB
:1040B00097000020800C004010B50446012C13D15D
:1040C00014480078002802D001280BD105E0012116
:1040D00049021148FDF718FD05E080210E48FDF763
:1040E00013FD00E000BF13E00A480078002802D06A
:1040F00001280BD105E0012149020748FDF781FCA9
:1041000005E080210448FDF77CFC00E000BF00BF13
:1041100010BD000097000020800C004010B50A4838
:104120000078002802D001280BD105E001214902C6
:104130000648FDF763FB10BD80210448FDF75EFBD8
:10414000F9E70020F7E7000097000020800C00400E
:1041500010B586B004460120029003900020049020
:104160000590012C02D10120019001E00020019076
:104170000C480078002802D001280FD107E0012068
:104180004002009069460848FDF744FB07E08020A4
:10419000009069460448FDF73DFB00E000BF00BF0A
:1041A00006B010BD97000020800C00407CB515467D
:1041B000024600201C4600290BD0491E00920191A6
:1041C000044B6A462146284600F00CF9009A00216B
:1041D00011707CBD1D4B00002021020C01D010216C
:1041E0001046020A01D010460839020901D01046D3
:1041F000091F820801D01046891E420801D0881E7E
:104200007047081A7047F8B582B28BB2040C0D0CD7
:1042100010465843002126465E43370C3604801969
:10422000794116466E43370C36048019794126468B
:104230006E438919F8BD30B47446641E2578641C39
:10424000AB4204D3635D5B00E31830BC18471D46E6
:10425000F8E702E008C8121F08C1002AFAD1704727
:104260007047002001E001C1121F002AFBD17047F6
:10427000F0B51FB486B00998089A030D00210243D7
:1042800014D05148514A1818504305141198012868
:1042900010981AD0281A401C00264D4F4D49009600
:1042A00001910490002812DA444211E0119801248F
:1042B00049A3012801D11098C1430698119A84603E
:1042C0000360C26041600BB0F0BD4042E4E70446C9
:1042D000210500203F4A001C51410391029012E049
:1042E000E00707D032463B4601990098FCF76EF88C
:1042F0000191009032463B4610461946FCF766F89D
:1043000006460F466410002CEAD10498039B00284F
:10431000029A0999089806DAFCF758F8019B009A66
:10432000FCF754F805E0FCF7B9F8019B009AFCF79C
:10433000B5F804460E460022284BFCF7DBF903D8FB
:104340000020C043014607E00022254B20463146AD
:10435000FBF78AFFFCF7AEF9102409E0002C0ADB1A
:104360000A220023FBF7EEFE079B30321A55641E2B
:1043700002460A43F2D11122641C079B121B1C192E
:10438000119B012B03D0012308430ED10AE00843FF
:1043900004D0112010900020119077E71098151A82
:1043A0006D1E0BE01098824202DD00236D1C03E0BD
:1043B000824201DA00236D1E002BEED0069811997F
:1043C0008260C16030C07EE701FCFFFF104D00003D
:1043D000000014400000F03F300000000000F043F7
:1043E0000000E03FFFB597B00646002518E22528FB
:1043F00077D100242746FD49049400E00443761C4D
:1044000032780120203A90400842F7D130782A28AB
:104410000ED00222307801463039092916D8049985
:104420000A235943303940181443761C0490F1E7AD
:10443000189802C804911890002904DA012040035A
:1044400004434842049002200443761C30782E280E
:1044500014D1042004437078761C2A2809D11898B6
:10446000761C80C8189009E00A214F43303FC719D5
:10447000761C3078014630390929F5D930786C2816
:1044800010D006DC4C281AD068280ED06A2817D124
:1044900004E0742813D07A2812D110E001204005DE
:1044A00004430CE00121090501E0032109050C4347
:1044B0007178814203D1012000052418761C761CF6
:1044C0003078119066280BD013DC58287DD009DC99
:1044D00000287BD04528F6D04628F4D047281AD1AA
:1044E000A5E118E0632835D0642870D0652812D182
:1044F0009DE170286CD008DC6728F1D069287BD05A
:104500006E280DD06F2806D1BAE073282ED07528FA
:1045100071D0782859D01A9A199990476D1C7EE16C
:104520006002400F022809D003280DD004281898F3
:1045300001680DD00D60001D189070E11898EA1701
:1045400001680D604A60F6E7189801680D80F2E78F
:104550000D70F0E718986A4601781172001D1890E6
:104560000020507202A80090012005E0189802C8AF
:10457000189000200091C04361070DD5002101E093
:104580000199491C0191B94212DA8142F8DB009A83
:10459000515C0029F4D10BE0002101E00199491C94
:1045A00001918142FADB019A0099895C0029F5D1D9
:1045B000019904981A9B471A21463846199A00F027
:1045C00097FA0199401945180BE04FE02CE113E0F0
:1045D0004EE0009800990078491C00911A9A1999A8
:1045E00090470198401E0190401CF2D12146384668
:1045F0001A9B199A10E137E00A20002100900191DE
:104600006002410F022907D0189A01CA1892C217F6
:104610009446032908D00AE01898C01DC108C900B3
:1046200005C91891944607E000B2C21794460429C0
:1046300002D140B2C1178C4600226146944506DA89
:104640000A460021404291418C462D2102E021057D
:1046500004D52B216A461173012103E0E10701D043
:104660002021F7E7029155E00A200AE0102008E037
:10467000102000900021042004430191082703E04A
:1046800008200021019100906002410F022907D00B
:10469000189A01CA189200229446032908D008E00B
:1046A0001898C01DC108C90005C91891944603E0B7
:1046B00080B2042900D1C0B200210291210729D57E
:1046C0001199702906D0009A1021019B4A401A4383
:1046D00005D00EE040216A461173012108E06146D1
:1046E000014306D030216A4611731199517302219A
:1046F0000291009A0821019B4A401A430AD161465F
:10470000014301D1610705D530216A4611730121AA
:104710007F1E02911199582904D035A10E910DA93F
:104720000D910DE037A1F9E76146019B009AFBF777
:1047300009FD0E9B8C469B5C0D9A521E0D921370C8
:1047400061460143F0D10D9805A9081A2030019067
:10475000600703D501200004844300E0012701988D
:10476000874201DD381A00E00020019900904118CD
:10477000029809180498401A0490E00306D42146D0
:104780001A9B199A049800F0B3F94519002706E01E
:1047900003A81A9AC05D199990476D1C7F1C029856
:1047A0008742F5DBE0030CD521461A9B199A049841
:1047B00000F09EF9451904E01A9A302019999047A3
:1047C0006D1C0099481E00900029F5DC08E00D984A
:1047D0000D990078491C0D911A9A199990476D1CF2
:1047E0000199481E01900029F1DC63E109280100CC
:1047F0003031323334353637383961626364656657
:104800000000000030313233343536373839414218
:10481000434445460000000000F05AF94519761C53
:104820003078002800D0E2E528461BB0F0BD6007D4
:1048300000D406271898C01DC108C90048680A6836
:104840000831C30FDB071891190001D09CA108E0C3
:10485000210501D59BA104E0E10701D09AA100E068
:104860009AA1430011985B08109165280CD006DCD2
:10487000452809D046281DD0472841D141E0662867
:1048800018D067283CD13CE00021112F01DB11201A
:1048900000E0781C0191009008A911A8FFF7E8FC3E
:1048A000139905910021119A15927F1C1298019776
:1048B000009150E00120C00703900120019008A959
:1048C000009711A8FFF7D4FC139A149905920022BF
:1048D000119B009212981593059A0192002901D01C
:1048E000104602E0791C40180190381A01D5019851
:1048F00004E04042401E0090781C0190C01B0290D2
:1049000043E0012F00DA01270021112F01DD1120E2
:1049100000E038460191009008A911A8FFF7A8FC13
:1049200013990591119A00211298159200910197FF
:1049300021070CD40599B94201DB019900E00191EE
:10494000012904DD159A491E515C302906D0B84270
:1049500001DA011D05DA0121029115E00199491ED4
:10496000EDE7002805DC0099411800910199091A2A
:1049700003E0019A411C914200DD01910099401A27
:10498000401C02900120C0070390200706D4029922
:104990000198814202DB0020C0430290002069465A
:1049A000C87707AF012103980337C907884224D08D
:1049B000022011902B201290039800280CDA40421C
:1049C00003902D20129007E00A210398FBF790FB3B
:1049D00030317F1E039039701199481E11900029C3
:1049E000F2DC03980028EFD1791E12980870307815
:1049F000202108404530BF1E387006A8C01BC01DCE
:104A0000039010980078002800D0012001994118E7
:104A10000298C0170918039809180498401A401EF4
:104A20000490E00306D421461A9B199A049800F0DA
:104A30005FF8451910980078002803D01A9A199940
:104A400090476D1CE00324D521461A9B199A0498BF
:104A500000F04EF845191CE00098002807DB00998B
:104A60000598884203DD1598405C199901E0199971
:104A700030201A9A904700986D1C401C00900298B4
:104A8000401E0290002804D11A9A2E2019999047AE
:104A90006D1C0199481E01900029DDDC05E0387885
:104AA0001A9A7F1C199990476D1C0399481E039010
:104AB0000029F4DC21461A9B199A0498ACE6000000
:104AC0002D0000002B00000020000000000000006E
:104AD000F8B5044600251E461746880404D405E0B0
:104AE00039462020B0476D1C641EF9D52846F8BD14
:104AF000FFB50446002581B01E46C80301D5302706
:104B000000E02027880404D505E038460399B04723
:104B10006D1C641EF9D5284605B0F0BD4A68002A10
:104B200006D00A68531C0B6010704868401E48602D
:104B30007047000010B510210148FCF75FFF10BD61
:104B4000800C004010B510210148FCF7DAFF10BDC1
:104B5000800C004010B5012109030248FCF7D1FF89
:104B600010BD0000000C004010B50121C902024830
:104B7000FCF744FF10BD0000000C004010B50221FE
:104B80000148FCF73BFF10BD000D004008B50020B8
:104B9000034B044A022100900348FEF771FB08BD55
:104BA0002C000020F70100201120000008B5002093
:104BB000034B044A022100900348FEF761FB08BD45
:104BC0002C0000202D0000203120000008B500201E
:104BD000034B044A022100900348FEF751FB08BD35
:104BE0002C000020F70100201090000010B500BF3D
:104BF000FF200130FDF7E2F904460B204443204634
:104C000010BD000010B50121A048FCF7ECFD002804
:104C100019D1012109039D484030FCF7E4FD00282B
:104C200011D10121C90399484038FCF7DCFD002867
:104C300009D1202195488030FCF7D5FD002802D10C
:104C40009349087020E101219048FCF7CCFD002831
:104C500019D1012109038D484030FCF7C4FD00281B
:104C600011D10121C90389484038FCF7BCFD002857
:104C700009D1202185488030FCF7B5FD012802D1FB
:104C80008349087000E101218048FCF7ACFD002851
:104C90001AD1012109037D484030FCF7A4FD00280A
:104CA00012D10121C90379484038FCF79CFD012845
:104CB0000AD1202175488030FCF795FD002803D1EA
:104CC000022073490870DFE001217048FCF78BFD7A
:104CD00000281AD1012109036C484030FCF783FDFC
:104CE000002812D10121C90368484038FCF77BFD38
:104CF00001280AD1202165488030FCF774FD012885
:104D000003D1032062490870BEE001215F48FCF72F
:104D10006AFD002819D1012109035C484030FCF7E5
:104D200062FD012811D1C10358484038FCF75BFDF2
:104D300000280AD1202155488030FCF754FD002876
:104D400003D10420524908709EE001214F48FCF72E
:104D50004AFD002819D1012109034C484030FCF7D5
:104D600042FD012811D1C10348484038FCF73BFD02
:104D700000280AD1202145488030FCF734FD012865
:104D800003D10520424908707EE001213F48FCF72D
:104D90002AFD002819D1012109033C484030FCF7C5
:104DA00022FD012811D1C10338484038FCF71BFD12
:104DB00001280AD1202135488030FCF714FD002855
:104DC00003D10620324908705EE001212F48FCF72C
:104DD0000AFD002819D1012109032C484030FCF7B5
:104DE00002FD012811D1C10328484038FCF7FBFC23
:104DF00001280AD1202125488030FCF7F4FC012845
:104E000003D10720224908703EE001211F48FCF72A
:104E1000EAFC012819D101031C484030FCF7E3FCEF
:104E2000002812D10121C90318484038FCF7DBFCE7
:104E300000280AD1202115488030FCF7D4FC002836
:104E400003D10820124908701EE001210F48FCF729
:104E5000CAFC012818D101030C484030FCF7C3FC00
:104E6000002811D10121C90308484038FCF7BBFCD8
:104E7000002809D1202105488030FCF7B4FC012826
:104E800002D109200249087010BD0000800C0040CA
:104E90007401002010B508210148FCF7AFFD10BDDA
:104EA000800C004010B504210148FCF7A7FD10BD9F
:104EB000800C004010B5022004494870FEF738F815
:104EC000FEF722F8FEF750F810BD00007401002034
:104ED00010B527480068002849D10C2125480088D2
:104EE000FBF71CF90C462300FFF7A5F907050C1387
:104EF0001A21282F3600FEF71BF8FEF705F8FEF7FB
:104F00002BF82AE0FEF71EF8FDF7FEFFFEF724F867
:104F100023E0FEF717F8FEF701F8FEF71DF81CE096
:104F2000FEF706F8FDF7FAFFFEF716F815E0FDF7B5
:104F3000FFFFFDF7F3FFFEF717F80EE0FDF7F8FFB0
:104F4000FDF7E2FFFEF710F807E0FDF7F1FFFDF7D0
:104F5000DBFFFEF701F800E000BF00BF0548008856
:104F6000401C044908800A200149086000BF10BDA8
:104F7000280000202400002010B5FFF7F5FDFFF702
:104F8000E9FD10BDFCF7EAFDFDF7F8F9FDF736FA8B
:104F900000F02CF809E0FFF79BFFFEF7EBFEFEF7B1
:104FA00069FEFDF7FDF800F035F8F4E708B50020DC
:104FB000034B044A022100900348FEF761F908BD43
:104FC0002C000020F701002003F0000008B50020AD
:104FD000034B044A022100900348FEF751F908BD33
:104FE0002C000020F701002001F0000010B5FDF7B3
:104FF000C3FBFEF781FDFEF70FFEFEF7F3FCFEF7A5
:1050000063FCFBF74FFCFDF70BF9FFF7FBFD00F02E
:10501000E3FA10BD10B500F041FAFE480088002800
:1050200000DD10BDFC480078102877D010DC0B287C
:1050300070D006DC00281CD001281BD003286AD1C0
:1050400036E00C2868D00D2867D00F28F7D14AE049
:1050500017287BD006DC112879D0122878D01528A3
:10506000EDD12BE11A2874D01D2873D01E28E6D16B
:1050700001E20BE2FFF7BAFDE849486008464068E4
:105080001921C90188420ED9E44840687D214901AF
:10509000884208D20020DF490880E1488860032068
:1050A000DD49087003E07D20C000DA490880EDE1A9
:1050B0000020FBF7BFFCD949888108468089042875
:1050C0000CDD084680891E2808DA0020D1490880B6
:1050D000D44888600F20D049087003E07D20C000CC
:1050E000CC490880D2E1D048007800280BD10F20AD
:1050F000CD4908700020C7490880CA488860102040
:10510000C549087004E0FFF751FDC848C14908804F
:10511000BCE103E029E0B5E13DE093E0C24800785E
:10512000022818D10F20C0490870BC488330C049FC
:105130000A780274497841747D20C000B54908801E
:10514000BC4888600B20B44908700DE00CE151E0C8
:10515000EFE036E08EE0B8A0FBF782FCFFF716FD2B
:105160007D200001AB49088090E1AF480078092814
:105170000BD10F20AC4908700020A6490880A84830
:1051800088600C20A449087004E0FCF7A3FFA7483E
:10519000A04908807AE1A44800780A280BD10F20A2
:1051A000A149087000209B4908809D4888601A200A
:1051B0009949087004E0FCF79DFF9C4895490880D8
:1051C00064E19948007807280BD10F2096490870B0
:1051D0009348904988600020088011208E4908700B
:1051E00007E09AA0FBF73CFCFCF77EFE8F4889495C
:1051F00008804BE18C48007803281CD18948FCF7D3
:1052000081F90F20884908707D20000181490880BC
:105210008348886081486030407A052802D10D209B
:105220007D4908707D486030407A042809D11D20EE
:105230007949087005E0FFF7C9FE7D200001754936
:10524000088023E18548007801280CD17648007851
:105250000B2808D100206F490880714888601D2004
:105260006D49087005E000F0D5F97D20000169491D
:1052700008800BE16C4800780D2818D10F206A498E
:10528000087066484078022808D169486138C06DC6
:10529000002803D0012161482030017000205D49C1
:1052A00008805F48886015205B49087005E0FFF7BB
:1052B0008DFC7D20000157490880E7E05A480078BE
:1052C0000C282BD10F20584908705948401E0078EF
:1052D000012803D101215148803081747D20C00014
:1052E0004C4908805E488860514821380079002880
:1052F00008DD4F4821380079632803DA1720464932
:10530000087002E012204449087044486030007A76
:1053100000280DD117204049087009E05148006865
:10532000002805D1FFF742FE7D20000139490880A1
:10533000ACE03D48007803280FD13A48FCF7E2F88A
:105340000F20394908707D20000132490880444807
:10535000886017203049087005E0FFF737FE7D2090
:1053600000012C49088000BF2F4800780C287BD111
:105370000F202D4908702E48613800782749C877DA
:105380002B48613840888860294861388088886166
:1053900027486138817921484030C17624486138F6
:1053A000017A1E486030817721486138417A1B4874
:1053B000603041771E486138008A184948660F22DC
:1053C0001B494F3915482230FAF729FF0F22184997
:1053D000403912483130FAF722FF1422144931398A
:1053E0000E484030FAF71BFF1148213801790B486D
:1053F0004030017510220E491C392A30FAF70FFF90
:10540000002004490880064888601E200249087070
:1054100030E029E0640100201C000020740100201D
:10542000204E0000102700001D000020B80B0000D7
:105430006D020020983A0000B7A2CBCDB6C1B0E60D
:10544000B1BEBAC5D0ADD2E90D0A0000BFAACABC30
:10545000B7A7C3C5BCECB2E20D0A0000980000205B
:10546000A861000020000020FFF7A0FD7D200001C2
:10547000084908800AE0012006490873002006490F
:10548000087003E01E200449087000BF00BF00BF81
:10549000C7E50000640100201C00002000B507489B
:1054A0004068002803D005488068002805D10348DB
:1054B000007B002801D100F09FF800BD64010020AE
:1054C00010B500202F49486088608881C881088213
:1054D0004861886188838877C8770021294820300F
:1054E000017041700F21801CFAF7B2FE0F21254890
:1054F0003130FAF7ADFE142122484030FAF7A8FE09
:1055000000212048403041758175C1750176417692
:105510008176C17600201B494866102119486A30FF
:10552000FAF796FE0021174860308176C176017740
:105530004177817700201449087306211148833090
:10554000FAF786FE00210F486030C17720300170E5
:105550004170817000200B49C86508660021094828
:1055600060300172417223300173417301744174E0
:105570000020064908700F200549087001200549E0
:10558000087010BD74010020640100209800002004
:105590001D0000201E00002010B500F01DF8FFF7D0
:1055A0008FFF0120074908700748084948600848EC
:1055B000886000200873088006210648FDF712FA6B
:1055C00010BD00001C000020A08601006401002026
:1055D000B80B0000FD01002010B500F03BF8FFF70C
:1055E000B1FA00F027F8FFF7C9FAFFF763FCFCF700
:1055F000EDFDFFF7C1FC10BD1E200449087001201D
:105600000349087300200880704700001C00002038
:105610006401002008B50020034B044A04210090D7
:105620000348FDF72DFE08BD2C000020F7010020E7
:105630000111000010B501210148FCF7DFF910BD90
:10564000000D004010B520210148FCF7D7F910BD2E
:10565000800C004010B520210148FCF752FA10BD23
:10566000800C0040091A0000151A0000971A00006B
:10567000A31A0000AF1A0000BD1A0000CB1A0000E8
:10568000D91A0000E71A0000F51A0000211A0000DC
:105690002F1A00003D1A00004B1A0000591A000092
:1056A000671A0000731A00007F1A00008B1A0000AE
:1056B000291B0000431B0000D856000000000020FA
:1056C0009C00000052420000745700009C00002023
:1056D0006C140000624200000068AA0068880000A4
:1056E0000080000000127A0000127A00000068AB0F
:1056F00006001916000F0100000000000000000065
:105700000000000000AAAAAAAAAAAA00000000009D
:1057100001000000000001000000000000005555DD
:105720005555555555555555555555555555555529
:105730005555555555555555555555555555555519
:105740005555555555555555555555555555555509
:10575000FEFEFEFEFEFEFEFEFEFE0100000000005C
:10576000640000000100000064000000010000006F
:045770000000000035
:04000005000000C136
:00000001FF
