:020000040000FA
:10000000D0140020D5000000DD000000DF0000005B
:1000100000000000000000000000000000000000E0
:10002000000000000000000000000000E1000000EF
:100030000000000000000000E3000000E5000000F8
:10004000E7000000E7000000E7000000E700000014
:10005000E7000000E7000000E7000000E700000004
:10006000E7000000E7000000AD320000C9330000E7
:10007000E5340000F9350000E7000000E70000006B
:10008000E7000000E7000000E7000000E7000000D4
:10009000E7000000E7000000E7000000E7000000C4
:1000A000E7000000E7000000E7000000E7000000B4
:1000B00041070000E7000000211C0000E7000000ED
:1000C0000348854600F02AFB00480047E14800004D
:1000D000D01400200448804704480047FEE7FEE7AC
:1000E000FEE7FEE7FEE7FEE74D2B0000C100000043
:1000F00030B50B46014600202022012409E00D46C0
:10010000D5409D4205D31D469540491B2546954047
:1001100040191546521E002DF1DC30BD70B500248B
:100120002546002801DA01244042002901DA012590
:100130004942FFF7DDFFAC4200D04042002C00D026
:10014000494270BDF0B51FB40646002082B0054696
:100150004024019100901BE0019922460F46304651
:1001600000F024FA049A059B801A994110D3104696
:100170001946224600F00AFA361A8F4101972246A4
:1001800001200021009F00F001FA38184D41009035
:100190002046641E0028DFDC019B00982946324679
:1001A00007B0F0BDF0B51FB486B0002000900190FC
:1001B00002900698069980B204900798090C0204F0
:1001C0000014114307900027089D099806913E46A8
:1001D0003C4603900398A9B20204000C03900498D3
:1001E0002D0C154348430021224600F0CFF9C719D2
:1001F000714110340E46402CECDB3846029A00F078
:10020000C5F9009A019B801800905941029801910C
:10021000103002904028CCDB00980BB0F0BD0346B4
:100220000B439B0703D009E008C9121F08C0042A2A
:10023000FAD203E00B780370401C491C521EF9D21D
:100240007047D2B201E00270401C491EFBD27047D9
:100250000022F6E710B513460A4604461946FFF792
:10026000F0FF204610BD0000F0B507460846584094
:1002700087B0C00F049048000E4659004008490856
:10028000BC1A884105D2384631461E4617460B46F1
:1002900002465800400810434CD0300D03904005F2
:1002A0005900400D490D0590401A0290402872DA1D
:1002B00018030121000B09050843019004980092DE
:1002C000002805D0019952420020884100920190F7
:1002D000029840210A1A0199009800F057F9054642
:1002E0000C466B4607CB00F072F9C0197141039AB6
:1002F0000E0D0023D71756401A467A40164344D0B5
:10030000049A002A2DD0029A012A039A15DC1205BC
:10031000C01A914101263605001C7141D20F059E7D
:10032000D2070093019202962A46234600F06FF905
:1003300007B0F0BD38463146FAE71605224A0F46A7
:10034000B218C01AB74101210905001C4F4100181D
:100350007F41114618187941E20F10436D1964412D
:1003600013E0E2076D0815436408C2071443039ABB
:1003700001261205C01A91413605001C7141CE07B5
:10038000400830434908C01851412A46234600F02E
:1003900031F9CDE7FFE7049801224000C117121A96
:1003A00000238B4104983146C417381AA141EEE767
:1003B00030B40124E407634030BC55E730B4012475
:1003C000E407614030BC4FE70000E0FFF0B51FB428
:1003D00088B00B990998002448400999C00F49003A
:1003E00049080991C0070B990090490049080B91F1
:1003F00009990898A64608431CD00B990A98084307
:1004000018D0099801244000420D4800410D099878
:1004100024050003000B204309900B980003000BF8
:1004200020430B9050181C4940180022019014469C
:10043000104605E0002001460DB0F0BD032801DAAA
:10044000034600E003239C46C11A0AAE0AE05F009F
:1004500008ADED5B4F00F75B7D430027AA187C4198
:10046000491C5B1E6145F2DD410004AB5A52210478
:10047000120C0A43240C401C0828DFDB0198029070
:100480000099704601910090059B049A079906987F
:1004900000F0BDF8D0E700000DFCFFFFF0B50C4602
:1004A0005C4085B0E40FE40703944C000026640828
:1004B00059009446490802460296224321D06246DA
:1004C0000A431ED06200570D4A000E032303550D48
:1004D000012402462C492405781B1B0B360B4018BF
:1004E00023432643614600901C46501AB44103D36F
:1004F0000098401C009002E0921800985B41002890
:1005000003DA0020014605B0F0BD002001210905F5
:100510000746864611E064461D46141BB54106D3C6
:100520006546521BB341744607430C43A646CD07AC
:1005300040084908284392185B4105460D43EAD11B
:100540001046184313D06046194650407140084386
:1005500006D06046101AB34106D20122002306E0FD
:1005600000220123DB0702E00122D243531000984E
:1005700074460105381C6141029C039D00196941C4
:1005800000F038F8BFE70000FD03000010B5202A96
:1005900004DB0146203A9140002010BD9140202309
:1005A0009C1A0346E3401943904010BD10B5202A21
:1005B00004DB0846203AD040002110BD0B46D34052
:1005C000D0402024A21A91400843194610BD10B50E
:1005D000202A06DBCB170846203A1041C1170B43EF
:1005E00006E00B461341D0402024A21A9140084354
:1005F000194610BD10B5002B08DA0024401C6141DB
:1006000092185B411A4301D14008400010BDF0B57B
:100610001FB482B005460C0003D0084603F034FC3A
:1006200002E003F031FC20300246009021462846CB
:10063000FFF7ACFF049B059A04460F46184311438D
:10064000084314D0184610431BD0009840210A1AC2
:1006500018460599FFF7AAFF05460E46009A059928
:100660000498FFF793FF084305D0012004E02046DB
:10067000394607B0F0BD0020C11705430E432C4397
:10068000374300990E986305401A7905E40A002261
:100690000C43FD0A0A3002D500200146E9E70105B6
:1006A000101969410C9C0D9D00196941FFF7A2FFCB
:1006B000DFE700004A0009030123090B1B0519436A
:1006C0000A4B10B5520D9A4202DA0020014610BDC5
:1006D000064B34339A4203DC9A1AFFF767FF10BDCA
:1006E000034BD218FFF752FF10BD0000FF030000BC
:1006F000CDFBFFFF10B5002904DB0124E4074042D5
:100700008C412146002B04DB1C460123DB075242AF
:10071000A341994200D1904210BD0000064C012532
:10072000064E05E0E36807CC2B430C3C9847103499
:10073000B442F7D3FFF7C8FC284F0000484F000031
:1007400000BF3448C068C007C00F0121484048407E
:1007500000285DD000BF2F4800690840484048404D
:10076000002855D000BF01202A49086100BF2A484F
:100770000088002804DD28480088401E264908809B
:1007800026480088002804DD24480088401E2349AC
:10079000088023480088002804DD21480088401E86
:1007A0001F4908801F480088002804DD1D48008874
:1007B000401E1C4908801C480088002804DD1A4897
:1007C0000088401E1849088017484068002804D057
:1007D00015484068401E14494860134800890028A5
:1007E00004DD11480089401E0F4908810F48007838
:1007F000002804DD0D480078401E0C4908700C48A4
:100800000088002804DD0A480088401E0849088046
:100810007047000000300140680000207000002098
:100820000800002052000020E802002043000020C1
:100830005000002010B501F0FBFB01F0E9FB00F0D7
:1008400003F800F009F810BD08B5022000901C2143
:10085000684601F00FF808BD00BF04480068012198
:1008600008430249086000BF7047000000300140A3
:100870007CB502F077F80A2000F0E8FD002409E0DA
:100880000A2000F0E3FD02F06DF861006A46505264
:10089000601CC4B2032CF3DB002500241BE06000C5
:1008A0006946085AC01300280ED06000085A00217B
:1008B000C943081A401C61006A46505260006946EC
:1008C000085A281A85B204E060006946085A40199F
:1008D00085B2601CC4B2032CE1DBE81301280ED101
:1008E000801E401B401C85B203212846FFF716FCE2
:1008F00085B20020C043401B401C85B204E00321A8
:100900002846FFF70BFC85B228467CBD10B50821B0
:10091000014800F0F7FE10BD000D004010B508487A
:100920000078002802D0012806D102E0FFF7EEFF90
:1009300003E001F011FD00E000BF00BF10BD0000AA
:100940004900002010B50821014800F0D5FE10BD77
:10095000000D004010B508480078002802D001289A
:1009600006D102E0FFF7EEFF03E001F0FDFC00E03E
:1009700000BF00BF10BD00004900002070B5054653
:1009800008480570FFF7E6FFFFF772FF0446FFF720
:10099000C5FF232C02DD2046233884B2264630468C
:1009A00070BD0000490000200FB410B5B4B00E486F
:1009B0000078002804D134B010BC08BC04B018473B
:1009C00037A80190C82102A8019B369A03F046FA85
:1009D000044600200190002C03DDA1B202A802F021
:1009E000EFFE00BFE7E700000000002001210160EA
:1009F0007047000070B50446012500BF206800283C
:100A00000BD02068012808D02068022805D0206873
:100A1000032802D02068042801D1012000E0002032
:100A2000002801D100BFFEE700BF00BFA06800287A
:100A300002D0A068012801D1012000E00020002898
:100A400001D100BFFEE700BF00BFE068002808D06A
:100A5000E068082805D0E068102802D0E06818286F
:100A600001D1012000E00020002801D100BFFEE7F5
:100A700000BF2068042814D100BF6068002808D097
:100A80006068012805D06068022802D060680328E9
:100A900001D1012000E00020002801D100BFFEE7C5
:100AA0001AE000BF606800280ED0606801280BD0F3
:100AB0006068022808D06068032805D060680428B0
:100AC00002D06068052801D1012000E00020002844
:100AD00001D100BFFEE700BFFF2001302649896B2E
:100AE0000143254A916300BF206804280ED10421E8
:100AF000224800F037FA6168880120494969C0221C
:100B0000914301431D4A516100BF20E000211B4871
:100B100000F028FA2068184940318968890889005E
:100B20000143154A4032916000BF61688800114658
:100B300089681C22914301430F4A4032916000BFF3
:100B400090131146C9680143D16000BF00BFA0687F
:100B50000A494969890889000143084A516100BF6F
:100B6000E06811464969182291430143034A5161E3
:100B700000BF284670BD000000240040005C01401A
:100B800081684908490081607047816849084900C7
:100B9000816070478169012212049143816170472D
:100BA000026A4B005B089A43026270478168012227
:100BB0001143816070478168022211438160704750
:100BC000026A4B005B081A4302627047F8B505469B
:100BD0000C4601200090002600BFDB48854201D171
:100BE000012000E00020002801D100BFFEE700BF87
:100BF00000BF2068002804D00121490220688842F3
:100C000001D1012000E00020002801D100BFFEE753
:100C100000BF00BF6068002804D00121C9026068DD
:100C2000884201D1012000E00020002801D100BF4E
:100C3000FEE700BF00BFE068002802D0E06804289B
:100C400001D1012000E00020002801D100BFFEE713
:100C500000BF00BF2069002808D02069012805D006
:100C60002069022802D02069032801D1012000E078
:100C70000020002801D100BFFEE700BF00BF2020F8
:100C8000005D002803D02020005D012801D1012053
:100C900000E00020002801D100BFFEE700BF00BF38
:100CA000606A002821D001214904606A88421CD072
:100CB0004900606A884218D003214904606A88426A
:100CC00013D00121C904606A88420ED0052149046D
:100CD000606A884209D003218904606A884204D08E
:100CE00007214904606A884201D1012000E0002008
:100CF000002801D100BFFEE700BF00BFA06A0028A6
:100D000026D001210905A06A884221D04900A06AA5
:100D100088421DD003210905A06A884218D001210C
:100D20008905A06A884213D005210905A06A884276
:100D30000ED003214905A06A884209D00721090580
:100D4000A06A884204D00121C905A06A884201D165
:100D5000012000E00020002801D100BFFEE700BF15
:100D6000012000037949496B0143784A516300BF70
:100D700000BF77480068C007C00F012148404840C5
:100D800000280DD100BF01207149886000BF00BF5D
:100D900008460068012108436D49086000BF00BF94
:100DA00000BF6B480068022108436949086000BF22
:100DB00005E07D208002864200D30AE0761C00BF59
:100DC00063488068C007C00F0121484048400028A0
:100DD000EFD000BF2846FFF7D8FE2846FFF7DAFE1F
:100DE00000BFA86801210843A86000BF00BF5648A3
:100DF000006908435449086100BF002600BF00BFD6
:100E00005148006810210840070900BF761C701C7B
:100E1000002801D0002FF2D0012F7DD100BF10207B
:100E20004949086000BF2846FFF7AFFE00BFA86829
:100E3000384001214840484000287DD12068A969F8
:100E40007A0291430143A96100BF6068A9699200D9
:100E500091430143A96100BF207A002806D000BF5A
:100E6000A86951100843A86100BF07E000BFA86946
:100E7000012189028843A86100BF00BF607A002871
:100E800007D000BFA869FF2101310843A86100BF56
:100E900007E000BFA869FF2101318843A86100BFB6
:100EA00000BFE068A969042291430143A96100BF22
:100EB00000BF686920218843686100BF2069E96834
:100EC000890889000143E96000BF6069A969F022CF
:100ED00091430143A96100BFA069E96991430143BE
:100EE000E96100BFE069E969090909010143E961B4
:100EF00000BF2020005D00281AD0606AA96907227F
:100F0000520491430143A96100BFA06AA9690F225D
:100F100012059143014301E011E00DE0A96100BF1A
:100F200000BFA869012109040843A86100BF08E0C7
:100F30002846FFF72FFE04E00020009001E000208B
:100F400000900098F8BD0000005C014000240040C3
:100F500000A4014001460868C007C00F01225040AC
:100F600050407047426904239A430A4342617047E4
:100F700041690122114341617047000070B5054687
:100F80000C46052600BF6148854201D1012000E0E2
:100F90000020002801D100BFFEE700BF00BFA0680D
:100FA00000280BD0A068102808D0A068202805D001
:100FB000A068402802D0A068602801D1012000E08C
:100FC0000020002801D100BFFEE700BF00BF60691C
:100FD000002808D0FF2101316069884203D0490010
:100FE0006069884201D1012000E00020002801D181
:100FF00000BFFEE700BF00BF2069012802D02069C2
:10100000002801D1012000E00020002801D100BF0C
:10101000FEE700BF00BF2068002802D020688028BB
:1010200001D1012000E00020002801D100BFFEE72F
:1010300000BF206836494968802291430143344A01
:10104000516000BF102000F091F80120C00300F0B3
:101050007DF8A069296B090A09020143296300BFD1
:10106000A068202804D0402803D060280BD101E0DC
:1010700000BF00BF0021284600F05AF82846A168AA
:1010800000F050F808E02846A16800F051F800216F
:10109000284600F047F800BF00BFE068E96A090C85
:1010A00009040143E96200BF606929680322120252
:1010B00091430143296000BF6068A96A090C0904D3
:1010C0000143A96200BF2069012806D100BF28683A
:1010D00080210843286000BF06E000BF2868802107
:1010E0008843286000BF00BF2846FFF741FF00E0AB
:1010F000761E064800F00EF8002801D1002EF7D128
:1011000000BF01200149086100BF70BD00300140EF
:101110004024004001460869C007C00F012250402A
:1011200050407047026860239A430A430260704748
:10113000026810239A430A43026070470249C96B50
:101140000143014AD1637047002400400249C96845
:101150000143014AD1607047402400400249C968F8
:101160000143014AD16070474024004002490968A8
:101170000143014A116070474024004010B500242B
:1011800000BF1B480068072109020840052212021F
:10119000811A904218D006DC00280DD00121890266
:1011A000401A1DD10CE0C81FF938002810D0FF38B4
:1011B0000138002814D10FE000F0FCF8044613E0D9
:1011C00000F0F8F844080FE000F0F4F884080BE0B1
:1011D00000F0F0F8C40807E000F0ECF8040903E0C0
:1011E00000F0E8F8044600BF00BF204610BD000034
:1011F0000024004010B5002400BF1B4800680721F0
:101200000904084005221204811A904218D006DC15
:1012100000280DD001218904401A1DD10CE00120C5
:101220000004081A10D001210904401A14D10FE05B
:10123000FFF7A4FF044613E0FFF7A0FF44080FE008
:10124000FFF79CFF84080BE0FFF798FFC40807E056
:10125000FFF794FF040903E0FFF790FF044600BF87
:1012600000BF204610BD00000024004070B50024DF
:10127000002500BF2648C06802210840002802D08F
:10128000022807D103E000F047F8044606E02148B1
:10129000046803E000F040F8044600BF00BF00BF50
:1012A0001B48C068702108400107090F00291FD1A1
:1012B0000011030002F017FE080506080A0C1214BC
:1012C0001A1C16E0640814E0A40812E0E40810E018
:1012D0000C212046FEF70CFF04460AE0240908E032
:1012E00018212046FEF704FF044602E0640900E0EE
:1012F00000BF00BF00BF0648C0687F210904084046
:10130000000C451C204668430446204670BD000082
:101310000024004078000020002000BF0D494968EB
:101320000F2212041140002908D001221204891A48
:1013300006D0891A06D0891A08D105E0064807E0C8
:10134000064805E0064803E0064801E0024800BF01
:1013500000BF70470024004000127A000024F4000F
:1013600000366E010048E801002000BF1049496ABC
:10137000032212041140002908D001221204891A04
:1013800007D0891A08D0891A0CD108E04B204003F5
:101390000BE04B20C00208E04B20800205E04B2010
:1013A000400202E04B20400300BF00BF7047000036
:1013B0000024004010B5002400BF14480068400716
:1013C000400F030002F08FFD0705090C1A101417D7
:1013D0001A00FFF7A1FF044614E00D48046811E06D
:1013E000FFF744FF04460DE0FFF7BEFF044609E0A7
:1013F0000848046806E00124E40303E0FFF78CFFDB
:10140000044600BF00BF204610BD0000002400407D
:101410007800002074000020034989681C22914351
:101420000143014A9160704740240040064800692A
:101430000421084304490861084600690121084362
:10144000014908617047000000E000E038B504463B
:101450000EE07D20C00000F015F800BF00200090D5
:1014600006480749086008460068009000BF00BFB2
:101470002046641E0028ECD138BD00005A5A3412B0
:101480000014014010B504460C490D480068FEF7F1
:101490002FFE444301200006844200D900E020468C
:1014A0000446601E074948610020886100BF054866
:1014B0000069C003C00F0028F9D010BD40420F00E2
:1014C0007C00002000E000E0826A8BB29A438262D6
:1014D000704702688BB29A430260704782688BB291
:1014E0009A438260704742688BB29A434260704769
:1014F000026A8BB29A43026270470246D0698BB28D
:1015000018408BB2984201D1012070470020FCE7BF
:10151000F8B506460C460027002500BF72488642F3
:101520000ED07148403086420AD06F4880308642E3
:1015300006D06D48C030864202D06C48864201D148
:10154000012000E00020002801D100BFFEE700BF1D
:1015500000BF2068002805D965492068884201D865
:10156000012000E00020002801D100BFFEE700BFFD
:1015700000BF6068032808D06068002805D0606854
:10158000012802D06068022801D1012000E000207B
:10159000002801D100BFFEE700BF00BFA0680128FE
:1015A00002D0A068002801D1012000E0002000281E
:1015B00001D100BFFEE700BF00BFE068002802D0F5
:1015C000E068012801D1012000E00020002801D1BD
:1015D00000BFFEE700BF00BF6069002802D060695D
:1015E000012801D1012000E00020002801D100BF26
:1015F000FEE700BF80203F49496B01433D4A5163EC
:1016000000BF6AE00121B940206808400546002D6E
:1016100062D0606803281AD129463046FFF759FF87
:1016200029463046FFF75FFF29463046FFF756FF51
:101630006069012806D100BFB06AA9B20843B06250
:1016400000BF33E029463046FFF73EFF2EE0294633
:101650003046FFF739FF6068002806D100BF3068C8
:10166000A9B20843306000BF03E029463046FFF7C7
:1016700030FFA068002804D129463046FFF72EFF2E
:1016800006E000BFB068A9B20843B06000BF00BF69
:10169000E068002806D000BF7068A9B208437060F7
:1016A00000BF03E029463046FFF71DFF60680228AF
:1016B0000DD12069012806D100BF306AA9B20843C4
:1016C000306200BF03E029463046FFF711FF29468C
:1016D0003046626800F01CF87F1C2068F840002843
:1016E00090D10120F8BD0000000C0040000D00402A
:1016F000FFFF0000002400408AB2826170478AB276
:10170000826170478AB2426170478AB24261704713
:1017100030B5C3680C464C4365006419A3430C46BE
:101720004C4354432343C36030BD0000FEB505461F
:101730000C46002601200190002700BF3F4885424B
:1017400001D1012000E00020002801D100BFFEE708
:1017500000BF00BF3A496068884201D2012000E022
:101760000020002801D100BFFEE700BF00BF2068B5
:10177000002814D02068012811D0206802280ED03B
:10178000206803280BD02068042808D0206805288A
:1017900005D02068062802D02068072801D1012042
:1017A00000E00020002801D100BFFEE700BF20209C
:1017B0002449496B0143234A516300BF00BF002005
:1017C0000090214828602868009000BF2068002110
:1017D00000916968C908C9000143696029680091DE
:1017E00000BF284600F032F80746606800281AD08B
:1017F000002F0CD100BF284600F028F8012812D095
:101800003046761CFF21F5318842F4D30BE000BF4F
:10181000284600F01BF8002805D03046761CFF2132
:10182000F5318842F4D36068002100910105090D6B
:10183000E9602968009100BF0198FEBD00140140D5
:10184000FF0F0000002400405A5A341208B5014628
:10185000002200928A681005000D0A68009208BDF7
:101860000021416002210160704710B5FFF7DEFDE5
:1018700010BD000070B505460C462868032801D944
:10188000032028602046002805DBC206D20E012175
:101890009140094A116000BF2046296800F06CFDA4
:1018A0002046002806DBC206D20E01219140024AE2
:1018B000803A116000BF70BD80E100E04168012204
:1018C00011434160704741680122114341607047F4
:1018D0004168012211434160704741680122114370
:1018E00041607047F8B505460C460027002000907F
:1018F000002600BFAD4885420BD0AD48854208D0D8
:10190000AC48854205D0AC48854202D0AB48854200
:1019100001D1012000E00020002801D100BFFEE736
:1019200000BF00BF2068002814D02068012811D013
:10193000206802280ED0206803280BD020680028D9
:1019400008D02068042805D02068082802D0206824
:101950000C2801D1012000E00020002801D100BFA7
:10196000FEE700BF00BFA068C02808D0A06800281C
:1019700005D0A068402802D0A068802801D10120AD
:1019800000E00020002801D100BFFEE700BF00BF3B
:101990002069002805D02069102802D0206920285D
:1019A00001D1012000E00020002801D100BFFEE7A6
:1019B00000BF00BFE068002804D0FF210131E068CB
:1019C000884201D1012000E00020002801D100BFA1
:1019D000FEE700BF00BF6069002808D060690228E8
:1019E00005D06069012802D06069032801D1012077
:1019F00000E00020002801D100BFFEE700BF6B48D7
:101A000085422CD120686E494968890889000143C4
:101A10006B4A516000BF2068002806D0012808D01A
:101A200002280AD0032810D10BE0FFF7E3FB009057
:101A30000FE0FFF771FC00900BE0FFF7BBFC00909C
:101A400007E060480068009003E0FFF7D3FB0090D8
:101A500000BF00BF61680098FEF74AFB461E54486D
:101A600085422CD12068564949680C229143014394
:101A7000534A516000BF2068002806D0042808D0CF
:101A800008280AD00C2810D10BE0FFF7B3FB009018
:101A90000FE0FFF741FC00900BE0FFF78BFC00909C
:101AA00007E048480068009003E0FFF7A3FB0090C0
:101AB00000BF00BF61680098FEF71AFB461E3B4856
:101AC000854206D18015FFF739FBA815FFF746FBC5
:101AD00035E03748854206D14015FFF72FFB6815E2
:101AE000FFF73CFB2BE0334885420BD1C014FFF7D6
:101AF00025FBFFF77FFB009061680098FEF7F8FA7E
:101B0000461E1CE02C4885420BD18014FFF716FBC3
:101B1000FFF770FB009061680098FEF7E9FA461E37
:101B20000DE0264885420AD14014FFF707FBFFF776
:101B300061FB009061680098FEF7DAFA461E207D8E
:101B4000C007C00F002806D000BF28680121084345
:101B5000286000BF00BF022160690840002805D04E
:101B600000BF28680843286000BF00BF00BFA86905
:101B7000000C00043043A86100BFE0682968FF2220
:101B8000013291430143296000BFA0682968C02247
:101B900091430143296000BF2069296830229143A5
:101BA0000143296000BF01273846F8BD00200140ED
:101BB000006801400070014000740140007801405D
:101BC00040240040780000204269520A52020A4331
:101BD000426170474269520A52020A4342617047A9
:101BE0004269520A52020A43426170474269520AEC
:101BF00052020A43426170471CB506A0006801907A
:101C0000012001AB044A04210090044801F084F84B
:101C10001CBD00001D0000006B03002022C000005E
:101C20000420084949690140814201D1012100E0B5
:101C30000021012904D104200249486100BF00BFEE
:101C400070470000C00D0040F3B581B00E4600277C
:101C50000C20FFF7E1FB19491948FEF7A1FF1848CE
:101C60000199FEF7ADFF1648FEF7C0FE1448FEF7D7
:101C70009DFF1348FEF79FFF00BF1148FFF76AF969
:101C800004467F1C781C002801D0002CF5D0012CC4
:101C900010D10B48FEF7AAFE00BF0948806A80B247
:101CA00030600748FEF76CFF05480199FEF778FFA2
:101CB000002500E001252846FEBD0000FFFF0F00C3
:101CC000005C0140F1B58AB00020089007900690B2
:101CD00008A800F035F8059006A90A98FFF7B4FFA8
:101CE00004900898002821D0059800281ED1049857
:101CF00000281BD10F49069802F0DDF80E4A14891E
:101D0000002506460F4622462B46FEF74BFA019168
:101D100000900A49089802F0CEF802460B4603915B
:101D2000029001990098FEF70DFA079007980BB002
:101D3000F0BD0000B80B000000FBFF1FFF0F00000C
:101D4000F8B5064600270C20FFF766FB00BF2048C9
:101D50000069012108431E49086100BF1D491E4852
:101D6000FEF71EFF012109061B48FEF729FF1A484E
:101D7000FEF73CFE1848FEF719FF1748FEF71BFF59
:101D800000BF1548FFF7E6F804467F1C781C0028C2
:101D900001D0002CF5D0012C17D10F48FEF726FEFC
:101DA00000BF0D48806A80B230600B48FEF7E8FE45
:101DB00021060948FEF7F4FE00BF05480069A0436C
:101DC0000349086100BF002500E001252846F8BD51
:101DD00000A40140FFFF0F00005C014000B587B088
:101DE000FF20013001900120029003900020049018
:101DF0000590069001A91B48FFF78AFB01204002CD
:101E0000019001200290039000200490059006901C
:101E100001A91448FFF77CFB4020019001200290AB
:101E20000390002004900590069001A90D48FFF74B
:101E30006FFB80200190012002900390002004900D
:101E40000590069001A90748FFF762FB01214902AE
:101E50000448FFF75AFC80210248FFF756FC07B000
:101E600000BD0000800C004010B508480078002834
:101E700000D110BD06480078002800D0F9E7002006
:101E80000249087000F014F800BFF2E74200002099
:101E90004300002010B500F013F80120024908703B
:101EA00014200249087010BD4200002043000020A9
:101EB00010B510210148FFF725FC10BD400C004073
:101EC00010B510210148FFF717FC10BD400C004071
:101ED0001FB5012000900320019000200290039084
:101EE0006846FEF787FD1FBD00B591B020200B901E
:101EF00003200C9000200D900E900F9010900BA9D5
:101F00003E48FFF705FB10200B9003200C900020AB
:101F10000D900E900F9010900BA93848FFF7F8FA2B
:101F20000120C0020B9003200C9000200D900E9019
:101F30000F9010900BA93148FFF7EAFA04200B909C
:101F400003200C9000200D900E900F9010900BA984
:101F50002A48FFF7DDFA08200B9003200C900020A0
:101F60000D900E900F9010900BA92448FFF7D0FA17
:101F70000120C0020B9003200C9000200D900E90C9
:101F80000F9010900BA91D484038FFF7C1FA0120AF
:101F900000030B9003200C9000200D900E900F90EA
:101FA00010900BA915484038FFF7B2FA00200090B6
:101FB0000190012168460172417200200390049053
:101FC0000590502006900F200790002108A801706E
:101FD000032040040990012080050A9069460848C2
:101FE000FEF7F4FD40210648FEF7EAFD012109064F
:101FF0000348FEF7E5FD11B000BD0000C00C004035
:10200000005C014010B5FFF763FFFFF76DFF10BDE7
:1020100000BF01200549086100BF00BF0846C06835
:10202000012108430149C86000BF704700300140EA
:1020300000B587B0002000901F2001900020029082
:1020400005480390002005900690049069460348D7
:10205000FEF794FF07B000BDE70300000030014029
:1020600010B5032000041D4949680F221204914352
:1020700001431A4A516000BF00BF10464068012169
:1020800008431146486000BF0020154909688908C7
:1020900089000143124A116000BF00BF0F4909685F
:1020A000C908C90001430D4A116000BF00BF1146B5
:1020B00009680722120291430143084A116000BFD8
:1020C00000BF114609680722120491430143034AE5
:1020D000116000BF00F09CFC10BD00000024004017
:1020E0000010004000B58DB0012040030790022091
:1020F00008900020099001200A9000200B900C907D
:1021000007A91148FFF704FA012080030790022075
:102110000890002009900A900B900C9007A90A489B
:10212000FFF7F6F9002001904B20C0010290032038
:1021300006904020039000200490059001A90348D8
:10214000FFF7D0FB0DB000BD000C004000200140A7
:1021500010B500BFFF2001300949886000BF00BFF3
:1021600008464068891508430549486000BF00BF1C
:102170000120886000BF0846FFF7A5FB10BD0000E6
:102180000020014000B58DB00120400307900220DF
:102190000890002009900A900B900C9007A9114814
:1021A000FFF7B6F901208003079002200890002075
:1021B00009900A900B900C9007A90A48FFF7A8F91C
:1021C000002001904B20C001029003200690402087
:1021D000039000200490059001A90348FFF782FBBB
:1021E0000DB000BD400C00400068014010B500BFBC
:1021F000FF2001300949886000BF00BF08464068E1
:10220000891508430549486000BF00BF0120886068
:1022100000BF0846FFF752FB10BD000000680140F8
:1022200000B58DB001200790022008900020099091
:1022300001200A9000200B900C9007A91048FFF78E
:1022400067F9022007900890002009900A900B90EF
:102250000C9007A90A48FFF75BF9002001904B207A
:10226000C0010290032006904020039000200490BB
:10227000059001A90348FFF735FB0DB000BD000034
:10228000400C00400070014010B500BFFF2001303D
:102290000949886000BF00BF0846406889150843A7
:1022A0000549486000BF00BF0120886000BF0846A4
:1022B000FFF70EFB10BD00000070014000B58DB0AF
:1022C00001200790022008900020099001200A9028
:1022D00000200B900C9007A91048FFF719F9022075
:1022E00007900890002009900A900B900C9007A985
:1022F0000A48FFF70DF9002001904B20C001029021
:10230000032006904020039000200490059001A92E
:102310000348FFF7E7FA0DB000BD0000000C0040D5
:102320000074014010B500BFFF20013009498860EA
:1023300000BF00BF0846406889150843054948604A
:1023400000BF00BF0120886000BF0846FFF7C5FA44
:1023500010BD00000074014010B504210148FFF7D2
:10236000CBF910BD000D004010B504210148FFF766
:10237000C3F910BD000D004010B5002819DB1A4A42
:1023800003231B02D21883089B00D2588307DC0E5C
:10239000FF23A3409A438B071B0E8407E40EA34040
:1023A0001A43114B032424021B198408A4001A5158
:1023B00018E00E4A03071B0F083B9B089B00D258EE
:1023C0008307DC0EFF23A3409A438B071B0E840771
:1023D000E40EA3401A43054B0407240F083CA4084D
:1023E000A4001A5110BD000000E100E01CED00E067
:1023F00000B587B0102001900120029000200390CA
:1024000004900590069001A94948FFF781F8202023
:102410000190012002900020039004900590069006
:1024200001A943484030FFF773F8102001900120C4
:1024300002900020039004900590069001A93C486A
:102440004030FFF765F801200190029000200390D2
:1024500004900590069001A93548C030FFF758F860
:10246000022001900120029000200390049005902A
:10247000069001A92E48C030FFF74AF808200190C5
:10248000012002900020039004900590069001A97D
:102490002748C030FFF73CF804200190012002904B
:1024A0000020039004900590069001A92048C030B8
:1024B000FFF72EF8082001900120029000200390E1
:1024C00004900590069001A919484030FFF720F8C4
:1024D00004200190012002900020039004900590B8
:1024E000069001A912484030FFF712F801200003BE
:1024F0000190012002900020039004900590069026
:1025000001A90B48FFF704F8FFF7D2FC02F0FCFC2E
:1025100002F068F902F0F0FC02F06CF9FEF7F6F94F
:1025200002F0C6F902F0D4F9FFF758FC07B000BD7D
:10253000400C004070B504460D4605480078002860
:1025400000D170BD2946204601F03AF900BFF8E7F6
:102550000000002070B504460D462946204601F0D3
:102560002FF970BD10B5064800780649C8700846B6
:10257000C0781930087106210248FFF7EBFF10BD43
:10258000F40200205400002070B500240025C8216A
:10259000AA48FDF75DFE68222146641CA748425404
:1025A000AD222146641C425400222146641C425440
:1025B000A34802782146641CA0484254A0480279EE
:1025C0002146641C9D4842549D4880880004020EA8
:1025D0002146641C994842549948027A2146641C59
:1025E00096484254964800890004020E2146641C15
:1025F000924842549248027B2146641C8F484254C0
:102600008F48808901122246641C8C4881548C4872
:10261000827B2146641C894842548948C089011242
:102620002246641C854881548548027C2146641CEE
:10263000824842548248008A01122246641C7F4824
:1026400081547F48027D2146641C7C4842547C486A
:10265000808A0004020E2046611C8CB277490A541D
:102660007748027E2046611C8CB274490A54744833
:10267000008B0004020E2046611C8CB26F490A5484
:102680006F48027F2046611C8CB26C490A546C482A
:10269000808B00122146621C94B2684A50546848EC
:1026A000827F2046611C8CB264490A546448C27F10
:1026B0002046611C8CB261490A546148203002787E
:1026C0002046611C8CB25D490A545D482030427836
:1026D0002046611C8CB259490A5408190F225849E6
:1026E0002231FDF79CFD20460F3084B25349081972
:1026F0000F2253493131FDF792FD20460F3084B24D
:102700004E49081914224E494031FDF788FD2046F4
:10271000143084B24A484030027D2046611C8CB29D
:1027200046490A54012146484030C175C27D2046C1
:10273000611C8CB241490A540121414840308176E4
:10274000827E2046611C8CB23C490A543C48403091
:10275000C27E2046611C8CB238490A543848C06D8C
:10276000C2B22046611C8CB234490A543448C06D50
:102770000004020E2046611C8CB230490A5408192C
:1027800010222F496031FDF74AFD2046103084B2F7
:1027900001212B4860300174027C2046611C8CB200
:1027A00026490A54012126486030C174C27C204663
:1027B000611C8CB221490A5421486030027D2046B8
:1027C000611C8CB21D490A5400222046611C8CB247
:1027D0001A490A54084601191948833002780A70C8
:1027E00040784870A01C84B2144801191448813004
:1027F00002790A7040794870A01C84B2A01C0F496D
:1028000088700020085500BF08E00C48005D0B49A7
:10281000495D401809490855681C85B2A542F4DB9A
:10282000601C84B216222046611C8CB203490A54F3
:1028300021460248FFF78EFE70BD00006C060020A6
:10284000F4020020F3B581B005460024002000907A
:10285000002600277EE0601D0299884200DD7AE0B4
:10286000285D682874D1601C285CAA2831D1A01C7E
:102870002E5C642E6CDAE01C285C384909788842AA
:1028800066D1A019285C162862D10020009000278C
:1028900007E0E019295C00980818C0B20090781C85
:1028A00087B2701EB842F4DC60008019401E295CBB
:1028B000009881424CD1201D2918062227487D30DE
:1028C000FDF7ADFC02F0AEFAFFF74CFEA01984B2A2
:1028D0003EE0601C285CAC283AD1E01C285C1F4913
:1028E0000978884234D1601D285C162830D1601CDC
:1028F000285CAC282CD1A01C2E5C642E28DAE01CAD
:10290000285C16490978884222D1A019401E285C0B
:1029100016281DD100200090002707E0E019295C4F
:1029200000980818C0B20090781C87B2B01EB84258
:10293000F4DC60008019801E295C0098814207D178
:102940000748807A012801D1FFF71EFEA01984B242
:10295000601C84B27FE700BFFEBD0000F4020020CF
:10296000E802002070B500240025072025490870E2
:102970009F20487001F09BF9802001F04DF9002064
:1029800001F04AF902211F4801F083F901F0A2F990
:1029900010201C4908700020487001F088F9802040
:1029A00001F03AF9052001F037F90221154801F04C
:1029B00070F901F08FF91420FEF748FD01F077F966
:1029C000802001F029F9042001F026F901F06FF9C7
:1029D000812001F021F902210B4801F0ECF801F00F
:1029E00079F90948007800020849088008460088FB
:1029F0000549497840180549088008460488254655
:102A0000284670BD47000020E4030020F8030020A2
:102A100010B5464800684007400F030001F063FA14
:102A2000073C050A3C0F32373C00414800684149E9
:102A3000086051E000F008F93E4908604CE03B486E
:102A4000406A8003800F002806D0012809D00228A0
:102A50000CD0032814D10EE04B2040033549086008
:102A60000EE04B20C0023349086009E04B20800291
:102A70003049086004E04B2040022E49086000BF46
:102A800000BF29E02C4800682A49086024E07D2026
:102A90000002284908601FE0244840680003000F36
:102AA000002813D0012804D0022806D003280CD116
:102AB00007E022481F4908600CE021481D490860D2
:102AC00008E020481B49086004E000BF1E4819497F
:102AD000086000BF00BF00BF00BF14480068400589
:102AE000400F042806D005280AD006280ED0072853
:102AF00018D111E00F48006840080E49086012E044
:102B00000C48006880080B4908600CE00948006820
:102B1000C0080849086006E0064800680009054941
:102B2000086000E000BF00BF10BD000000240040AE
:102B3000780000207C000020740000200024F400B5
:102B400000366E010048E80100127A0010B53948DD
:102B5000406B012109030843364948630846406B2E
:102B60008021084333494863084600680121C906AB
:102B70000843304908605520C861032009054860B2
:102B80002D488069000C2C49098BC94389B28842C1
:102B900002D12948806900E01020C006C00E2749F4
:102BA00088632548C0300068000C2349C03109887B
:102BB000C94389B2884203D11F48C030006800E091
:102BC0008020C0B21B4988601B48C0304068000CA0
:102BD0001949C0318988C94389B2884203D116484E
:102BE000C030406800E08020C0B2124988621248BC
:102BF0008030006A000C10498031098CC94389B2C9
:102C0000884203D10C488030006A00E08020C0B2C6
:102C1000084948610A484068FF2181310843084952
:102C2000486005200749086001204860FFF7F0FE72
:102C300010BD00000024004080FAFF1F002000406B
:102C4000C00C00400028004010B500242C48C0688B
:102C50008007C00F002802D001281BD117E02848A8
:102C600040680003000F00280DD0012804D002287E
:102C700004D0032806D103E0224C06E0224C04E0F5
:102C8000224C02E000BF224C00BF00BF02E02148FE
:102C9000046800BF00BF1A48C0684006400F030028
:102CA00001F021F9080507090B0D13151B1D00BFC5
:102CB00015E0640813E0A40811E0E4080FE00C211B
:102CC0002046FDF715FA044609E0240907E018211B
:102CD0002046FDF70DFA044601E0640900BF00BF7D
:102CE0000748C0684002400E401C44430448C06886
:102CF0000007C00F002800D06400204610BD00006F
:102D0000002400400024F40000366E010048E80171
:102D100000127A0078000020FFB581B00746154602
:102D20000A9E00240020009068222146641C34483A
:102D300042542A782146641C42546A782146641C15
:102D40004254AA782146641C4254EA782146641C05
:102D500042542A792146641C42546A792146641CF3
:102D6000425400222146641C42542146641C4254B1
:102D70002246641C0299815430461230C2B2214668
:102D8000641C1F484254304612300004020E214693
:102D9000641C1B4842542146641C47543804020EEC
:102DA0002146641C1648425400222146641C4254A9
:102DB0000146081932460499FDF731FAA01984B288
:102DC00021460F4802F07EF800900098C2B22046DB
:102DD000611C8CB20A490A54009800122146621CF8
:102DE00094B2074A505416222046611C8CB2044902
:102DF0000A542146024800F093FD05B0F0BD0000E2
:102E000034070020F3B587B00546002400270020D2
:102E10000690059004900390029001900026D6E160
:102E2000204611300899884200DDD1E1285D6828EC
:102E300070D1002720460B302F5C3F02401E285CDB
:102E4000C01987B2E1190898814263DCE019401E7D
:102E5000285C1628ECD100200690E019801E285C22
:102E60000690069800020690E019C01E295C06989C
:102E7000081880B20690F91E281902F023F8059070
:102E8000059906988842D3D1601C29180622D24899
:102E9000FDF7C5F9E01D285C002876D120460830F2
:102EA000285C002872D120460930285C8138030054
:102EB00001F019F8060405FDFCFBFAFB7CE100209B
:102EC000049020460D30285C049004980002049081
:102ED00020460C30295C0498081880B20490BF4941
:102EE00004984018002816D0202806D0BC49401865
:102EF000002808D002287DD188E00020B949088048
:102F0000B949087032E10020B64908800220B6496C
:102F100008702BE159E12BE0204611308019285C24
:102F2000002800D125E00398002808D12046113060
:102F30008019285C2E2819D1F0B2039016E002986F
:102F4000002808D1204611308019285C2E280DD188
:102F5000F0B202900AE00198002807D12046113013
:102F60008019285C2E2801D1F0B20190701C86B225
:102F7000D2E700BF0398012809D120461130285C10
:102F80003038C1B29948817614E01AE116E103980D
:102F900002280FD120461130285C0007010E93480B
:102FA0008176817E20461230285C30380818C1B204
:102FB0008E48817603990298401A02280AD1204649
:102FC000113003994018401C285C0007010E874807
:102FD0001A3041700298301A022810D183481A30F2
:102FE00042782046113002994018401C285C303845
:102FF000101800E0B9E0C1B27C481A3041700020DE
:1030000078490880012078490870AFE020461130E7
:10301000285C76494039087020461330285C488087
:10302000084680780006000C488008464188204603
:103030001230285C08186D49403948802046153008
:10304000285C8880084600790006000C88800846C5
:10305000818820461430285C0818644940398880EB
:1030600020461630285C887120461730285CC871CD
:1030700020461830285C087220461930285C4872B7
:1030800020461A30285C887220461B3029180422FA
:1030900056483538FDF7C3F820461F30285C5349A1
:1030A0004039C873204603E084E084E061E05FE0DB
:1030B0002130285C08820846007C0006000C08824B
:1030C0000846018A20462030285C081847494039C4
:1030D00008822046223029180F2244482E38FDF756
:1030E0009EF82046313029180F2240481F38FDF73E
:1030F00096F820464030291814223C481038FDF735
:103100008EF820465430295C3848017120465530ED
:10311000295C3648417120466530295C3348417549
:1031200020466630295C3148817520466730295C2D
:103130002E48C17520466830295C2C48017620460F
:103140006930295C294841760079212806DA274828
:1031500000790A2802DD00202249088024A0FDF71A
:1031600023FC04202049087000E000BF00BF23E0DA
:1031700022E00020049020460D30285C0490049842
:103180000002049020460C30295C0498081880B294
:1031900004901C4904984018002808D120460F309C
:1031A000285C002802D103200F49087000E000BF0E
:1031B00000BF01E000E000BF00BF00E000BF00BFB3
:1031C00000E000BF00BFE01984B2601C84B227E6B3
:1031D00000BF09B0F0BD00006B030020EFDFFFFF70
:1031E0001030FFFFE802002045000020BC03002053
:1031F000B2E9D1AFC9CFB8E6D0C5CFA2B7B5BBD879
:103200000D0A0000DE3FFFFF10B51C4800780928BA
:1032100033D101F017FBE121C900884206D91848D3
:10322000407D012108431649487505E01448407D5A
:10323000022108431249487501F00FFBE121C90042
:10324000884206D90E48807D012108430C498875C3
:1032500005E00B48807D022108430949887508482C
:10326000407D032809D10648807D032805D1002030
:103270000449088003200449087010BD4400002060
:1032800034030020E80200204500002008B500209B
:10329000034B044A022100900348FFF73DFD08BD9F
:1032A0005A0000206B03002003F00000F8B5002452
:1032B00000250026002700BF33484068FF21013168
:1032C0000840000A044600BF2F4880680840000AF2
:1032D000054600BF2C484068C007C00F0121484088
:1032E0004840064600BF284880680840484048409B
:1032F0000746002C19D0012D17D100BF22480069C4
:103300002249234A1288885421480088401C2049B9
:10331000088008460088C82801DB002008800120BA
:103320001C49087064201C490880012E2AD1012FF5
:1033300028D11A48407919490979884209D100BF32
:1033400011484068B0431049486000BF012014494B
:103350000870124840791149097988420CDA0F48FF
:1033600000680E4A5279815C0748FEF733FC0B482F
:103370004079401C0949487100BF0120024988601A
:1033800000BF00BFF8BD0000002001400404002081
:103390004C0000204A000020520000205C06002063
:1033A0004E00002010B5FEF79DFEFEF7D1FE00F0A6
:1033B00003F800F041FA10BD08B5022000900A2180
:1033C0006846FEF757FA08BDF8B500240025002628
:1033D000002700BF33484068FF2101310840000A40
:1033E000044600BF2F4880680840000A054600BF19
:1033F0002C484068C007C00F01214840484006469D
:1034000000BF284880680840484048400746002CD4
:1034100019D0012D17D100BF224800692249234A43
:103420001288885421480088401C2049088008469A
:103430000088C82801DB0020088001201C49087092
:1034400064201C490880012E2AD1012F28D11A4856
:10345000407919490979884209D100BF114840686B
:10346000B0431049486000BF012014490870124859
:1034700040791149097988420CDA0F4800680E4AF0
:103480005279815C0748FEF79FFB0B484079401C4E
:103490000949487100BF01200249886000BF00BF90
:1034A000F8BD0000006801408000002004000020FA
:1034B0000300002008000020D802002002000020A5
:1034C00010B5FEF75FFEFEF791FE00F003F800F086
:1034D0001FFA10BD08B5002000900B216846FEF7CA
:1034E000C9F908BDF8B5002400250026002700BF53
:1034F00032484068FF2101310840000A044600BFFD
:103500002E4880680840000A054600BF2B484068E6
:10351000C007C00F012148404840064600BF274869
:1035200080680840484048400746002C19D0012DCB
:1035300017D100BF214800692149224A12888854C6
:1035400020480088401C1F49088008460088C82879
:1035500001DB0020088001201B49087064201B4902
:103560000880012E28D1012F26D119484079184909
:10357000097988420CDA16480068154A5279815C4C
:103580000E48FEF72DFB12484079401C1049487147
:1035900000BF01200949886000BF0D4840790C49EF
:1035A0000979884208D100BF0448406840084000BB
:1035B0000249486000BF00BFF8BD00000070014034
:1035C000FC0700206400002062000020680000204A
:1035D000540A002010B5FEF723FEFEF755FE00F05A
:1035E00003F800F033FA10BD08B5022000900C215A
:1035F0006846FEF73FF908BDF8B50024002500260F
:10360000002700BF32484068FF2101310840000A0E
:10361000044600BF2E4880680840000A054600BFE7
:103620002B484068C007C00F01214840484006466B
:1036300000BF274880680840484048400746002CA3
:1036400019D0012D17D100BF214800692149224A14
:103650001288885420480088401C1F49088008466A
:103660000088C82801DB0020088001201B49087061
:1036700064201B490880012E28D1012F26D119482A
:1036800040791849097988420CDA16480068154AC9
:103690005279815C1448FEF7A9FA12484079401C1F
:1036A0001049487100BF01200949886000BF0D48DA
:1036B00040790C490979884208D100BF0448406824
:1036C000400840000249486000BF00BFF8BD00004C
:1036D00000740140640A00206C0000206A00002091
:1036E00070000020BC0C00200078014010B5FEF7EF
:1036F000E5FDFEF717FE00F003F800F011FA10BD2B
:1037000008B5022000900D216846FEF7B3F808BD09
:1037100010B586B00446002C01D1019001E00220D2
:10372000019001208003009000200290012003906E
:1037300000200490059069460248FDF7E9FE06B0B6
:1037400010BD0000000C004010B51748007801289B
:1037500008D10020144908700520FDF777FE0020ED
:10376000FFF7D6FF1148007801281BD110480088C8
:10377000002817D1FEF78EFB00200C4908700D4879
:1037800002880D490D48FCF74AFD0A4801880B489C
:10379000FEF7D0FE074801880848FFF753F80020DD
:1037A0000449088010BD00004E0000204A0000209F
:1037B000520000204C00002004040020CC04002013
:1037C00070B505460C46002C00D170BD642016492A
:1037D000088000BF1548007914494979884203D010
:1037E000114800880028F5D10120FDF72FFE0120A7
:1037F000FFF78EFF224629460D48FCF710FD0C48C6
:103800000A4908600C710120487100BF09498860AD
:1038100000BF0846FEF757F80448006801780548DD
:10382000FEF7D8F900BFD0E7500000205C0600206A
:1038300094050020002001400120024908714871D0
:10384000704700005C06002010B510480078012881
:103850001BD10F480088002817D1FEF71BFB002062
:103860000A4908700B4802880B490C48FCF7D7FC42
:10387000084801880948FEF75DFE064801880748A8
:10388000FFF7C0FA00200349088010BD03000020A4
:1038900008000020040000208000002048010020D3
:1038A00070B505460C46002C00D170BD7D20C000CF
:1038B0001349088000BF13480079124949798842AA
:1038C00003D00F4800880028F5D1224629460E482B
:1038D000FCF7A5FC0C480B4908600C7101204871ED
:1038E00000BF0A49886000BF0846FDF7E7FF0548AA
:1038F000006801780548FEF767F900BFD5E70000CA
:1039000006000020D80200201002002000680140BC
:10391000012002490871487170470000D802002058
:10392000F8B505460E46002412480078012817D144
:1039300000BF0FE000BF002000900F480F49086053
:1039400008460068009000BF32210D48FFF7A8FF2D
:10395000601C84B2282CEDDB05210A48FFF7A0FF8C
:1039600031462846FEF7E6FD31462846FFF798FF28
:10397000F8BD0000410000205A5A341200140140E2
:103980000A0000203C00002010B50E4800780128F5
:1039900016D10D480088002812D1FEF77BFA0020CE
:1039A000084908700948028809490A48FCF737FCA9
:1039B00006480188074800F00FF8002003490880F6
:1039C00010BD00006200002068000020640000209C
:1039D000FC070020C408002070B505460C46002CEA
:1039E00000D170BD64201549088000BF14480079DB
:1039F00013494979884203D0104800880028F5D13E
:103A00000120FDF723FD224629460E48FCF707FC5E
:103A10000C480B4908600C710120487100BF0A492D
:103A2000886000BF0846FDF753FF0548006801782D
:103A30000548FEF7D5F800BFD3E700006600002078
:103A4000540A00208C090020007001400120024926
:103A50000871487170470000540A002010B50E48E4
:103A60000078012816D10D480088002812D1FEF7F1
:103A700011FA0020084908700948028809490A48D3
:103A8000FCF7CDFB06480188074800F00FF800203E
:103A90000349088010BD00006A000020700000206B
:103AA0006C000020640A00202C0B002070B5054635
:103AB0000C46002C00D170BD64201549088000BF61
:103AC0001448007913494979884203D01048008886
:103AD0000028F5D10120FDF7B9FC224629460E4801
:103AE000FCF79DFB0C480B4908600C7101204871E4
:103AF00000BF0A49886000BF0846FDF7EEFE054892
:103B0000006801780548FEF771F800BFD3E70000B0
:103B10006E000020BC0C0020F40B0020007401405B
:103B2000012002490871487170470000BC0C002058
:103B30000EB501A8FDF794FE01A90748FDF7F6FDB3
:103B400000BF00200090054803490860084600684F
:103B5000009000BF0EBD0000001401405A5A3412FC
:103B6000002002E000BF411CC8B23228FADB7047D7
:103B700070B50025002000F043F9002000F0C2F8E5
:103B8000FFF7EEFF002412E0012000F0BBF8FFF782
:103B9000E7FF00F01BF9002802D0802020410543F8
:103BA000002000F0AFF8FFF7DBFF601CC4B2082C68
:103BB000EADB284670BD70B506460D46002428E0B5
:103BC000FFF7D6FF3055681EA04210DD012000F03F
:103BD00017F9002000F0C8F8FFF7C2FF012000F03D
:103BE00091F8FFF7BDFF002000F08CF80FE00120F6
:103BF00000F006F9012000F0B7F8FFF7B1FF01204F
:103C000000F080F8FFF7ACFF002000F07BF8601CAC
:103C1000C4B2AC42D4DB70BD70B50446012000F0E4
:103C2000EFF8002000F06EF8002518E0802020401A
:103C3000002803D0012000F097F802E0002000F0F7
:103C400093F8FFF78DFF012000F05CF8FFF788FF85
:103C5000002000F057F86006040E681CC5B2082D5D
:103C6000E4DB002000F0CCF8FFF77AFF012000F041
:103C700049F8FFF775FF00F0A9F8002802D100F01D
:103C800041F802E0002000F03DF8FFF769FF012055
:103C900070BD70B505460E46002404E0285DFFF7B0
:103CA000BBFF601CC4B2B442F8DB012070BD10B58C
:103CB000012000F0A5F8012000F056F8012000F0E6
:103CC00021F8FFF74DFF002000F04EF8002000F033
:103CD00019F810BD10B5012000F092F8002000F096
:103CE00043F8012000F00EF8FFF73AFF012000F042
:103CF0003BF8002000F006F8FFF732FF012000F04B
:103D000001F810BD10B50446012C13D114480078F9
:103D1000002802D001280BD105E0FF210131114814
:103D2000FDF7F3FC05E040210E48FDF7EEFC00E056
:103D300000BF13E00A480078002802D001280BD108
:103D400005E0FF2101310748FDF7D9FC05E04021DE
:103D50000448FDF7D4FC00E000BF00BF10BD000028
:103D600049000020800C004010B50446012C13D1FE
:103D700014480078002802D001280BD105E0012169
:103D800049021148FDF7C1FC05E080210E48FDF70E
:103D9000BCFC00E000BF13E00A480078002802D015
:103DA00001280BD105E0012149020748FDF7A7FCD6
:103DB00005E080210448FDF7A2FC00E000BF00BF41
:103DC00010BD000049000020800C004010B50A48DA
:103DD0000078002802D001280BD105E0012149021A
:103DE0000648FDF78AFB10BD80210448FDF785FBDE
:103DF000F9E70020F7E7000049000020800C0040B0
:103E000010B586B004460120029003900020049073
:103E10000590012C02D10120019001E000200190C9
:103E20000C480078002802D001280FD107E00120BB
:103E30004002009069460848FDF76AFB07E08020D1
:103E4000009069460448FDF763FB00E000BF00BF37
:103E500006B010BD49000020800C00407CB515461E
:103E6000024600201C4600290BD0491E00920191F9
:103E7000044B6A462146284600F00CF9009A0021BE
:103E800011707CBDCD4700002021020C01D0102113
:103E90001046020A01D010460839020901D0104626
:103EA000091F820801D01046891E420801D0881ED1
:103EB0007047081A7047F8B582B28BB2040C0D0C2B
:103EC00010465843002126465E43370C36048019BD
:103ED000794116466E43370C3604801979412646DF
:103EE0006E438919F8BD30B47446641E2578641C8D
:103EF000AB4204D3635D5B00E31830BC18471D463A
:103F0000F8E702E008C8121F08C1002AFAD170477A
:103F10007047002001E001C1121F002AFBD1704749
:103F2000F0B51FB486B00998089A030D002102432A
:103F300014D05148514A18185043051411980128BB
:103F400010981AD0281A401C00264D4F4D49009653
:103F500001910490002812DA444211E011980124E2
:103F600049A3012801D11098C1430698119A846091
:103F70000360C26041600BB0F0BD4042E4E704461C
:103F8000210500203F4A001C51410391029012E09C
:103F9000E00707D032463B4601990098FCF716FA35
:103FA0000191009032463B4610461946FCF70EFA46
:103FB00006460F466410002CEAD10498039B0028A3
:103FC000029A0999089806DAFCF700FA019B009A10
:103FD000FCF7FCF905E0FCF761FA019B009AFCF79D
:103FE0005DFA04460E460022284BFCF783FB03D8FB
:103FF0000020C043014607E00022254B2046314601
:10400000FCF732F9FCF756FB102409E0002C0ADB20
:104010000A220023FCF796F8079B30321A55641EDB
:1040200002460A43F2D11122641C079B121B1C1981
:10403000119B012B03D0012308430ED10AE0084352
:1040400004D0112010900020119077E71098151AD5
:104050006D1E0BE01098824202DD00236D1C03E010
:10406000824201DA00236D1E002BEED006981199D2
:104070008260C16030C07EE701FCFFFF104D000090
:10408000000014400000F03F300000000000F0434A
:104090000000E03FFFB597B00646002518E225284E
:1040A00077D100242746FD49049400E00443761CA0
:1040B00032780120203A90400842F7D130782A28FF
:1040C0000ED00222307801463039092916D80499D9
:1040D0000A235943303940181443761C0490F1E701
:1040E000189802C804911890002904DA01204003AE
:1040F00004434842049002200443761C30782E2862
:1041000014D1042004437078761C2A2809D1189809
:10411000761C80C8189009E00A214F43303FC71928
:10412000761C3078014630390929F5D930786C2869
:1041300010D006DC4C281AD068280ED06A2817D177
:1041400004E0742813D07A2812D110E00120400531
:1041500004430CE00121090501E0032109050C439A
:104160007178814203D1012000052418761C761C49
:104170003078119066280BD013DC58287DD009DCEC
:1041800000287BD04528F6D04628F4D047281AD1FD
:10419000A5E118E0632835D0642870D0652812D1D5
:1041A0009DE170286CD008DC6728F1D069287BD0AD
:1041B0006E280DD06F2806D1BAE073282ED075284E
:1041C00071D0782859D01A9A199990476D1C7EE1C0
:1041D0006002400F022809D003280DD00428189847
:1041E00001680DD00D60001D189070E11898EA1755
:1041F00001680D604A60F6E7189801680D80F2E7E3
:104200000D70F0E718986A4601781172001D189039
:104210000020507202A80090012005E0189802C802
:10422000189000200091C04361070DD5002101E0E6
:104230000199491C0191B94212DA8142F8DB009AD6
:10424000515C0029F4D10BE0002101E00199491CE7
:1042500001918142FADB019A0099895C0029F5D12C
:10426000019904981A9B471A21463846199A00F07A
:1042700097FA0199401945180BE04FE02CE113E043
:104280004EE0009800990078491C00911A9A1999FB
:1042900090470198401E0190401CF2D121463846BB
:1042A0001A9B199A10E137E00A2000210090019131
:1042B0006002410F022907D0189A01CA1892C2174A
:1042C0009446032908D00AE01898C01DC108C90007
:1042D00005C91891944607E000B2C2179446042914
:1042E00002D140B2C1178C4600226146944506DADD
:1042F0000A460021404291418C462D2102E02105D1
:1043000004D52B216A461173012103E0E10701D096
:104310002021F7E7029155E00A200AE0102008E08A
:10432000102000900021042004430191082703E09D
:1043300008200021019100906002410F022907D05E
:10434000189A01CA189200229446032908D008E05E
:104350001898C01DC108C90005C91891944603E00A
:1043600080B2042900D1C0B200210291210729D5D1
:104370001199702906D0009A1021019B4A401A43D6
:1043800005D00EE040216A461173012108E0614624
:10439000014306D030216A461173119951730221ED
:1043A0000291009A0821019B4A401A430AD16146B2
:1043B000014301D1610705D530216A4611730121FE
:1043C0007F1E02911199582904D035A10E910DA993
:1043D0000D910DE037A1F9E76146019B009AFBF7CB
:1043E000B1FE0E9B8C469B5C0D9A521E0D92137073
:1043F00061460143F0D10D9805A9081A20300190BB
:10440000600703D501200004844300E001270198E0
:10441000874201DD381A00E0002001990090411820
:10442000029809180498401A0490E00306D4214623
:104430001A9B199A049800F0B3F94519002706E071
:1044400003A81A9AC05D199990476D1C7F1C0298A9
:104450008742F5DBE0030CD521461A9B199A049894
:1044600000F09EF9451904E01A9A302019999047F6
:104470006D1C0099481E00900029F5DC08E00D989D
:104480000D990078491C0D911A9A199990476D1C45
:104490000199481E01900029F1DC63E1092801001F
:1044A00030313233343536373839616263646566AA
:1044B000000000003031323334353637383941426C
:1044C000434445460000000000F05AF94519761CA7
:1044D0003078002800D0E2E528461BB0F0BD600728
:1044E00000D406271898C01DC108C90048680A688A
:1044F0000831C30FDB071891190001D09CA108E017
:10450000210501D59BA104E0E10701D09AA100E0BB
:104510009AA1430011985B08109165280CD006DC25
:10452000452809D046281DD0472841D141E06628BA
:1045300018D067283CD13CE00021112F01DB11206D
:1045400000E0781C0191009008A911A8FFF7E8FC91
:10455000139905910021119A15927F1C12980197C9
:10456000009150E00120C00703900120019008A9AC
:10457000009711A8FFF7D4FC139A14990592002212
:10458000119B009212981593059A0192002901D06F
:10459000104602E0791C40180190381A01D50198A4
:1045A00004E04042401E0090781C0190C01B029025
:1045B00043E0012F00DA01270021112F01DD112036
:1045C00000E038460191009008A911A8FFF7A8FC67
:1045D00013990591119A0021129815920091019753
:1045E00021070CD40599B94201DB019900E0019142
:1045F000012904DD159A491E515C302906D0B842C4
:1046000001DA011D05DA0121029115E00199491E27
:10461000EDE7002805DC0099411800910199091A7D
:1046200003E0019A411C914200DD01910099401A7A
:10463000401C02900120C0070390200706D4029975
:104640000198814202DB0020C043029000206946AD
:10465000C87707AF012103980337C907884224D0E0
:10466000022011902B201290039800280CDA40426F
:1046700003902D20129007E00A210398FBF738FDE4
:1046800030317F1E039039701199481E1190002916
:10469000F2DC03980028EFD1791E12980870307868
:1046A000202108404530BF1E387006A8C01BC01D21
:1046B000039010980078002800D00120019941183B
:1046C0000298C0170918039809180498401A401E48
:1046D0000490E00306D421461A9B199A049800F02E
:1046E0005FF8451910980078002803D01A9A199994
:1046F00090476D1CE00324D521461A9B199A049813
:1047000000F04EF845191CE00098002807DB0099DE
:104710000598884203DD1598405C199901E01999C4
:1047200030201A9A904700986D1C401C0090029807
:10473000401E0290002804D11A9A2E201999904701
:104740006D1C0199481E01900029DDDC05E03878D8
:104750001A9A7F1C199990476D1C0399481E039063
:104760000029F4DC21461A9B199A0498ACE6000053
:104770002D0000002B0000002000000000000000C1
:10478000F8B5044600251E461746880404D405E003
:1047900039462020B0476D1C641EF9D52846F8BD67
:1047A000FFB50446002581B01E46C80301D5302759
:1047B00000E02027880404D505E038460399B04777
:1047C0006D1C641EF9D5284605B0F0BD4A68002A64
:1047D00006D00A68531C0B6010704868401E486081
:1047E0007047000010B510210148FCF785FF10BD8F
:1047F000800C004010B502210148FCF77DFF10BD80
:10480000000D004008B50020034B044A022100902F
:104810000348FEF781FA08BD5A0000206B03002010
:104820001120000008B50020034B044A022100902B
:104830000348FEF771FA08BD5A0000205B00002013
:104840003120000010B500BF01200004FDF73AFA46
:1048500004460B204443204610BD10B500BF012084
:104860004004FDF72FFA04460B204443204610BDB8
:1048700010B500BFFF200130FDF724FA04460B20DD
:104880004443204610BD000010B5012003490870C4
:104890000846017802A0FCF787F810BDF40200205A
:1048A000B5B1C7B0B9A4CEBBCEAA25640D0A00002D
:1048B00010B508210148FCF71FFF10BD800C004017
:1048C00010B508210148FCF71DFF10BD800C004009
:1048D00010B504210148FCF70FFF10BD800C00400B
:1048E00008B5FCF7C2FFFDF7BBFB00F02FF818E09E
:1048F000FFF74AF8FFF7B2F8FEF7A6FFFEF724FF2E
:10490000FDF7B2FA00F038F8FEF77EFC00BF002099
:10491000009004480449086008460068009000BF01
:1049200000BFE5E75A5A34120014014008B50020D0
:10493000034B044A022100900348FEF7EDF908BD3D
:104940005A0000206B03002001F0000010B5FDF7B5
:104950004FFDFEF73FFEFEF7C9FEFEF7B1FDFEF785
:1049600021FDFBF767FFFDF74DFBFFF78DFF00F023
:1049700089FAFFF7DDF810BD10B500F0EBF9C54876
:104980000088002800DD10BDC34800780300FFF751
:10499000AAFA0B07082B4B54769CBBDDFDFCFB00F1
:1049A00075E1FFF765FFBD49486008464168BCA056
:1049B000FBF7FAFFB94840681921C90188420ED9AE
:1049C000B64840687D214901884208D20020B1499B
:1049D0000880B64808810220AF49087003E07D20B6
:1049E000C000AC49088052E10020FBF7C7FFAB498B
:1049F000888108468189AEA0FBF7D6FFA748808949
:104A000002280CDDA54880891E2808DA0020A1496B
:104A10000880A648088103209F49087003E07D2094
:104A2000C0009C49088032E100209A4908809F48D4
:104A3000088104209849087029E1A14800780028DD
:104A400014D105209E4908707D20C000914908803E
:104A5000012192482030417000209A4908709A48FC
:104A60008C49088105208C49087007E097A0FBF766
:104A70009BFFFFF7D7FE9A488649088007E19048D8
:104A80000078012817D105208D49087083488130AE
:104A900094490A7E0271497E41717D20C0007D49A2
:104AA000088000208749087087487A4908810620D5
:104AB0007949087008E08CA0FBF776FFFFF7A2FEAB
:104AC0007D20000173490880E1E07E4800780228DB
:104AD0000CDD05207A4908707D2000016D490880B1
:104AE0007248088107206C4908700CE0754800780E
:104AF000401C7449087081A0FBF756FFFFF716FFB2
:104B0000774864490880C2E06D480078042814D1D1
:104B100005206B4908707348801E417E5F486030F5
:104B20004175FFF7CDFE7D2000015A490880764887
:104B3000088108205849087007E074A0FBF734FF8B
:104B4000FEF7A4FB664853490880A0E05C48007863
:104B5000042869D105205A4908706248801E0079EE
:104B6000212869DA5F48801E00790A2864DD5D48E3
:104B7000801E417E4948603081755A48423800782D
:104B80004649C877574802E07DE06CE055E042387E
:104B9000408888605348423880888861514842384C
:104BA000807988774F484238C1793C484030C17697
:104BB0004C484238417A394860300175494842389A
:104BC000008A3649C8650F224649303933482230B9
:104BD000FBF725FB0F224349213930483130FBF7E1
:104BE0001EFB14223F4912392C484030FBF717FBBB
:104BF0003C48801E01792948403001752030417DB4
:104C0000807D814204D0012124482030017000E0E1
:104C10003DE0FFF74DFE00201E4908802348088133
:104C20000A201D49087007E03EA0FBF7BDFEFEF715
:104C30002DFB2B481749088029E0214800780328DC
:104C400008D005201E4908701848124908813948C3
:104C5000088007E038A0FBF7A7FEFCF7CDFF0A208D
:104C60000D49087013E038A0FBF79EFE00F054F9E0
:104C7000FFF7B8FDFFF71CFE0120064988720020EF
:104C80000549087003E00A200349087000BF00BF0F
:104C900000BF78E6E802002044000020F402002073
:104CA000564343B5E7D1B925640D0A00102700002B
:104CB000B9A9B5E7B5E7C1F725640D0A0000000002
:104CC0004500002046000020983A0000B7A2CBCD56
:104CD000B6C1B1EDBAC5D0ADD2E90D0A00000000F1
:104CE000AC0D0000BE030020B7A2CBCDB6C1B0E62C
:104CF000B1BEBAC5D0ADD2E90D0A0000C6F4B6AF58
:104D0000C9CFB8E60D0A000060EA0000B5DAD2BBF0
:104D1000B4CEB2E9D1AFC9CFB8E6D0C5CFA20D0AA3
:104D200000000000B2E9D1AFC9CFB8E6D0C5CFA22C
:104D30000D0A0000B80B0000BFAACABCB7A7C3C5C4
:104D4000BCECB2E20D0A0000B2E2CAD4CDEAB3C9AB
:104D50000D0A000000B507484068002803D0054848
:104D60000089002805D10348807A002801D100F08D
:104D70009BF800BDE802002010B5002026494860DD
:104D800088608881C88108824861886188838877C3
:104D9000C877002120482030017041700F21801C0D
:104DA000FBF756FA0F211C483130FBF751FA14215A
:104DB00019484030FBF74CFA002117484030417544
:104DC0008175C175017641768176C17600201249E0
:104DD000C86508460021016641668166C16660308B
:104DE000017441748174C174017500200B4988728B
:104DF000062109487730FBF72BFA0021064860307E
:104E000041758175233001704170801E01714171BF
:104E100005200349087010BDF4020020E8020020BC
:104E20004500002010B500F02DF8FFF7A5FF012088
:104E30000949087009480A4948600A480881002061
:104E400088720880084909A0FBF7AEFD06210648D4
:104E5000FDF770FB10BD000044000020A08601009B
:104E6000E8020020B80B000071030020D2D1BFAAD5
:104E7000CABCB2E2CAD4A3ACB1EDBAC5CEAA0D0A7F
:104E80000000000010B500F047F8FFF7ABFC00F0A1
:104E900033F8FFF70DFDFFF7ADFCFFF709FDFFF756
:104EA00017FDFCF7F7FF10BD0A2004490870012028
:104EB00003498872002008807047000044000020E9
:104EC000E802002070B504460D460022002300BF12
:104ED0000EE01012E65C7040C1B2081141401002B1
:104EE0000E0370404E017040484082B2581C83B29D
:104EF000AB42EEDB90B270BD10B501210148FCF76A
:104F0000FBFB10BD000D004010B520210148FCF74F
:104F1000F3FB10BD800C004010B520210148FCF7C8
:104F2000F1FB10BD800C0040484F00000000002045
:104F300080000000023F0000C84F000080000020F9
:104F400050140000123F00000000010000000000AB
:104F500000005555555555555555555555555555AB
:104F600055555555555555555555555555555555F1
:104F700055555555555555555555555555555555E1
:104F800055555555FEFEFEFEFE01000000050000D1
:104F900000000000000001000000000068AB0600F7
:104FA000191600AAAAAAAAAAAA0000000000640072
:104FB000000000000000640000000000008000000D
:084FC00000127A0000127A00D1
:04000005000000C136
:00000001FF
