:020000040000FA
:10000000601C002081010000890100008B010000BC
:1000100000000000000000000000000000000000E0
:100020000000000000000000000000008D01000042
:1000300000000000000000008F010000910100009E
:100040009301000093010000930100009301000060
:10005000D90C0000930100009301000093010000FF
:100060009301000093010000AD3D0000C93E000077
:10007000E53F0000F94000009301000093010000FB
:100080009301000093010000930100009301000020
:100090009301000093010000930100009301000010
:1000A0009301000093010000930100009301000000
:1000B0007D06000093010000592300009301000019
:1000C00000F002F800F030F80CA030C8083824180E
:1000D0002D18A246671EAB4654465D46AC4201D180
:1000E00000F022F87E460F3E0FCCB6460126334282
:1000F00000D0FB1AA246AB4633431847AC49000078
:10010000CC4900000023002400250026103A01D32A
:1001100078C1FBD8520700D330C100D50B607047BF
:100120001FB51FBD10B510BD00F0F0F91146FFF767
:10013000F7FF04F091FC00F008FA03B4FFF7F2FFB8
:1001400003BC00F00FFA000070B505460C461646D9
:1001500002E00FCC0FC5103E102EFAD2082E02D3AB
:1001600003CC03C5083E042E07D301CC01C5361FBE
:1001700003E021782970641C6D1C761EF9D270BDD5
:100180000748804707480047FEE7FEE7FEE7FEE72F
:10019000FEE7FEE704480549054A064B70470000A4
:1001A000B9370000C1000000600C0020601C002076
:1001B00060140020601400204343514330B55C18A4
:1001C000010C130C0D4692B25D4380B251432C19C1
:1001D000054655430A0C09044D1962415843010C68
:1001E00000044019514130BDFEB5054610460C468D
:1001F000184373D0AE468C460020AD1A01469C4190
:1002000067D36646002701243D46B61A9D4102D3B6
:1002100013463A462124654676462F04360C3E4363
:100220002D0CB61A9D4104D3150C1B042B4312044C
:100230001034654676462F06360A3E432D0AB61A16
:100240009D4104D3150E1B022B4312020834654650
:1002500076462F0736093E432D09B61A9D4104D331
:10026000150F1B012B431201241D65467646AF076F
:10027000B6083E43AD08B61A9D4104D3950F9B00C6
:100280002B439200A41C65467646EF0776083E4352
:100290006D08B61A9D411AD392185B41641C16E092
:1002A0000018764665464941B71A9D410191009074
:1002B00009D36046B11A98418E4684460098019948
:1002C0000025401C6941DD0752082A435B08641E73
:1002D000E6D57246634603B0F0BDFFE70020014655
:1002E000C046C0462A462346F5E7F8B5042A2CD373
:1002F000830712D00B78491C0370401C521E8307E1
:100300000BD00B78491C0370401C521E830704D08D
:100310000B78491C0370401C521E8B079B0F05D0A5
:10032000C91ADF002023DE1B08C90AE0FFF70CFF13
:10033000F8BD1D4608C9FD401C46B4402C4310C002
:10034000121F042AF5D2F308C91A521EF0D40B78F2
:10035000491C0370401C521EEAD40B78491C0370E0
:10036000401C012AE4D409780170F8BD01E004C002
:10037000091F0429FBD28B0701D50280801CC90705
:1003800000D00270704700290BD0C30702D0027062
:10039000401C491E022904D3830702D50280801C19
:1003A000891EE3E70022EEE70022DFE700220309CF
:1003B0008B422CD3030A8B4211D300239C464EE080
:1003C00003460B433CD4002243088B4231D303093C
:1003D0008B421CD3030A8B4201D394463FE0C309EE
:1003E0008B4201D3CB01C01A524183098B4201D306
:1003F0008B01C01A524143098B4201D34B01C01AF1
:10040000524103098B4201D30B01C01A5241C30868
:100410008B4201D3CB00C01A524183088B4201D3D7
:100420008B00C01A524143088B4201D34B00C01AC3
:100430005241411A00D201465241104670475DE0D8
:10044000CA0F00D04942031000D34042534000225B
:100450009C4603098B422DD3030A8B4212D3FC2204
:10046000890112BA030A8B420CD3890192118B4283
:1004700008D3890192118B4204D389013AD0921199
:1004800000E08909C3098B4201D3CB01C01A524154
:1004900083098B4201D38B01C01A524143098B421D
:1004A00001D34B01C01A524103098B4201D30B0106
:1004B000C01A5241C3088B4201D3CB00C01A52412B
:1004C00083088B4201D38B00C01A5241D9D2430812
:1004D0008B4201D34B00C01A5241411A00D201464F
:1004E000634652415B10104601D34042002B00D5B9
:1004F0004942704763465B1000D3404201B500207B
:10050000C046C04602BD704770477047754600F050
:1005100025F8AE46050069465346C008C00085462A
:1005200018B020B5FFF736FE60BC00274908B64674
:100530000026C0C5C0C5C0C5C0C5C0C5C0C5C0C5F2
:10054000C0C5403D49008D46704710B50446C046C1
:10055000C0462046FFF7F1FD10BD0000004870477F
:10056000000C002001491820ABBEFEE72600020067
:10057000704770B58C180578401C6B075B0F01D174
:100580000378401C2A1106D10278401C03E006784B
:10059000401C0E70491C5B1EF9D12B0705D40023AB
:1005A000521E0DD40B70491CFAE70378401CCB1A7D
:1005B000921C03E01D780D70491C5B1C521EF9D57E
:1005C000A142D8D3002070BD70B505460C46052D5C
:1005D00006D0062D16D0072D26D0082D48D135E09F
:1005E000012C02D0022C0AD104E00821224801F09B
:1005F00046FB05E00821204801F037FB00E000BF82
:1006000000BF36E0012C02D0022C0AD104E01021F8
:10061000194801F034FB05E01021174801F025FBD3
:1006200000E000BF00BF24E0012C02D0022C0AD160
:1006300004E02021104801F022FB05E020210E48B3
:1006400001F013FB00E000BF00BF00BF012C02D08F
:10065000022C0AD104E00421074801F010FB05E058
:100660000421054801F001FB00E000BF00BF00E0ED
:1006700000BF00BF70BD0000800C004010B500BF7F
:100680003D48C068C007C00F0121484048400028CD
:1006900070D000BF384800690840484048400028F2
:1006A00068D000BF01203449086100BF334800789A
:1006B00000280DDD3148007831490978884202D19F
:1006C000042002F00FFF2D480078401E2B490870CF
:1006D0002A480078002805D1032002F003FF2820D3
:1006E0002649087027480088002804DD254800882E
:1006F000401E2449088024480088002804DD224840
:100700000088401E2049088020480088002804DD19
:100710001E480088401E1D4908801D48008800288A
:1007200004DD1B480088401E1949088019480088CC
:10073000002804DD17480088401E16490880164826
:100740000068002804D014480068401E1249086060
:1007500012480068002804D010480068401E0F4965
:1007600008600F480088002804DD0D480088401EFE
:100770000B49088010BD0000003001403E01002000
:100780003D0100206A000020140000201C00002011
:100790005C00002064000020700000207400002035
:1007A000EC00002010B502F009F902F0F7F800F0B3
:1007B00003F800F009F810BD08B5022000901C21D4
:1007C000684601F073FA08BD00BF044800680121C3
:1007D00008430249086000BF704700000030014034
:1007E00070B500240025C8217448FFF7DBFD68229E
:1007F0002146641C71484254BC222146641C425468
:1008000000222146641C42546D4842782146641CF3
:100810006A4842546A4882782146641C67484254B8
:100820006748027A2146641C64484254644800893F
:100830000004020E2146641C60484254604802795C
:100840002146641C5D4842545D4880880004020EC5
:100850002146641C594842545948008DC2B2214671
:10086000641C564842545648008D01122246641CAE
:10087000524881545248408DC2B22146641C4F48B0
:1008800042544F48408D01122246641C4B4881540B
:100890004B48827B2146641C484842544848C089E2
:1008A00001122246641C454881544548027B20467B
:1008B000611C8CB241490A5441488089001221468A
:1008C000621C94B23D4A50543D482030027C204680
:1008D000611C8CB239490A543948C2782046611CDF
:1008E0008CB236490A543648427F2046611C8CB28D
:1008F00032490A543248203002782046611C8CB2BA
:100900002E490A542E482030427C2046611C8CB26D
:100910002A490A542A48027F2046611C8CB2274982
:100920000A5427482030827B2046611C8CB2234920
:100930000A5423482030027B2046611C8CB21F4998
:100940000A541F482030427B2046611C8CB21B4950
:100950000A541B482030027D2046611C8CB2174986
:100960000A5417482030C27B2046611C8CB21349C0
:100970000A5413482030427D2046611C8CB20F4936
:100980000A54A01C887000BF08E00C48005D0B49A9
:10099000495D401809490855681CC5B2A542F4DBF9
:1009A000601C84B216222046611C8CB203490A5492
:1009B0002146024803F0D6FC70BD0000380B002031
:1009C000000B002070B505460C46094840780949DF
:1009D000C870074880780871A1B2284602F03EFE30
:1009E00004494871A1B2284603F0BCFC70BD000068
:1009F000000B00207800002010B50446012C02D026
:100A0000022C2AD114E001214903154801F037F9DD
:100A100001211348803001F032F904211048803060
:100A200001F02DF920210E48803001F028F915E061
:100A3000012149030A4801F018F9012108488030D2
:100A400001F013F904210648803001F00EF920214D
:100A50000348803001F009F900E000BF00BF10BD7D
:100A6000800C00407CB502F079FD0A2000F0A6FF62
:100A7000002409E00A2000F0A1FF02F06FFD6100F0
:100A80006A465052601CC4B2032CF3DB00250024DC
:100A90001BE060006946085AC01300280ED06000B1
:100AA000085A0021C943081A401C61006A46505286
:100AB00060006946085A281A85B204E06000694659
:100AC000085A401985B2601CC4B2032CE1DBE8135C
:100AD00001280ED1801E401B401C85B203212846F0
:100AE000FFF76EFC85B20020C043401B401C85B25E
:100AF00004E003212846FFF763FC85B228467CBD4D
:100B000010B502F08BFD1721014803F097FC10BDD2
:100B10009600002010B50446012C02D0022C0CD106
:100B200005E001214902064801F09FF806E0012195
:100B30004902034801F0A3F800E000BF00BF10BD68
:100B4000000C004010B50446012C02D0022C0CD140
:100B500005E001218902064801F087F806E001213D
:100B60008902034801F08BF800E000BF00BF10BD10
:100B7000000C004010B509480078002802D0012878
:100B800008D103E00220FFF7DDFF04E00220FFF7B9
:100B9000C1FF00E000BF00BF10BD000069000020E1
:100BA00010B509480078002802D0012808D103E0D8
:100BB0000120FFF7C7FF04E00120FFF7ABFF00E0D3
:100BC00000BF00BF10BD00006900002070B50446E2
:100BD0000A480470FFF7E4FFFFF744FF0646FFF7FB
:100BE000C9FF232E02DD3046233886B23546002C5D
:100BF00002D128461A3885B2284670BD6900002007
:100C000070B5044600257D208001844200D970BD66
:100C10001249081B0521FFF7C9FB0546A802104928
:100C2000FFF7C4FB054600BF0E48006801210843DA
:100C30000C49086000BF28460969090B09030143F4
:100C4000084A116100BF00BF1046C0680121084377
:100C50001146C86000BF00BFD9E700009E1C00001D
:100C6000390300000098014010B540200C49C969C3
:100C70000140814201D1012100E00021CCB2002CD1
:100C800006D0012C08D1E1204001FFF7B9FF04E0B4
:100C90000448FFF7B5FF00E000BF00BF10BD000033
:100CA000400C00407017000010B50446012C02D023
:100CB000022C0CD105E001218902064800F0DFFF7B
:100CC00006E001218902034800F0CFFF00E000BFE9
:100CD00000BF10BD800C004000BF0A48C06A02215E
:100CE0000840400800280CD000BF0648006B0840B0
:100CF0004008002805D000BF02200249086300BF59
:100D000000BF7047002400400121016070470000CF
:100D100070B50446012500BF206800280BD020686C
:100D2000012808D02068022805D02068032802D0B6
:100D30002068042801D1012000E00020002801D112
:100D400000BFFEE700BF00BFA068002802D0A06877
:100D5000012801D1012000E00020002801D100BFBE
:100D6000FEE700BF00BFE068002808D0E068082860
:100D700005D0E068102802D0E068182801D10120D1
:100D800000E00020002801D100BFFEE700BF20687E
:100D9000042814D100BF6068002808D060680128CA
:100DA00005D06068022802D06068032801D10120C4
:100DB00000E00020002801D100BFFEE71AE000BFDC
:100DC000606800280ED0606801280BD06068022897
:100DD00008D06068032805D06068042802D06068E5
:100DE000052801D1012000E00020002801D100BF2A
:100DF000FEE700BFFF2001302649896B0143254AE9
:100E0000916300BF206804280ED10421224800F01D
:100E100037FA6168880120494969C022914301433A
:100E20001D4A516100BF20E000211B4800F028FA54
:100E30002068184940318968890889000143154AAA
:100E40004032916000BF61688800114689681C22A9
:100E5000914301430F4A4032916000BF9013114605
:100E6000C9680143D16000BF00BFA0680A49496951
:100E7000890889000143084A516100BFE0681146B2
:100E80004969182291430143034A516100BF284632
:100E900070BD000000240040005C014081684908EA
:100EA0004900816070478168490849008160704746
:100EB000816901221204914381617047026A4B00EB
:100EC0005B089A4302627047816801221143816086
:100ED000704781680222114381607047026A4B00AB
:100EE0005B081A4302627047F8B505460C460120BC
:100EF0000090002600BFDB48854201D1012000E0C0
:100F00000020002801D100BFFEE700BF00BF20681D
:100F1000002804D0012149022068884201D1012023
:100F200000E00020002801D100BFFEE700BF00BFA5
:100F30006068002804D00121C9026068884201D19C
:100F4000012000E00020002801D100BFFEE700BF23
:100F500000BFE068002802D0E068042801D1012029
:100F600000E00020002801D100BFFEE700BF00BF65
:100F70002069002808D02069012805D020690228AE
:100F800002D02069032801D1012000E000200028C0
:100F900001D100BFFEE700BF00BF2020005D002898
:100FA00003D02020005D012801D1012000E00020B5
:100FB000002801D100BFFEE700BF00BF606A002823
:100FC00021D001214904606A88421CD04900606A2E
:100FD000884218D003214904606A884213D0012155
:100FE000C904606A88420ED005214904606A8842BB
:100FF00009D003218904606A884204D0072149048A
:10100000606A884201D1012000E00020002801D15F
:1010100000BFFEE700BF00BFA06A002826D0012164
:101020000905A06A884221D04900A06A88421DD0E3
:1010300003210905A06A884218D001218905A06A08
:10104000884213D005210905A06A88420ED00321E9
:101050004905A06A884209D007210905A06A88428B
:1010600004D00121C905A06A884201D1012000E015
:101070000020002801D100BFFEE700BF01200003CF
:101080007949496B0143784A516300BF00BF7748F3
:101090000068C007C00F01214840484000280DD11A
:1010A00000BF01207149886000BF00BF084600688A
:1010B000012108436D49086000BF00BF00BF6B48B5
:1010C0000068022108436949086000BF05E07D20EF
:1010D0008002864200D30AE0761C00BF6348806825
:1010E000C007C00F0121484048400028EFD000BF92
:1010F0002846FFF7D3FE2846FFF7DAFE00BFA868B0
:1011000001210843A86000BF00BF5648006908439A
:101110005449086100BF002600BF00BF5148006865
:1011200010210840070900BF761C701C002801D060
:10113000002FF2D0012F7DD100BF10204949086057
:1011400000BF2846FFF7AAFE00BFA868384001216B
:101150004840484000287DD12068A9697A0291431F
:101160000143A96100BF6068A969920091430143EE
:10117000A96100BF207A002806D000BFA8695110DD
:101180000843A86100BF07E000BFA86901218902E8
:101190008843A86100BF00BF607A002807D000BF65
:1011A000A869FF2101310843A86100BF07E000BF23
:1011B000A869FF2101318843A86100BF00BFE06832
:1011C000A969042291430143A96100BF00BF686976
:1011D00020218843686100BF2069E9688908890087
:1011E0000143E96000BF6069A969F02291430143AE
:1011F000A96100BFA069E96991430143E96100BFAA
:10120000E069E969090909010143E96100BF20209A
:10121000005D00281AD0606AA96907225204914330
:101220000143A96100BFA06AA9690F221205914379
:10123000014301E011E00DE0A96100BF00BFA86912
:10124000012109040843A86100BF08E02846FFF710
:101250002FFE04E00020009001E0002000900098A4
:10126000F8BD0000005C01400024004000A40140E3
:1012700001460868C007C00F012250405040704727
:10128000426904239A430A4342617047416901223B
:10129000114341617047000070B505460C460526B4
:1012A00000BF6148854201D1012000E000200028F4
:1012B00001D100BFFEE700BF00BFA06800280BD02F
:1012C000A068102808D0A068202805D0A068402871
:1012D00002D0A068602801D1012000E00020002891
:1012E00001D100BFFEE700BF00BF6069002808D041
:1012F000FF2101316069884203D04900606988425A
:1013000001D1012000E00020002801D100BFFEE74C
:1013100000BF00BF2069012802D02069002801D148
:10132000012000E00020002801D100BFFEE700BF3F
:1013300000BF2068002802D02068802801D1012049
:1013400000E00020002801D100BFFEE700BF2068B8
:1013500036494968802291430143344A516000BFB5
:10136000102000F09BF80120C00300F087F8A0696E
:10137000296B090A09020143296300BFA0682028DC
:1013800004D0402803D060280BD101E000BF00BF8B
:101390000021284600F05AF82846A16800F050F8CD
:1013A00008E02846A16800F051F80021284600F026
:1013B00047F800BF00BFE068E96A090C090401436F
:1013C000E96200BF60692968032212029143014368
:1013D000296000BF6068A96A090C09040143A96279
:1013E00000BF2069012806D100BF2868802108437A
:1013F000286000BF06E000BF28688021884328607D
:1014000000BF00BF2846FFF741FF00E0761E0648F8
:1014100000F00EF8002801D1002EF7D100BF012006
:101420000149086100BF70BD003001404024004008
:1014300001460869C007C00F012250405040704764
:10144000026860239A430A430260704702681023CF
:101450009A430A4302607047016801221143016008
:101460007047016802221143016070470249C96B4D
:101470000143014AD1637047002400400249C96812
:101480000143014AD1607047402400400249C968C5
:101490000143014AD1607047402400400249096875
:1014A0000143014A116070474024004010B50024F8
:1014B00000BF1B48006807210902084005221202EC
:1014C000811A904218D006DC00280DD00121890233
:1014D000401A1DD10CE0C81FF938002810D0FF3881
:1014E0000138002814D10FE000F0FCF8044613E0A6
:1014F00000F0F8F844080FE000F0F4F884080BE07E
:1015000000F0F0F8C40807E000F0ECF8040903E08C
:1015100000F0E8F8044600BF00BF204610BD000000
:101520000024004010B5002400BF1B4800680721BC
:101530000904084005221204811A904218D006DCE2
:1015400000280DD001218904401A1DD10CE0012092
:101550000004081A10D001210904401A14D10FE028
:10156000FFF7A4FF044613E0FFF7A0FF44080FE0D5
:10157000FFF79CFF84080BE0FFF798FFC40807E023
:10158000FFF794FF040903E0FFF790FF044600BF54
:1015900000BF204610BD00000024004070B50024AC
:1015A000002500BF2648C06802210840002802D05C
:1015B000022807D103E000F047F8044606E021487E
:1015C000046803E000F040F8044600BF00BF00BF1D
:1015D0001B48C068702108400107090F00291FD16E
:1015E0000011030003F018FA080506080A0C12148B
:1015F0001A1C16E0640814E0A40812E0E40810E0E5
:101600000C212046FEF7D2FE04460AE0240908E039
:1016100018212046FEF7CAFE044602E0640900E0F5
:1016200000BF00BF00BF0648C0687F210904084012
:10163000000C451C204668430446204670BD00004F
:101640000024004004000020002000BF0D4949682C
:101650000F2212041140002908D001221204891A15
:1016600006D0891A06D0891A08D105E0064807E095
:10167000064805E0064803E0064801E0024800BFCE
:1016800000BF70470024004000127A000024F400DC
:1016900000366E010048E801002000BF1049496A89
:1016A000032212041140002908D001221204891AD1
:1016B00007D0891A08D0891A0CD108E04B204003C2
:1016C0000BE04B20C00208E04B20800205E04B20DD
:1016D000400202E04B20400300BF00BF7047000003
:1016E0000024004010B5002400BF144800684007E3
:1016F000400F030003F090F90705090C1A101417A6
:101700001A00FFF7A1FF044614E00D48046811E039
:10171000FFF744FF04460DE0FFF7BEFF044609E073
:101720000848046806E00124E40303E0FFF78CFFA7
:10173000044600BF00BF204610BD0000002400404A
:101740000400002000000020034989681C22914306
:101750000143014A916070474024004070B505463E
:101760000C46012600BF8748854201D1012000E0D8
:101770000020002801D100BFFEE700BF00BF2068A5
:10178000002802D02068012801D1012000E00020BB
:10179000002801D100BFFEE700BF00BF606800283D
:1017A0001AD06068042817D06068082814D06068D0
:1017B0000C2811D0606810280ED0606814280BD057
:1017C0006068302808D06068342805D06068382800
:1017D00002D060683C2801D1012000E000200028F0
:1017E00001D100BFFEE700BF00BFA068002802D003
:1017F000A068012801D1012000E00020002801D1CB
:1018000000BFFEE700BF00BF5F49E068884201D823
:10181000012000E00020002801D100BFFEE700BF4A
:1018200000BF2069FF2801D8012000E00020002827
:1018300001D100BFFEE700BF00BF6069002802D0F1
:101840006069012801D1012000E00020002801D1B9
:1018500000BFFEE700BF00BFA069002802D0A0695A
:10186000012801D1012000E00020002801D100BFA3
:10187000FEE700BF00BF45484549486100BF03215E
:10188000434800F02AFB0321414800F015FB00BF4C
:101890003E48C0433E49486100BF08153D49896B39
:1018A00001433C4A916300BF00BF286840084000E4
:1018B000286000BF00BF2868C007C00F0121484052
:1018C000484000285BD1A068002816D02069E9694B
:1018D000090A09020143E96100BFE068E9692E4A8B
:1018E000114002021143E96100BF00BFA868FF2157
:1018F00001310843A86000BF07E000BFA868FF21CE
:1019000001318843A86000BF00BF206800280DD0C7
:101910006068A9683C2291430143A96000BF00BFF1
:10192000686801210843686000BF06E000BF68687E
:1019300040084000686000BF00BF6069002806D012
:1019400000BFA86880210843A86000BF06E000BF70
:10195000A86880218843A86000BF00BFA069002854
:1019600006D000BFA86801210843A86000BF07E0B7
:1019700000BFA86840084000A86000BF00E0002643
:10198000304670BD00980140FFFF0000DF9B5713F9
:101990000028004000240040FF0000FF06480069C6
:1019A00004210843044908610846006901210843ED
:1019B000014908617047000000E000E010B50446EE
:1019C00003E07D20C00000F005F82046641E0028DA
:1019D000F7D110BD10B504460C490D480068FEF75C
:1019E000E5FC444301200006844200D900E0204683
:1019F0000446601E074948610020886100BF054811
:101A00000069C003C00F0028F9D010BD40420F008C
:101A10000800002000E000E0826A8BB29A438262F4
:101A2000704702688BB29A430260704782688BB23B
:101A30009A438260704742688BB29A434260704713
:101A4000026A8BB29A43026270470246D0698BB237
:101A500018408BB2984201D1012070470020FCE76A
:101A60000246D0698BB218408BB2984201D1012056
:101A700070470020FCE70000F8B506460C4600273A
:101A8000002500BF724886420ED071484030864221
:101A90000AD06F488030864206D06D48C0308642FA
:101AA00002D06C48864201D1012000E000200028CD
:101AB00001D100BFFEE700BF00BF2068002805D9A4
:101AC00065492068884201D8012000E000200028F4
:101AD00001D100BFFEE700BF00BF6068032808D047
:101AE0006068002805D06068012802D0606802287C
:101AF00001D1012000E00020002801D100BFFEE755
:101B000000BF00BFA068012802D0A068002801D152
:101B1000012000E00020002801D100BFFEE700BF47
:101B200000BFE068002802D0E068012801D1012050
:101B300000E00020002801D100BFFEE700BF00BF89
:101B40006069002802D06069012801D1012000E00D
:101B50000020002801D100BFFEE700BF80203F49E0
:101B6000496B01433D4A516300BF6AE00121B9401E
:101B7000206808400546002D62D0606803281AD10D
:101B800029463046FFF74DFF29463046FFF753FF01
:101B900029463046FFF74AFF6069012806D100BF99
:101BA000B06AA9B20843B06200BF33E029463046AC
:101BB000FFF732FF2EE029463046FFF72DFF606821
:101BC000002806D100BF3068A9B20843306000BFCA
:101BD00003E029463046FFF724FFA068002804D11F
:101BE00029463046FFF722FF06E000BFB068A9B2E1
:101BF0000843B06000BF00BFE068002806D000BF07
:101C00007068A9B20843706000BF03E029463046FF
:101C1000FFF711FF606802280DD12069012806D165
:101C200000BF306AA9B20843306200BF03E0294612
:101C30003046FFF705FF29463046626800F024F879
:101C40007F1C2068F840002890D10120F8BD0000DA
:101C5000000C0040000D0040FFFF00000024004089
:101C600082698BB21A438261704782698BB21A43D0
:101C70008261704742698BB21A4342617047426980
:101C80008BB21A434261704730B5C3680C464C436F
:101C900065006419A3430C464C4354432343C3607B
:101CA00030BD10B5FFF77AFE10BD000070B50546D7
:101CB0000C462868032801D9032028602046002804
:101CC00005DBC206D20E01219140094A116000BF16
:101CD0002046296801F0DCFA2046002806DBC2060F
:101CE000D20E01219140024A803A116000BF70BDBE
:101CF00080E100E030B50246012300BF6C4882421B
:101D000001D1012000E00020002801D100BFFEE742
:101D100000BF00BF0868002808D0FF24013408680D
:101D2000A04203D064000868A04201D1012000E075
:101D30000020002801D100BFFEE700BF00BF4868B7
:101D4000002804D00124A4024868A04201D1012047
:101D500000E00020002801D100BFFEE700BF00BF67
:101D60008868002805D08868082802D088680C2870
:101D700001D1012000E00020002801D100BFFEE7D2
:101D800000BF00BFC868002802D0C868012801D180
:101D9000012000E00020002801D100BFFEE700BFC5
:101DA00000BF4869002802D04869012801D10120FC
:101DB00000E00020002801D100BFFEE700BF00BF07
:101DC0000869002814D00869102811D00869202853
:101DD0000ED0086930280BD00869002808D008699F
:101DE000102805D00869202802D00869302801D1C0
:101DF000012000E00020002801D100BFFEE700BF65
:101E000000BF0124A4038869A04203D0640088694C
:101E1000A04201D1012000E00020002801D100BF34
:101E2000FEE700BF0120C002224C646B0443214D39
:101E30006C6300BF886814680C25AC4304431460CD
:101E400000BF486814682D02AC430443146000BF0F
:101E500008681468AD10AC430443146000BF4869BF
:101E6000012806D100BF106802242043106000BF83
:101E700000BF8868082810D1086914683025AC4371
:101E80000443146000BFC868012806D100BF106871
:101E900040242043106000BF00BF886914680325F8
:101EA000AD03AC430443146000BF184630BD0000CE
:101EB00000A001400024004010B5202905D2C269CD
:101EC00001238B409A43C26106E0026A0B46203B25
:101ED00001249C40A243026210BD10B5202905D206
:101EE000C26901238B401A43C26106E0026A0B46B5
:101EF000203B01249C402243026210BD4168012224
:101F000011434160704741680122114341607047AD
:101F10004168012211434160704741680122114329
:101F200041607047F8B505460C4600270020009038
:101F3000002600BFAD4885420BD0AD48854208D091
:101F4000AC48854205D0AC48854202D0AB488542BA
:101F500001D1012000E00020002801D100BFFEE7F0
:101F600000BF00BF2068002814D02068012811D0CD
:101F7000206802280ED0206803280BD02068002893
:101F800008D02068042805D02068082802D02068DE
:101F90000C2801D1012000E00020002801D100BF61
:101FA000FEE700BF00BFA068C02808D0A0680028D6
:101FB00005D0A068402802D0A068802801D1012067
:101FC00000E00020002801D100BFFEE700BF00BFF5
:101FD0002069002805D02069102802D02069202817
:101FE00001D1012000E00020002801D100BFFEE760
:101FF00000BF00BFE068002804D0FF210131E06885
:10200000884201D1012000E00020002801D100BF5A
:10201000FEE700BF00BF6069002808D060690228A1
:1020200005D06069012802D06069032801D1012030
:1020300000E00020002801D100BFFEE700BF6B4890
:1020400085422CD120686E4949688908890001437E
:102050006B4A516000BF2068002806D0012808D0D4
:1020600002280AD0032810D10BE0FFF75BFA00909A
:102070000FE0FFF7E9FA00900BE0FFF733FB009069
:1020800007E060480068009003E0FFF74BFA00901B
:1020900000BF00BF61680098FEF788F9461E5448EB
:1020A00085422CD12068564949680C22914301434E
:1020B000534A516000BF2068002806D0042808D089
:1020C00008280AD00C2810D10BE0FFF72BFA00905B
:1020D0000FE0FFF7B9FA00900BE0FFF703FB009069
:1020E00007E048480068009003E0FFF71BFA009003
:1020F00000BF00BF61680098FEF758F9461E3B48D4
:10210000854206D18015FFF7B1F9A815FFF7BEF992
:1021100035E03748854206D14015FFF7A7F9681525
:10212000FFF7B4F92BE0334885420BD1C014FFF719
:102130009DF9FFF7F7F9009061680098FEF736F90E
:10214000461E1CE02C4885420BD18014FFF78EF907
:10215000FFF7E8F9009061680098FEF727F9461E3E
:102160000DE0264885420AD14014FFF77FF9FFF7BA
:10217000D9F9009061680098FEF718F9461E207D95
:10218000C007C00F002806D000BF286801210843FF
:10219000286000BF00BF022160690840002805D008
:1021A00000BF28680843286000BF00BF00BFA869BF
:1021B000000C00043043A86100BFE0682968FF22DA
:1021C000013291430143296000BFA0682968C02201
:1021D00091430143296000BF20692968302291435F
:1021E0000143296000BF01273846F8BD00200140A7
:1021F0000068014000700140007401400078014017
:1022000040240040040000204269520A52020A435E
:10221000426170474269520A52020A434261704762
:102220004269520A52020A43426170474269520AA5
:1022300052020A434261704770B505460C4600BF22
:102240004348854201D1012000E00020002801D14F
:1022500000BFFEE700BF00BF2068002814D0206840
:10226000102811D0206820280ED0206830280BD0EC
:102270002068402808D02068502805D020686028B1
:1022800002D02068702801D1012000E00020002841
:1022900001D100BFFEE700BF00BF606800282CD05E
:1022A0006068012829D06068022826D06068032869
:1022B00023D06068042820D0606805281DD060689D
:1022C00006281AD06068072817D06068082814D03C
:1022D0006068092811D060680A280ED060680B2851
:1022E0000BD060680C2808D060680D2805D06068A5
:1022F0000E2802D060680F2801D1012000E00020E4
:10230000002801D100BFFEE700BF1248FFF7A9F87F
:102310001048FFF7A1F860680121C90269188968AF
:102320000909090101430122D202AA18916000BFE4
:1023300020680121C902691889687022914301430C
:102340000122D202AA18916000BF012070BD0000D6
:1023500000F0014000E001400120084949690140C6
:10236000814200D100E00021012906D1012003496A
:10237000486100BF01210248C1737047C00D004091
:10238000200B0020F3B581B00E4600270C20FFF78C
:10239000DBF919491948FEF791FD18480199FEF734
:1023A0009DFD1648FEF7B0FC1448FEF78DFD13485E
:1023B000FEF78FFD00BF1148FEF75AFF04467F1C51
:1023C000781C002801D0002CF5D0012C10D10B482E
:1023D000FEF79AFC00BF0948806A80B23060074867
:1023E000FEF761FD05480199FEF768FD002500E054
:1023F00001252846FEBD0000FFFF0F00005C0140E4
:10240000F1B58AB0002008900790069008A800F067
:1024100035F8059006A90A98FFF7B4FF04900898CC
:10242000002821D0059800281ED1049800281BD12F
:102430000F49069802F0D8FA0E4A1489002506467C
:102440000F4622462B46FDF7B7FE019100900A4940
:10245000089802F0C9FA02460B46039102900199CE
:102460000098FDF7C1FE079007980BB0F0BD000083
:10247000B80B000000FBFF1FFF0F0000F8B5064679
:1024800000270C20FFF760F900BF204800690121F8
:1024900008431E49086100BF1D491E48FEF70EFD96
:1024A000012109061B48FEF719FD1A48FEF72CFC0E
:1024B0001848FEF709FD1748FEF70BFD00BF154849
:1024C000FEF7D6FE04467F1C781C002801D0002CA5
:1024D000F5D0012C17D10F48FEF716FC00BF0D48B0
:1024E000806A80B230600B48FEF7DDFC21060948A7
:1024F000FEF7E4FC00BF05480069A04303490861FA
:1025000000BF002500E001252846F8BD00A40140D9
:10251000FFFF0F00005C014010B500BF0220FFF775
:102520006FFF04460B204443204610BD10B500BF8A
:102530008020FFF765FF04460B204443204610BD72
:1025400010B500BF01210620FEF73EF80420FFF77A
:1025500057FF04460B20444302210620FEF734F8BF
:10256000204610BD10B500BF0820FFF749FF044604
:102570000B204443204610BD10B500BF012080024F
:10258000FFF73EFF04460B204443204610BD0000E9
:1025900000B587B0FF200130019001200290039028
:1025A000002004900590069001A91B48FFF764FAEB
:1025B000012040020190012002900390002004902D
:1025C0000590069001A91448FFF756FA40200190A3
:1025D000012002900390002004900590069001A92C
:1025E0000D48FFF749FA80200190012002900390E6
:1025F000002004900590069001A90748FFF73CFAD7
:10260000012149020448FFF735FB80210248FFF70A
:1026100031FB07B000BD0000800C0040F0B5B5B044
:1026200005460F4600240026002034903390C82130
:1026300001A8FDF7B9FE00200090C7E02046173042
:10264000B84200D9C3E0285D68287DD1E01D285C30
:102650006828FAD120460A302E5C3102401E285CE0
:1026600008180D3086B2A019801E285C34902919F4
:10267000324601A8FDF739FE314601A800F0EEFF11
:102680003390339934988842DFD120461330285C48
:1026900000900098010220461230285C081880B291
:1026A00000904C490098401800280ED04A49401824
:1026B000002806D04949401800280AD0012879D1BD
:1026C00079E00420464908707DE003204449087001
:1026D00079E001204249087020461A30285C4149BF
:1026E00048620846406A010220461B30285C0818F0
:1026F0003C4948620846406A010220461C30285C7A
:102700000818384948620846406A010220461D30D0
:10271000285C0818334948620846406A002804D0FB
:102720000846C07F012800D1487720461E30285C2B
:10273000642148432B49088520461F30285C6421CA
:1027400048432849488500E03EE020462030295C87
:1027500024482030017320462330285C012808D10A
:1027600020462430285C012803D101211D48203057
:10277000017520462530295C1A4820308175817DFD
:10278000417420462630285C0121081AC1B2154840
:102790002030C17320462730295C12482030417513
:1027A000A019C01E285C002803D001210D4820304C
:1027B000817308E006E001200A49C8700220084938
:1027C000087000E000BF00BF601CC4B236E700BF65
:1027D00035B0F0BDFBEFFFFFDE6FFFFF1DBEFFFF5B
:1027E0006D000020000B002006480088002807D15B
:1027F0000820054949690143034A516100BF00BFF0
:10280000704700006A000020000C004008200549C5
:1028100089690143034A916100BFFF209130024959
:1028200008807047000C00406A0000201FB501209E
:102830000090032001900020029003906846FEF76C
:1028400067FA1FBD10B5FFF7F1FF00F001F810BDEA
:1028500000B591B001200B9003200C9000200D904A
:102860000E900F9010900BA94A48FFF705F902202F
:102870000B9003200C9000200D900E900F90109064
:102880000BA94448FFF7F8F804200B9003200C90A4
:1028900000200D900E900F9010900BA93D48FFF76F
:1028A000EBF808200B9003200C9000200D900E9068
:1028B0000F9010900BA93748FFF7DEF810200B900F
:1028C00003200C9000200D900E900F9010900BA9FB
:1028D0003048FFF7D1F80120C0020B9003200C9084
:1028E00000200D900E900F9010900BA929484038B1
:1028F000FFF7C2F80120C0020B9003200C900020CB
:102900000D900E900F9010900BA92248FFF7B4F88D
:1029100020200B9003200C9000200D900E900F9023
:1029200010900BA91B48FFF7A7F840200B9003203D
:102930000C9000200D900E900F9010900BA9154850
:10294000FFF79AF80020009001900121684601727B
:1029500041720020039004900590502006900F20B3
:102960000790002108A8017003204004099001206D
:1029700080050A9069460848FEF7B6FA40210648E5
:10298000FEF7ACFA012109060348FEF7A7FA11B0D9
:1029900000BD0000C00C0040005C014000BF0120F1
:1029A0000549086100BF00BF0846C068012108430F
:1029B0000149C86000BF70470030014000B587B0D2
:1029C000002000901F20019000200290FF20F43092
:1029D0000390002005900690049069460248FEF797
:1029E0005BFC07B000BD0000003001401CB51020AA
:1029F00000900820019069460148FFF71DFC1CBDAE
:102A000000F0014010B500BF4F48006801210843A5
:102A10004D49086000BF00BF084600680221084316
:102A20004949086000BF04204849496B0143474AAF
:102A3000516300BF00204649096B490A490201431E
:102A4000434A116300BF04204049496B81433F4A18
:102A5000516300BF00203F49096B490A4902014305
:102A60003C4A116300BFFFF7C1FF00BF0520394991
:102A7000CA148918486000BF7D20C000FEF79EFF81
:102A800055203249C969090A090201432F4AD16117
:102A900000BF3149496B090C2F4A928ED24392B242
:102AA000914202D12C49496B00E08021C8B22749EC
:102AB0008968090A09020143244A916000BF032082
:102AC0000004114649680F221204914301431F4A32
:102AD000516000BF00BF1046406801210843114605
:102AE000486000BF01201D49096889088900014329
:102AF0001A4A116000BF002014490968C908C900BA
:102B00000143124A116000BF00BF11460968072245
:102B10001202914301430D4A116000BF00BF1146EC
:102B200009680722120491430143084A116000BF5B
:102B3000022005494968C908C9000143024A516099
:102B400000BF00F09BFD10BD00E0014000240040EC
:102B50000010014000F0014000FBFF1F001000408A
:102B600000B58DB0012000030790032008900020DD
:102B700009900A900B900C9007A90A48FEF77CFF79
:102B80000120009000200190029003900490059095
:102B9000069069460448FEF7E1FD00F057F90DB0D4
:102BA00000BD0000400C00400098014000B587B017
:102BB00008200190012002900020039004900590CD
:102BC000069001A99F48FEF757FF0120400201909F
:102BD000012002900020039004900590069001A926
:102BE0009848FEF749FF01208002019001200290E1
:102BF0000020039004900590069001A99148FEF7EB
:102C00003BFF1020019001200290002003900490CF
:102C10000590069001A98B484030FEF72DFF20203B
:102C20000190002002900390012004900020059064
:102C3000069001A983484030FEF71EFF4020019016
:102C4000002002900390012004900020059006903F
:102C500001A97C484030FEF70FFF80200190002042
:102C6000029003900120049000200590069001A995
:102C700074484030FEF700FFFF2001300190002033
:102C8000029003900120049000200590069001A975
:102C90006C484030FEF7F0FE012040020190012018
:102CA00002900020039004900590069001A96548C9
:102CB0004030FEF7E1FE01208002019001200290E9
:102CC0000020039004900590069001A95D484030D3
:102CD000FEF7D2FE0120C0020190012002900020E8
:102CE000039004900590069001A956484030FEF7E5
:102CF000C3FE082001900120029000200390049060
:102D00000590069001A94F488030FEF7B5FE1020CF
:102D100001900120029000200390049005900690FD
:102D200001A948488030FEF7A7FE2020019001202D
:102D300002900020039004900590069001A941485C
:102D40008030FEF799FE04200190012002900020BF
:102D5000039004900590069001A93A488030FEF750
:102D60008BFE012080020190012002900020039040
:102D700004900590069001A932488030FEF77CFE51
:102D80000120800301900120029000200390049014
:102D90000590069001A92B488030FEF76DFE0120BA
:102DA000C003019001200290002003900490059040
:102DB000069001A923488030FEF75EFE02200190B4
:102DC000012002900020039004900590069001A934
:102DD0001D48FEF751FE01204003019001200290A2
:102DE0000020039004900590069001A915488030BA
:102DF000FEF742FE01200190029000200390049013
:102E00000590069001A91048FEF736FE04200190B7
:102E1000012002900020039004900590069001A9E3
:102E20000948FEF729FE2020019001200290002091
:102E3000039004900590069001A90348FEF71CFE3C
:102E400007B000BD000C0040000D004000B58DB083
:102E500001200003079003200890002009900A90A9
:102E60000B900C9007A90F48FEF706FE01204002C8
:102E70000090002001900C2002900120C0030690D9
:102E8000002003900490059069460748FEF732FF42
:102E900000BF05480068012108430349086000BFDE
:102EA0000DB000BD400C004000A0014000B587B04F
:102EB0008020019002200290002003900490059051
:102EC000069001A90948FEF7D7FDFF2001300190C7
:102ED000022002900020039004900590069001A922
:102EE0000248FEF7C9FD07B000BD0000C00C00405D
:102EF00000B58DB00120400307900220089000200B
:102F0000099001200A9000200B900C9007A911480D
:102F1000FEF7B2FD012080030790022008900020F8
:102F200009900A900B900C9007A90A48FEF7A4FD9F
:102F3000002001904B20C001029003200690402009
:102F4000039000200490059001A90348FEF7EAFFD2
:102F50000DB000BD000C00400020014010B500BFC6
:102F6000FF2001300949886000BF00BF0846406863
:102F7000891508430549486000BF00BF01208860EB
:102F800000BF0846FEF7BAFF10BD00000020014058
:102F900000B58DB00120400307900220089000206A
:102FA00009900A900B900C9007A91148FEF764FD58
:102FB00001208003079002200890002009900A90C9
:102FC0000B900C9007A90A48FEF756FD00200190CF
:102FD0004B204001029003200690402003900020E7
:102FE0000490059001A90348FEF79CFF0DB000BDB9
:102FF000400C00400068014010B500BFFF200130C8
:103000000949886000BF00BF084640688915084329
:103010000549486000BF00BF0120886000BF084626
:10302000FEF771FF10BD00000068014000B58DB0D3
:1030300001200790022008900020099001200A90AA
:103040000B9000200C9007A91148FEF715FD0220F7
:1030500007900890002009900A9001200B90002012
:103060000C9007A90A48FEF707FD002001904B20AD
:10307000C00102900320069040200390002004909D
:10308000059001A90348FEF74DFF0DB000BD0000FB
:10309000400C00400070014010B500BFFF2001301F
:1030A0000949886000BF00BF084640688915084389
:1030B0000549486000BF00BF0120886000BF084686
:1030C000FEF726FF10BD00000070014000B58DB076
:1030D00001200790022008900020099001200A900A
:1030E00000200B900C9007A91048FEF7C5FC0220A9
:1030F00007900890002009900A900B900C9007A967
:103100000A48FEF7B9FC002001904B2040020290D3
:10311000032006904020039000200490059001A910
:103120000348FEF7FFFE0DB000BD0000000C00409C
:103130000074014010B500BFFF20013009498860CC
:1031400000BF00BF0846406889150843054948602C
:1031500000BF00BF0120886000BF0846FEF7DDFE0B
:1031600010BD00000074014010B5174800780D280C
:1031700003D0154800780E2825D1FFF7FDF9134933
:10318000884208D9FFF7EEF9FF21F531884202D2D3
:1031900001200F498861FFF7E5F90C49884208D9F9
:1031A000FFF7EAF9FF21F531884202D201200849F0
:1031B000486107488069012805D105484069012810
:1031C00001D10349087710BD6C0000209411000064
:1031D000000B0020002804D02D2806D05A280CD13E
:1031E00007E02721084A117008E02621064A1170DD
:1031F00004E02521044A117000E000BF00BF28212F
:10320000024A1170704700003D0100203E0100207D
:1032100070B506460D46002426E0AC4200D324E0FB
:10322000E01CA8420AD830190322114901F002FC1F
:10323000002803D000F024F8E01CC4B220460A3075
:10324000A8420FD830190A220A4901F0F3FB0028DE
:1032500008D005200849087001210848017020465F
:103260000A30C4B2601CC4B2D7E700BF70BD000012
:103270002A0100202E0100206D000020200B0020DC
:1032800010B50321014801F041F910BD39010020BA
:1032900010B5002819DB1A4A03231B02D218830831
:1032A0009B00D2588307DC0EFF23A3409A438B0771
:1032B0001B0E8407E40EA3401A43114B032424027F
:1032C0001B198408A4001A5118E00E4A03071B0FAB
:1032D000083B9B089B00D2588307DC0EFF23A340CA
:1032E0009A438B071B0E8407E40EA3401A43054B39
:1032F0000407240F083CA408A4001A5110BD0000C4
:1033000000E100E01CED00E010B500F087F91821A5
:10331000014801F093F810BDC500002010B5044627
:10332000012C02D0022C0CD105E00121C902064873
:10333000FEF79BFC06E00121C9020348FEF79FFC53
:1033400000E000BF00BF10BD400C004010B50446B7
:10335000012C02D0022C0CD105E001218903064882
:10336000FEF78DFC06E0012189030348FEF77DFC92
:1033700000E000BF00BF10BD800C004010B5044647
:10338000012C02D0022C0CD105E00121C903064812
:10339000FEF775FC06E00121C9030348FEF765FC52
:1033A00000E000BF00BF10BD800C004010B5044617
:1033B000012C02D0022C0CD105E001214902064863
:1033C000FEF753FC06E0012149020348FEF757FCD3
:1033D00000E000BF00BF10BD400C004010B5044627
:1033E000012C02D0022C0CD105E0012189020648F3
:1033F000FEF73BFC06E0012189020348FEF73FFC93
:1034000000E000BF00BF10BD400C0040F0B5B5B0FB
:1034100005460F4600240026002034903390C82132
:1034200001A8FCF7C1FF54E0E01DB84200D951E00B
:10343000285D68284BD1A01C2E5CA019B84246D844
:103440002919324601A8FCF750FFA019801E285CFC
:103450003490314601A800F001F933903399349843
:10346000884234D1601C285CAA2802D0BB282CD109
:1034700017E0E01C285C19494978884210D1A0194E
:10348000401E285C16280BD1201D285C134988702B
:1034900007211348FDF796FA00F07CFCA019C4B28E
:1034A00014E0E01C285C0D49497888420CD1A01931
:1034B000401E285C162807D108480078012803D14F
:1034C000FDF78EF9A019C4B200E000BF00BF601C78
:1034D000C4B2A9E700BF35B0F0BD0000000B00206A
:1034E000780000200146032902D0042910D107E00A
:1034F0001020094A52690243074B5A6100BF08E095
:103500001020054A92690243034B9A6100BF00E014
:1035100000BF00BF70470000400C004010B5002401
:1035200020210D48FEF79CFA012805D1FFF756FF30
:103530000220FFF73BFF012420210748FEF790FA05
:10354000002806D10120FFF749FF0120FFF72EFFD9
:103550000024204610BD0000400C004070B500243F
:1035600000250720254908709F20487001F065F963
:10357000802001F017F9002001F014F902211F4802
:1035800001F04DF901F06CF910201C490870002081
:10359000487001F052F9802001F004F9052001F093
:1035A00001F90221154801F03AF901F059F9142006
:1035B000FEF704FA01F041F9802001F0F3F804204D
:1035C00001F0F0F801F039F9812001F0EBF8022167
:1035D0000B4801F0B6F801F043F909480078000201
:1035E0000849088008460088054949784018054977
:1035F0000880084604882546284670BD67000020DC
:10360000E00A0020F40A002010B500F007F81721A6
:10361000014800F013FF10BD7F00002010B500240A
:1036200000BF05E00A21064800F008FF601CC4B294
:10363000372CF7DB0521034800F000FF10BD000028
:10364000DD000020E700002010B5FFF7E7FF18219C
:10365000014800F0F3FE10BDAD00002010B5024699
:103660000B460021002000BF04E0545C2418E0B2A7
:103670004C1CE1B29C1E8C42F7DC10BD10B54648D4
:1036800000684007400F030001F0C6F9073C050A37
:103690003C0F32373C00414800684149086051E026
:1036A00000F008F93E4908604CE03B48406A80035E
:1036B000800F002806D0012809D002280CD003284A
:1036C00014D10EE04B204003354908600EE04B203A
:1036D000C0023349086009E04B208002304908608D
:1036E00004E04B2040022E49086000BF00BF29E0E3
:1036F0002C4800682A49086024E07D2000022849FF
:1037000008601FE0244840680003000F002813D021
:10371000012804D0022806D003280CD107E0224853
:103720001F4908600CE021481D49086008E0204856
:103730001B49086004E000BF1E481949086000BF2B
:1037400000BF00BF00BF144800684005400F0428B8
:1037500006D005280AD006280ED0072818D111E077
:103760000F48006840080E49086012E00C480068E5
:1037700080080B4908600CE009480068C008084947
:10378000086006E00648006800090549086000E096
:1037900000BF00BF10BD0000002400400400002056
:1037A00008000020000000200024F40000366E0114
:1037B0000048E80100127A0010B53948406B012139
:1037C00009030843364948630846406B8021084393
:1037D00033494863084600680121C9060843304957
:1037E00008605520C8610320090548602D4880699C
:1037F000000C2C49098BC94389B2884202D129485F
:10380000806900E01020C006C00E27498863254863
:10381000C0300068000C2349C0310988C94389B20F
:10382000884203D11F48C030006800E08020C0B249
:103830001B4988601B48C0304068000C1949C031E2
:103840008988C94389B2884203D11648C03040688C
:1038500000E08020C0B21249886212488030006ABD
:10386000000C10498031098CC94389B2884203D1C8
:103870000C488030006A00E08020C0B208494861EE
:103880000A484068FF218131084308494860052003
:103890000749086001204860FFF7F0FE10BD0000F6
:1038A0000024004080FAFF1F00200040C00C0040B0
:1038B0000028004010B500242C48C0688007C00FC5
:1038C000002802D001281BD117E0284840680003D7
:1038D000000F00280DD0012804D0022804D00328AE
:1038E00006D103E0224C06E0224C04E0224C02E028
:1038F00000BF224C00BF00BF02E02148046800BFA7
:1039000000BF1A48C0684006400F030001F084F869
:10391000080507090B0D13151B1D00BF15E06408F2
:1039200013E0A40811E0E4080FE00C212046FCF7A6
:103930003DFD044609E0240907E018212046FCF774
:1039400035FD044601E0640900BF00BF0748C068B8
:103950004002400E401C44430448C0680007C00FAA
:10396000002800D06400204610BD00000024004064
:103970000024F40000366E010048E80100127A00CD
:103980000400002010B5C5480068002800D010BD14
:10399000C3480078030001F03FF8110A0B2A117E9A
:1039A0004A99F1EFEEDAEEEDECEBBDEAEE0072E1F2
:1039B00000F0F0F90320BA4908706CE1FEF7B6FD9B
:1039C000B849486008464068B74988420BD9B548AD
:1039D0004068B649884206D20220B1490870B4480E
:1039E000B449086002E01020AD49087053E1B148C5
:1039F0000068002814D0B0480078022809D10020BF
:103A0000AD490870AD48AB4908600520A44908706D
:103A10000CE0FDF775F87D200001A049086005E085
:103A2000A748A449086005209D49087033E1A148D2
:103A30000068002820D00020FDF7C8F89949888147
:103A4000084680890A2812DD0846808932280EDA65
:103A50009C4898490860FFF761FD002803D10420C5
:103A60008F49087016E00F208D49087012E07D2004
:103A7000C0008A4908600DE092488E490860FFF74F
:103A80004DFD002803D104208549087002E00F2075
:103A900083490870FFE0FEF73FFD824988600846D1
:103AA00080681921C90188420CD97E4880687D212F
:103AB0004901884206D20620794908707F487D492D
:103AC000086002E0102076490870E4E07948006858
:103AD000002818D00120FDF779F87249C8810846FE
:103AE000C08904280ADD0846C0891E2806DA754800
:103AF000704908600F206A4908700AE07D20C00004
:103B00006649086005E06F486A4908600F2064490B
:103B10000870C0E067480068002814D06648007844
:103B2000042809D10020644908706648614908608A
:103B30000A205B49087009E0FFF7E6FB7D200001E1
:103B40005649086002E00A2055490870A3E05A204F
:103B5000FFF740FB0120FDF7A7F85B48FDF72EFFBC
:103B60005A485449086007204D49087093E083E0A3
:103B70007AE05CE03FE08AE01DE0FFE74D48006846
:103B8000002814D04C480078032809D100204A4965
:103B900008704E484749086008204149087009E00C
:103BA000FFF752FD7D2040013C49086002E00C20F7
:103BB0003B4908706FE00020FFF70CFB3D480068B0
:103BC000002811D03C480078052808D100203A4947
:103BD0000870384908600C20314908700AE07D20DF
:103BE000C0002E49086005E00020324908600C2022
:103BF0002B4908704FE00220FDF756F8FEF7A0FCB5
:103C00002849086108460069314988420BD925488E
:103C100000693049884206D20D20214908702948A0
:103C20002449086002E010201D49087033E0214853
:103C30000068002814D020480078012809D100200D
:103C40001D49087024481B4908600E20144908705B
:103C500009E0FFF7D9FC7D2040011049086002E02F
:103C600010200F49087016E012480068002802D1A1
:103C700010200B4908700EE000200949087001204F
:103C8000084908700020C877FFF7A4FA03E0102065
:103C90000349087000BF00BF00BF78E67400002031
:103CA0006C000020000B002070170000B01D000009
:103CB000A8610000700000206D000020409C000002
:103CC00050C30000204E0000983A000030750000FC
:103CD00094110000501400002823000010B5FFF7D5
:103CE0001DFC00F0BFFC0220FFF718FB0020FFF7CF
:103CF00071FA0220FCF70EFF0220FCF723FF0221DD
:103D00000520FCF761FC02210620FCF75DFC022186
:103D10000720FCF759FC02210820FCF755FC022083
:103D2000FCF7C2FF0220FFF711FB0220FFF726FB82
:103D30000220FCF761FE00200149087010BD000060
:103D40006C000020002011490870114908700F49CB
:103D5000C87048608860C870C881888108614861FF
:103D600088610877487788770021084820300170FB
:103D7000C173002005494862088548850021034831
:103D8000203001734173817341757047000B00202F
:103D90006D00002010B5FFF7A1FFFFF7D3FF012052
:103DA0000149087010BD00006C000020F8B5002427
:103DB00000250026002700BF33484068FF2101315D
:103DC0000840000A044600BF2F4880680840000AE7
:103DD000054600BF2C484068C007C00F012148407D
:103DE0004840064600BF2848806808404840484090
:103DF0000746002C19D0012D17D100BF22480069B9
:103E00002249234A1288885421480088401C2049AE
:103E1000088008460088C82801DB002008800120AF
:103E20001C490870C8201C490880012E2AD1012F86
:103E300028D11A48407919490979884209D100BF27
:103E400011484068B0431049486000BF0120144940
:103E50000870124840791149097988420CDA0F48F4
:103E600000680E4A5279815C0748FEF7CDF90B488D
:103E70004079401C0949487100BF0120024988600F
:103E800000BF00BFF8BD000000200140400100203D
:103E90000E0000200C0000201400002098030020D9
:103EA0001000002010B5FFF723F8FFF757F800F0D7
:103EB00003F800F093FA10BD08B5022000900A2123
:103EC0006846FDF7F3FE08BDF8B50024002500267E
:103ED000002700BF33484068FF2101310840000A35
:103EE000044600BF2F4880680840000A054600BF0E
:103EF0002C484068C007C00F012148404840064692
:103F000000BF284880680840484048400746002CC9
:103F100019D0012D17D100BF224800692249234A38
:103F20001288885421480088401C2049088008468F
:103F30000088C82801DB0020088001201C49087087
:103F4000C8201C490880012E2AD1012F28D11A48E7
:103F5000407919490979884209D100BF1148406860
:103F6000B0431049486000BF01201449087012484E
:103F700040791149097988420CDA0F4800680E4AE5
:103F80005279815C0748FEF745F90B484079401C9F
:103F90000949487100BF01200249886000BF00BF85
:103FA000F8BD000000680140A803002018000020B0
:103FB000170000201C000020000600201600002032
:103FC00010B5FEF7E5FFFFF717F800F003F800F073
:103FD0006DFA10BD08B5002000900B216846FDF772
:103FE00065FE08BDF8B5002400250026002700BFA7
:103FF00032484068FF2101310840000A044600BFF2
:104000002E4880680840000A054600BF2B484068DB
:10401000C007C00F012148404840064600BF27485E
:1040200080680840484048400746002C19D0012DC0
:1040300017D100BF214800692149224A12888854BB
:1040400020480088401C1F49088008460088C8286E
:1040500001DB0020088001201B490870C8201B4993
:104060000880012E28D1012F26D1194840791849FE
:10407000097988420CDA16480068154A5279815C41
:104080000E48FEF7CDF812484079401C104948719F
:1040900000BF01200949886000BF0D4840790C49E4
:1040A0000979884208D100BF0448406840084000B0
:1040B0000249486000BF00BFF8BD00000070014029
:1040C0001006002058000020560000205C00002050
:1040D0006808002010B5FEF7A9FFFEF7DDFF00F02D
:1040E00003F800F04DFA10BD08B5022000900C2135
:1040F0006846FDF7DBFD08BDF8B500240025002665
:10410000002700BF33484068FF2101310840000A02
:10411000044600BF2F4880680840000A054600BFDB
:104120002C484068C007C00F01214840484006465F
:1041300000BF284880680840484048400746002C97
:1041400019D0012D17D100BF224800692249234A06
:104150001288885421480088401C2049088008465D
:104160000088C82801DB0020088001201C49087055
:10417000C8201C490880012E2AD1012F28D11A48B5
:10418000407919490979884209D100BF114840682E
:10419000B0431049486000BF01201449087012481C
:1041A00040791149097988420CDA0F4800680E4AB3
:1041B0005279815C0748FEF739F80B484079401C7A
:1041C0000949487100BF01200249886000BF00BF53
:1041D000F8BD000000740140780800206000002055
:1041E0005F00002064000020D00A00205E00002054
:1041F00010B5FEF76BFFFEF79DFF00F003F800F02F
:1042000029FA10BD08B5012000900D216846FDF780
:104210004DFD08BD10B5FFF745FEFFF7D1FEFFF7D6
:1042200059FFFFF7E5FF10BD10B586B00446002C1E
:1042300001D1019001E00220019001208003009053
:104240000020029001200390002004900590694610
:104250000248FDF711FC06B010BD0000000C004044
:10426000F0B5B5B005460F46002400260020349076
:104270003390C82101A8FCF797F824E0A01DB842AC
:1042800000D921E0285D68281BD1601C2E5CA01994
:10429000401E285C162814D1A019801E285C34907A
:1042A0002919324601A8FCF720F8314601A8FFF78A
:1042B000D5F9339033993498884202D101200449CA
:1042C000C877601CC4B2D9E700BF35B0F0BD0000AC
:1042D000000B002010B506480088002807D13321C4
:1042E000044800F07DF97D2000010149088010BDDF
:1042F000EC000020EE00002010B5144800780128E2
:1043000008D10020114908700520FDF757FB002057
:10431000FFF78AFF0E480078012816D10D48008863
:10432000002812D1FEF772FA0020094908700A48E5
:1043300002880A490A48FBF707FF0748018808482E
:10434000FFF764F800200449088010BD1000002029
:104350000C000020140000200E000020400100206E
:104360000802002070B505460C46002C00D170BD37
:1043700064201649088000BF15480079144949791E
:10438000884203D0114800880028F5D10120FDF7AC
:1043900015FB0120FFF748FF224629460D48FBF791
:1043A000A4FF0C480A4908600C710120487100BF45
:1043B0000949886000BF0846FDF7A0FD0448006871
:1043C00001780548FDF720FF00BFD0E7120000206C
:1043D00098030020D0020020002001400120024963
:1043E00008714871704700009803002010B50E480E
:1043F0000078012816D10D480088002812D1FEF758
:1044000005FA0020084908700948028809490A4845
:10441000FBF79AFE064801880748FEF7FFF80020E0
:104420000349088010BD0000170000201C00002078
:1044300018000020A80300207004002070B5054675
:104440000C46002C00D170BD7D20C00013490880AF
:1044500000BF1348007912494979884203D00F48B8
:1044600000880028F5D1224629460E48FBF73DFF7B
:104470000C480B4908600C710120487100BF0A49C3
:10448000886000BF0846FDF73EFD054800680178DA
:104490000548FDF7BFFE00BFD5E700001A00002069
:1044A0000006002038050020006801400120024974
:1044B00008714871704700000006002010B50E48D2
:1044C0000078012816D10D480088002812D1FEF787
:1044D0009DF90020084908700948028809490A48DE
:1044E000FBF732FE064801880748FEF791FE0020E0
:1044F0000349088010BD0000560000205C00002029
:104500005800002010060020D806002070B505468F
:104510000C46002C00D170BD64201549088000BFF6
:104520001448007913494979884203D0104800881B
:104530000028F5D10120FDF741FA224629460E4810
:10454000FBF7D3FE0C480B4908600C710120487141
:1045500000BF0A49886000BF0846FDF7D9FC05483E
:10456000006801780548FDF75BFE00BFD3E7000057
:104570005A00002068080020A007002000700140B9
:104580000120024908714871704700006808002046
:1045900010B50E480078012816D10D480088002873
:1045A00012D1FEF733F90020084908700948028843
:1045B00009490A48FBF7C8FD064801880748FFF784
:1045C0004FFE00200349088010BD00005F0000205E
:1045D00064000020600000207808002040090020CE
:1045E00070B505460C46002C00D170BD7D20C00082
:1045F0001349088000201349087000BF1148007853
:10460000012803D10E4800880028F7D12246294608
:104610000D48FBF76AFE0C480C4908600C7101203C
:10462000487100BF0A49886000BF0846FDF775FC65
:104630000648006801780648FDF7F8FD00BFD4E79A
:10464000620000205E000020080A0020D00A00203E
:104650000074014001200249087148717047000050
:10466000D00A002010B5FF2101311E48FDF7F8F9EE
:10467000002807D180211B48FDF7F2F9002801D15D
:1046800019494870FF2101311648FDF7E9F9002862
:1046900007D180211348FDF7E3F9012801D1124920
:1046A0004870FF2101310F48FDF7DAF9012808D1E0
:1046B00080210C48FDF7D4F9002802D102200A49D4
:1046C0004870FF2101310748FDF7CAF9012808D1D8
:1046D00080210448FDF7C4F9012802D103200249D2
:1046E000487010BD400C0040000B0020002002E08C
:1046F00000BF411CC8B23228FADB704770B50025F4
:10470000002000F043F9002000F0C2F8FFF7EEFFB0
:10471000002412E0012000F0BBF8FFF7E7FF00F0F3
:104720001BF9002802D0802020410543002000F022
:10473000AFF8FFF7DBFF601CC4B2082CEADB2846A9
:1047400070BD70B506460D46002428E0FFF7D6FF81
:104750003055681EA04210DD012000F017F900203E
:1047600000F0C8F8FFF7C2FF012000F091F8FFF752
:10477000BDFF002000F08CF80FE0012000F006F9EA
:10478000012000F0B7F8FFF7B1FF012000F080F83A
:10479000FFF7ACFF002000F07BF8601CC4B2AC4215
:1047A000D4DB70BD70B50446012000F0EFF80020A6
:1047B00000F06EF8002518E080202040002803D08B
:1047C000012000F097F802E0002000F093F8FFF7D6
:1047D0008DFF012000F05CF8FFF788FF002000F05B
:1047E00057F86006040E681CC5B2082DE4DB0020F3
:1047F00000F0CCF8FFF77AFF012000F049F8FFF74E
:1048000075FF00F0A9F8002802D100F041F802E09D
:10481000002000F03DF8FFF769FF012070BD70B582
:1048200005460E46002404E0285DFFF7BBFF601C30
:10483000C4B2B442F8DB012070BD10B5012000F015
:10484000A5F8012000F056F8012000F021F8FFF74C
:104850004DFF002000F04EF8002000F019F810BDC8
:1048600010B5012000F092F8002000F043F801207C
:1048700000F00EF8FFF73AFF012000F03BF80020AF
:1048800000F006F8FFF732FF012000F001F810BD3C
:1048900010B50446012C13D114480078002802D02A
:1048A00001280BD105E0FF2101311148FDF7E2F9A4
:1048B00005E040210E48FDF7DDF900E000BF13E000
:1048C0000A480078002802D001280BD105E0FF211A
:1048D00001310748FDF7C4F905E040210448FDF720
:1048E000BFF900E000BF00BF10BD0000690000205C
:1048F000800C004010B50446012C13D114480078F8
:10490000002802D001280BD105E0012149021148FD
:10491000FDF7B0F905E080210E48FDF7ABF900E0A6
:1049200000BF13E00A480078002802D001280BD10C
:1049300005E0012149020748FDF792F905E08021D1
:104940000448FDF78DF900E000BF00BF10BD000076
:1049500069000020800C004010B50A48007800284B
:1049600002D001280BD105E0012149020648FDF7DC
:104970006CF810BD80210448FDF767F8F9E70020C6
:10498000F7E7000069000020800C004010B586B0F9
:104990000446012002900390002004900590012C11
:1049A00002D10120019001E0002001900C48007824
:1049B000002802D001280FD107E00120400200901A
:1049C00069460848FDF758F807E0802000906946DE
:1049D0000448FDF751F800E000BF00BF06B010BD6D
:1049E00069000020800C0040F8B582B28BB2040C44
:1049F0000D0C10465843002126465E43370C360402
:104A00008019794116466E43370C36048019794176
:104A100026466E438919F8BD30B47446641E257865
:104A2000641CAB4204D3635D5B00E31830BC1847E1
:104A30001D46F8E730B503460C46002100BF07E0ED
:104A4000585C655CA84201D0002030BD481C81B292
:104A50009142F5DB0120F8E7FEF782F8FDF721F936
:104A6000FDF7D0FFFEF722FAFEF7A0F8FCF7FCF8FE
:104A7000FBF798FEFFF7CEFBFDF78AFDFDF7E2FEA0
:104A8000FFF72CF90FE0FDF7AFFEFFF735FCFFF75E
:104A9000ADFCFFF713FDFFF77BFDFEF773FFFEF79D
:104AA00063FBFFF717FCEEE7C84A00000000002098
:104AB0004001000072050000744B0000400100201E
:104AC000201B0000040100001132804B127A0431D7
:104AD0009A0106210A34FE01393F5A64486908E107
:104AE0002468AB073D191668FF011468010A100A13
:104AF000250618143152020AE2AA9D17100A220153
:104B000005183137020BE28A6C171A0B2E100819A0
:104B10001624040205107B0372182A041839461360
:104B200027A07D017D165501399719D03B68328C3D
:104B300034EF1F3C1BEE14061B521B04120812D24A
:104B40002AD2431F07D0279E4002B1180E6E0D5C7B
:104B5000FFFF050346166801010333166E16415424
:104B60000D100B41542B4346554E3D300D444F4BD9
:044B70000D00000034
:04000005000000C136
:00000001FF
