:020000040000FA
:1000000078110020D5000000DD000000DF000000B6
:1000100000000000000000000000000000000000E0
:10002000000000000000000000000000E1000000EF
:100030000000000000000000E3000000E5000000F8
:10004000E7000000E7000000E7000000E700000014
:10005000E7000000E7000000E7000000E700000004
:10006000E7000000E7000000592E00006D2F00009F
:10007000E7000000E700000089300000E700000012
:10008000E7000000E7000000E7000000E7000000D4
:10009000E7000000E7000000E7000000E7000000C4
:1000A000E7000000E7000000E7000000E7000000B4
:1000B000A5070000E7000000F11B0000E7000000BA
:1000C0000348854600F02AFB00480047CD41000068
:1000D000781100200448804704480047FEE7FEE707
:1000E000FEE7FEE7FEE7FEE7012A0000C100000090
:1000F00030B50B46014600202022012409E00D46C0
:10010000D5409D4205D31D469540491B2546954047
:1001100040191546521E002DF1DC30BD70B500248B
:100120002546002801DA01244042002901DA012590
:100130004942FFF7DDFFAC4200D04042002C00D026
:10014000494270BDF0B51FB40646002082B0054696
:100150004024019100901BE0019922460F46304651
:1001600000F024FA049A059B801A994110D3104696
:100170001946224600F00AFA361A8F4101972246A4
:1001800001200021009F00F001FA38184D41009035
:100190002046641E0028DFDC019B00982946324679
:1001A00007B0F0BDF0B51FB486B0002000900190FC
:1001B00002900698069980B204900798090C0204F0
:1001C0000014114307900027089D099806913E46A8
:1001D0003C4603900398A9B20204000C03900498D3
:1001E0002D0C154348430021224600F0CFF9C719D2
:1001F000714110340E46402CECDB3846029A00F078
:10020000C5F9009A019B801800905941029801910C
:10021000103002904028CCDB00980BB0F0BD0346B4
:100220000B439B0703D009E008C9121F08C0042A2A
:10023000FAD203E00B780370401C491C521EF9D21D
:100240007047D2B201E00270401C491EFBD27047D9
:100250000022F6E710B513460A4604461946FFF792
:10026000F0FF204610BD0000F0B507460846584094
:1002700087B0C00F049048000E4659004008490856
:10028000BC1A884105D2384631461E4617460B46F1
:1002900002465800400810434CD0300D03904005F2
:1002A0005900400D490D0590401A0290402872DA1D
:1002B00018030121000B09050843019004980092DE
:1002C000002805D0019952420020884100920190F7
:1002D000029840210A1A0199009800F057F9054642
:1002E0000C466B4607CB00F072F9C0197141039AB6
:1002F0000E0D0023D71756401A467A40164344D0B5
:10030000049A002A2DD0029A012A039A15DC1205BC
:10031000C01A914101263605001C7141D20F059E7D
:10032000D2070093019202962A46234600F06FF905
:1003300007B0F0BD38463146FAE71605224A0F46A7
:10034000B218C01AB74101210905001C4F4100181D
:100350007F41114618187941E20F10436D1964412D
:1003600013E0E2076D0815436408C2071443039ABB
:1003700001261205C01A91413605001C7141CE07B5
:10038000400830434908C01851412A46234600F02E
:1003900031F9CDE7FFE7049801224000C117121A96
:1003A00000238B4104983146C417381AA141EEE767
:1003B00030B40124E407634030BC55E730B4012475
:1003C000E407614030BC4FE70000E0FFF0B51FB428
:1003D00088B00B990998002448400999C00F49003A
:1003E00049080991C0070B990090490049080B91F1
:1003F00009990898A64608431CD00B990A98084307
:1004000018D0099801244000420D4800410D099878
:1004100024050003000B204309900B980003000BF8
:1004200020430B9050181C4940180022019014469C
:10043000104605E0002001460DB0F0BD032801DAAA
:10044000034600E003239C46C11A0AAE0AE05F009F
:1004500008ADED5B4F00F75B7D430027AA187C4198
:10046000491C5B1E6145F2DD410004AB5A52210478
:10047000120C0A43240C401C0828DFDB0198029070
:100480000099704601910090059B049A079906987F
:1004900000F0BDF8D0E700000DFCFFFFF0B50C4602
:1004A0005C4085B0E40FE40703944C000026640828
:1004B00059009446490802460296224321D06246DA
:1004C0000A431ED06200570D4A000E032303550D48
:1004D000012402462C492405781B1B0B360B4018BF
:1004E00023432643614600901C46501AB44103D36F
:1004F0000098401C009002E0921800985B41002890
:1005000003DA0020014605B0F0BD002001210905F5
:100510000746864611E064461D46141BB54106D3C6
:100520006546521BB341744607430C43A646CD07AC
:1005300040084908284392185B4105460D43EAD11B
:100540001046184313D06046194650407140084386
:1005500006D06046101AB34106D20122002306E0FD
:1005600000220123DB0702E00122D243531000984E
:1005700074460105381C6141029C039D00196941C4
:1005800000F038F8BFE70000FD03000010B5202A96
:1005900004DB0146203A9140002010BD9140202309
:1005A0009C1A0346E3401943904010BD10B5202A21
:1005B00004DB0846203AD040002110BD0B46D34052
:1005C000D0402024A21A91400843194610BD10B50E
:1005D000202A06DBCB170846203A1041C1170B43EF
:1005E00006E00B461341D0402024A21A9140084354
:1005F000194610BD10B5002B08DA0024401C6141DB
:1006000092185B411A4301D14008400010BDF0B57B
:100610001FB482B005460C0003D0084603F0A4F8CE
:1006200002E003F0A1F8203002460090214628465F
:10063000FFF7ACFF049B059A04460F46184311438D
:10064000084314D0184610431BD0009840210A1AC2
:1006500018460599FFF7AAFF05460E46009A059928
:100660000498FFF793FF084305D0012004E02046DB
:10067000394607B0F0BD0020C11705430E432C4397
:10068000374300990E986305401A7905E40A002261
:100690000C43FD0A0A3002D500200146E9E70105B6
:1006A000101969410C9C0D9D00196941FFF7A2FFCB
:1006B000DFE700004A0009030123090B1B0519436A
:1006C0000A4B10B5520D9A4202DA0020014610BDC5
:1006D000064B34339A4203DC9A1AFFF767FF10BDCA
:1006E000034BD218FFF752FF10BD0000FF030000BC
:1006F000CDFBFFFF10B5002904DB0124E4074042D5
:100700008C412146002B04DB1C460123DB075242AF
:10071000A341994200D1904210BD0000064C012532
:10072000064E05E0E36807CC2B430C3C9847103499
:10073000B442F7D3FFF7C8FCC0450000E045000015
:1007400010B5FF210131024800F0E2FF10BD0000AA
:10075000400C004010B5FF210131024800F0D2FFEB
:1007600010BD0000400C004010B5012149020248B4
:1007700000F0CEFF10BD0000400C004010B501217C
:100780008902024800F0C4FF10BD0000400C004088
:1007900010B50121C902024800F0BAFF10BD0000E7
:1007A000400C004000BF2F48C068C007C00F0121A7
:1007B00048404840002854D000BF2A4800690840FB
:1007C0004840484000284CD000BF0120254908611E
:1007D00000BF25480088002804DD23480088401E0B
:1007E0002149088021480088002804DD1F4800882E
:1007F000401E1E4908801E480088002804DD1C4851
:100800000088401E1A4908801A480088002804DD24
:1008100018480088401E174908801648406800287C
:1008200004D014484068401E1249486012480078BD
:10083000002804DD10480078401E0F4908700F485A
:100840000088002804DD0D480088401E0B49088000
:100850000B480088002804DD09480088401E08492C
:1008600008807047003001400C000020120000207A
:10087000360000201C050020150000200A00002082
:100880000200002010B501F07BFB01F069FB00F0D5
:1008900003F800F009F810BD08B5022000901C21F3
:1008A000684600F0EDFF08BD00BF04480068012164
:1008B00008430249086000BF704700000030014053
:1008C0007CB501F057FF002409E0642000F0BAFD78
:1008D00001F050FF61006A465052601CC4B2032C04
:1008E000F3DB002500241BE060006946085AC013B2
:1008F00000280ED06000085A0021C943081A401C85
:1009000061006A46505260006946085A281A85B24A
:1009100004E060006946085A401985B2601CC4B200
:10092000032CE1DBE81301280ED1801E401B401C84
:1009300085B203212846FFF7F1FB85B20020C043B2
:10094000401B401C85B204E003212846FFF7E6FB6C
:1009500085B228467CBD000010B58021014800F01A
:10096000D7FE10BD800C004010B58021014800F07A
:10097000C9FE10BD800C004010B5FFF7F5FF0A203E
:1009800000F060FDFFF79CFF0446FFF7E5FF142C25
:1009900003DD2046143884B200E00224204610BD56
:1009A0000FB410B5B4B00E480078002804D134B0AC
:1009B00010BC08BC04B0184737A80190C82102A891
:1009C000019B369A02F0BAFE044600200190002CEA
:1009D00003DDA1B202A802F09FFC00BFE7E7000020
:1009E00000000020012101607047000070B504463E
:1009F000012500BF206800280BD02068012808D0FE
:100A00002068022805D02068032802D02068042826
:100A100001D1012000E00020002801D100BFFEE745
:100A200000BF00BFA068002802D0A068012801D143
:100A3000012000E00020002801D100BFFEE700BF38
:100A400000BFE068002808D0E068082805D0E0680A
:100A5000102802D0E068182801D1012000E0002011
:100A6000002801D100BFFEE700BF2068042814D190
:100A700000BF6068002808D06068012805D0606861
:100A8000022802D06068032801D1012000E0002084
:100A9000002801D100BFFEE71AE000BF606800280F
:100AA0000ED0606801280BD06068022808D060680A
:100AB000032805D06068042802D06068052801D1A9
:100AC000012000E00020002801D100BFFEE700BFA8
:100AD000FF2001302649896B0143254A916300BFFD
:100AE000206804280ED10421224800F037FA6168FA
:100AF000880120494969C022914301431D4A51613F
:100B000000BF20E000211B4800F028FA20681849A7
:100B100040318968890889000143154A4032916053
:100B200000BF61688800114689681C229143014317
:100B30000F4A4032916000BF90131146C9680143CB
:100B4000D16000BF00BFA0680A49496989088900CF
:100B50000143084A516100BFE06811464969182203
:100B600091430143034A516100BF284670BD000014
:100B700000240040005C0140816849084900816010
:100B80007047816849084900816070478169012286
:100B90001204914381617047026A4B005B089A43DB
:100BA0000262704781680122114381607047816849
:100BB0000222114381607047026A4B005B081A43AE
:100BC00002627047F8B505460C46012000900026E9
:100BD00000BFDB48854201D1012000E00020002851
:100BE00001D100BFFEE700BF00BF2068002804D08D
:100BF000012149022068884201D1012000E0002043
:100C0000002801D100BFFEE700BF00BF60680028D8
:100C100004D00121C9026068884201D1012000E0AE
:100C20000020002801D100BFFEE700BF00BFE06840
:100C3000002802D0E068042801D1012000E0002053
:100C4000002801D100BFFEE700BF00BF20690028D7
:100C500008D02069012805D02069022802D0206927
:100C6000032801D1012000E00020002801D100BFAD
:100C7000FEE700BF00BF2020005D002803D0202039
:100C8000005D012801D1012000E00020002801D1F1
:100C900000BFFEE700BF00BF606A002821D001212D
:100CA0004904606A88421CD04900606A884218D0B2
:100CB00003214904606A884213D00121C904606A93
:100CC00088420ED005214904606A884209D0032178
:100CD0008904606A884204D007214904606A884216
:100CE00001D1012000E00020002801D100BFFEE773
:100CF00000BF00BFA06A002826D001210905A06A14
:100D0000884221D04900A06A88421DD003210905EC
:100D1000A06A884218D001218905A06A884213D0B0
:100D200005210905A06A88420ED003214905A06A61
:100D3000884209D007210905A06A884204D0012110
:100D4000C905A06A884201D1012000E000200028E6
:100D500001D100BFFEE700BF012000037949496BC4
:100D60000143784A516300BF00BF77480068C0075D
:100D7000C00F01214840484000280DD100BF01208C
:100D80007149886000BF00BF084600680121084320
:100D90006D49086000BF00BF00BF6B4800680221BA
:100DA00008436949086000BF05E07D208002864253
:100DB00000D30AE0761C00BF63488068C007C00FFC
:100DC0000121484048400028EFD000BF2846FFF7E7
:100DD000D8FE2846FFF7DAFE00BFA86801210843C5
:100DE000A86000BF00BF5648006908435449086125
:100DF00000BF002600BF00BF514800681021084016
:100E0000070900BF761C701C002801D0002FF2D00B
:100E1000012F7DD100BF10204949086000BF28463E
:100E2000FFF7AFFE00BFA8683840012148404840A6
:100E300000287DD12068A9697A0291430143A96104
:100E400000BF6068A969920091430143A96100BF96
:100E5000207A002806D000BFA86951100843A86175
:100E600000BF07E000BFA869012189028843A8618B
:100E700000BF00BF607A002807D000BFA869FF212B
:100E800001310843A86100BF07E000BFA869FF2146
:100E900001318843A86100BF00BFE068A96904224E
:100EA00091430143A96100BF00BF686920218843C5
:100EB000686100BF2069E968890889000143E96029
:100EC00000BF6069A969F02291430143A96100BF95
:100ED000A069E96991430143E96100BFE069E969FB
:100EE000090909010143E96100BF2020005D0028D4
:100EF0001AD0606AA9690722520491430143A9618B
:100F000000BFA06AA9690F2212059143014301E0C5
:100F100011E00DE0A96100BF00BFA869012109042B
:100F20000843A86100BF08E02846FFF72FFE04E051
:100F30000020009001E0002000900098F8BD000023
:100F4000005C01400024004000A401400146086804
:100F5000C007C00F0122504050407047426904232F
:100F60009A430A434261704741690122114341613A
:100F70007047000070B505460C46052600BF614865
:100F8000854201D1012000E00020002801D100BFEE
:100F9000FEE700BF00BFA06800280BD0A0681028A3
:100FA00008D0A068202805D0A068402802D0A068FA
:100FB000602801D1012000E00020002801D100BFFD
:100FC000FEE700BF00BF6069002808D0FF210131A3
:100FD0006069884203D049006069884201D10120DC
:100FE00000E00020002801D100BFFEE700BF00BFE5
:100FF0002069012802D02069002801D1012000E0E9
:101000000020002801D100BFFEE700BF00BF20681C
:10101000002802D02068802801D1012000E00020B3
:10102000002801D100BFFEE700BF206836494968AB
:10103000802291430143344A516000BF102000F0E8
:1010400091F80120C00300F07DF8A069296B090A1E
:1010500009020143296300BFA068202804D040286A
:1010600003D060280BD101E000BF00BF002128465B
:1010700000F05AF82846A16800F050F808E0284629
:10108000A16800F051F80021284600F047F800BFA1
:1010900000BFE068E96A090C09040143E96200BF86
:1010A000606929680322120291430143296000BF4D
:1010B0006068A96A090C09040143A96200BF20699C
:1010C000012806D100BF286880210843286000BF9E
:1010D00006E000BF286880218843286000BF00BF69
:1010E0002846FFF741FF00E0761E064800F00EF8A4
:1010F000002801D1002EF7D100BF0120014908616D
:1011000000BF70BD00300140402400400146086926
:10111000C007C00F01225040504070470268602352
:101120009A430A4302607047026810239A430A43B5
:10113000026070470249C96B0143014AD16370479D
:10114000002400400249C9680143014AD160704748
:10115000402400400249C9680143014AD1607047F8
:1011600040240040024909680143014A1160704768
:101170004024004010B5002400BF1B480068072130
:101180000902084005221202811A904218D006DC9A
:1011900000280DD001218902401A1DD10CE0C81F82
:1011A000F938002810D0FF380138002814D10FE09A
:1011B00000F0FCF8044613E000F0F8F844080FE0F3
:1011C00000F0F4F884080BE000F0F0F8C40807E041
:1011D00000F0ECF8040903E000F0E8F8044600BF72
:1011E00000BF204610BD00000024004010B50024C0
:1011F00000BF1B48006807210904084005221204AB
:10120000811A904218D006DC00280DD001218904F3
:10121000401A1DD10CE001200004081A10D0012151
:101220000904401A14D10FE0FFF7A4FF044613E0AD
:10123000FFF7A0FF44080FE0FFF79CFF84080BE0D6
:10124000FFF798FFC40807E0FFF794FF040903E0E5
:10125000FFF790FF044600BF00BF204610BD00000E
:101260000024004070B50024002500BF2648C06857
:1012700002210840002802D0022807D103E000F034
:1012800047F8044606E02148046803E000F040F80F
:10129000044600BF00BF00BF1B48C0687021084063
:1012A0000107090F00291FD10011030002F08BFA7A
:1012B000080506080A0C12141A1C16E0640814E04B
:1012C000A40812E0E40810E00C212046FEF710FF0D
:1012D00004460AE0240908E018212046FEF708FF2A
:1012E000044602E0640900E000BF00BF00BF0648FA
:1012F000C0687F2109040840000C451C2046684353
:101300000446204670BD0000002400404400002038
:10131000002000BF0D4949680F2212041140002926
:1013200008D001221204891A06D0891A06D0891A17
:1013300008D105E0064807E0064805E0064803E056
:10134000064801E0024800BF00BF7047002400408B
:1013500000127A000024F40000366E010048E80113
:10136000002000BF1049496A0322120411400029DD
:1013700008D001221204891A07D0891A08D0891AC4
:101380000CD108E04B2040030BE04B20C00208E0EA
:101390004B20800205E04B20400202E04B2040033E
:1013A00000BF00BF704700000024004010B50024BB
:1013B00000BF144800684007400F030002F003FA22
:1013C0000705090C1A1014171A00FFF7A1FF0446AD
:1013D00014E00D48046811E0FFF744FF04460DE0F7
:1013E000FFF7BEFF044609E00848046806E0012450
:1013F000E40303E0FFF78CFF044600BF00BF204674
:1014000010BD0000002400404400002040000020E7
:10141000034989681C2291430143014A9160704746
:10142000402400400648006904210843044908613B
:10143000084600690121084301490861704700001E
:1014400000E000E038B504460DE000BF0020009049
:1014500007480849086008460068009000BF7D20E2
:10146000C00000F009F82046641E0028EDD138BD08
:101470005A5A34120014014010B504460C490D4864
:101480000068FEF735FE444301200006844200D97F
:1014900000E020460446601E07494861002088613C
:1014A00000BF05480069C003C00F0028F9D010BD77
:1014B00040420F004800002000E000E0826A8BB24A
:1014C0009A438262704702688BB29A430260704707
:1014D00082688BB29A438260704742688BB29A43AB
:1014E00042607047026A8BB29A43026270470246BA
:1014F000D0698BB218408BB2984201D1012070475D
:101500000020FCE70246D0698BB218408BB29842AB
:1015100001D1012070470020FCE70000F8B5064625
:101520000C460027002500BF724886420ED0714845
:10153000403086420AD06F488030864206D06D48DF
:10154000C030864202D06C48864201D1012000E0C2
:101550000020002801D100BFFEE700BF00BF2068C7
:10156000002805D965492068884201D8012000E09B
:101570000020002801D100BFFEE700BF00BF606867
:10158000032808D06068002805D06068012802D0D0
:101590006068022801D1012000E00020002801D16C
:1015A00000BFFEE700BF00BFA068012802D0A0680E
:1015B000002801D1012000E00020002801D100BF57
:1015C000FEE700BF00BFE068002802D0E068012805
:1015D00001D1012000E00020002801D100BFFEE77A
:1015E00000BF00BF6069002802D06069012801D1F6
:1015F000012000E00020002801D100BFFEE700BF6D
:1016000080203F49496B01433D4A516300BF6AE076
:101610000121B940206808400546002D62D060686D
:1016200003281AD129463046FFF74DFF2946304698
:10163000FFF753FF29463046FFF74AFF606901284C
:1016400006D100BFB06AA9B20843B06200BF33E060
:1016500029463046FFF732FF2EE029463046FFF795
:101660002DFF6068002806D100BF3068A9B208438A
:10167000306000BF03E029463046FFF724FFA06832
:10168000002804D129463046FFF722FF06E000BFBC
:10169000B068A9B20843B06000BF00BFE06800288E
:1016A00006D000BF7068A9B20843706000BF03E0B5
:1016B00029463046FFF711FF606802280DD12069E6
:1016C000012806D100BF306AA9B20843306200BFCA
:1016D00003E029463046FFF705FF29463046626899
:1016E00000F01CF87F1C2068F840002890D10120F1
:1016F000F8BD0000000C0040000D0040FFFF00009E
:10170000002400408AB2826170478AB282617047C9
:101710008AB2426170478AB24261704730B5C3688D
:101720000C464C4365006419A3430C464C43544398
:101730002343C36030BD0000FEB505460C460026BD
:1017400001200190002700BF3F48854201D10120C0
:1017500000E00020002801D100BFFEE700BF00BF6D
:101760003A496068884201D2012000E00020002848
:1017700001D100BFFEE700BF00BF2068002814D0E1
:101780002068012811D0206802280ED02068032884
:101790000BD02068042808D02068052805D02068D0
:1017A000062802D02068072801D1012000E000208F
:1017B000002801D100BFFEE700BF20202449496B6B
:1017C0000143234A516300BF00BF0020009021481D
:1017D00028602868009000BF206800210091696897
:1017E000C908C900014369602968009100BF284603
:1017F00000F032F80746606800281AD0002F0CD19C
:1018000000BF284600F028F8012812D03046761C88
:10181000FF21F5318842F4D30BE000BF284600F0E9
:101820001BF8002805D03046761CFF21F531884290
:10183000F4D36068002100910105090DE960296871
:10184000009100BF0198FEBD00140140FF0F000091
:10185000002400405A5A341208B501460022009272
:101860008A681005000D0A68009208BD00214160D9
:1018700002210160704710B5FFF7D4FD10BD0000D4
:1018800070B505460C462868032801D90320286056
:101890002046002805DBC206D20E01219140094AEC
:1018A000116000BF2046296800F0AEFC20460028E9
:1018B00006DBC206D20E01219140024A803A116035
:1018C00000BF70BD80E100E041680122114341602A
:1018D000704741680122114341607047416801220D
:1018E0001143416070470000F8B505460C460027DB
:1018F00000200090002600BFAD4885420BD0AD48C7
:10190000854208D0AC48854205D0AC48854202D01B
:10191000AB48854201D1012000E00020002801D120
:1019200000BFFEE700BF00BF2068002814D0206879
:10193000012811D0206802280ED0206803280BD07F
:101940002068002808D02068042805D020680828CE
:1019500002D020680C2801D1012000E000200028DE
:1019600001D100BFFEE700BF00BFA068C02808D0BB
:10197000A068002805D0A068402802D0A068802870
:1019800001D1012000E00020002801D100BFFEE7C6
:1019900000BF00BF2069002805D02069102802D0B0
:1019A0002069202801D1012000E00020002801D179
:1019B00000BFFEE700BF00BFE068002804D0FF21A1
:1019C0000131E068884201D1012000E000200028B8
:1019D00001D100BFFEE700BF00BF6069002808D04A
:1019E0006069022805D06069012802D06069032877
:1019F00001D1012000E00020002801D100BFFEE756
:101A000000BF6B4885422CD120686E49496889081F
:101A1000890001436B4A516000BF2068002806D04E
:101A2000012808D002280AD0032810D10BE0FFF7C4
:101A3000DDFB00900FE0FFF76BFC00900BE0FFF781
:101A4000B5FC009007E060480068009003E0FFF7F5
:101A5000CDFB009000BF00BF61680098FEF748FB17
:101A6000461E544885422CD12068564949680C22AC
:101A700091430143534A516000BF2068002806D0BB
:101A8000042808D008280AD00C2810D10BE0FFF752
:101A9000ADFB00900FE0FFF73BFC00900BE0FFF781
:101AA00085FC009007E048480068009003E0FFF7DD
:101AB0009DFB009000BF00BF61680098FEF718FB17
:101AC000461E3B48854206D18015FFF733FBA8151B
:101AD000FFF740FB35E03748854206D14015FFF758
:101AE00029FB6815FFF736FB2BE0334885420BD105
:101AF000C014FFF71FFBFFF779FB009061680098A7
:101B0000FEF7F6FA461E1CE02C4885420BD18014E5
:101B1000FFF710FBFFF76AFB009061680098FEF783
:101B2000E7FA461E0DE0264885420AD14014FFF729
:101B300001FBFFF75BFB009061680098FEF7D8FAA5
:101B4000461E207DC007C00F002806D000BF2868B1
:101B500001210843286000BF00BF022160690840DE
:101B6000002805D000BF28680843286000BF00BFD8
:101B700000BFA869000C00043043A86100BFE06802
:101B80002968FF22013291430143296000BFA06808
:101B90002968C02291430143296000BF2069296858
:101BA000302291430143296000BF01273846F8BD28
:101BB00000200140006801400070014000740140B5
:101BC0000078014040240040440000204269520A4D
:101BD00052020A43426170474269520A52020A4362
:101BE000426170474269520A52020A434261704799
:101BF0000420084949690140814201D1012100E0E6
:101C00000021012904D104200249486100BF00BF1E
:101C100070470000C00D0040F3B581B00E460027AC
:101C20000C20FFF7F5FB19491948FEF7B5FF1848D6
:101C30000199FEF7C1FF1648FEF7D4FE1448FEF7DF
:101C4000B1FF1348FEF7B3FF00BF1148FFF77EF95D
:101C500004467F1C781C002801D0002CF5D0012CF4
:101C600010D10B48FEF7BEFE00BF0948806A80B263
:101C700030600748FEF780FF05480199FEF78CFFAA
:101C8000002500E001252846FEBD0000FFFF0F00F3
:101C9000005C0140F1B58AB00020089007900690E2
:101CA00008A800F035F8059006A90A98FFF7B4FFD8
:101CB00004900898002821D0059800281ED1049887
:101CC00000281BD10F49069801F065FD0E4A1489C2
:101CD000002506460F4622462B46FEF763FA019181
:101CE00000900A49089801F056FD02460B46039100
:101CF000029001990098FEF725FA079007980BB01B
:101D0000F0BD0000B80B000000FBFF1FFF0F00003C
:101D1000F8B5064600270C20FFF77AFB00BF2048E5
:101D20000069012108431E49086100BF1D491E4882
:101D3000FEF732FF012109061B48FEF73DFF1A4856
:101D4000FEF750FE1848FEF72DFF1748FEF72FFF4D
:101D500000BF1548FFF7FAF804467F1C781C0028DE
:101D600001D0002CF5D0012C17D10F48FEF73AFE18
:101D700000BF0D48806A80B230600B48FEF7FCFE61
:101D800021060948FEF708FF00BF05480069A04387
:101D90000349086100BF002500E001252846F8BD81
:101DA00000A40140FFFF0F00005C014000B587B0B8
:101DB000FF20013001900120029003900020049048
:101DC0000590069001A90948FFF7A8FB01204002F1
:101DD000019001200290039000200490059006904D
:101DE00001A90248FFF79AFB07B000BD800C004034
:101DF00010B508480078002800D110BD06480078CA
:101E0000002800D0F9E700200249087000F014F81B
:101E100000BFF2E7140000201500002010B500F00C
:101E200015F801200249087014200249087010BDFD
:101E3000140000201500002010B5FF2101310248D8
:101E4000FFF766FC10BD0000000C004010B5FF213C
:101E500001310248FFF756FC10BD0000000C0040A5
:101E60001FB50120009003200190002002900390F4
:101E70006846FEF7BBFD1FBD00B591B001200B9079
:101E800003200C9000200D900E900F9010900BA945
:101E90002E48FFF743FB04200B9003200C900020FA
:101EA0000D900E900F9010900BA92848FFF736FB6D
:101EB00008200B9003200C9000200D900E900F90A6
:101EC00010900BA92148FFF729FB02200B9003205B
:101ED0000C9000200D900E900F9010900BA91B48B5
:101EE000FFF71CFB20200B9003200C9000200D908E
:101EF0000E900F9010900BA91448FFF70FFB0020D5
:101F00000090019001216846017241720020039007
:101F100004900590502006900F200790002108A8FB
:101F20000170032040040990012080050A90694651
:101F30000748FEF747FE40210548FEF73DFE012118
:101F400009060348FEF738FE11B000BDC00C004082
:101F5000005C014010B5FFF783FFFFF78DFF10BD58
:101F600000BF01200549086100BF00BF0846C068E6
:101F7000012108430149C86000BF7047003001409B
:101F800000B587B0002000901F2001900020029033
:101F90000548039000200590069004906946034888
:101FA000FEF7E8FF07B000BDE70300000030014086
:101FB00010B5032000041D4949680F221204914303
:101FC00001431A4A516000BF00BF1046406801211A
:101FD00008431146486000BF002015490968890878
:101FE00089000143124A116000BF00BF0F49096810
:101FF000C908C90001430D4A116000BF00BF114666
:1020000009680722120291430143084A116000BF88
:1020100000BF114609680722120491430143034A95
:10202000116000BF00F04EFC10BD00000024004015
:102030000010004000B58DB0012040030790022041
:1020400008900020099001200A9000200B900C902D
:1020500007A91148FFF762FA0120800307900220C8
:102060000890002009900A900B900C9007A90A484C
:10207000FFF754FA002001904B20C001029003208A
:1020800006904020039000200490059001A9034889
:10209000FFF72AFC0DB000BD000C004000200140FD
:1020A00010B500BFFF2001300949886000BF00BFA4
:1020B00008464068891508430549486000BF00BFCD
:1020C0000120886000BF0846FFF708FC10BD000033
:1020D0000020014000B58DB0042007900220089038
:1020E000002009900A900B900C9007A91048FFF768
:1020F00015FA0820079002200890002009900A9005
:102100000B900C9007A90A48FFF708FA00200190ED
:102110004B20C00102900320069040200390002035
:102120000490059001A90348FFF7DEFB0DB000BD48
:10213000800C00400068014010B500BFFF20013056
:102140000949886000BF00BF0846406889150843F8
:102150000549486000BF00BF0120886000BF0846F5
:10216000FFF7B7FB10BD00000068014000B58DB05F
:1021700010200790022008900020099001200A906A
:1021800000200B900C9007A91048FFF7C7F92020FA
:10219000079002200890002009900A900B900C9064
:1021A00007A90A48FFF7BAF9002001904B20C001A7
:1021B0000290032006904020039000200490059098
:1021C00001A90348FFF790FB0DB000BD800C004053
:1021D0000078014010B500BFFF2001300949886038
:1021E00000BF00BF0846406889150843054948609C
:1021F00000BF00BF0120886000BF0846FFF764FBF6
:1022000010BD00000078014010B5002819DB1A4A03
:1022100003231B02D21883089B00D2588307DC0ECD
:10222000FF23A3409A438B071B0E8407E40EA340B1
:102230001A43114B032424021B198408A4001A51C9
:1022400018E00E4A03071B0F083B9B089B00D2585F
:102250008307DC0EFF23A3409A438B071B0E8407E2
:10226000E40EA3401A43054B0407240F083CA408BE
:10227000A4001A5110BD000000E100E01CED00E0D8
:1022800000B587B0FF2001300190012002900020AE
:10229000039004900590069001A99148FFF73EF93C
:1022A00010200190012002900020039004900590DE
:1022B000069001A98A48FFF731F9202001900120FA
:1022C00002900020039004900590069001A9844894
:1022D000FFF724F9042001900120029000200390D0
:1022E00004900590069001A97D484030FFF716F94B
:1022F00001204002019001200290002003900490F0
:102300000590069001A97648FFF708F94020019052
:10231000012002900020039004900590069001A9EE
:102320006F484030FFF7FAF88020019001200290BA
:102330000020039004900590069001A96848403061
:10234000FFF7ECF88020019001200290002003901C
:1023500004900590069001A961488030FFF7DEF8EF
:102360000120C003019001200290002003900490FE
:102370000590069001A95A48FFF7D0F8FF200130D8
:102380000190012002900020039004900590069097
:1023900001A953484030FFF7C1F8012040020190E5
:1023A000012002900020039004900590069001A95E
:1023B0004B484030FFF7B2F8012080020190012025
:1023C00002900020039004900590069001A94448D3
:1023D0004030FFF7A3F80120C002019001200290D5
:1023E0000020039004900590069001A93C484030DD
:1023F000FFF794F8012000030190012002900020D3
:10240000039004900590069001A935484030FFF7ED
:1024100085F8012001900020029003900120049093
:1024200000200590069001A92E48FFF777F80220BA
:10243000019000200290039001200490002005905C
:10244000069001A92748FFF769F8042001900020B1
:10245000029003900120049000200590069001A9AD
:102460002048FFF75BF808200190002002900390BD
:102470000120049000200590069001A91948FFF75B
:102480004DF810200190002002900120039004904C
:1024900000200590069001A912484038FFF73EF849
:1024A000FFF7CAFC02F07CF801F00CFE02F070F8B5
:1024B00001F01AFE00F0FCFF00F0FCF9FEF74CFA08
:1024C00000F0E2FFFEF73CF9FEF74EF9FEF756F991
:1024D000FEF75EF901F0FEFDFFF768FC07B000BDF6
:1024E000000C0040000D004070B504460D46054844
:1024F0000078002800D170BD2946204600F00CFF6E
:1025000000BFF8E70000002070B504460D462946DC
:10251000204600F001FF70BD10B50848007808495A
:102520008870084680781330C8700521044800F090
:10253000F3FE05210248FFF7D7FF10BD2805002054
:102540003800002070B500240025C8215648FDF74A
:102550007FFE68222146641C53484254AD22214626
:10256000641C4254514802782146641C4E4842542F
:102570004E4948680A21FDF7BBFD0004020E2146C2
:10258000641C49484254494948680A21FDF7B0FD96
:10259000C2B22146641C4448425444480089011296
:1025A0002246641C404881544048027A2146641CFB
:1025B0003D4842543D48408901122246641C3A4835
:1025C00081543A48827A2146641C3748425437493C
:1025D00048690A21FDF78CFD0004020E2146641CA7
:1025E00031484254314948690A21FDF781FDC2B2A0
:1025F0002146641C2C4842542C49086A0A21FDF7E4
:1026000077FD0004020E2146641C274842542749E6
:10261000086A0A21FDF76CFDC2B22146641C2248FB
:1026200042542249486A0A21FDF762FD0004020E65
:102630002146641C1C4842541C49486A0A21FDF783
:1026400057FDC2B22146641C174842541748203037
:10265000027A2046611C8CB213490A5408190C22D4
:1026600012492A31FDF7DBFD20460C3084B20020F0
:102670000D49085500BF08E00B48005D0A49495D57
:10268000401809490855681C85B2A542F4DB601C56
:1026900084B216222046611C8CB203490A5421469A
:1026A0000148FFF731FF70BDE80700202805002032
:1026B000F3B581B0054600240027002652E0201D16
:1026C0000299884200DD4EE0285D682848D1601CF0
:1026D000285CAA281FD1A01C285C244909788842BC
:1026E00019D1201D285C162815D10027002605E0E9
:1026F000A019285CC019C7B2701C86B2032EF7DB84
:10270000E01C285CB8422BD101F0FEFEFFF704FF6D
:10271000201D84B224E0601C285CAC2820D1A01CC1
:10272000285C1249097888421AD1201D285C162895
:1027300016D10027002605E0A019285CC019C7B2F1
:10274000701C86B2032EF7DBE01C285CB84207D170
:102750000748007A012801D1FFF7F4FEE01C84B29B
:10276000601C84B2ABE700BFFEBD0000280500205E
:102770001C05002070B50025002607204A49087076
:102780009F20487000F06EFF802000F01BFF0020AB
:1027900000F018FF0221444800F056FF00F075FFDA
:1027A0001020414908700020487000F05BFF802035
:1027B00000F008FF052000F005FF02213A4800F074
:1027C00043FF00F062FF002419E03220FEF73AFEDA
:1027D00000F048FF802000F0F5FE042000F0F2FE3B
:1027E00000F040FF812000F0EDFE61002F4A8818C4
:1027F000022100F0B5FE00F048FF601CC4B20A2CB4
:10280000E3DB002413E060002849085C000261005B
:10281000274A505260001146095A6000401C234A62
:10282000105C08186100224A5052601CC4B2052C8A
:10283000E9DB002500241BE060001D49085AC01395
:1028400000280ED06000085A0021C943081A401C15
:102850006100174A505260001146085A281A85B282
:1028600004E060001249085A401985B2601CC4B2E5
:10287000052CE1DBE81301280ED1801E401B401C13
:1028800085B205212846FDF749FC85B20020C043EA
:10289000401B401C85B204E005212846FDF73EFCA4
:1028A00085B22E46304670BD300000206005002005
:1028B0007405002010B580210148FEF723FF10BDEC
:1028C000400C004010B5464800684007400F030028
:1028D00000F079FF073C050A3C0F32373C004148C5
:1028E00000684149086051E000F008F93E4908607D
:1028F0004CE03B48406A8003800F002806D0012846
:1029000009D002280CD0032814D10EE04B2040033C
:10291000354908600EE04B20C0023349086009E0E9
:102920004B2080023049086004E04B2040022E49D1
:10293000086000BF00BF29E02C4800682A490860F1
:1029400024E07D200002284908601FE024484068F8
:102950000003000F002813D0012804D0022806D05D
:1029600003280CD107E022481F4908600CE02148E9
:102970001D49086008E020481B49086004E000BFCA
:102980001E481949086000BF00BF00BF00BF1448BF
:1029900000684005400F042806D005280AD0062804
:1029A0000ED0072818D111E00F48006840080E49E2
:1029B000086012E00C48006880080B4908600CE0D1
:1029C00009480068C0080849086006E00648006831
:1029D00000090549086000E000BF00BF10BD00000D
:1029E0000024004044000020480000204000002057
:1029F0000024F40000366E010048E80100127A005D
:102A000010B53948406B0121090308433649486332
:102A10000846406B802108433349486308460068F4
:102A20000121C9060843304908605520C8610320C8
:102A3000090548602D488069000C2C49098BC94361
:102A400089B2884202D12948806900E01020C0067E
:102A5000C00E274988632548C0300068000C234910
:102A6000C0310988C94389B2884203D11F48C030A8
:102A7000006800E08020C0B21B4988601B48C0305D
:102A80004068000C1949C0318988C94389B288421D
:102A900003D11648C030406800E08020C0B212491F
:102AA000886212488030006A000C10498031098C1D
:102AB000C94389B2884203D10C488030006A00E0E3
:102AC0008020C0B2084948610A484068FF2181312E
:102AD000084308494860052007490860012048600C
:102AE000FFF7F0FE10BD00000024004080FAFF1F39
:102AF00000200040C00C00400028004010B5002419
:102B00002C48C0688007C00F002802D001281BD1C4
:102B100017E0284840680003000F00280DD0012866
:102B200004D0022804D0032806D103E0224C06E09A
:102B3000224C04E0224C02E000BF224C00BF00BF48
:102B400002E02148046800BF00BF1A48C068400680
:102B5000400F030000F037FE080507090B0D1315A1
:102B60001B1D00BF15E0640813E0A40811E0E40891
:102B70000FE00C212046FDF7BBFA044609E02409CA
:102B800007E018212046FDF7B3FA044601E0640986
:102B900000BF00BF0748C0684002400E401C4443CD
:102BA0000448C0680007C00F002800D06400204619
:102BB00010BD0000002400400024F40000366E0127
:102BC0000048E80100127A0044000020FFB581B0FF
:102BD00006460F4600240025FE222146641C4C4870
:102BE000425468222146641C425400222146641C3F
:102BF00042542146641C42542146641C4254012222
:102C00002146641C425400222146641C4254214641
:102C1000641C425468222146641C4254042221460A
:102C2000641C42540E222146641C42540022214658
:102C3000641C425424222146641C42540922214629
:102C4000641C425420222146641C42541322204614
:102C5000611C8CB22E490A5422222046611C8CB27F
:102C60002B490A5401222046611C8CB228490A547F
:102C700016222046611C8CB225490A54082220469F
:102C8000611C8CB222490A5410222146601C84B275
:102C90001F48425400222146601C84B21C48425402
:102CA0002046611C8CB21A490E542046611C8CB21D
:102CB00017490F542146621C94B2154A0398505488
:102CC0002146621C94B2124A0498505400201146C6
:102CD0000855012508E00E48005D0D49495D401882
:102CE0000B490855681C85B2A542F4DB601C84B210
:102CF00016222046611C8CB205490A54214604481C
:102D000000F092FA21460248FFF7EEFB05B0F0BD55
:102D1000B0080020F3B581B0054600240026002746
:102D20000020009086E0204615300299884200DDA0
:102D300081E0285D68287BD1E01D285C682877D178
:102D400020460A302E5C3602401E285C801986B26E
:102D500020460C308019285C162869D1204608309E
:102D6000285C842860D120461230285C08285BD17A
:102D700020461330285C102856D120461530285C98
:102D80002E4908810846007A0006000C0881084692
:102D9000018920461630285C081828490881002738
:102DA0000BE020461730C019285C302803D100986A
:102DB000401CC0B20090781C87B20C2FF1DB009849
:102DC0000C280CD02046173029180C221B482A301A
:102DD000FDF725FA00201A4908701A490880204694
:102DE0002530285C002808D114482030407A012181
:102DF000084312492031487207E010482030407AD9
:102E0000022108430D49203148720C482030417A94
:102E10000DA0FDF7C5FD09482030407A032803D1F5
:102E2000012106482030017220460A30801984B200
:102E3000601C84B277E700BFFEBD000028050020BB
:102E4000190000201C050020B0B4BCFCD7B4CCACE9
:102E5000BCECB2E225640000F8B500240025002691
:102E6000002700BF32484068FF2101310840000AB6
:102E7000044600BF2E4880680840000A054600BF8F
:102E80002B484068C007C00F012148404840064613
:102E900000BF274880680840484048400746002C4B
:102EA00019D0012D17D100BF214800692149224ABC
:102EB0001288885420480088401C1F490880084612
:102EC0000088C82801DB0020088001201B49087009
:102ED00064201B490880012E28D1012F26D11948D2
:102EE00040791849097988420CDA16480068154A71
:102EF0005279815C0E48FEF775FE12484079401CFD
:102F00001049487100BF01200949886000BF0D4881
:102F100040790C490979884208D100BF04484068CB
:102F2000400840000249486000BF00BFF8BD0000F3
:102F300000200140800500203400002032000020E5
:102F400036000020D807002010B5FFF773F8FFF710
:102F5000A7F800F003F800F0A1F910BD08B50220B1
:102F600000900A216846FEF78BFC08BDF8B50024E6
:102F700000250026002700BF33484068FF210131AB
:102F80000840000A044600BF2F4880680840000A35
:102F9000054600BF2C484068C007C00F01214840CB
:102FA0004840064600BF28488068084048404840DE
:102FB0000746002C19D0012D17D100BF2248006907
:102FC0002249234A1288885421480088401C2049FD
:102FD000088008460088C82801DB002008800120FE
:102FE0001C49087064201C490880012E2AD1012F39
:102FF00028D11A4840791949097988420CDA1748CA
:103000000068164A5279815C0F48FEF7E5FD1348C7
:103010004079401C1149487100BF01200A4988606D
:1030200000BF0E4840790D49097988420AD100BF96
:1030300005484068400840000349486000BF01203F
:1030400007490870F8BD000000680140B402002084
:10305000100000200F000020120000200C050020AE
:103060000E00002010B5FFF735F8FFF765F800F007
:1030700003F800F093F910BD08B5002000900B2173
:103080006846FEF7FDFB08BDF8B5002400250026C4
:10309000002700BF32484068FF2101310840000A84
:1030A000044600BF2E4880680840000A054600BF5D
:1030B0002B484068C007C00F0121484048400646E1
:1030C00000BF274880680840484048400746002C19
:1030D00019D0012D17D100BF214800692149224A8A
:1030E0001288885420480088401C1F4908800846E0
:1030F0000088C82801DB0020088001201B490870D7
:1031000064201B490880012E28D1012F26D119489F
:1031100040791849097988420CDA16480068154A3E
:103120005279815C0E48FEF751FD12484079401CEF
:103130001049487100BF01200949886000BF0D484F
:1031400040790C490979884208D100BF0448406899
:10315000400840000249486000BF00BFF8BD0000C1
:10316000007801404C0000200800002006000020EC
:103170000C000020A402002010B5FEF7F7FFFFF7B7
:1031800029F800F003F800F077F910BD08B5022027
:1031900000900E216846FEF773FB08BD10B586B09F
:1031A0000446002C01D1019001E00220019008208A
:1031B00000900020029001200390002004900590D0
:1031C00069460248FEF7AAF906B010BD800C00401F
:1031D00010B51048007801281BD10F48008800283E
:1031E00017D1FEF71BFE00200A4908700B48028821
:1031F0000B490C48FDF713F8084801880948FFF708
:1032000073F9064801880748FFF784FD0020034949
:10321000088010BD3200002036000020340000205D
:10322000800500204806002070B505460C46002C9D
:1032300000D170BD64201549088000BF1448007992
:1032400013494979884203D0104800880028F5D1F5
:103250000120FEF7F7F8224629460E48FCF7DFFF6B
:103260000C480B4908600C710120487100BF0A49E5
:10327000886000BF0846FEF731FB0548006801780A
:103280000548FEF7AFFC00BFD3E700000A000020AE
:10329000D80700201007002000200140012002492B
:1032A0000871487170470000D807002010B5144815
:1032B0000078012808D10020114908700520FEF788
:1032C000C1F80020FFF76AFF0E480078012816D1E8
:1032D0000D480088002812D1FEF7A0FD0020094902
:1032E00008700A4802880A490A48FCF798FF07480C
:1032F00001880848FFF7DCF900200449088010BD68
:103300000E0000200F0000201200002010000020FE
:10331000B40200207C03002070B505460C46002C4A
:1033200000D170BD64201849088000BF174800799B
:1033300016494979884203D0134800880028F5D1FE
:103340000520FEF77FF80020114908702246294623
:103350001048FCF764FF0120FFF720FF0D480B49E0
:1033600008600C710120487100BF0B49886000BFE4
:103370000846FEF7AEFA0548006801780648FEF7F1
:103380002BFC00BFCDE700000A0000200C05002048
:103390000E000020440400200068014010B5012008
:1033A0000349087148710020FFF7F8FE10BD0000C6
:1033B0000C05002010B50E480078012816D10D48E4
:1033C0000088002812D1FEF729FD00200849087066
:1033D0000948028809490A48FCF721FF0648018884
:1033E000074800F00FF800200349088010BD0000D6
:1033F000060000200C000020080000204C000020E7
:103400001401002070B505460C46002C00D170BD9B
:1034100064201549088000BF144800791349497990
:10342000884203D0104800880028F5D10120FEF71B
:1034300009F8224629460E48FCF7F1FE0C480B49D4
:1034400008600C710120487100BF0A49886000BF04
:103450000846FEF739FA0548006801780548FEF786
:10346000B5FB00BFD3E700000A000020A402002043
:10347000DC010020007801400120024908714871F8
:1034800070470000A402002010B50121C9030248C2
:10349000FEF738F910BD0000000C004010B5012106
:1034A000C9030248FEF734F910BD0000000C0040CB
:1034B00010B540210148FEF725F910BD400C004031
:1034C00010B540210148FEF723F910BD400C004023
:1034D0000EB501A8FEF7CAF901A90748FEF72CF9B5
:1034E00000BF0020009005480349086008460068B6
:1034F000009000BF0EBD0000001401405A5A341263
:10350000002002E000BF411CC8B23228FADB70473D
:1035100070B50025002000F0F5F8002000F0CEF88E
:10352000FFF7EEFF002415E0012000F0C7F8FFF7D9
:10353000E7FF012149020948FDF7E4FF002802D016
:10354000802020410543002000F0B8F8FFF7D8FFA5
:10355000601CC4B2082CE7DB284670BD800C00401C
:1035600070B506460D46002428E0FFF7D1FF305520
:10357000681EA04210DD012000F0C4F8002000F019
:10358000AFF8FFF7BDFF012000F098F8FFF7B8FF94
:10359000002000F093F80FE0012000F0B3F80120C4
:1035A00000F09EF8FFF7ACFF012000F087F8FFF76E
:1035B000A7FF002000F082F8601CC4B2AC42D4DB4C
:1035C00070BD000070B50446012000F09BF800209B
:1035D00000F074F8002518E080202040002803D077
:1035E000012000F07DF802E0002000F079F8FFF7FC
:1035F00087FF012000F062F8FFF782FF002000F053
:103600005DF86006040E681CC5B2082DE4DB0020DE
:1036100000F078F8FFF774FF012000F04FF8FFF793
:103620006FFF012149020748FDF76CFF002802D116
:1036300000F044F802E0002000F040F8FFF760FFDF
:10364000012070BD800C004070B505460E46002478
:1036500004E0285DFFF7B6FF601CC4B2B442F8DB9B
:10366000012070BD10B5012000F04CF8012000F0E1
:1036700037F8012000F022F8FFF742FF002000F0A9
:103680002FF8002000F01AF810BD10B5012000F04E
:1036900039F8002000F024F8012000F00FF8FFF7BF
:1036A0002FFF012000F01CF8002000F007F8FFF7C2
:1036B00027FF012000F002F810BD000010B50446FD
:1036C000012C04D101020548FEF725F804E0FF2192
:1036D00001310248FEF719F810BD0000800C0040CF
:1036E00010B50446012C04D141020548FEF713F839
:1036F00004E0012149020248FEF707F810BD00006E
:10370000800C004010B586B00446012040020090B5
:10371000012C02D10120019001E000200190012044
:103720000290039000200490059069460248FDF73E
:10373000F5FE06B010BD0000800C00407CB51546BB
:10374000024600201C4600290BD0491E0092019120
:10375000044B6A462146284600F00CF9009A0021E5
:1037600011707CBDAD4000002021020C01D0102161
:103770001046020A01D010460839020901D010464D
:10378000091F820801D01046891E420801D0881EF8
:103790007047081A7047F8B582B28BB2040C0D0C52
:1037A00010465843002126465E43370C36048019E4
:1037B000794116466E43370C360480197941264606
:1037C0006E438919F8BD30B47446641E2578641CB4
:1037D000AB4204D3635D5B00E31830BC18471D4661
:1037E000F8E702E008C8121F08C1002AFAD17047A2
:1037F0007047002001E001C1121F002AFBD1704771
:10380000F0B51FB486B00998089A030D0021024351
:1038100014D05148514A18185043051411980128E2
:1038200010981AD0281A401C00264D4F4D4900967A
:1038300001910490002812DA444211E01198012409
:1038400049A3012801D11098C1430698119A8460B8
:103850000360C26041600BB0F0BD4042E4E7044643
:10386000210500203F4A001C51410391029012E0C3
:10387000E00707D032463B4601990098FCF7A6FDC9
:103880000191009032463B4610461946FCF79EFDDA
:1038900006460F466410002CEAD10498039B0028CA
:1038A000029A0999089806DAFCF790FD019B009AA4
:1038B000FCF78CFD05E0FCF7F1FD019B009AFCF79D
:1038C000EDFD04460E460022284BFCF713FF03D8FB
:1038D0000020C043014607E00022254B2046314628
:1038E000FCF7C2FCFCF7E6FE102409E0002C0ADB22
:1038F0000A220023FCF726FC079B30321A55641E6F
:1039000002460A43F2D11122641C079B121B1C19A8
:10391000119B012B03D0012308430ED10AE0084379
:1039200004D0112010900020119077E71098151AFC
:103930006D1E0BE01098824202DD00236D1C03E037
:10394000824201DA00236D1E002BEED006981199F9
:103950008260C16030C07EE701FCFFFF104D0000B7
:10396000000014400000F03F300000000000F04371
:103970000000E03FFFB597B00646002518E2252875
:1039800077D100242746FD49049400E00443761CC7
:1039900032780120203A90400842F7D130782A2826
:1039A0000ED00222307801463039092916D8049900
:1039B0000A235943303940181443761C0490F1E728
:1039C000189802C804911890002904DA01204003D5
:1039D00004434842049002200443761C30782E2889
:1039E00014D1042004437078761C2A2809D1189831
:1039F000761C80C8189009E00A214F43303FC71950
:103A0000761C3078014630390929F5D930786C2890
:103A100010D006DC4C281AD068280ED06A2817D19E
:103A200004E0742813D07A2812D110E00120400558
:103A300004430CE00121090501E0032109050C43C1
:103A40007178814203D1012000052418761C761C70
:103A50003078119066280BD013DC58287DD009DC13
:103A600000287BD04528F6D04628F4D047281AD124
:103A7000A5E118E0632835D0642870D0652812D1FC
:103A80009DE170286CD008DC6728F1D069287BD0D4
:103A90006E280DD06F2806D1BAE073282ED0752875
:103AA00071D0782859D01A9A199990476D1C7EE1E7
:103AB0006002400F022809D003280DD0042818986E
:103AC00001680DD00D60001D189070E11898EA177C
:103AD00001680D604A60F6E7189801680D80F2E70A
:103AE0000D70F0E718986A4601781172001D189061
:103AF0000020507202A80090012005E0189802C82A
:103B0000189000200091C04361070DD5002101E00D
:103B10000199491C0191B94212DA8142F8DB009AFD
:103B2000515C0029F4D10BE0002101E00199491C0E
:103B300001918142FADB019A0099895C0029F5D153
:103B4000019904981A9B471A21463846199A00F0A1
:103B500097FA0199401945180BE04FE02CE113E06A
:103B60004EE0009800990078491C00911A9A199922
:103B700090470198401E0190401CF2D121463846E2
:103B80001A9B199A10E137E00A2000210090019158
:103B90006002410F022907D0189A01CA1892C21771
:103BA0009446032908D00AE01898C01DC108C9002E
:103BB00005C91891944607E000B2C217944604293B
:103BC00002D140B2C1178C4600226146944506DA04
:103BD0000A460021404291418C462D2102E02105F8
:103BE00004D52B216A461173012103E0E10701D0BE
:103BF0002021F7E7029155E00A200AE0102008E0B2
:103C0000102000900021042004430191082703E0C4
:103C100008200021019100906002410F022907D085
:103C2000189A01CA189200229446032908D008E085
:103C30001898C01DC108C90005C91891944603E031
:103C400080B2042900D1C0B200210291210729D5F8
:103C50001199702906D0009A1021019B4A401A43FD
:103C600005D00EE040216A461173012108E061464B
:103C7000014306D030216A46117311995173022114
:103C80000291009A0821019B4A401A430AD16146D9
:103C9000014301D1610705D530216A461173012125
:103CA0007F1E02911199582904D035A10E910DA9BA
:103CB0000D910DE037A1F9E76146019B009AFCF7F1
:103CC00041FA0E9B8C469B5C0D9A521E0D9213700E
:103CD00061460143F0D10D9805A9081A20300190E2
:103CE000600703D501200004844300E00127019808
:103CF000874201DD381A00E0002001990090411848
:103D0000029809180498401A0490E00306D421464A
:103D10001A9B199A049800F0B3F94519002706E098
:103D200003A81A9AC05D199990476D1C7F1C0298D0
:103D30008742F5DBE0030CD521461A9B199A0498BB
:103D400000F09EF9451904E01A9A3020199990471D
:103D50006D1C0099481E00900029F5DC08E00D98C4
:103D60000D990078491C0D911A9A199990476D1C6C
:103D70000199481E01900029F1DC63E10928010046
:103D800030313233343536373839616263646566D1
:103D90000000000030313233343536373839414293
:103DA000434445460000000000F05AF94519761CCE
:103DB0003078002800D0E2E528461BB0F0BD60074F
:103DC00000D406271898C01DC108C90048680A68B1
:103DD0000831C30FDB071891190001D09CA108E03E
:103DE000210501D59BA104E0E10701D09AA100E0E3
:103DF0009AA1430011985B08109165280CD006DC4D
:103E0000452809D046281DD0472841D141E06628E1
:103E100018D067283CD13CE00021112F01DB112094
:103E200000E0781C0191009008A911A8FFF7E8FCB8
:103E3000139905910021119A15927F1C12980197F0
:103E4000009150E00120C00703900120019008A9D3
:103E5000009711A8FFF7D4FC139A14990592002239
:103E6000119B009212981593059A0192002901D096
:103E7000104602E0791C40180190381A01D50198CB
:103E800004E04042401E0090781C0190C01B02904C
:103E900043E0012F00DA01270021112F01DD11205D
:103EA00000E038460191009008A911A8FFF7A8FC8E
:103EB00013990591119A002112981592009101977A
:103EC00021070CD40599B94201DB019900E0019169
:103ED000012904DD159A491E515C302906D0B842EB
:103EE00001DA011D05DA0121029115E00199491E4F
:103EF000EDE7002805DC0099411800910199091AA5
:103F000003E0019A411C914200DD01910099401AA1
:103F1000401C02900120C0070390200706D402999C
:103F20000198814202DB0020C043029000206946D4
:103F3000C87707AF012103980337C907884224D007
:103F4000022011902B201290039800280CDA404296
:103F500003902D20129007E00A210398FCF7C8F87F
:103F600030317F1E039039701199481E119000293D
:103F7000F2DC03980028EFD1791E1298087030788F
:103F8000202108404530BF1E387006A8C01BC01D48
:103F9000039010980078002800D001200199411862
:103FA0000298C0170918039809180498401A401E6F
:103FB0000490E00306D421461A9B199A049800F055
:103FC0005FF8451910980078002803D01A9A1999BB
:103FD00090476D1CE00324D521461A9B199A04983A
:103FE00000F04EF845191CE00098002807DB009906
:103FF0000598884203DD1598405C199901E01999EC
:1040000030201A9A904700986D1C401C009002982E
:10401000401E0290002804D11A9A2E201999904728
:104020006D1C0199481E01900029DDDC05E03878FF
:104030001A9A7F1C199990476D1C0399481E03908A
:104040000029F4DC21461A9B199A0498ACE600007A
:104050002D0000002B0000002000000000000000E8
:10406000F8B5044600251E461746880404D405E02A
:1040700039462020B0476D1C641EF9D52846F8BD8E
:10408000FFB50446002581B01E46C80301D5302780
:1040900000E02027880404D505E038460399B0479E
:1040A0006D1C641EF9D5284605B0F0BD4A68002A8B
:1040B00006D00A68531C0B6010704868401E4860A8
:1040C0007047000010B520210148FDF71BFB10BD13
:1040D000000C004010B5012109030248FDF718FB50
:1040E00010BD0000400C004010B5012149020248FB
:1040F000FDF708FB10BD0000000C004010B500BF2C
:10410000FFF7DEF90420FDF7C5FD04460B2044430C
:10411000FFF7CEF9204610BD10B500BF0220FDF715
:10412000B9FD04460B204443204610BD102007492A
:10413000C9690140814201D1012100E0002101292A
:1041400001D1012070470020FCE70000C00C0040B6
:1041500010B501211748FDF7CAF9002803D1032043
:10416000154908701FE002211248FDF7C0F9002828
:1041700003D102201049087015E004210D48FDF715
:10418000B6F9002803D101200B4908700BE0082183
:104190000848FDF7ACF9002802D10749087002E091
:1041A0000020054908700448017804A0FCF7F8FBDA
:1041B00010BD0000000D004028050020B5B1C7B0BB
:1041C000B9A4CEBBCEAA25640D0A000008B5FDF740
:1041D00052FBFDF7EDFE00F01FF817E0FFF7EAF8DD
:1041E000FFF764F86420FDF72DF9FEF7F1FFFDF706
:1041F000FFFD00F025F800BF0020009004480549AD
:10420000086008460068009000BF00BFE6E70000B5
:104210005A5A34120014014010B5FEF731F8FEF777
:10422000ABFFFEF71FFFFEF78FFEFDF793FEFCF7D7
:1042300029FBFFF78DFF00F08BF9FFF749F910BD5F
:1042400010B500F039F980480088002800DD10BD65
:104250007E4800780300FFF7B6FA0B070C2C4B657D
:1042600070EF97EFCCE7EF00FFF70EF9FCF768FA75
:10427000E6E0FFF743FF764948620846416A75A0C9
:10428000FCF78EFB7248406A754988420CD9704829
:10429000406A7D214901884206D272486A490880F5
:1042A00002206A49087003E07D20C000664908804A
:1042B000C6E0FFF731FF66494860084641686AA0DA
:1042C000FCF76EFB62484068654988420BD960483C
:1042D00040686949884206D200205B490880032073
:1042E0005A49087003E07D20C00057490880A7E0C4
:1042F000FCF742FB56494881084641895FA0FCF71C
:104300004FFB53484089322806DDFFF7BDF87D207A
:10431000C0004D49088093E0FFF7C0F804204B49E6
:1043200008708DE0FFF702FF5849086005204749F3
:10433000087057484449088082E0564800780028B1
:104340000CD0012053490870012300221146104669
:10435000FEF73CFC4E48FDF775F814E0FCF7F0F969
:10436000FFF7E4FE4C4908600846006847490968C1
:10437000884202D00120494908600120454908705F
:104380000720324908705BE04248007800280ED0D0
:1043900001204049087000231A461946FEF716FC12
:1043A0003FA0FCF7FDFA3A48FDF74CF820E0012069
:1043B00038490870FFF7BAFE3C49086008460068B3
:1043C00035490968884202D00120394908603848D7
:1043D0000068012807D136480068012803D1354814
:1043E0001B4948610862FCF7B5F9092017490870B4
:1043F00026E02848007800280FD0012025490870C1
:1044000000231A4619461846FEF7E0FB24A0FCF7E5
:10441000C7FA1F480C49088005E001201D490870B3
:104420000A200A49087000BF0120074908720020CD
:104430000649087004E0FFE70A200449087000BF3D
:1044400000BF00BF03E700001C050020180000208B
:1044500028050020564343B5E7D1B925640D0A006D
:10446000280A000010270000B9A9B5E7B5E7D1B9BF
:1044700025640D0A000000007C150000B2E2CAD4D9
:10448000B9A6BAC425640D0A000000001C00002073
:10449000B80B000019000020200000202800002098
:1044A000D0ADD2E9B7A2CBCD0D0A00002400002088
:1044B0002C000020E02E000000B5054840680028D0
:1044C00005D10348007A002801D100F053F800BD5F
:1044D0001C05002010B500200A4948600881488169
:1044E000C860086148618861C8610862486200214B
:1044F00004482030017241720C210A30FBF7A8FEFB
:1045000010BD00002805002010B500F021F8FFF7CD
:10451000E1FF01200649087006490870064807496E
:10452000486000200872088005A0FCF739FA10BD29
:104530001800002019000020905F01001C050020D9
:10454000D2D1BFAACABCB2E2CAD40D0A0000000090
:1045500010B5FFF7B7FD00F02BF8FEF795FFFCF75D
:10456000EFF8FCF701F9FCF709F9FCF711F9FFF78F
:10457000B1FD10BD0A2004490870012003490872EA
:104580000020088070470000180000201C05002053
:1045900010B504210148FDF7B5F810BD400C0040EE
:1045A00010B510210148FDF7ADF810BD000C00401A
:1045B00010B510210148FDF7ABF810BD000C00400C
:1045C000E0450000000000204C000000E237000041
:1045D0002C4600004C0000202C110000F237000097
:1045E0000000000000000000000064000000010066
:1045F00000000000000000000001000000000000BA
:1046000000000000000000000000000000000000AA
:10461000000000000000000068AB0013160000005E
:0C4620000080000000127A0000127A00F6
:04000005000000C136
:00000001FF
