:020000040000FA
:10000000381C00209D010000A5010000A701000090
:1000100000000000000000000000000000000000E0
:10002000000000000000000000000000A901000026
:100030000000000000000000AB010000AD01000066
:10004000AF010000AF010000AF010000AF010000F0
:10005000650B0000AF010000AF010000AF01000020
:10006000AF010000AF010000493500006536000017
:100070008137000095380000AF010000AF0100009B
:10008000AF010000AF010000AF010000AF010000B0
:10009000AF010000AF010000AF010000AF010000A0
:1000A000AF010000AF010000AF010000AF01000090
:1000B0001D060000AF0100009D1D0000AF01000003
:1000C00000F002F800F03EF80CA030C80838241800
:1000D0002D18A246671EAB4654465D46AC4201D180
:1000E00000F030F87E460F3E0FCCB6460126334274
:1000F00000D0FB1AA246AB46334318471C41000010
:100100003C410000103A02D378C878C1FAD85207AF
:1001100001D330C830C101D504680C6070470000BD
:100120000023002400250026103A01D378C1FBD813
:10013000520700D330C100D50B6070471FB51FBDFB
:1001400010B510BD00F0F0F91146FFF7F7FF04F00D
:100150003FF800F008FA03B4FFF7F2FF03BC00F029
:100160000FFA000070B505460C46164602E00FCCAB
:100170000FC5103E102EFAD2082E02D303CC03C5B1
:10018000083E042E07D301CC01C5361F03E02178B9
:100190002970641C6D1C761EF9D270BD074880471B
:1001A00007480047FEE7FEE7FEE7FEE7FEE7FEE75B
:1001B00004480549054A064B70470000A12F00007E
:1001C000C1000000380C0020381C0020381400202A
:1001D000381400204343514330B55C18010C130C14
:1001E0000D4692B25D4380B251432C1905465543EA
:1001F0000A0C09044D1962415843010C00044019CE
:10020000514130BDFEB5054610460C46184373D02B
:10021000AE468C460020AD1A01469C4167D3664627
:10022000002701243D46B61A9D4102D313463A46A3
:100230002124654676462F04360C3E432D0CB61A13
:100240009D4104D3150C1B042B4312041034654646
:1002500076462F06360A3E432D0AB61A9D4104D330
:10026000150E1B022B4312020834654676462F07F3
:1002700036093E432D09B61A9D4104D3150F1B01C3
:100280002B431201241D65467646AF07B6083E4350
:10029000AD08B61A9D4104D3950F9B002B439200E5
:1002A000A41C65467646EF0776083E436D08B61AED
:1002B0009D411AD392185B41641C16E000187646E3
:1002C00065464941B71A9D410191009009D36046A6
:1002D000B11A98418E468446009801990025401C29
:1002E0006941DD0752082A435B08641EE6D5724661
:1002F000634603B0F0BDFFE700200146C046C0469C
:100300002A462346F5E7F8B5042A2CD3830712D0F2
:100310000B78491C0370401C521E83070BD00B78CE
:10032000491C0370401C521E830704D00B78491CE3
:100330000370401C521E8B079B0F05D0C91ADF00AB
:100340002023DE1B08C90AE0FFF70CFFF8BD1D469D
:1003500008C9FD401C46B4402C4310C0121F042A9B
:10036000F5D2F308C91A521EF0D40B78491C037059
:10037000401C521EEAD40B78491C0370401C012A11
:10038000E4D409780170F8BD01E004C0091F042914
:10039000FBD28B0701D50280801CC90700D00270F8
:1003A000704700290BD0C30702D00270401C491EC1
:1003B000022904D3830702D50280801C891EE3E74B
:1003C0000022EEE70022DFE7002203098B422CD354
:1003D000030A8B4211D300239C464EE003460B4395
:1003E0003CD4002243088B4231D303098B421CD3F7
:1003F000030A8B4201D394463FE0C3098B4201D3E9
:10040000CB01C01A524183098B4201D38B01C01A20
:10041000524143098B4201D34B01C01A5241030997
:100420008B4201D30B01C01A5241C3088B4201D346
:10043000CB00C01A524183088B4201D38B00C01AF3
:10044000524143088B4201D34B00C01A5241411A1A
:1004500000D201465241104670475DE0CA0F00D0FD
:100460004942031000D34042534000229C460309F6
:100470008B422DD3030A8B4212D3FC22890112BA7C
:10048000030A8B420CD3890192118B4208D3890154
:1004900092118B4204D389013AD0921100E089096C
:1004A000C3098B4201D3CB01C01A524183098B424D
:1004B00001D38B01C01A524143098B4201D34B0136
:1004C000C01A524103098B4201D30B01C01A524199
:1004D000C3088B4201D3CB00C01A524183088B4220
:1004E00001D38B00C01A5241D9D243088B4201D3A9
:1004F0004B00C01A5241411A00D201466346524194
:100500005B10104601D34042002B00D54942704792
:1005100063465B1000D3404201B50020C046C04690
:1005200002BD704770477047754600F025F8AE462B
:10053000050069465346C008C000854618B020B57E
:10054000FFF736FE60BC00274908B6460026C0C546
:10055000C0C5C0C5C0C5C0C5C0C5C0C5C0C5403D7B
:1005600049008D46704710B50446C046C046204637
:10057000FFF7F1FD10BD000000487047D40B0020CC
:1005800001491820ABBEFEE72600020070470000BC
:1005900070B505460C46052D04D0062D14D0072D48
:1005A00036D123E0012C02D0022C0AD104E008212C
:1005B000194801F08AF905E00821174801F07BF994
:1005C00000E000BF00BF24E0012C02D0022C0AD1C1
:1005D00004E01021104801F078F905E010210E48E0
:1005E00001F069F900E000BF00BF12E0012C02D069
:1005F000022C0AD104E02021074801F066F905E049
:100600002021054801F057F900E000BF00BF00E0DD
:1006100000BF00BF70BD0000800C004010B500BFDF
:100620003D48C068C007C00F01214840484000282D
:1006300070D000BF38480069084048404840002852
:1006400068D000BF01203449086100BF33480078FA
:1006500000280DDD3148007831490978884202D1FF
:10066000042002F033FB2D480078401E2B4908700F
:100670002A480078002805D1032002F027FB282013
:100680002649087027480088002804DD254800888E
:10069000401E2449088024480088002804DD2248A0
:1006A0000088401E2049088020480088002804DD7A
:1006B0001E480088401E1D4908801D4800880028EB
:1006C00004DD1B480088401E19490880194800882D
:1006D000002804DD17480088401E16490880164887
:1006E0000068002804D014480068401E12490860C1
:1006F00012480068002804D010480068401E0F49C6
:1007000008600F480088002804DD0D480088401E5E
:100710000B49088010BD000000300140130100208B
:10072000120100206A000020140000201C0000209C
:100730005C00002064000020700000207400002095
:10074000D400002010B501F029FE01F017FE00F0E2
:1007500003F800F009F810BD08B5022000901C2134
:10076000684601F0C9F808BD00BF044800680121CF
:1007700008430249086000BF704700000030014094
:1007800070B500240025C8217448FFF719FE6822BF
:100790002146641C71484254BC222146641C4254C8
:1007A00000222146641C42546D4842782146641C54
:1007B0006A4842546A4882782146641C6748425419
:1007C0006748027A2146641C6448425464480089A0
:1007D0000004020E2146641C6048425460480279BD
:1007E0002146641C5D4842545D4880880004020E26
:1007F0002146641C594842545948008DC2B22146D2
:10080000641C564842545648008D01122246641C0E
:10081000524881545248408DC2B22146641C4F4810
:1008200042544F48408D01122246641C4B4881546B
:100830004B48827B2146641C484842544848C08942
:1008400001122246641C454881544548027B2046DB
:10085000611C8CB241490A544148808900122146EA
:10086000621C94B23D4A50543D482030027C2046E0
:10087000611C8CB239490A543948C2782046611C3F
:100880008CB236490A543648427F2046611C8CB2ED
:1008900032490A543248203002782046611C8CB21A
:1008A0002E490A542E482030427C2046611C8CB2CE
:1008B0002A490A542A48027F2046611C8CB22749E3
:1008C0000A5427482030827B2046611C8CB2234981
:1008D0000A5423482030027B2046611C8CB21F49F9
:1008E0000A541F482030427B2046611C8CB21B49B1
:1008F0000A541B482030027D2046611C8CB21749E7
:100900000A5417482030C27B2046611C8CB2134920
:100910000A5413482030427D2046611C8CB20F4996
:100920000A54A01C887000BF08E00C48005D0B4909
:10093000495D401809490855681CC5B2A542F4DB59
:10094000601C84B216222046611C8CB203490A54F2
:100950002146024803F0D4F870BD00000C0B0020C3
:10096000D40A002070B505460C460948407809496C
:10097000C870074880780871A1B2284602F062FA70
:1009800004494871A1B2284603F0BAF870BD0000CE
:10099000D40A0020780000207CB502F0D3F90A20A8
:1009A00000F032FE002409E00A2000F02DFE02F0E3
:1009B000C9F961006A465052601CC4B2032CF3DBD3
:1009C000002500241BE060006946085AC013002877
:1009D0000ED06000085A0021C943081A401C61006B
:1009E0006A46505260006946085A281A85B204E0E7
:1009F00060006946085A401985B2601CC4B2032CD5
:100A0000E1DBE81301280ED1801E401B401C85B29B
:100A100003212846FFF7E2FC85B20020C043401BBB
:100A2000401C85B204E003212846FFF7D7FC85B2BD
:100A300028467CBD10B502F0E5F91721014803F006
:100A4000CBF810BD9600002010B50446012C02D052
:100A5000022C0CD105E001214902064800F02BFFD1
:100A600006E001214902034800F02FFF00E000BF2B
:100A700000BF10BD000C004010B50446012C02D090
:100A8000022C0CD105E001218902064800F013FF79
:100A900006E001218902034800F017FF00E000BFD3
:100AA00000BF10BD000C004010B5094800780028B8
:100AB00002D0012808D103E00220FFF7DDFF04E0A7
:100AC0000220FFF7C1FF00E000BF00BF10BD000023
:100AD0006900002010B509480078002802D00128DC
:100AE00008D103E00120FFF7C7FF04E00120FFF772
:100AF000ABFF00E000BF00BF10BD00006900002098
:100B000070B504460A480470FFF7E4FFFFF744FF9E
:100B10000646FFF7C9FF232E02DD3046233886B292
:100B20003546002C02D128461A3885B2284670BDB9
:100B30006900002010B50446012C02D0022C0CD113
:100B400005E001218902064800F0BFFE06E0012110
:100B50008902034800F0AFFE00E000BF00BF10BDF7
:100B6000800C004000BF0A48C06A022108404008CB
:100B700000280CD000BF0648006B08404008002841
:100B800005D000BF02200249086300BF00BF7047C4
:100B900000240040012101607047000070B5044648
:100BA000012500BF206800280BD02068012808D04C
:100BB0002068022805D02068032802D02068042875
:100BC00001D1012000E00020002801D100BFFEE794
:100BD00000BF00BFA068002802D0A068012801D192
:100BE000012000E00020002801D100BFFEE700BF87
:100BF00000BFE068002808D0E068082805D0E06859
:100C0000102802D0E068182801D1012000E000205F
:100C1000002801D100BFFEE700BF2068042814D1DE
:100C200000BF6068002808D06068012805D06068AF
:100C3000022802D06068032801D1012000E00020D2
:100C4000002801D100BFFEE71AE000BF606800285D
:100C50000ED0606801280BD06068022808D0606858
:100C6000032805D06068042802D06068052801D1F7
:100C7000012000E00020002801D100BFFEE700BFF6
:100C8000FF2001302649896B0143254A916300BF4B
:100C9000206804280ED10421224800F037FA616848
:100CA000880120494969C022914301431D4A51618D
:100CB00000BF20E000211B4800F028FA20681849F6
:100CC00040318968890889000143154A40329160A2
:100CD00000BF61688800114689681C229143014366
:100CE0000F4A4032916000BF90131146C96801431A
:100CF000D16000BF00BFA0680A494969890889001E
:100D00000143084A516100BFE06811464969182251
:100D100091430143034A516100BF284670BD000062
:100D200000240040005C014081684908490081605E
:100D300070478168490849008160704781690122D4
:100D40001204914381617047026A4B005B089A4329
:100D50000262704781680122114381607047816897
:100D60000222114381607047026A4B005B081A43FC
:100D700002627047F8B505460C4601200090002637
:100D800000BFDB48854201D1012000E0002000289F
:100D900001D100BFFEE700BF00BF2068002804D0DB
:100DA000012149022068884201D1012000E0002091
:100DB000002801D100BFFEE700BF00BF6068002827
:100DC00004D00121C9026068884201D1012000E0FD
:100DD0000020002801D100BFFEE700BF00BFE0688F
:100DE000002802D0E068042801D1012000E00020A2
:100DF000002801D100BFFEE700BF00BF2069002826
:100E000008D02069012805D02069022802D0206975
:100E1000032801D1012000E00020002801D100BFFB
:100E2000FEE700BF00BF2020005D002803D0202087
:100E3000005D012801D1012000E00020002801D13F
:100E400000BFFEE700BF00BF606A002821D001217B
:100E50004904606A88421CD04900606A884218D000
:100E600003214904606A884213D00121C904606AE1
:100E700088420ED005214904606A884209D00321C6
:100E80008904606A884204D007214904606A884264
:100E900001D1012000E00020002801D100BFFEE7C1
:100EA00000BF00BFA06A002826D001210905A06A62
:100EB000884221D04900A06A88421DD0032109053B
:100EC000A06A884218D001218905A06A884213D0FF
:100ED00005210905A06A88420ED003214905A06AB0
:100EE000884209D007210905A06A884204D001215F
:100EF000C905A06A884201D1012000E00020002835
:100F000001D100BFFEE700BF012000037949496B12
:100F10000143784A516300BF00BF77480068C007AB
:100F2000C00F01214840484000280DD100BF0120DA
:100F30007149886000BF00BF08460068012108436E
:100F40006D49086000BF00BF00BF6B480068022108
:100F500008436949086000BF05E07D2080028642A1
:100F600000D30AE0761C00BF63488068C007C00F4A
:100F70000121484048400028EFD000BF2846FFF735
:100F8000D3FE2846FFF7DAFE00BFA8680121084318
:100F9000A86000BF00BF5648006908435449086173
:100FA00000BF002600BF00BF514800681021084064
:100FB000070900BF761C701C002801D0002FF2D05A
:100FC000012F7DD100BF10204949086000BF28468D
:100FD000FFF7AAFE00BFA8683840012148404840FA
:100FE00000287DD12068A9697A0291430143A96153
:100FF00000BF6068A969920091430143A96100BFE5
:10100000207A002806D000BFA86951100843A861C3
:1010100000BF07E000BFA869012189028843A861D9
:1010200000BF00BF607A002807D000BFA869FF2179
:1010300001310843A86100BF07E000BFA869FF2194
:1010400001318843A86100BF00BFE068A96904229C
:1010500091430143A96100BF00BF68692021884313
:10106000686100BF2069E968890889000143E96077
:1010700000BF6069A969F02291430143A96100BFE3
:10108000A069E96991430143E96100BFE069E96949
:10109000090909010143E96100BF2020005D002822
:1010A0001AD0606AA9690722520491430143A961D9
:1010B00000BFA06AA9690F2212059143014301E014
:1010C00011E00DE0A96100BF00BFA869012109047A
:1010D0000843A86100BF08E02846FFF72FFE04E0A0
:1010E0000020009001E0002000900098F8BD000072
:1010F000005C01400024004000A401400146086853
:10110000C007C00F0122504050407047426904237D
:101110009A430A4342617047416901221143416188
:101120007047000070B505460C46052600BF6148B3
:10113000854201D1012000E00020002801D100BF3C
:10114000FEE700BF00BFA06800280BD0A0681028F1
:1011500008D0A068202805D0A068402802D0A06848
:10116000602801D1012000E00020002801D100BF4B
:10117000FEE700BF00BF6069002808D0FF210131F1
:101180006069884203D049006069884201D101202A
:1011900000E00020002801D100BFFEE700BF00BF33
:1011A0002069012802D02069002801D1012000E037
:1011B0000020002801D100BFFEE700BF00BF20686B
:1011C000002802D02068802801D1012000E0002002
:1011D000002801D100BFFEE700BF206836494968FA
:1011E000802291430143344A516000BF102000F037
:1011F0009BF80120C00300F087F8A069296B090A59
:1012000009020143296300BFA068202804D04028B8
:1012100003D060280BD101E000BF00BF00212846A9
:1012200000F05AF82846A16800F050F808E0284677
:10123000A16800F051F80021284600F047F800BFEF
:1012400000BFE068E96A090C09040143E96200BFD4
:10125000606929680322120291430143296000BF9B
:101260006068A96A090C09040143A96200BF2069EA
:10127000012806D100BF286880210843286000BFEC
:1012800006E000BF286880218843286000BF00BFB7
:101290002846FFF741FF00E0761E064800F00EF8F2
:1012A000002801D1002EF7D100BF012001490861BB
:1012B00000BF70BD00300140402400400146086975
:1012C000C007C00F012250405040704702686023A1
:1012D0009A430A4302607047026810239A430A4304
:1012E0000260704701680122114301607047016884
:1012F00002221143016070470249C96B0143014A50
:10130000D1637047002400400249C9680143014A83
:10131000D1607047402400400249C9680143014A36
:10132000D160704740240040024909680143014AE6
:10133000116070474024004010B5002400BF1B48D6
:10134000006807210902084005221202811A904212
:1013500018D006DC00280DD001218902401A1DD1C9
:101360000CE0C81FF938002810D0FF3801380028D9
:1013700014D10FE000F0FCF8044613E000F0F8F898
:1013800044080FE000F0F4F884080BE000F0F0F8F7
:10139000C40807E000F0ECF8040903E000F0E8F806
:1013A000044600BF00BF204610BD000000240040DE
:1013B00010B5002400BF1B4800680721090408403D
:1013C00005221204811A904218D006DC00280DD0A4
:1013D00001218904401A1DD10CE001200004081AE3
:1013E00010D001210904401A14D10FE0FFF7A4FF27
:1013F000044613E0FFF7A0FF44080FE0FFF79CFF4F
:1014000084080BE0FFF798FFC40807E0FFF794FF9C
:10141000040903E0FFF790FF044600BF00BF204629
:1014200010BD00000024004070B50024002500BF5E
:101430002648C06802210840002802D0022807D1AF
:1014400003E000F047F8044606E02148046803E0A2
:1014500000F040F8044600BF00BF00BF1B48C06852
:10146000702108400107090F00291FD10011030056
:1014700002F0A0FE080506080A0C12141A1C16E059
:10148000640814E0A40812E0E40810E00C212046EF
:10149000FEF79AFF04460AE0240908E018212046D6
:1014A000FEF792FF044602E0640900E000BF00BFBF
:1014B00000BF0648C0687F2109040840000C451C95
:1014C000204668430446204670BD000000240040CA
:1014D00004000020002000BF0D4949680F221204BB
:1014E0001140002908D001221204891A06D0891A55
:1014F00006D0891A08D105E0064807E0064805E04D
:10150000064803E0064801E0024800BF00BF7047FC
:101510000024004000127A000024F40000366E011E
:101520000048E801002000BF1049496A0322120464
:101530001140002908D001221204891A07D0891A03
:1015400008D0891A0CD108E04B2040030BE04B2057
:10155000C00208E04B20800205E04B20400202E080
:101560004B20400300BF00BF704700000024004034
:1015700010B5002400BF144800684007400F030066
:1015800002F018FE0705090C1A1014171A00FFF7CD
:10159000A1FF044614E00D48046811E0FFF744FF82
:1015A00004460DE0FFF7BEFF044609E00848046862
:1015B00006E00124E40303E0FFF78CFF044600BFCC
:1015C00000BF204610BD00000024004004000020A1
:1015D00000000020034989681C2291430143014A0D
:1015E0009160704740240040064800690421084388
:1015F000044908610846006901210843014908615E
:101600007047000000E000E010B5044603E07D20D4
:10161000C00000F005F82046641E0028F7D110BD78
:1016200010B504460C490D480068FEF7CDFE444352
:1016300001200006844200D900E020460446601ED6
:10164000074948610020886100BF05480069C00360
:10165000C00F0028F9D010BD40420F000800002044
:1016600000E000E0826A8BB29A43826270470268AF
:101670008BB29A430260704782688BB29A43826051
:10168000704742688BB29A4342607047026A8BB2DD
:101690009A43026270470246D0698BB218408BB2FF
:1016A000984201D1012070470020FCE70246D06932
:1016B0008BB218408BB2984201D1012070470020B4
:1016C000FCE70000F8B506460C460027002500BFE1
:1016D000724886420ED07148403086420AD06F4828
:1016E0008030864206D06D48C030864202D06C48B9
:1016F000864201D1012000E00020002801D100BF76
:10170000FEE700BF00BF2068002805D965492068B2
:10171000884201D8012000E00020002801D100BF4C
:10172000FEE700BF00BF6068032808D0606800289B
:1017300005D06068012802D06068022801D101202C
:1017400000E00020002801D100BFFEE700BF00BF7D
:10175000A068012802D0A068002801D1012000E083
:101760000020002801D100BFFEE700BF00BFE068F5
:10177000002802D0E068012801D1012000E000200B
:10178000002801D100BFFEE700BF00BF606900284C
:1017900002D06069012801D1012000E0002000286A
:1017A00001D100BFFEE700BF80203F49496B0143E4
:1017B0003D4A516300BF6AE00121B94020680840FA
:1017C0000546002D62D0606803281AD129463046AC
:1017D000FFF74DFF29463046FFF753FF29463046B5
:1017E000FFF74AFF6069012806D100BFB06AA9B2BD
:1017F0000843B06200BF33E029463046FFF732FFAE
:101800002EE029463046FFF72DFF6068002806D1FC
:1018100000BF3068A9B20843306000BF03E029462A
:101820003046FFF724FFA068002804D1294630463F
:10183000FFF722FF06E000BFB068A9B20843B0601E
:1018400000BF00BFE068002806D000BF7068A9B2E2
:101850000843706000BF03E029463046FFF711FFE0
:10186000606802280DD12069012806D100BF306AC6
:10187000A9B20843306200BF03E029463046FFF7B3
:1018800005FF29463046626800F024F87F1C206876
:10189000F840002890D10120F8BD0000000C004065
:1018A000000D0040FFFF00000024004082698BB261
:1018B0001A438261704782698BB21A438261704712
:1018C00042698BB21A434261704742698BB21A4334
:1018D0004261704730B5C3680C464C4365006419DB
:1018E000A3430C464C4354432343C36030BD10B55F
:1018F000FFF77AFE10BD000070B505460C4628685B
:10190000032801D9032028602046002805DBC206F1
:10191000D20E01219140094A116000BF204629687A
:1019200001F0E4F82046002806DBC206D20E0121B1
:101930009140024A803A116000BF70BD80E100E032
:1019400041680122114341607047416801221143FF
:10195000416070474168012211434160704741680E
:101960000122114341607047F8B505460C46002737
:1019700000200090002600BFAD4885420BD0AD4846
:10198000854208D0AC48854205D0AC48854202D09B
:10199000AB48854201D1012000E00020002801D1A0
:1019A00000BFFEE700BF00BF2068002814D02068F9
:1019B000012811D0206802280ED0206803280BD0FF
:1019C0002068002808D02068042805D0206808284E
:1019D00002D020680C2801D1012000E0002000285E
:1019E00001D100BFFEE700BF00BFA068C02808D03B
:1019F000A068002805D0A068402802D0A0688028F0
:101A000001D1012000E00020002801D100BFFEE745
:101A100000BF00BF2069002805D02069102802D02F
:101A20002069202801D1012000E00020002801D1F8
:101A300000BFFEE700BF00BFE068002804D0FF2120
:101A40000131E068884201D1012000E00020002837
:101A500001D100BFFEE700BF00BF6069002808D0C9
:101A60006069022805D06069012802D060690328F6
:101A700001D1012000E00020002801D100BFFEE7D5
:101A800000BF6B4885422CD120686E49496889089F
:101A9000890001436B4A516000BF2068002806D0CE
:101AA000012808D002280AD0032810D10BE0FFF744
:101AB0007FFC00900FE0FFF70DFD00900BE0FFF7BB
:101AC00057FD009007E060480068009003E0FFF7D2
:101AD0006FFC009000BF00BF61680098FEF774FCC7
:101AE000461E544885422CD12068564949680C222C
:101AF00091430143534A516000BF2068002806D03B
:101B0000042808D008280AD00C2810D10BE0FFF7D1
:101B10004FFC00900FE0FFF7DDFC00900BE0FFF7BB
:101B200027FD009007E048480068009003E0FFF7B9
:101B30003FFC009000BF00BF61680098FEF744FCC6
:101B4000461E3B48854206D18015FFF7D5FBA815F8
:101B5000FFF7E2FB35E03748854206D14015FFF735
:101B6000CBFB6815FFF7D8FB2BE0334885420BD140
:101B7000C014FFF7C1FBFFF71BFC009061680098E1
:101B8000FEF722FC461E1CE02C4885420BD1801437
:101B9000FFF7B2FBFFF70CFC009061680098FEF7BE
:101BA00013FC461E0DE0264885420AD14014FFF77B
:101BB000A3FBFFF7FDFB009061680098FEF704FCB3
:101BC000461E207DC007C00F002806D000BF286831
:101BD00001210843286000BF00BF0221606908405E
:101BE000002805D000BF28680843286000BF00BF58
:101BF00000BFA869000C00043043A86100BFE06882
:101C00002968FF22013291430143296000BFA06887
:101C10002968C02291430143296000BF20692968D7
:101C2000302291430143296000BF01273846F8BDA7
:101C30000020014000680140007001400074014034
:101C40000078014040240040040000204269520A0C
:101C500052020A43426170474269520A52020A43E1
:101C6000426170474269520A52020A434261704718
:101C70004269520A52020A434261704770B50546F2
:101C80000C4600BF4348854201D1012000E00020FE
:101C9000002801D100BFFEE700BF00BF2068002878
:101CA00014D02068102811D0206820280ED0206879
:101CB00030280BD02068402808D02068502805D054
:101CC0002068602802D02068702801D1012000E03F
:101CD0000020002801D100BFFEE700BF00BF606800
:101CE00000282CD06068012829D06068022826D0FE
:101CF0006068032823D06068042820D06068052825
:101D00001DD0606806281AD06068072817D0606860
:101D1000082814D06068092811D060680A280ED0FD
:101D200060680B280BD060680C2808D060680D280C
:101D300005D060680E2802D060680F2801D101200C
:101D400000E00020002801D100BFFEE700BF1248DC
:101D5000FFF7CDFA1048FFF7C5FA60680121C90204
:101D6000691889680909090101430122D202AA18E8
:101D7000916000BF20680121C9026918896870223A
:101D8000914301430122D202AA18916000BF0120B1
:101D900070BD000000F0014000E001400120084952
:101DA00049690140814200D100E00021012906D1AA
:101DB00001200349486100BF01210248C1737047F7
:101DC000C00D0040F40A0020F3B581B00E46002794
:101DD0000C20FFF7FFFB19491948FEF7B5FF18481B
:101DE0000199FEF7C1FF1648FEF7D4FE1448FEF72E
:101DF000B1FF1348FEF7B3FF00BF1148FFF77EF9AC
:101E000004467F1C781C002801D0002CF5D0012C42
:101E100010D10B48FEF7BEFE00BF0948806A80B2B1
:101E200030600748FEF785FF05480199FEF78CFFF3
:101E3000002500E001252846FEBD0000FFFF0F0041
:101E4000005C0140F1B58AB0002008900790069030
:101E500008A800F035F8059006A90A98FFF7B4FF26
:101E600004900898002821D0059800281ED10498D5
:101E700000281BD10F49069802F084F90E4A1489F4
:101E8000002506460F4622462B46FEF7A3F9019190
:101E900000900A49089802F075F902460B46039132
:101EA000029001990098FEF7ADF9079007980BB0E2
:101EB000F0BD0000B80B000000FBFF1FFF0F00008B
:101EC000F8B5064600270C20FFF784FB00BF20482A
:101ED0000069012108431E49086100BF1D491E48D1
:101EE000FEF732FF012109061B48FEF73DFF1A48A5
:101EF000FEF750FE1848FEF72DFF1748FEF72FFF9C
:101F000000BF1548FFF7FAF804467F1C781C00282C
:101F100001D0002CF5D0012C17D10F48FEF73AFE66
:101F200000BF0D48806A80B230600B48FEF701FFA9
:101F300021060948FEF708FF00BF05480069A043D5
:101F40000349086100BF002500E001252846F8BDCF
:101F500000A40140FFFF0F00005C014010B500BF6E
:101F60000220FFF76FFF04460B204443204610BDBC
:101F700010B500BF8020FFF765FF04460B204443E7
:101F8000204610BD10B500BF01210620FEF700FB62
:101F90000420FFF757FF04460B204443022106208C
:101FA000FEF7F6FA204610BD10B500BF0120FFF77E
:101FB00049FF04460B204443204610BD10B500BF26
:101FC0000820FFF73FFF04460B204443204610BD86
:101FD00010B500BF01208002FFF734FF04460B203C
:101FE0004443204610BD000000B587B0FF200130FB
:101FF000019001200290039000200490059006902B
:1020000001A91B48FFF75EFB01204002019001205F
:1020100002900390002004900590069001A91448B6
:10202000FFF750FB40200190012002900390002018
:1020300004900590069001A90D48FFF743FB80200E
:1020400001900120029003900020049005900690DA
:1020500001A90748FFF736FB012149020448FFF7B1
:102060002FFC80210248FFF72BFC07B000BD0000C9
:10207000800C0040F0B5B5B005460F4600240026A0
:10208000002034903390C82101A8FEF79BF900206E
:1020900000909CE020461730B84200D998E0285DB7
:1020A00068287DD1E01D285C6828FAD120460A30D6
:1020B0002E5C3102401E285C08180D3086B2A01933
:1020C000801E285C34902919324601A8FEF71BF9BE
:1020D000314601A800F0B6FE339033993498884217
:1020E00073D120461330285C0090009801022046EE
:1020F0001230285C081880B20090374900984018C8
:10210000002806D035494018002806D001285AD1A9
:1021100052E003203249087056E00120304908702F
:1021200020461A30285C2F4948620846406A01025E
:1021300020461B30285C08182A4948620846406A35
:10214000010220461C30285C0818264948620846CF
:10215000406A010220461D30285C08182149486267
:102160000846406A002804D00846C07F012800D1F4
:10217000487720461E30285C642148431949088569
:1021800020461F30285C6421484316494885204674
:102190002030285C0121081AC1B21248203000E02A
:1021A00013E00173A019C01E285C002803D0012190
:1021B0000C482030817307E001200A49C8700220D2
:1021C0000749087000E000BF00BF601CC4B261E7AF
:1021D00000BF35B0F0BD0000FBEFFFFFFB2DFFFFA0
:1021E0006D000020D40A002006480088002807D18E
:1021F0000820054949690143034A516100BF00BFF6
:10220000704700006A000020000C004008200549CB
:1022100089690143034A916100BFFF20913002495F
:1022200008807047000C00406A0000201FB50120A4
:102230000090032001900020029003906846FEF772
:10224000ADFC1FBD10B5FFF7F1FF00F001F810BDA8
:1022500000B591B001200B9003200C9000200D9050
:102260000E900F9010900BA94248FFF72BFA022016
:102270000B9003200C9000200D900E900F9010906A
:102280000BA93C48FFF71EFA04200B9003200C908A
:1022900000200D900E900F9010900BA93548FFF77D
:1022A00011FA08200B9003200C9000200D900E9046
:1022B0000F9010900BA92F48FFF704FA10200B90F5
:1022C00003200C9000200D900E900F9010900BA901
:1022D0002848FFF7F7F90120C0020B9003200C906B
:1022E00000200D900E900F9010900BA92148FFF741
:1022F000E9F920200B9003200C9000200D900E9007
:102300000F9010900BA91B48FFF7DCF940200B90B1
:1023100003200C9000200D900E900F9010900BA9B0
:102320001448FFF7CFF90020009001900121684682
:102330000172417200200390049005905020069095
:102340000F200790002108A8017003204004099085
:10235000012080050A9069460748FEF70BFD4021E1
:102360000548FEF701FD012109060348FEF7FCFCC4
:1023700011B000BDC00C0040005C014000BF012056
:102380000549086100BF00BF0846C0680121084335
:102390000149C86000BF70470030014000B587B0F8
:1023A000002000901F20019000200290FF20F430B8
:1023B0000390002005900690049069460248FEF7BD
:1023C000B1FE07B000BD0000003001401CB5102078
:1023D00000900820019069460148FFF74FFC1CBDA2
:1023E00000F0014010B500BF4F48006801210843CC
:1023F0004D49086000BF00BF08460068022108433D
:102400004949086000BF04204849496B0143474AD5
:10241000516300BF00204649096B490A4902014344
:10242000434A116300BF04204049496B81433F4A3E
:10243000516300BF00203F49096B490A490201432B
:102440003C4A116300BFFFF7C1FF00BF05203949B7
:10245000CA148918486000BF7D20C000FFF7D4F877
:1024600055203249C969090A090201432F4AD1613D
:1024700000BF3149496B090C2F4A928ED24392B268
:10248000914202D12C49496B00E08021C8B2274912
:102490008968090A09020143244A916000BF0320A8
:1024A0000004114649680F221204914301431F4A58
:1024B000516000BF00BF104640680121084311462B
:1024C000486000BF01201D4909688908890001434F
:1024D0001A4A116000BF002014490968C908C900E0
:1024E0000143124A116000BF00BF1146096807226C
:1024F0001202914301430D4A116000BF00BF114613
:1025000009680722120491430143084A116000BF81
:10251000022005494968C908C9000143024A5160BF
:1025200000BF00F09FFC10BD00E00140002400400F
:102530000010014000F0014000FBFF1F00100040B0
:1025400000B587B008200190012002900020039080
:1025500004900590069001A96848FFF7B3F80120A0
:102560004002019001200290002003900490059009
:10257000069001A96148FFF7A5F8012080020190AB
:10258000012002900020039004900590069001A97C
:102590005A48FFF797F81020019001200290002080
:1025A000039004900590069001A954484030FFF72D
:1025B00089F82020019000200290039001200490CF
:1025C00000200590069001A94C484030FFF77AF8AA
:1025D00040200190002002900390012004900020F0
:1025E0000590069001A945484030FFF76BF8802020
:1025F000019000200290039001200490002005909B
:10260000069001A93D484030FFF75CF8FF200130FB
:10261000019000200290039001200490002005907A
:10262000069001A935484030FFF74CF801204002E0
:1026300001900120029000200390049005900690E4
:1026400001A92E484030FFF73DF80120800201909B
:10265000012002900020039004900590069001A9AB
:1026600026484030FFF72EF80120C00201900120DB
:1026700002900020039004900590069001A91F4845
:102680004030FFF71FF80820019001200290002041
:10269000039004900590069001A918488030FFF738
:1026A00011F8102001900120029000200390049066
:1026B0000590069001A911488030FFF703F820200B
:1026C0000190012002900020039004900590069054
:1026D00001A90A488030FEF7F5FF01208002019031
:1026E000012002900020039004900590069001A91B
:1026F00002488030FEF7E6FF07B000BD000C004046
:1027000000B587B080200190022002900020039045
:1027100004900590069001A90948FEF7D3FFFF2019
:102720000130019002200290002003900490059057
:10273000069001A90248FEF7C5FF07B000BD0000E2
:10274000C00C004000B58DB001204003079002206E
:1027500008900020099001200A9000200B900C9016
:1027600007A91148FEF7AEFF012080030790022061
:102770000890002009900A900B900C9007A90A4835
:10278000FEF7A0FF002001904B20C0010290032023
:1027900006904020039000200490059001A9034872
:1027A000FFF7E2F80DB000BD000C00400020014032
:1027B00010B500BFFF2001300949886000BF00BF8D
:1027C00008464068891508430549486000BF00BFB6
:1027D0000120886000BF0846FFF7B2F810BD000076
:1027E0000020014000B58DB0012040030790022079
:1027F0000890002009900A900B900C9007A91148AE
:10280000FEF760FF0120800307900220089000205F
:1028100009900A900B900C9007A90A48FEF752FF06
:10282000002001904B2040010290032006904020A0
:10283000039000200490059001A90348FFF794F845
:102840000DB000BD400C00400068014010B500BF55
:10285000FF2001300949886000BF00BF084640687A
:10286000891508430549486000BF00BF0120886002
:1028700000BF0846FFF769F810BD0000006801407E
:1028800000B58DB00120079002200890002009902B
:1028900001200A900B9000200C9007A91148FEF728
:1028A00011FF022007900890002009900A90012053
:1028B0000B9000200C9007A90A48FEF703FF0020A8
:1028C00001904B20C001029003200690402003900D
:1028D00000200490059001A90348FFF745F80DB0CA
:1028E00000BD0000400C00400070014010B500BF6A
:1028F000FF2001300949886000BF00BF08464068DA
:10290000891508430549486000BF00BF0120886061
:1029100000BF0846FFF71EF810BD00000070014020
:1029200000B58DB00120079002200890002009908A
:1029300001200A9000200B900C9007A91048FEF788
:10294000C1FE022007900890002009900A900B9089
:102950000C9007A90A48FEF7B5FE002001904B2015
:102960004002029003200690402003900020049033
:10297000059001A90348FEF7F7FF0DB000BD000068
:10298000000C00400074014010B500BFFF20013072
:102990000949886000BF00BF0846406889150843A0
:1029A0000549486000BF00BF0120886000BF08469D
:1029B000FEF7D5FF10BD00000074014010B51748A8
:1029C00000780D2803D0154800780E2825D1FFF790
:1029D000FFFA1349884208D9FFF7F0FAFF21F531D1
:1029E000884202D201200F498861FFF7E7FA0C49BB
:1029F000884208D9FFF7ECFAFF21F531884202D26C
:102A000001200849486107488069012805D1054827
:102A10004069012801D10349087710BD6C000020EE
:102A200094110000D40A0020002804D02D2806D0DC
:102A30005A280CD107E02721084A117008E0262106
:102A4000064A117004E02521044A117000E000BF1D
:102A500000BF2821024A11707047000012010020B7
:102A600013010020F0B5B5B005460F46002400263E
:102A7000002034903390C82101A8FDF7A3FC25E085
:102A800020462130B84200D921E0285D68281BD1BA
:102A9000E01C285C801DC6B2A019801E285C349002
:102AA0002919324601A8FDF72EFC314601A800F095
:102AB000C9F9339033993498884205D104200549E7
:102AC0000870012104480170601CC4B2D8E700BF3F
:102AD00035B0F0BD6D000020F40A002010B50921CA
:102AE000014801F0E1F810BD0901002010B50028EF
:102AF00019DB1A4A03231B02D21883089B00D25801
:102B00008307DC0EFF23A3409A438B071B0E840729
:102B1000E40EA3401A43114B032424021B1984081A
:102B2000A4001A5118E00E4A03071B0F083B9B082C
:102B30009B00D2588307DC0EFF23A3409A438B07E8
:102B40001B0E8407E40EA3401A43054B0407240F11
:102B5000083CA408A4001A5110BD000000E100E0E8
:102B60001CED00E010B50446012C02D0022C0CD163
:102B700005E00121C9020648FEF79DFE06E001219D
:102B8000C9020348FEF7A1FE00E000BF00BF10BD70
:102B9000400C004010B50446012C02D0022C0CD190
:102BA00005E0012149020648FEF785FE06E0012105
:102BB00049020348FEF789FE00E000BF00BF10BDD8
:102BC000400C004010B50446012C02D0022C0CD160
:102BD00005E0012189020648FEF76DFE06E00121AD
:102BE00089020348FEF771FE00E000BF00BF10BD80
:102BF000400C0040F0B5B5B005460F460024002655
:102C0000002034903390C82101A8FDF7DBFB54E08D
:102C1000E01DB84200D951E0285D68284BD1A01CC6
:102C20002E5CA019B84246D82919324601A8FDF7F2
:102C30006AFBA019801E285C3490314601A800F080
:102C400001F9339033993498884234D1601C285C60
:102C5000AA2802D0BB282CD117E0E01C285C194917
:102C60004978884210D1A019401E285C16280BD143
:102C7000201D285C1349887007211348FDF772FE58
:102C800000F056FCA019C4B214E0E01C285C0D4909
:102C9000497888420CD1A019401E285C162807D11B
:102CA00008480078012803D1FDF76AFDA019C4B2D5
:102CB00000E000BF00BF601CC4B2A9E700BF35B090
:102CC000F0BD0000D40A002078000020014603294E
:102CD00002D0042910D107E01020094A52690243AA
:102CE000074B5A6100BF08E01020054A9269024371
:102CF000034B9A6100BF00E000BF00BF70470000B7
:102D0000400C004010B5002420210D48FEF7CEFCF9
:102D1000012805D1FFF756FF0220FFF73BFF0124F2
:102D200020210748FEF7C2FC002806D10120FFF74A
:102D300049FF0120FFF72EFF0024204610BD0000B0
:102D4000400C004070B5002400250720254908707C
:102D50009F20487001F03FF9802001F0F1F8002039
:102D600001F0EEF802211F4801F027F901F046F9C1
:102D700010201C4908700020487001F02CF98020B8
:102D800001F0DEF8052001F0DBF80221154801F022
:102D900014F901F033F91420FEF736FC01F01BF9A9
:102DA000802001F0CDF8042001F0CAF801F013F9F9
:102DB000812001F0C5F802210B4801F090F801F0E4
:102DC0001DF9094800780002084908800846008873
:102DD0000549497840180549088008460488254671
:102DE000284670BD67000020B40A0020C80A0020F1
:102DF00010B500F007F81721014800F0EDFE10BDF6
:102E00007F00002010B5002400BF05E00A2106481D
:102E100000F0E2FE601CC4B2372CF7DB052103484A
:102E200000F0DAFE10BD0000C5000020CF00002039
:102E300010B5FFF7E7FF1821014800F0CDFE10BDE7
:102E4000AD00002010B502460B460021002000BF57
:102E500004E0545C2418E0B24C1CE1B29C1E8C428D
:102E6000F7DC10BD10B5464800684007400F03006E
:102E700001F0A0F9073C050A3C0F32373C004148FD
:102E800000684149086051E000F008F93E490860D7
:102E90004CE03B48406A8003800F002806D00128A0
:102EA00009D002280CD0032814D10EE04B20400397
:102EB000354908600EE04B20C0023349086009E044
:102EC0004B2080023049086004E04B2040022E492C
:102ED000086000BF00BF29E02C4800682A4908604C
:102EE00024E07D200002284908601FE02448406853
:102EF0000003000F002813D0012804D0022806D0B8
:102F000003280CD107E022481F4908600CE0214843
:102F10001D49086008E020481B49086004E000BF24
:102F20001E481949086000BF00BF00BF00BF144819
:102F300000684005400F042806D005280AD006285E
:102F40000ED0072818D111E00F48006840080E493C
:102F5000086012E00C48006880080B4908600CE02B
:102F600009480068C0080849086006E0064800688B
:102F700000090549086000E000BF00BF10BD000067
:102F80000024004004000020080000200000002071
:102F90000024F40000366E010048E80100127A00B7
:102FA00010B53948406B012109030843364948638D
:102FB0000846406B8021084333494863084600684F
:102FC0000121C9060843304908605520C861032023
:102FD000090548602D488069000C2C49098BC943BC
:102FE00089B2884202D12948806900E01020C006D9
:102FF000C00E274988632548C0300068000C23496B
:10300000C0310988C94389B2884203D11F48C03002
:10301000006800E08020C0B21B4988601B48C030B7
:103020004068000C1949C0318988C94389B2884277
:1030300003D11648C030406800E08020C0B2124979
:10304000886212488030006A000C10498031098C77
:10305000C94389B2884203D10C488030006A00E03D
:103060008020C0B2084948610A484068FF21813188
:103070000843084948600520074908600120486066
:10308000FFF7F0FE10BD00000024004080FAFF1F93
:1030900000200040C00C00400028004010B5002473
:1030A0002C48C0688007C00F002802D001281BD11F
:1030B00017E0284840680003000F00280DD00128C1
:1030C00004D0022804D0032806D103E0224C06E0F5
:1030D000224C04E0224C02E000BF224C00BF00BFA3
:1030E00002E02148046800BF00BF1A48C0684006DB
:1030F000400F030001F05EF8080507090B0D1315DA
:103100001B1D00BF15E0640813E0A40811E0E408EB
:103110000FE00C212046FDF757F9044609E0240989
:1031200007E018212046FDF74FF9044601E0640945
:1031300000BF00BF0748C0684002400E401C444327
:103140000448C0680007C00F002800D06400204673
:1031500010BD0000002400400024F40000366E0181
:103160000048E80100127A000400002010B5BD48B4
:103170000068002800D010BDBB480078030001F0B3
:1031800019F810090A29107D4998C6E3FCBCFBFA1E
:10319000F9F8F7FC63E100F0CBF90320B2490870BD
:1031A0005DE1FEF7E5FEB149486008464068B04978
:1031B00088420BD9AD484068AE49884206D2022009
:1031C000A9490870AC48AD49086002E00F20A64943
:1031D000087044E1A9480068002814D0A848007885
:1031E000022809D10020A6490870A648A349086012
:1031F00005209D4908700CE0FDF71CFC7D20400176
:103200009849086005E09F489C4908600520964958
:10321000087024E199480068002820D00020FDF7BC
:103220006FFC92498881084680890A2812DD084689
:10323000808932280EDA904890490860FFF762FDD5
:10324000002803D104208849087016E00A20864926
:10325000087012E07D20C000824908600DE08648B9
:1032600086490860FFF74EFD002803D104207E49FF
:10327000087002E00A207C490870F0E0FEF76EFE5C
:103280007A498860084680681921C90188420CD9AA
:10329000764880687D214901884206D2062072491D
:1032A000087078487549086002E00F206E49087080
:1032B000D5E072480068002818D00120FDF720FCF6
:1032C0006A49C8810846C08904280ADD0846C089C1
:1032D0001E2806DA6848694908600A2062490870B1
:1032E0000AE07D20C0005F49086005E0624863494C
:1032F00008600A205C490870B1E05A20FFF794FB8F
:103300000120FDF717FC072057490870A7E05B482C
:103310000068002814D05A480078032809D10020FA
:103320005749087054485549086008204E490870AC
:1033300009E0FFF77DFD7D2040014A49086002E079
:103340000C20494908708AE00020FFF76DFB4B48CC
:103350000068002819D04A48007804280ED10020BF
:1033600047490870454908600B203F49087012E042
:1033700066E05DE03FE025E00EE06CE0FFF7AEFBCD
:103380007D2040013749086005E000203B49086086
:103390000B203549087062E0FEF706FE3349488687
:1033A0000846408EFF21F531884207DA01212F4877
:1033B000203041740C202C49087002E00C202A496E
:1033C00008704CE0FEF7DEFD2849086108460069F8
:1033D0002D4988420BD9254800692C49884206D2DC
:1033E0000D202149087024482449086002E00F207C
:1033F0001D49087033E021480068002814D0204897
:103400000078012809D100201D49087020481B4977
:1034100008600E201449087009E0FFF7E9FC7D20E0
:1034200040011049086002E00F200F49087016E0C3
:1034300012480068002802D10F200B4908700EE0E6
:103440000020094908700120084908700020C87749
:10345000FFF7EAFA03E00F200349087000BF00BF3E
:1034600000BF88E6740000206C000020D40A002011
:10347000581B0000B01D0000204E0000700000200E
:103480006D000020409C00009411000050140000CA
:103490002823000010B5FFF735FC00F0B1FC022036
:1034A000FFF760FB0020FFF7BFFA0220FDF7CCFA20
:1034B0000220FDF7E1FA02210520FDF769F802215B
:1034C0000620FDF765F802210720FDF761F80220CC
:1034D000FDF730FB00200149087010BD6C00002092
:1034E000002011490870114908700F49C8704860E0
:1034F0008860C870C88188810861486188610877E0
:10350000487788770021084820300170C173002077
:103510000549486208854885002103482030017329
:103520004173817341757047D40A00206D000020FB
:1035300010B5FFF7AFFFFFF7D3FF01200149087077
:1035400010BD00006C000020F8B500240025002606
:10355000002700BF33484068FF2101310840000ABE
:10356000044600BF2F4880680840000A054600BF97
:103570002C484068C007C00F01214840484006461B
:1035800000BF284880680840484048400746002C53
:1035900019D0012D17D100BF224800692249234AC2
:1035A0001288885421480088401C20490880084619
:1035B0000088C82801DB0020088001201C49087011
:1035C000C8201C490880012E2AD1012F28D11A4871
:1035D000407919490979884209D100BF11484068EA
:1035E000B0431049486000BF0120144908701248D8
:1035F00040791149097988420CDA0F4800680E4A6F
:103600005279815C0748FEF721FB0B484079401C4A
:103610000949487100BF01200249886000BF00BF0E
:10362000F8BD000000200140140100200E00002021
:103630000C000020140000206C030020100000206B
:1036400010B5FFF77FF8FFF7B3F800F003F800F0CC
:1036500093FA10BD08B5022000900A216846FEF7D3
:103660004BF908BDF8B5002400250026002700BF4F
:1036700033484068FF2101310840000A044600BF7A
:103680002F4880680840000A054600BF2C48406863
:10369000C007C00F012148404840064600BF2848E7
:1036A00080680840484048400746002C19D0012D4A
:1036B00017D100BF224800692249234A1288885442
:1036C00021480088401C2049088008460088C828F6
:1036D00001DB0020088001201C490870C8201C491B
:1036E0000880012E2AD1012F28D11A484079194982
:1036F0000979884209D100BF11484068B043104998
:10370000486000BF012014490870124840791149EF
:10371000097988420CDA0F4800680E4A5279815CB8
:103720000748FEF799FA0B484079401C094948714F
:1037300000BF01200249886000BF00BFF8BD000043
:10374000006801407C0300201800002017000020C2
:103750001C000020D40500201600002010B5FFF743
:1037600041F8FFF773F800F003F800F06DFA10BDB0
:1037700008B5002000900B216846FEF7BDF808BD93
:10378000F8B5002400250026002700BF3248406815
:10379000FF2101310840000A044600BF2E4880681E
:1037A0000840000A054600BF2B484068C007C00F0C
:1037B000012148404840064600BF2748806808402D
:1037C000484048400746002C19D0012D17D100BFB2
:1037D000214800692149224A1288885420480088DB
:1037E000401C1F49088008460088C82801DB0020CB
:1037F000088001201B490870C8201B490880012E41
:1038000028D1012F26D119484079184909798842D1
:103810000CDA16480068154A5279815C0E48FEF7AA
:1038200021FA12484079401C1049487100BF01201C
:103830000949886000BF0D4840790C4909798842E0
:1038400008D100BF04484068400840000249486071
:1038500000BF00BFF8BD000000700140E40500207B
:1038600058000020560000205C0000203C0800208A
:1038700010B5FFF705F8FFF739F800F003F800F08E
:103880004DFA10BD08B5022000900C216846FEF7E5
:1038900033F808BDF8B5002400250026002700BF36
:1038A00033484068FF2101310840000A044600BF48
:1038B0002F4880680840000A054600BF2C48406831
:1038C000C007C00F012148404840064600BF2848B5
:1038D00080680840484048400746002C19D0012D18
:1038E00017D100BF224800692249234A1288885410
:1038F00021480088401C2049088008460088C828C4
:1039000001DB0020088001201C490870C8201C49E8
:103910000880012E2AD1012F28D11A48407919494F
:103920000979884209D100BF11484068B043104965
:10393000486000BF012014490870124840791149BD
:10394000097988420CDA0F4800680E4A5279815C86
:103950000748FEF78DF90B484079401C094948712A
:1039600000BF01200249886000BF00BFF8BD000011
:10397000007401404C080020600000205F0000201F
:1039800064000020A40A00205E00002010B5FEF7AD
:10399000C7FFFEF7F9FF00F003F800F029FA10BDA9
:1039A00008B5012000900D216846FDF7A5FF08BD70
:1039B00010B5FFF745FEFFF7D1FEFFF759FFFFF700
:1039C000E5FF10BD10B586B00446002C01D1019072
:1039D00001E002200190012080030090002002906D
:1039E0000120039000200490059069460248FDF7ED
:1039F00069FE06B010BD0000000C0040F0B5B5B087
:103A000005460F4600240026002034903390C8213C
:103A100001A8FCF7D7FC25E020460C30B84200D9BD
:103A200021E0285D68281BD1601C2E5CA019401E77
:103A3000285C162814D1A019801E285C34902919FE
:103A4000324601A8FCF75FFC314601A8FFF7FAF9FE
:103A5000339033993498884202D101200349C877C2
:103A6000601CC4B2D8E700BF35B0F0BDD40A002056
:103A700010B506480088002807D13321044800F01B
:103A80007DF97D2040010149088010BDD40000204F
:103A9000D600002010B514480078012808D1002075
:103AA000114908700520FDF7AFFD0020FFF78AFFE0
:103AB0000E480078012816D10D480088002812D140
:103AC000FEF7A4FB0020094908700A4802880A4949
:103AD0000A48FCF747FB074801880848FFF78AF8BF
:103AE00000200449088010BD100000200C000020B8
:103AF000140000200E00002014010020DC01002032
:103B000070B505460C46002C00D170BD64201649E6
:103B1000088000BF1548007914494979884203D0CC
:103B2000114800880028F5D10120FDF76DFD012026
:103B3000FFF748FF224629460D48FCF7E4FB0C48F6
:103B40000A4908600C710120487100BF094988606A
:103B500000BF0846FDF7F4FE0448006801780548F8
:103B6000FEF774F800BFD0E7120000206C030020BD
:103B7000A402002000200140012002490871487180
:103B8000704700006C03002010B50E480078012833
:103B900016D10D480088002812D1FEF737FB00200F
:103BA000084908700948028809490A48FCF7DAFA06
:103BB000064801880748FEF75DFA0020034908809F
:103BC00010BD0000170000201C000020180000207D
:103BD0007C0300204404002070B505460C46002CF0
:103BE00000D170BD7D20C0001349088000BF13487C
:103BF000007912494979884203D00F48008800288B
:103C0000F5D1224629460E48FCF77DFB0C480B49AE
:103C100008600C710120487100BF0A49886000BF2C
:103C20000846FDF792FE0548006801780548FEF752
:103C300013F800BFD5E700001A000020D4050020CB
:103C40000C050020006801400120024908714871FC
:103C500070470000D405002010B50E4800780128F8
:103C600016D10D480088002812D1FEF7CFFA0020A7
:103C7000084908700948028809490A48FCF772FA9D
:103C8000064801880748FEF7EDFE0020034908803A
:103C900010BD0000560000205C00002058000020ED
:103CA000E4050020AC06002070B505460C46002C4B
:103CB00000D170BD64201549088000BF1448007908
:103CC00013494979884203D0104800880028F5D16B
:103CD0000120FDF799FC224629460E48FCF713FB0C
:103CE0000C480B4908600C710120487100BF0A495B
:103CF000886000BF0846FDF72DFE05480068017882
:103D00000548FDF7AFFF00BFD3E700005A000020D1
:103D10003C08002074070020007001400120024987
:103D200008714871704700003C08002010B50E482B
:103D30000078012816D10D480088002812D1FEF71E
:103D400065FA0020084908700948028809490A48AC
:103D5000FCF708FA064801880748FFF74FFE0020E5
:103D60000349088010BD00005F00002064000020AF
:103D7000600000204C0800201409002070B50546A2
:103D80000C46002C00D170BD7D20C0001349088076
:103D900000201349087000BF11480078012803D1A2
:103DA0000E4800880028F7D1224629460D48FCF726
:103DB000AAFA0C480C4908600C710120487100BF38
:103DC0000A49886000BF0846FDF7C9FD064800683B
:103DD00001780648FDF74CFF00BFD4E762000020E1
:103DE0005E000020DC090020A40A002000740140CD
:103DF000012002490871487170470000A40A0020A0
:103E000010B5FF2101311E48FDF750FC002807D1F5
:103E100080211B48FDF74AFC002801D11949487050
:103E2000FF2101311648FDF741FC002807D1802110
:103E30001348FDF73BFC012801D112494870FF21CE
:103E400001310F48FDF732FC012808D180210C48D0
:103E5000FDF72CFC002802D102200A494870FF21FE
:103E600001310748FDF722FC012808D180210448D0
:103E7000FDF71CFC012802D103200249487010BD47
:103E8000400C0040D40A0020002002E000BF411C8A
:103E9000C8B23228FADB704770B50025002000F068
:103EA00043F9002000F0C2F8FFF7EEFF002412E013
:103EB000012000F0BBF8FFF7E7FF00F01BF9002836
:103EC00002D0802020410543002000F0AFF8FFF72A
:103ED000DBFF601CC4B2082CEADB284670BD70B55D
:103EE00006460D46002428E0FFF7D6FF3055681E31
:103EF000A04210DD012000F017F9002000F0C8F802
:103F0000FFF7C2FF012000F091F8FFF7BDFF00208E
:103F100000F08CF80FE0012000F006F9012000F01D
:103F2000B7F8FFF7B1FF012000F080F8FFF7ACFF12
:103F3000002000F07BF8601CC4B2AC42D4DB70BD42
:103F400070B50446012000F0EFF8002000F06EF894
:103F5000002518E080202040002803D0012000F038
:103F600097F802E0002000F093F8FFF78DFF0120A2
:103F700000F05CF8FFF788FF002000F057F86006BB
:103F8000040E681CC5B2082DE4DB002000F0CCF85C
:103F9000FFF77AFF012000F049F8FFF775FF00F006
:103FA000A9F8002802D100F041F802E0002000F05A
:103FB0003DF8FFF769FF012070BD70B505460E465C
:103FC000002404E0285DFFF7BBFF601CC4B2B442CC
:103FD000F8DB012070BD10B5012000F0A5F801202C
:103FE00000F056F8012000F021F8FFF74DFF002007
:103FF00000F04EF8002000F019F810BD10B50120B7
:1040000000F092F8002000F043F8012000F00EF8D4
:10401000FFF73AFF012000F03BF8002000F006F81F
:10402000FFF732FF012000F001F810BD10B5044683
:10403000012C13D114480078002802D001280BD19C
:1040400005E0FF2101311148FDF73AFC05E0402170
:104050000E48FDF735FC00E000BF13E00A48007889
:10406000002802D001280BD105E0FF2101310748CB
:10407000FDF71CFC05E040210448FDF717FC00E0BB
:1040800000BF00BF10BD000069000020800C004090
:1040900010B50446012C13D114480078002802D032
:1040A00001280BD105E0012149021148FDF708FC68
:1040B00005E080210E48FDF703FC00E000BF13E09F
:1040C0000A480078002802D001280BD105E0012120
:1040D00049020748FDF7EAFB05E080210448FDF7A7
:1040E000E5FB00E000BF00BF10BD0000690000203C
:1040F000800C004010B50A480078002802D0012842
:104100000BD105E0012149020648FDF7C4FA10BDB4
:1041100080210448FDF7BFFAF9E70020F7E7000027
:1041200069000020800C004010B586B004460120D4
:1041300002900390002004900590012C02D10120F0
:10414000019001E0002001900C480078002802D086
:1041500001280FD107E0012040020090694608487D
:10416000FDF7B0FA07E08020009069460448FDF7AB
:10417000A9FA00E000BF00BF06B010BD6900002032
:10418000800C0040F8B582B28BB2040C0D0C1046C6
:104190005843002126465E43370C36048019794186
:1041A00016466E43370C36048019794126466E4315
:1041B0008919F8BD30B47446641E2578641CAB427E
:1041C00004D3635D5B00E31830BC18471D46F8E775
:1041D000FDF78DFBFEF706F9FEF792FAFEF7B0F950
:1041E000FCF7B0FAFFF7E4FBFDF7FEFEFEF72AF856
:1041F000FFF750F90FE0FDF7F7FFFFF74BFCFFF774
:10420000C3FCFFF729FDFFF791FDFEF7AFFFFEF7B7
:10421000D5FBFFF72DFCEEE7384200000000002040
:1042200014010000040100004C43000014010020B0
:10423000241B0000200100000080000000127A0012
:1042400000127A00000000000100000000000100E0
:10425000000000000000FEFEFEFEFEFEFEFEFEFE72
:10426000FEFEFEFEFEFEFEFEFEFEFEFEFEFEFEFE6E
:10427000FEFEFEFEFEFEFEFEFEFEFEFEFEFEFEFE5E
:10428000FEFEFEFEFEFEFEFEFEFEFEFEFE01000047
:104290000000640000000100000064000000010054
:1042A000000000000000000000000000000000000E
:1042B00068AB070000191668FFFFFFFFFFFF6801EA
:1042C0000A00250618143152020AE2009D1668FF02
:1042D000FFFFFFFFFF68010A0022010518313702C6
:1042E0000BE2006C1668FFFFFFFFFFFF68010B0089
:1042F000250619162404020510000170165555559F
:1043000055555555555555FEFEFEFEFE0000FE68FE
:10431000320001000000EF1F3C000000EE143C00E2
:1043200000521B0000520800D200D2FFFFFFFF071F
:10433000D0279E40020000016E0D5CFFFF05034682
:0C43400016680101030100006E16000069
:04000005000000C136
:00000001FF
