:020000040000fa
:080000000002040000000000f2
:020000040000fa
:100400008feb21000e7f22000e018800000000000b
:100410000c00070080012600010020000f000700eb
:10042000000020000000e000020032000000020096
:100430000000000092650200000000000040da00a9
:100440000000fe00405b20000000e00002003200df
:10045000002020009001880000000600a102880012
:10046000800078000000eb001a003700e2804000b6
:1004700054a0b4009101ba00e280400054a0b4003e
:100480009102ba00e280400054a0b4000002eb00e8
:10049000472bde00f507b200a6018800602ce100c2
:1004a00008003a000049eb000201e80002003900b0
:1004b0003420ec0002f0a0008301e900f9ff3e00c7
:1004c000040037006128e100010032000082eb00e7
:1004d000040007001101ba000200e000e3ff3a0047
:1004e0000000060004d0a300e20f49001c00390000
:1004f000810278003549ba000201e80002003900a3
:100500003420ec0002f0a0008301e9000f0032006b
:100510002549ba000201e800020039003420ec004d
:1005200002f0a0008301e900080032000400e000ae
:100530000600320015c9ba000201e80002003900c5
:100540003420ec0002f0a0008301e9008180e80083
:1005500054a0b4000300e000e2ff3a0000000600ef
:100560009102ba00055978008301e900f7ff3200d3
:10057000c82ade00055978008301e900f3ff320044
:100580000400e000f1ff320011d9ba00eeff37009d
:1005900066350400000000004c3804000000000034
:1005a000c0380400000000006616040000000000cf
:1005b0006e160400000000008e54040000000000cd
:1005c000dc54040000000000ee4c040000000000b9
:1005d0002c4d0400000000006a4d040000000000e3
:1005e000e84d0400000000001c4e04000000000064
:1005f000fc6204000000000022650400000000000e
:100600000040da000000fe0095a0a90041e3a90027
:1006100085a0a900000006004023a90000000600f4
:100620000080fb0000004000013020006080780066
:1006300000000600401a8800000006008ac0a900d9
:10064000e7416000f10b20009140780082cfb300b9
:1006500082c0600083c070008000fd00bfe0b70072
:100660008000fd00680160004311de004611dd00de
:10067000a1092000914078000164a10082c07000af
:100680008000fd009ae0b7008000fd00700060006f
:100690004400de004400dd00210820009140780085
:1006a0000144a10080c070000100780082e0b70022
:1006b000000006009460a90005e1a9008460a9007b
:1006c0000000060094e0a90011e1a90084e0a9005f
:1006d000000006009500a90013e1a9008500a9000b
:1006e000000006009760a9001fe1a9008760a9002b
:1006f000000006009780a90021e1a9008780a900d9
:10070000000006008460a900e7416000c419dd0014
:10071000510a200091407800f2c8b30082c0600006
:1007200083c070008000fd00a5e0b7008000fd00e0
:10073000680060004300de004300dd004109200046
:10074000914078000134a10080c070000100780061
:1007500094e0b7000000060084e0a900e7416000d3
:10076000c419dd00710a200091407800f2c8b3007e
:1007700082c0600083c070008000fd00a7e0b70069
:100780008000fd00680060004300de004700dd00df
:1007900041092000914078000174a10080c07000e0
:1007a0000100780094e0b700000006008500a90071
:1007b000e7416000810a20009140780082cfb300b9
:1007c00082c0600083c070008000fd00a8e0b70018
:1007d0008000fd00680060004300de005109200039
:1007e000914078000104a10080c0700001007800f1
:1007f00095e0b700000006008760a900e7416000af
:10080000c419dd00110b200091407800f2c8b3003c
:1008100082c0600083c070008000fd00b1e0b700be
:100820008000fd00680060004300de004300dd0042
:1008300071092000914078000134a10080c070004f
:100840000100780097e0b700000006009780a9003b
:10085000e7416000210b20009140780082cfb30077
:1008600082c0600083c070008000fd00b2e0b7006d
:100870008000fd00680060004300de004400dd00f1
:1008800071092000914078000144a10080c07000ef
:100890000100780097e0b700000006000021ef009b
:1008a0001108880020088800000006000621ef00db
:1008b0006108880080088800000006000a21ef0017
:1008c00090088800000006001421ef00d10888007d
:1008d000f0088800000006001821ef00e1088800f9
:1008e000000988000000060080007800b0c2bf0048
:1008f00066406000e64f500001003200f10fb20088
:10090000a11588000000060023c2bf000004a20059
:10091000610060000000060033c2bf000004a200b6
:10092000610060000000060053c2bf000004a20086
:100930006100600000000600b3c2bf000004a20016
:10094000610060000000060021e2a9009560a90096
:100950009580a9008560a9008580a9000000060097
:1009600031e2a90097c0a90097e0a90087c0a900bb
:1009700087e0a9000000060051e2a9009e40a900fe
:100980009e60a9008e40a9008e60a90000000600ac
:10099000b1e2a9009f00a9009f20a9008f00a90033
:1009a0008f20a900000006008560a9008580a900ad
:1009b000e7416000c419dd00910a200091407800f1
:1009c000f2c8b30082c0600083c070008000fd00e8
:1009d000a9e0b7008000fd00800178000307b200a5
:1009e000c419de00a10a20009140780082cfb30034
:1009f00082c0600083c070008000fd00aae0b700e4
:100a00008000fd00680160004311de004311dd003d
:100a100051092000914078000134a10082c070008b
:100a20008000fd0095e0b7008000fd000008b200e6
:100a30004700de004400dd005109200091407800ad
:100a40000144a10080c070000100780095e0b7006b
:100a50000000060087c0a90087e0a900e741600008
:100a6000310b20009140780082cfb30082c060003b
:100a700083c070008000fd00b3e0b7008000fd007f
:100a800001c7b30081416000310b20009140780024
:100a9000f2c8b30082c0600083c070008000fd0017
:100aa000b3e0b7008000fd00680160004311de0084
:100ab0004611dd0071092000914078000164a10019
:100ac00082c070008000fd0097e0b7008000fd004c
:100ad0000008b2004700de004700dd007109200079
:100ae000914078000174a10080c07000010078007e
:100af00097e0b700000006008e40a9008e60a900b4
:100b0000e7416000d10c20009140780082cfb30013
:100b100082c0600083c070008000fd00cde0b7009f
:100b20008000fd0001c7b30081416000d10c2000ae
:100b300091407800f2c8b30082c0600083c07000aa
:100b40008000fd00cde0b7008000fd00680160007e
:100b50004311de004211dd00e109200091407800e0
:100b60000124a10082c070008000fd009ee0b7005b
:100b70008000fd000008b2004700de004300dd00f9
:100b8000e1092000914078000134a10080c070008c
:100b9000010078009ee0b700000006008f00a90069
:100ba0008f20a900e7416000010d200091407800ee
:100bb00082cfb30082c0600083c070008000fd005f
:100bc000d0e0b7008000fd0001c7b30081416000a4
:100bd000010d200091407800f2c8b30082c060008f
:100be00083c070008000fd00d0e0b7008000fd00f1
:100bf000680160004311de00f10920009140780097
:100c00000104a10082c070008000fd009fe0b700d9
:100c10008000fd000008b2004700de0000404000f8
:100c2000f1092000914078000114a10080c07000fb
:100c3000010078009fe0b7000000060022c2bf005c
:100c4000610060000000060032c2bf006100600069
:100c50000000060052c2bf006100600000000600f4
:100c6000b2c2bf00610060000000060042118800af
:100c70000011880011118800010037003011800038
:100c800022c2bf000008a300fcff3a008560a90053
:100c900000000600c21188008011880091118800b0
:100ca00001003700b011800032c2bf000008a3006d
:100cb000fcff3a0087c0a90000000600c2128800ad
:100cc000801288009112880001003700b012800065
:100cd00052c2bf000008a300fcff3a008e40a900ea
:100ce00000000600c2158800801588009115880054
:100cf00001003700b0158000b2c2bf000008a30099
:100d0000fcff3a008f00a900000006008000780078
:100d10000001780050c2bf0066406000e64f5000fe
:100d200010003a000500370053c2bf000018a300ae
:100d3000fdff3a00a21288008180e80011017800ce
:100d40000200e000f8ff3a000000060053c2bf00b6
:100d50000018a300fdff3a000100fb00a01288006c
:100d60000201e800924078000104e000f7ff3a0039
:100d7000000006008000780020c2bf0066406000ce
:100d8000e64f500001003200f10fb200211188003f
:100d9000000006008000780030c2bf00664060009e
:100da000e64f500001003200f10fb200a11188009f
:100db000000006008000780050c2bf00664060005e
:100dc000e64f500001003200f10fb200a11288007e
:100dd00000000600103a80000010a00072052000fc
:100de0006104200023742000814978008249780042
:100df000804978002626ef002746e20005003d00e6
:100e000027c6bf000058a30001003a008400070075
:100e100027e6a90027a6a9000000060080007800a8
:100e2000f2cf2f000001fd002626b6000001fd00d4
:100e3000003020002626b70020318000800878008e
:100e4000203180009000980020318000a0009800a0
:100e500020318000b00098000001fd002626b60079
:100e60000001fd00003020002626b700243180005c
:100e700025318000263180002731800061409000bc
:100e8000874f5000e7ff3a0000000600889fbe0031
:100e90008a9fbe0000047800010578007040900031
:100ea00091c5b300814f500059003e00684090004a
:100eb000814f500056003e0058409000e64f5000d1
:100ec00053003e00c840900040c2b30080cf5000a5
:100ed0004f003e0038409000f24f50004c003e0062
:100ee0000004e0004a003200a840900010c3b300a4
:100ef00080cf500046003e000104e0004400320074
:100f000090c9b300984f100041003e000a00e00075
:100f10000800320042c0bf000080fb00c505de00b3
:100f200091028000ff3ffc0000ceb3004260b7009a
:100f30009102880027c6bf004500de00e104600082
:100f40000904e00001003a003500070027c6bf0091
:100f50000080fb004700de00804078000001eb00cd
:100f60000004e0000400320023c6bf000080fb0044
:100f70004701de0027e6a900f0cf2f002626b600a5
:100f8000003020002626b7001800780020318800a5
:100f9000180090002031880028009000203188003f
:100fa00038049000283188000104e0000800320075
:100fb00027e6a8000200e0000100320023e6a800b6
:100fc0000904e000050032001500070003003700a7
:100fd0000904e00001003a0027a6a9001000200043
:100fe0000a00e0000b00320092028000ff3ffc008c
:100ff000c558dd0042c0bf007f4060000140700066
:1010000042e0b70092028800100020000100370083
:101010000000eb004f05be004f04be0000000600bc
:1010200021042000914078008180fb00c508de008b
:1010300092028000ff3ffc0000ceb3004260b70088
:101040009202880050052000303b8800a00a200052
:10105000303b880027a6a80092028000ff3ffc00da
:10106000c508dd0042c0bf007f4060000140700045
:1010700042e0b70092028800000006000000fa007b
:10108000881f7800151b880038c0270008036300fc
:10109000061b8800871a8800bfba97008882620002
:1010a000751a8800a41a8800931a8800221a8800ea
:1010b000111a8800001a88000000d1006140600009
:1010c0000040400001342000914078000114a1004c
:1010d00080c070000100780040e3b7004f04780042
:1010e0000080fa00000006006022b800060220001e
:1010f0000000d0008180d2000482d2008582d2001c
:101100000000a0000202520083825a000300310056
:101110000202420083824a000000a1000603e900a7
:10112000f3ff3a0000000600881f780000047800f2
:101130005001be004000be00040040008580480011
:101140000601490087814900009cbe000294be0050
:101150000400e1000588e1000690e1000798e10045
:1011600002003100680044001008e8004f047800d5
:1011700000000600f4874700889fbe008a9fbe00db
:101180008c9fbe008e1f78000205be000004be00ca
:10119000d4b79f00e5b79f00f6b79f0087bf9f00b9
:1011a0000000eb00c0b79f00b0b79f00a0b79f0042
:1011b00090b79f0080b79f000d042000bfb097003c
:1011c0004fb09700000140000000e0000f003d001c
:1011d0004f08de0000007100c0b79f004d000700ff
:1011e00001003d00120020005000070001003d00fa
:1011f000120020005500070061000700660007008c
:101200000f004000c8ff0700220037004f08de0033
:1012100000067100ccb79f003e00070001003d00b2
:10122000120020004100070001003d0012002000d4
:1012300046000700520007000fb297009fb29700c8
:101240002fb39700bfb3970059000700000052006a
:1012500081805a0002015b0083815b0080b79f00a0
:1012600091b79f00a2b79f00b3b79f000007eb00a4
:101270004f0007000020e10001a8e10002b0e100fa
:1012800003b8e100010031001e0020000e005600ee
:10129000c0b79f004fb297000400e0000700350080
:1012a00010002000010020006011b8000804700048
:1012b000898470000a0571008b8571008d06e90034
:1012c000beff3a000400e00003003d0032000700ca
:1012d0000f00400094ff07004fa897000000e000b7
:1012e00004003a000fb497009fb497002fb5970001
:1012f000bfb597000800be000a01be004f07780086
:101300004f06be004f05be004f04be004f01b100a6
:10131000000006000180400090b79f000001eb0034
:101320008fb097000100e00000000600020070008e
:1013300090b79f000180400080b79f000001eb0044
:10134000ffa897000100e000000006000200700006
:1013500080b79f00018040006faa9700cf20de0079
:1013600001007000f0af9f00040242000800be00c0
:101370000a01be004f18de000002720000000600e5
:10138000e4af9f000804440089844c000a054d0026
:101390008b854d00000006003fb29700cfb297004a
:1013a0005fb39700efb3970000fe2f000000060028
:1013b0003fb09700cfb097005fb19700efb19700b3
:1013c00000000600881f780018002000881f7800a1
:1013d00068ff07008f87e9004f04780000000600cf
:1013e000801feb0063ff07008f87e9000000060005
:1013f000889fbe008a9fbe008c1f78000205be0039
:101400000004be00e00f5000e08f5800e00f5900cc
:10141000e08f59000c003d006000b8006011b8007a
:1014200008045000898458000a0559008b8559002a
:101430001c0020001f00070008003d0018000700e6
:101440000006eb00050037000006eb00190007005e
:1014500002003d000f0007001c0020000800be0035
:101460000a01be00d7ff07000203be000002be0053
:101470000c00e00001003200060007000400be007e
:101480000601be004f0678004f05be004f04be00a7
:10149000000006006000b8006011b80000003700ce
:1014a00004025000858258000603590087835900c2
:1014b00000000600e00f5200e08f5a00e00f5b00d2
:1014c000e08f5b0000000600889fbe008a9fbe0080
:1014d0008c1f78000205be000004be00e00f500023
:1014e000e08f5800e00f5900e08f59000a003d00de
:1014f0006000b8006011b8000804500089845800ea
:101500000a0559008b8559001c00200018000700af
:1015100007003d00050037000006eb00140007003f
:1015200003003d006000b8006011b800150007001e
:101530000800be000a01be00a9ff07000203be00aa
:101540000002be000c00e000030032006000b800a2
:101550006011b8000b0007000400be000601be00c9
:101560004f0678004f05be004f04be000000060085
:10157000e00f5200e08f5a00e00f5b00e08f5b004d
:10158000000006000402500085825800060359003e
:1015900087835900000006008001eb00020037003d
:1015a00061f079008301e800828f5100fcff3a006e
:1015b000000006008001eb00020037008171780016
:1015c0008301e800828f5100fcff3a000000060012
:1015d000889fbe000004be00060037000804e80033
:1015e0000000fb008900780068200700e10f400040
:1015f00004003200184078000004e000f7ff3a00d1
:101600000000eb004f04be0000000600881f7800b9
:10161000a1e92100eeff070000047800a1e9210004
:10162000a000200059200700080078004f0478002f
:10163000000006000c00fa00889fbe00000478003d
:10164000cfb09700f0ff2700d0bf9f008004eb00d1
:1016500099bf9f0088bf9f00a8bf9f00200c20005b
:10166000b0bf9f00788157007080570008000700c6
:101670000fb89700094878000fb897000804500089
:10168000080078004f04be000080fa000000060049
:10169000fe874700889fbe008a9fbe008c9fbe00c9
:1016a0008e1f7800f0b79f000107780082bf9f006f
:1016b0000000eb00a0b79f009f0237008006eb0000
:1016c00050c2b30080cf5000090032000100fb007f
:1016d000ffb097002d200700e10f40009602320076
:1016e000afb097008100e800a1b79f0092023700d9
:1016f0009e407800d0c2b30080cf50000c00320072
:1017000007003c006d40500080cf50000a003200be
:101710006b40400080cf50000e003a0008003700b8
:1017200000c3b30080cf50000a003a000600370023
:101730000d30a000050037000d00a00003003700a9
:101740000d10a000010037000d20a0000e07e800da
:10175000e7ff37000d18a300010032000d00a100c3
:101760000d38a300010032000d20a1000100fb0094
:1017700002fd2f0002004000e90f50000e003e0065
:101780000002eb00c4b79f0082017800cfb297003f
:101790006a28b9001e01fb0000014100030141005d
:1017a000c2b79f005e00fb0003004000e90f50003d
:1017b0000b003e00f5ff37000006eb00ccb79f00a2
:1017c000a0c2b30080cf500005003a000fb89700c8
:1017d000c000780080bf9f00c1b79f000e07e800df
:1017e0000001eb00b2b79f00e0c2b3009e4f1000b3
:1017f00018003a000de0a0008e00e80064405000a0
:10180000914f100002003200010778000c003700f1
:101810000fba9700c402780084bf9f00b5b79f003d
:101820000e87e8000b0037003fb697006a60b900ea
:101830000000410003004000b0b79f000e07e80021
:101840001e01fb0003fd2f0003004100e90f5000c3
:10185000f5ff3600be407800e1d79f00c0c6b30058
:1018600080cf5000220032000f003c006940500041
:1018700080cf50007700320004003c000104e000fb
:10188000310232006b4050000f00370040c6b300f9
:1018900080cf5000930032006540400080cf500060
:1018a0008b003a008f00370030c7b30080cf500064
:1018b0001a00320007003c006440500080cf500006
:1018c000110032000040e80080cf500080003a0054
:1018d0000f00370050c7b30080cf500080003200a7
:1018e0006340400080cf500079003a000900370083
:1018f000000028000d48a30001003a00000120006c
:1019000080867600d3ff37000d60a0007500370099
:101910000d50a0000d70a000720037008fb8970026
:101920004100780081bf9f00000478000000e000c3
:1019300001003a0028e621008004eb000100370096
:101940008104e80089007800088044001004e00069
:10195000fbff3a003fb197000200e00003003200b5
:10196000890f510001003100820478000002eb0071
:10197000e4af9f00cfb29700898f5200020036007b
:1019800009805200e0af9f004368de00e10660007e
:101990001b003a000d06780009003700ffb09700e1
:1019a00000022000791f0700e10f40000300320011
:1019b0002fb097000000e800a0b79f000c06e800d9
:1019c000efa89700810f5600f4ff3a000081eb006a
:1019d000e2af9f000a003700880078003100fb006a
:1019e00001047800ffb09700681f0700e10f400076
:1019f000030032002fb297000402e800a4b79f0052
:101a00000900e90080047800e10f4000f2ff3a008d
:101a10000006eb000d00e0000a003a00c6013700a6
:101a2000ffb0970000022000581f0700e10f4000a0
:101a300003003200afb297008502e800a5b79f000f
:101a40000c06e8006fa89700800f5600f4ff3a00dc
:101a5000b90137008fb897004100780081bf9f001f
:101a6000cf80de0001017800820178000205be000f
:101a70000004be000203be000002be004822de00d9
:101a8000482edd0004027600e4d79f000d48a30035
:101a90000a0032000404e00008003200e14f420076
:101aa0000600320071fd2f000180470004487800d5
:101ab000184098002900200002003700f0d79f004e
:101ac0001900200072fd2f0002844700a1ff37009b
:101ad00064fd2f0004844700190020009dff37009b
:101ae0000d0cb3000d007800000cb20028003a0085
:101af0000d00e00005003d008fba97004505be00cf
:101b00004504be0085bf9f00140037000d48a300a8
:101b10000b0032000fbe97004c00be008cbf9f0030
:101b20004f89de00cf91de000002be000203780084
:101b3000820378000605be000404be0007003700db
:101b40008fb897004100780081bf9f0000047800a3
:101b5000cfc4de00090578008a057800e00f540044
:101b6000e08f5c00e00f5d00e08f5d001f003d0036
:101b70003d00b3006000b8006011b80008045000d8
:101b8000898458000a0559008b85590017003700d1
:101b90000d00e00005003d000fb997004205be00b2
:101ba0004204be0082bf9f00100037000d48a30012
:101bb000070032000fba97004400be0084bf9f00a8
:101bc0006011b8000205be000004be000700370027
:101bd0008fba97004500780085bf9f000004780009
:101be000090020000a0020000b0020003fb69700eb
:101bf0000c00e00007003a00e00f5400e08f5c00aa
:101c0000e00f5d00e08f5d0002003a001000200050
:101c1000b0b79f008d007800010cb200e1b79f00c3
:101c200000042000808f50003000320003003c0090
:101c30000100e000080032004000370000082000ea
:101c40006fb19700800f510014003200000c20008b
:101c5000800f510039003a0014c0b30025dc210088
:101c60000b0037000400fb004300dd0005004000ce
:101c70005001be004000be000040e10001c8e1008c
:101c800002d0e10003d8e1002b0039000442e80053
:101c9000f44f5200f3ff3a00270037000001200004
:101ca000010020006011b80014c0b3000040e10042
:101cb00001c8e10002d0e10003d8e1001e003900b4
:101cc000450020000000d0008180d2000281d200b7
:101cd0008381d2008502e900faff3a000442e8005d
:101ce000f04f5200f1ff3a0013003700800020004f
:101cf000010020006011b80014c0b3000040e100f2
:101d000001c8e10002d0e10003d8e1000a00390077
:101d10003c0020000000d0008180d2000281d2006f
:101d20008381d2000c06e900faff3a000442e80081
:101d3000f54f5200f1ff3a00e4d79f00efd0970033
:101d40000100fb003fb19700820f500002003d00f0
:101d5000e2d79f00040037003fb29700800f520087
:101d600001003d00b0b79f00cfb297000500e00032
:101d70000400320063806600020032008502e90040
:101d8000c5b79f000de8a3000b0032004fb69700c7
:101d90003fb09700800f560003003c008000eb002e
:101da000c1b79f00040037004fb197003fb29700c2
:101db00004015100c2b79f00efd297000500fb005d
:101dc0000006eb00dcaf9f00cfb09700808f500083
:101dd0000200340000805000d0af9f000d28a30007
:101de00037003200e18066000d18a3000c003200bd
:101df000d00220000100e00001003a000080e9006c
:101e0000ffb09700611e0700e10f40000e00320096
:101e10002fb197000201e800a2b79f000a00370027
:101e20000100e00008003200ffb09700000220002f
:101e3000561e0700e10f4000030032002fb297004a
:101e40000402e800a4b79f00dfaa97000500e000a5
:101e50000f0032000006eb00ffb0970000032000e7
:101e60004a1e0700e10f4000030032002fb0970028
:101e70000000e800a0b79f000c06e800dfa897006c
:101e8000810f5600f4ff3a000001eb00d2af9f0033
:101e90003fb29700c320dd00a0db2100808040001e
:101ea00091b79f004220dd006400500080b79f0082
:101eb0006320b900f0af9f00630650008400370034
:101ec000dfaa97000500e00011003200688066007c
:101ed0000f003a0000067800ffb0970000022000d3
:101ee0002a1e0700e10f4000030032002fb09700c8
:101ef0000000e800a0b79f000c06e800dfa89700ec
:101f0000810f5600f4ff3a000001eb00d2af9f00b2
:101f1000e18066000d18a3000c003200d002200002
:101f20000100e00001003a000080e900ffb09700e6
:101f3000161e0700e10f4000d5ff32002fb29700b8
:101f40000402e800a4b79f00d1ff37000100e000c1
:101f5000cfff3200ffb09700000220000b1e0700e9
:101f6000e10f4000caff3200afb297008502e800df
:101f7000a5b79f00c6ff370000042000efb0970010
:101f8000808f50003100320003003c000100e0006f
:101f9000080032003e003700000820006fb19700b3
:101fa000800f510011003200000c2000800f510002
:101fb00037003a001fb097003002be002003be0079
:101fc0000800be000a01be00fefc0700a4002000bd
:101fd000050020006033b80001fd070004c3b30012
:101fe00004424000e4d79f002900370095e6210015
:101ff000d5b79f000d58a30002003a00a0e72100ca
:10200000d0b79f0014002000050020006033b80006
:102010008fb097008100e900050033000402d00072
:102020008582d2000683d2008783d200f9ff370071
:102030000800be000a01be00e2fc07006f0060005d
:102040005fb1970062407800100037001400200054
:10205000050020006033b8000c0078000000e900a3
:10206000050033000402d0008582d2000683d2002e
:102070008783d200f9ff37000800be000a01be00c6
:10208000d0fc0700674060000043b000e0d79f002d
:10209000efd097000100fb00ffb09700bb1d0700c9
:1020a000e10f4000030032002fb197000201e80069
:1020b000a2b79f001fb297006802520094b79f001a
:1020c0008fb29700e482520085b79f0063065600e6
:1020d000d0ff2f003fb197000090b9007faa970072
:1020e0000000420063005000800f5600a2ff3a003b
:1020f0000d38a30010003200dfaa97000500e000b1
:102100000d0034000006eb00ffb097000002200035
:102110009e1d0700e10f4000030032002fb0970022
:102120000000e800a0b79f000c06e800dfa89700b9
:10213000810f5600f4ff3a00be407800e1d79f00bf
:102140000104e0005dfd3a002fb097004f077800d2
:102150004f06be004f05be004f04be00ef01b100a8
:042160000000060075
:020000040000fa
:020000040002f8
:04aff0003ffe000020
:020000040000fa
:020000040002f8
:04aff400ffff00005b
:020000040000fa
:020000040002f8
:04aff8001ff800003e
:020000040000fa
:020000040002f8
:04affc009f39000079
:020000040000fa
:1000080000030000000300000003000000030000dc
:1000180000030000000300000003000000030000cc
:10002800aa16000000030000000300004a2c00008c
:100038000003000000030000000300008c2c0000f7
:10004800ce2c00000003000000030000ce170000c3
:10005800000300000003000000030000000300008c
:1000680000030000000300000003000074160000f5
:10007800d016000000030000000300000003000089
:10008800000300000003000000030000102d000022
:10009800522d0000f61600001018000000030000a2
:1000a800000300000003000000030000000300003c
:1000b800000300000003000000030000000300002c
:1000c800000300000003000000030000000300001c
:1000d800000300000003000000030000000300000c
:1000e80000030000000300000003000000030000fc
:1000f800000300001c170000421700000003000066
:1001080000030000000300000003000000030000db
:1001180000030000000300000003000000030000cb
:1001280000030000000300000003000000030000bb
:1001380000030000000300000003000000030000ab
:10014800000300000003000000030000000300009b
:10015800000300000003000000030000000300008b
:1001680000030000b8170000521800000003000048
:10017800000300000003000000030000000300006b
:1001880094180000000300000003000000030000b2
:10019800000300000003000000030000000300004b
:1001a800000300000003000000030000000300003b
:1001b800000300000003000000030000000300002b
:1001c800000300000003000000030000000300001b
:1001d800000300000003000000030000000300000b
:1001e80000030000000300000003000000030000fb
:0801f8000003000000030000f9
:020000040000fa
:1002080000030000000300000003000000030000da
:1002180000030000000300000003000000030000ca
:10022800aa16000000030000000300004a2c00008a
:100238000003000000030000000300008c2c0000f5
:10024800ce2c00000003000000030000ce170000c1
:10025800000300000003000000030000000300008a
:1002680000030000000300000003000074160000f3
:10027800d016000000030000000300000003000087
:10028800000300000003000000030000102d000020
:10029800522d0000f61600001018000000030000a0
:1002a800000300000003000000030000000300003a
:1002b800000300000003000000030000000300002a
:1002c800000300000003000000030000000300001a
:1002d800000300000003000000030000000300000a
:1002e80000030000000300000003000000030000fa
:1002f800000300001c170000421700000003000064
:1003080000030000000300000003000000030000d9
:1003180000030000000300000003000000030000c9
:1003280000030000000300000003000000030000b9
:1003380000030000000300000003000000030000a9
:100348000003000000030000000300000003000099
:100358000003000000030000000300000003000089
:1003680000030000b8170000521800000003000046
:100378000003000000030000000300000003000069
:1003880094180000000300000003000000030000b0
:100398000003000000030000000300000003000049
:1003a8000003000000030000000300000003000039
:1003b8000003000000030000000300000003000029
:1003c8000003000000030000000300000003000019
:1003d8000003000000030000000300000003000009
:1003e80000030000000300000003000000030000f9
:0803f8000003000000030000f7
:020000040000fa
:10216400fe6800000000000000000000000d0000f8
:102174000a3d00003dd60000b1b60000c1d6000003
:10218400d0b60000cfb20000fac90000faa30000e4
:10219400a13d00003d3d00000d0a000000000000cc
:1021a400000000000a010000000100000a01000014
:1021b400000200000a0100000d0a00003d3d00007d
:1021c4003d3d0000b1bb0000b2e20000b0e50000fc
:1021d400c0eb0000cfdf0000a3ac0000cda30000e3
:1021e400d6b90000b2e20000cad40000a3a10000e6
:1021f400a3a10000a3a100003d3d00003d3d00005f
:102204000d0a0000000d00000a0d00000a0d000078
:102214000a2a00002a2a00002a2a00002a2a00008a
:102224002a2a00002a2a00002a2a00002a2a00005a
:102234002a2a00002a2a00002a2a00002a2a00004a
:102244002a2a00002a2a00002a2a00002a2a00003a
:102254002a2a00002a2a00002a2a00002a2a00002a
:102264002a2a00002a2a00002a2a00002a2a00001a
:102274002a2a00002a2a00002a2a00002a2a00000a
:102284002a2a00002a2a00002a2a00002a2a0000fa
:102294002a2a00002a2a00002a2a00002a2a0000ea
:1022a4002a2a00002a2a00002a2a00002a2a0000da
:1022b4002a2a00002a0d00000a0000000d0a00006e
:1022c4003d3d00003d4d0000617300007465000059
:1022d400724200006f61000072640000204f000031
:1022e4006e4c0000696e000065200000213d000076
:1022f4003d3d00003d0d00000a0000000d0a0000f5
:102304002052000054430000b5e70000d1b900009a
:10231400256400002c0d00000a0000000d0a0000d6
:1023240020d60000f7bf0000d8b00000e5b50000db
:10233400e7d10000b9250000642c00000d0a00005c
:10234400000d00000a3d00003d3d00003d4d000031
:10235400617300007465000072200000426f000089
:102364006172000064200000536500006c66000088
:102374002043000068650000636b0000204f0000ec
:102384007665000072540000696d0000652100004c
:102394003d3d00003d3d00000d0a0000000d000021
:1023a4000a3d00003d3d00003d4d0000617300000a
:1023b4007465000072200000426f0000617200002a
:1023c40064200000536500006c6600002043000098
:1023d40068650000636b000020460000696e000021
:1023e40069730000682100003d3d00003d3d000090
:1023f4000d0a0000000d00000a3d00003d3d0000f4
:102404003d3d00003d3d00003dc60000f4b6000027
:10241400afc10000acbd0000d3280000baec00003e
:10242400cde20000293d00003d3d00003d3d00009f
:102434003d3d00003d3d00000d0a0000000d000080
:102444000a3d00003d3d00003d3d00003d3d0000d3
:102454003d4300006f6e00006e6500006374000071
:10246400204f00006b2100003d3d00003d3d000079
:102474003d3d00003d3d00003d0d00000a00000010
:102484000d0a00003d3d00003d3d00003d3d0000c3
:102494003d3d0000436f00006e6e00006563000068
:1024a400742000004f76000065720000546900003b
:1024b4006d650000213d00003d3d00003d3d0000f4
:1024c4003d3d00003d3d00000d0a0000000d0000f0
:1024d4000a3d00003d3d00003d3d00003d3d000043
:1024e4003db60000c1c80000a14900004d450000f0
:1024f400493d00003d3d00003d3d00003d3d0000e4
:102504003d3d00000d0a0000000d00000a3d0000e2
:102514003d3d00003d3d00003d3d00003db6000056
:10252400c1c80000a1d00000c7c90000c14d00000f
:10253400414300003d3d00003d3d00003d3d0000a5
:102544003d3d00003d0d00000a0000000d0a0000a2
:102554003d3d00002049000052200000436c000073
:102564006f73000065640000203d00003d3d0000e5
:102574000d0a0000000d00000a3d00003d2000008f
:1025840049520000204300006c6f00007365000096
:10259400204f00007665000072200000546900009e
:1025a4006d650000203d00003d3d00000d0a000067
:1025b400000d00000a3d00003d20000043750000ae
:1025c40072720000656e0000742000002564000033
:1025d400203d00002025000064200000754100001b
:1025e4003d3d00000d0a0000000d00000a3d000002
:1025f4003d43000075720000726500006e740000b7
:10260400203d0000202500006420000075410000ea
:102614003d3d00000d0a0000000d00000a3d0000d1
:102624003d20000043680000656300006b2000004b
:10263400486900006768000020460000696e0000d9
:1026440069730000682000003d3d00003d0d00005e
:102654000a0000000d0a00003d3d00002043000078
:1026640068650000636b0000204800006967000093
:10267400682000004f7600006572000020540000be
:10268400696d0000652000003d3d00003d0d000027
:102694000a0000000d0a00003d3d00002043000038
:1026a40068650000636b0000204c00006f77000039
:1026b40020460000696e0000697300006820000075
:1026c4003d3d00003d0d00000a0000000d0a000021
:1026d4003d3d00002043000068650000636b00007e
:1026e400204c00006f770000204f0000766500004a
:1026f40072540000696d0000652000003d3d00003b
:102704003d0d00000a0000000d0a00003d3d0000e0
:102714003d3d00003d3d00003d3d0000bfaa0000de
:10272400b8c70000bcec0000b2e200003d3d000070
:102734003d3d00003d3d00003d3d00003d0d0000dd
:102744000a0000000d0a00002d2d00002d3e00009f
:102754003e3e0000566100006c76000065200000db
:102764002d200000523100002d31000020450000d2
:10277400727200000d0a0000000d00000a2d000016
:102784002d2d00003e3e00003e560000616c00000e
:1027940076650000202d000020420000312d00004d
:1027a4003020000045720000720d00000a00000095
:1027b4000d0a00002d2d00002d3e00003e3e0000bd
:1027c400566100006c760000652000002d2000009a
:1027d400523100002d3000002045000072720000cc
:1027e4000d0a0000000d00000a2d00002d2d000030
:1027f4003e3e00003e560000616c0000766500001d
:10280400202d000020420000312d00003120000066
:1028140045720000720d00000a0000000d0a00005d
:102824002d2d00002d3e00003e3e000049430000d7
:102834002043000061720000642000002d2000008d
:10284400534400004120000045720000720d000056
:102854000a0000000d0a00002d2d00002d3e00008e
:102864003e3e000049430000204300006172000026
:10287400642000002d200000534300004c20000081
:1028840045720000720d00000a0000000d0a0000ed
:102894002d2d00002d3e00003e3e00004943000067
:1028a4002043000061720000642000002d2000001d
:1028b400525300005420000045720000720d0000c5
:1028c4000a0000000d0a00002d2d00002d3e00001e
:1028d4003e3e0000486100006c6c0000202d0000aa
:1028e40020480000312d0000312000004572000016
:1028f400720d00000a0000000d0a00002d2d0000da
:102904002d3e00003e3e0000486100006c6c00005b
:10291400202d000020480000322d0000302000004f
:1029240045720000720d00000a0000000d0a00004c
:102934002d2d00002d3e00003e3e000048610000a9
:102944006c6c0000202d000020480000312d000098
:102954003020000045720000720d00000a000000e3
:102964000d0a00002d2d00002d3e00003e3e00000b
:10297400486100006c6c0000202d0000204800001d
:10298400322d00003120000045720000720d00005d
:102994000a0000000d0a00002d2d00002d3e00004d
:1029a4003e3e0000494300002043000061720000e5
:1029b400642000002d200000584200002045000043
:1029c400727200000d0a0000000d00000a2d0000c4
:1029d4002d2d00003e3e00003e4900004320000033
:1029e4004361000072640000202d000020450000b7
:1029f400525200002d3100002020000045720000da
:102a0400720d00000a0000000d0a00002d2d0000c8
:102a14002d3e00003e3e00004943000020430000dc
:102a240061720000642000002d2000004552000067
:102a3400522d00003020000020450000727200007a
:102a44000d0a0000000000000d0a00003d3d0000da
:102a54003d3d00003d3d00003d3d0000baec00005e
:102a6400cde20000bdd30000cad50000cafd0000bd
:102a7400bedd0000b3c90000b9a60000213d00007e
:102a84003d3d00003d3d00003d3d00003d3d00005a
:102a94000d0a0000000d00000aba0000eccd000091
:102aa400e2b70000a2cb0000cda30000bab2000040
:102ab400e2ca0000d4b00000e52d00002d3e000065
:102ac400d6f70000bfd80000b0e5000020a1000048
:102ad400fda10000fda10000fda30000ba0d00004f
:102ae4000a0000000d0a0000baec0000cde200006c
:102af400bdd30000cad50000a3ba0000d6f7000079
:102b0400bfd80000b0e500002d2d00003eb200004b
:102b1400e2ca0000d4b00000e5200000a1fc0000df
:102b2400a1fc0000a1fc0000a3ba00000d0a0000f3
:102b3400000000000d0a000020b20000e9d10000ee
:102b4400afbd0000e1b90000fb3200002e2e0000f2
:102b54002e0d0000000d00000a200000b2e9000064
:102b6400d1af0000bde10000b9fb0000312e000030
:102b74002e2e00000d0a0000000d00000a200000a7
:102b8400c6f40000b6af0000b2e20000cad40000f0
:102b9400312e00002e2e00000d0a0000000d000052
:102ba4000ab20000e2ca0000d4b00000e52d000023
:102bb4002d3e0000c9cf0000cebb0000a1fc0000e8
:102bc400a1fc0000a1fc0000a3ba00000d0a000053
:102bd400000d00000ac90000cfce0000bb2d00008c
:102be4002d3e0000b2e20000cad40000b0e50000af
:102bf400a1fd0000a1fd0000a1fd0000a3ba00009a
:102c04000d0a0000000000000d0a0000b2e20000fe
:102c1400cad40000b0e500002d2d00003ed600000f
:102c2400f7bf0000d8b00000e5a10000fda100003e
:102c3400fda10000fda30000ba0d00000a00000081
:102c44000d0a0000d6f70000bfd80000b0e5000070
:102c54002d2d00003eb20000e2ca0000d4b00000f6
:102c6400e5a10000fca10000fca10000fca3000001
:102c7400ba0d00000a0000000d0a0000b5f70000bc
:102c8400cad40000c3fc0000c1ee0000a1fd000096
:102c9400a1fd0000a1fd0000a3ba00000d0a000080
:102ca400000000000d0a000020cf0000b5cd000098
:102cb400b3c60000f4b60000af3200002e2e0000b0
:082cc4002e0d00000a000000c3
:020000040000fa
:102ccc000200fa00004f78000080fa0000000600b5
:102cdc000000fa000080fa00000006003600f80040
:102cec00809fbe00829fbe00849fbe00869fbe0058
:102cfc000000fa008660a90065c0bf000044b20065
:102d0c000004e00006003200cbc2bf00704060003f
:102d1c000004e00002003a0020e8800000000100fe
:102d2c0090ec80000000e80090ec88000080fa0035
:102d3c004f03be004f02be004f01be004f00be004d
:102d4c003600f900004006003600f800809fbe00f7
:102d5c00829fbe00849fbe00869fbe000000fa00ca
:102d6c008400a90030e880000000010090ec800095
:102d7c000000e80090ec88000080fa004f03be00d1
:102d8c004f02be004f01be004f00be003600f900de
:102d9c00004006003600f800809fbe00829fbe00f7
:102dac00849fbe00869fbe000000fa008680a900aa
:102dbc0040e880000000010090ec80000000e8007a
:102dcc0090ec88000080fa004f03be004f02be005a
:102ddc004f01be004f00be003600f9000040060057
:102dec003600f800809fbe00829fbe00849fbe000c
:102dfc00869fbe000000fa0087a0a90050e8800062
:102e0c000000010090ec80000000e80090ec8800cd
:102e1c000080fa004f03be004f02be004f01be00ff
:102e2c004f00be003600f900004006003600f800e6
:102e3c00809fbe00829fbe00849fbe00869fbe0006
:102e4c000000fa008aa0a90060e8800000000100e0
:102e5c0090ec80000000e80090ec88000080fa0004
:102e6c004f03be004f02be004f01be004f00be001c
:102e7c003600f900004006003600f800809fbe00c6
:102e8c00829fbe00849fbe00869fbe000000fa0099
:102e9c008ac0a90070e880000000010090ec80005e
:102eac000000e80090ec88000080fa004f03be00a0
:102ebc004f02be004f01be004f00be003600f900ad
:102ecc00004006000400fa00004f7800110798003b
:102edc000080fa00000006000400fa00004f7800a1
:102eec00110798000080fa00000006000400fa00a8
:102efc00004f7800110798000080fa0000000600cf
:102f0c000400fa00004f7800110798000080fa00c6
:102f1c00000006000400fa00004f7800110798002a
:102f2c000080fa00000006000400fa00004f780050
:102f3c00110798000080fa00000006000400fa0057
:102f4c00004f7800110798000080fa00000006007e
:102f5c000400fa00004f7800110798000080fa0076
:102f6c0000000600801f78000000fa0052c2bf006b
:102f7c00624060000004e000010032005222a9000f
:102f8c008e20a9000080fa004f0078000040060057
:102f9c003600f800809fbe00829fbe00849fbe005a
:102fac00869fbe000400fa008560a90000e22400a0
:102fbc00000f78001ef707000004e00004003a0040
:102fcc001e0fe9000080eb009e0f1000f9ff3a0085
:102fdc00301180002047980081e880002e4090003e
:102fec00010001002e4090008080fb0090ec8000de
:102ffc000080400090ec88000080fa004f03be0077
:10300c004f02be004f01be004f00be003600f9005b
:10301c00004006003600f800809fbe00829fbe0074
:10302c00849fbe00869fbe000400fa0087c0a900e2
:10303c0000e22400000f780000f707000004e00015
:10304c0004003a001e0fe9000080eb009e0f1000f8
:10305c00f9ff3a00b01180002047980091e88000f9
:10306c002e409000010001002e4090008080fb005b
:10307c0090ec80000080400090ec88000080fa000a
:10308c004f03be004f02be004f01be004f00be00fa
:10309c003600f900004006003600f800809fbe00a4
:1030ac00829fbe00849fbe00869fbe000400fa0073
:1030bc008e40a90000e22400000f7800e2f6070021
:1030cc000004e00004003a001e0fe9000080eb0051
:1030dc009e0f1000f9ff3a00b012800020479800b4
:1030ec00a1e880002e409000010001002e409000cd
:1030fc008080fb0090ec80000080400090ec880009
:10310c000080fa004f03be004f02be004f01be000c
:10311c004f00be003600f900004006003600f800f3
:10312c00809fbe00829fbe00849fbe00869fbe0013
:10313c000400fa008f00a90000e22400000f7800c0
:10314c00c4f607000004e00004003a001e0fe9007a
:10315c000080eb009e0f1000f9ff3a00b0158000c4
:10316c0020479800b1e880002e409000010001003b
:10317c002e4090008080fb0090ec8000008040008e
:10318c0090ec88000080fa004f03be004f02be0096
:10319c004f01be004f00be003600f9000040060093
:1031ac000800fa00200798006000b800008fbe00ed
:1031bc0000092d0031002000008fbe002e00900071
:1031cc00300798003e019000e30f51002f003200b1
:1031dc00be019000e38f510007003e003e009000be
:1031ec00e10f5000170032003e019000e10f51003a
:1031fc001d003e000a003700be019000e58f510013
:10320c00340032003e009000e50f500028003900d9
:10321c003e019000e80f5100370032003e003700ad
:10322c001e00be00024b200003002000abf707007d
:10323c000081eb008081eb00021f400003974800e7
:10324c00350037001e00be0002962000030020004f
:10325c00a2f707000081eb008081eb00021f400009
:10326c00039748002c0037001e00be00022c2100e2
:10327c000300200099f707000081eb008081eb0030
:10328c00021f400003974800230037001e00be00b9
:10329c00025822000300200090f707000081eb0089
:1032ac008081eb00021f4000039748001a00370092
:1032bc001e00be0002b024000300200087f70700a8
:1032cc000081eb008081eb00021f40000397480057
:1032dc00110037001e00be00026029000300200010
:1032ec007ef707000081eb008081eb00021f40009d
:1032fc0003974800080037001e00be0042422f0012
:10330c000300200075f707000081eb008081eb00c3
:10331c00021f4000039748001e0078000080fa004e
:10332c00000006000e00fa004007980051079800b4
:10333c00620798000000eb00300798000000eb00db
:10334c00200798000000eb00100798000000eb002d
:10335c00000f7800be009000000028000080700074
:10336c00300798004e009000100090006300600041
:10337c000000e00007003a004e0090009000900022
:10338c000003200000806000f00f500001003a00a4
:10339c002d0037004e00900010009000630060007c
:1033ac00e10f50000a003a004e009000900090008f
:1033bc000003200000806000f00f500004003a0071
:1033cc003e0090000020a000300798001e0037003f
:1033dc004e0090001000900063006000e20f50005f
:1033ec000a003a004e00900090009000000320006c
:1033fc0000806000f00f500004003a003e00900086
:10340c000010a000300798000f0037004e0090000d
:10341c0010009000630060000000e0000a003a0019
:10342c004e0090009000900000032000808060000f
:10343c0000022000808f500003003a003e009000f4
:10344c006000b300300798004e0090001000900010
:10345c006c006000e40f500001003a0008003700d7
:10346c004e009000100090006c006000e80f5000bf
:10347c0003003a003e0090000000a00030079800c6
:10348c009e00900000402000008070001007980003
:10349c004e0090001000780041ff0700000f7800ec
:1034ac0026f50700b00020003cf507001e0178004f
:1034bc009e0090003e009000e9f507006e00900021
:1034cc0080e888000080fa00000006000c00fa007a
:1034dc003007980041079800520798000000eb0055
:1034ec00200798000000eb00100798000000eb008c
:1034fc00000f7800ae0090000000280000807000e3
:10350c00200798003e0090001000900063006000bf
:10351c000000e00007003a003e0090009000900090
:10352c000003200000806000f00f500001003a0002
:10353c002d0037003e0090001000900063006000ea
:10354c00e10f50000a003a003e00900090009000fd
:10355c000003200000806000f00f500004003a00cf
:10356c002e0090000020a000200798001e003700bd
:10357c003e0090001000900063006000e20f5000cd
:10358c000a003a003e0090009000900000032000da
:10359c0000806000f00f500004003a002e009000f4
:1035ac000010a000200798000f0037003e0090008c
:1035bc0010009000630060000000e0000a003a0078
:1035cc003e0090009000900000032000808060007e
:1035dc0000022000808f500003003a002e00900063
:1035ec006000b300200798003e009000100090008f
:1035fc006c006000e40f500001003a000800370036
:10360c003e009000100090006c006000e80f50002d
:10361c0003003a002e0090000000a0002007980044
:10362c009e00900000402000008070001007980061
:10363c003e00900010007800d9fe0700000f7800c3
:10364c00c4f40700b0002000fff407001e0178004e
:10365c009e0090002e0090008bf507005e009000fd
:10366c0090e888000080fa00000006000c00fa00c8
:10367c003007980041079800520798000000eb00b3
:10368c00200798000000eb00100798000000eb00ea
:10369c00000f7800ae009000000028000080700041
:1036ac00200798003e00900010009000630060001e
:1036bc000000e00007003a003e00900090009000ef
:1036cc000003200000806000f00f500001003a0061
:1036dc002d0037003e009000100090006300600049
:1036ec00e10f50000a003a003e009000900090005c
:1036fc000003200000806000f00f500004003a002e
:10370c002e0090000020a000200798001e0037001b
:10371c003e0090001000900063006000e20f50002b
:10372c000a003a003e009000900090000003200038
:10373c0000806000f00f500004003a002e00900052
:10374c000010a000200798000f0037003e009000ea
:10375c0010009000630060000000e0000a003a00d6
:10376c003e009000900090000003200080806000dc
:10377c0000022000808f500003003a002e009000c1
:10378c006000b300200798003e00900010009000ed
:10379c006c006000e40f500001003a000800370094
:1037ac003e009000100090006c006000e80f50008c
:1037bc0003003a002e0090000000a00020079800a3
:1037cc009e009000004020000080700010079800c0
:1037dc003e0090001000780071fe0700000f78008a
:1037ec0062f40700b0002000c0f407001e0178004e
:1037fc009e0090002e0090002df507005e009000ba
:10380c00a0e888000080fa00000006000c00fa0016
:10381c003007980041079800520798000000eb0011
:10382c00200798000000eb00100798000000eb0048
:10383c00000f7800ae00900000002800008070009f
:10384c00200798003e00900010009000630060007c
:10385c000000e00007003a003e009000900090004d
:10386c000003200000806000f00f500001003a00bf
:10387c002d0037003e0090001000900063006000a7
:10388c00e10f50000a003a003e00900090009000ba
:10389c000003200000806000f00f500004003a008c
:1038ac002e0090000020a000200798001e0037007a
:1038bc003e0090001000900063006000e20f50008a
:1038cc000a003a003e009000900090000003200097
:1038dc0000806000f00f500004003a002e009000b1
:1038ec000010a000200798000f0037003e00900049
:1038fc0010009000630060000000e0000a003a0035
:10390c003e0090009000900000032000808060003a
:10391c0000022000808f500003003a002e0090001f
:10392c006000b300200798003e009000100090004b
:10393c006c006000e40f500001003a0008003700f2
:10394c003e009000100090006c006000e80f5000ea
:10395c0003003a002e0090000000a0002007980001
:10396c009e0090000040200000807000100798001e
:10397c003e0090001000780009fe0700000f780050
:10398c0000f40700b000200081f407001e0178004d
:10399c009e0090002e009000cff407005e00900077
:1039ac00b0e888000080fa00000006000000fa0071
:1039bc0021e2a8009580a8000080fa000000060013
:1039cc000000fa0021e2a9009580a9000080fa000d
:1039dc00000006000000fa0021e2a8009560a80093
:1039ec000080fa00000006000000fa0021e2a900a5
:1039fc009560a9000080fa00000006000000fa00a3
:103a0c0031e2a80097e0a8000080fa000000060050
:103a1c000000fa0031e2a90097e0a9000080fa004a
:103a2c00000006000000fa0031e2a80097c0a800d0
:103a3c000080fa00000006000000fa0031e2a90044
:103a4c0097c0a9000080fa00000006000000fa00f0
:103a5c0051e2a8009e60a8000080fa000000060059
:103a6c000000fa0051e2a9009e60a9000080fa0053
:103a7c00000006000000fa0051e2a8009e40a800d9
:103a8c000080fa00000006000000fa0051e2a900d4
:103a9c009e40a9000080fa00000006000000fa0019
:103aac00b1e2a8009f20a8000080fa0000000600e8
:103abc000000fa00b1e2a9009f20a9000080fa00e2
:103acc00000006000000fa00b1e2a8009f00a80068
:103adc000080fa00000006000000fa00b1e2a90024
:103aec009f00a9000080fa00000006000600fa0002
:103afc0010079800210798001400370000e22400fa
:103b0c00000f78007df307000004e0000400320091
:103b1c001e0fe9000080eb009e0f1000f9ff3a0029
:103b2c001e009000104078008080fb001e0090006a
:103b3c000000e80010079800010078008af40700e4
:103b4c002e0090000000e900200798002e00900045
:103b5c000000e000e9ff3a0000e22400000f7800ca
:103b6c0066f307000004e000040032001e0fe900b9
:103b7c000080eb009e0f1000f9ff3a000080fa0065
:103b8c00000006000600fa001007980021079800b4
:103b9c001400370000e22400000f78005bf30700ec
:103bac000004e000040032001e0fe9000080eb006e
:103bbc009e0f1000f9ff3a001e0090001040780094
:103bcc008080fb001e0090000000e80010079800a9
:103bdc00010078006cf407002e0090000000e90052
:103bec00200798002e0090000000e000e9ff3a004a
:103bfc0000e22400000f780044f307000004e0000a
:103c0c00040032001e0fe9000080eb009e0f100034
:103c1c00f9ff3a000080fa00000006000600fa00e6
:103c2c0010079800210798001400370000e22400c8
:103c3c00000f780039f307000004e00004003200a4
:103c4c001e0fe9000080eb009e0f1000f9ff3a00f8
:103c5c001e009000104078008080fb001e00900039
:103c6c000000e80010079800010078004ef40700ef
:103c7c002e0090000000e900200798002e00900014
:103c8c000000e000e9ff3a0000e22400000f780099
:103c9c0022f307000004e000040032001e0fe900cc
:103cac000080eb009e0f1000f9ff3a000080fa0034
:103cbc00000006000600fa00100798002107980083
:103ccc001400370000e22400000f780017f30700ff
:103cdc000004e000040032001e0fe9000080eb003d
:103cec009e0f1000f9ff3a001e0090001040780063
:103cfc008080fb001e0090000000e8001007980078
:103d0c0001007800f5f207002e0090000000e90099
:103d1c00200798002e0090000000e000e9ff3a0018
:103d2c0000e22400000f780000f307000004e0001c
:103d3c00040032001e0fe9000080eb009e0f100003
:103d4c00f9ff3a000080fa00000006000000fa00bb
:103d5c0000000000000000000040fe000000000019
:103d6c00000000000080fa00000006000000fa00cd
:103d7c000080fa00000006000000fa000080fa0043
:103d8c00000006000000fa00000000000000000027
:103d9c000000fe0000000000000000000000000019
:103dac000080fa00000006000000fa000080fa0013
:103dbc00000006000000fa000060fe000080fa001f
:103dcc00000006000200fa003174200091407800d7
:103ddc00f0c8b30000c0600043e7b70031742000a6
:103dec009140780080cfb30000c0600043e7b7007b
:103dfc004207a9004227a8004247a90081e0a80079
:103e0c004187a8000000eb00000f7800010037008c
:103e1c001e0fe800f07c20009e0f1000fcff340009
:103e2c000080fa00000006000000fa008805a800d7
:103e3c008c25a8008c05a8008e45a8008dc5a8006f
:103e4c008e05a8008b65a8008b45a8008b25a800c3
:103e5c008b05a8008ae5a8008da5a8008d85a80073
:103e6c008ac5a8008aa5a8008a85a8008d65a80027
:103e7c008a05a80089e5a80089c5a80089a5a8001d
:103e8c0085a5a90084c5a90041582000914078005f
:103e9c0070ceb30000c060000034a00084e5b70011
:103eac00415820009140780080cfb30000c06000e2
:103ebc003040b30084e5b70086e5a90086c5a900ab
:103ecc00615820009140780000cfb30000c0600022
:103edc003040b30086e5b70083e5a80031582000d8
:103eec009140780070ccb30000c0600083e5b7004f
:103efc0082c5bf00f043b20082e5b7002158200014
:103f0c0091407800f0ccb30000c060000044a000e9
:103f1c0082e5b700215820009140780080cfb30093
:103f2c0000c0600082e5b7008305a9008325a900c5
:103f3c008345a9000080fa00000006000000fa008a
:103f4c0085e5a8000080fa00000006000000fa00d9
:103f5c0085e5a9000080fa00000006000200fa00c6
:103f6c000000eb00000f7800040037001e00780002
:103f7c0080c0eb00130007001e0fe800400120007a
:103f8c009e0f1000f9ff34000080fa0000000600bc
:103f9c000200fa000000eb00000f7800040037006c
:103fac001e0078008040eb00060007001e0fe800a2
:103fbc00400120009e0f1000f9ff34000080fa0031
:103fcc00000006000600fa00004f78001147980028
:103fdc001e80fb006101b9001207980023079800ae
:103fec0040012000010020001e019000ae01900055
:103ffc00800f5100818f5900c6033e001e009000b7
:10400c00ae00900000600100140037003e00370045
:10401c006c00370096003700c4003700f200370000
:10402c001c0137004a01370078013700a601370020
:10403c00d0013700f2013700200237004e02370062
:10404c007c023700aa023700d8023700020337007f
:10405c002403370052033700800337001e409000c2
:10406c00614060006141600001592000914078007e
:10407c00e0cfb30000c060000240700090e5b700d4
:10408c001e4090000080fb000000d10061406000e9
:10409c00614160008159200091407800e0cfb3006d
:1040ac0000c060000240700098e5b7001e40900010
:1040bc000080fb004200de00614060006141600056
:1040cc00015a200091407800e0cfb30000c060009e
:1040dc0002407000a0e5b7001e4090000080fb007d
:1040ec004300de006140600061416000815a2000a5
:1040fc0091407800e0cfb30000c060000240700037
:10410c00a8e5b700830337001e40900061406000b3
:10411c00614060000041400041592000914078000e
:10412c00d0cfb30000c060000240700094e5b7002f
:10413c001e4090000080fb000000d1006140600038
:10414c006140600000414000c1592000914078005e
:10415c00d0cfb30000c06000024070009ce5b700f7
:10416c001e4090000080fb004200de0061406000b9
:10417c006140600000414000415a200091407800ad
:10418c00d0cfb30000c0600002407000a4e5b700bf
:10419c001e4090000080fb004300de006140600088
:1041ac006140600000414000c15a200091407800fd
:1041bc00d0cfb30000c0600002407000ace5b70087
:1041cc00540337001e409000614060006141600064
:1041dc004159200091407800e0cfb30000c060004e
:1041ec000240700094e5b7001e4090000080fb0078
:1041fc000000d1006140600061416000c1592000a5
:10420c0091407800e0cfb30000c060000240700025
:10421c009ce5b7001e4090000080fb004200de00d1
:10422c006140600061416000415a2000914078007b
:10423c00e0cfb30000c0600002407000a4e5b700fe
:10424c001e4090000080fb004300de0061406000d7
:10425c0061416000c15a200091407800e0cfb3006a
:10426c0000c0600002407000ace5b70029033700c5
:10427c001e40900061406000614060004201dd0022
:10428c006159200091407800b0cfb30000c06000ad
:10429c000240700096e5b7001e4090000080fb00c5
:1042ac000000d10061406000614060004201dd000f
:1042bc00e159200091407800b0cfb30000c06000fd
:1042cc00024070009ee5b7001e4090000080fb008d
:1042dc004200de0061406000614060004201dd0090
:1042ec00615a200091407800b0cfb30000c060004c
:1042fc0002407000a6e5b7001e4090000080fb0055
:10430c004300de0061406000614060004201dd005e
:10431c00e15a200091407800b0cfb30000c060009b
:10432c0002407000aee5b700fa0237001e40900064
:10433c0061406000614060004601dd005159200081
:10434c0091407800f0cbb30000c0600002407000d8
:10435c0095e5b7001e4090000080fb000000d100e6
:10436c0061406000614060004601dd00d1592000d1
:10437c0091407800f0cbb30000c0600002407000a8
:10438c009de5b7001e4090000080fb004200de005f
:10439c0061406000614060004601dd00515a200020
:1043ac0091407800f0cbb30000c060000240700078
:1043bc00a5e5b7001e4090000080fb004300de0026
:1043cc0061406000614060004601dd00d15a200070
:1043dc0091407800f0cbb30000c060000240700048
:1043ec00ade5b700cb0237001e4090006140600085
:1043fc00614160006159200091407800e0cfb3002a
:10440c0000c060000240700096e5b7001e409000ae
:10441c000080fb000000d100614060006141600041
:10442c00e159200091407800e0cfb30000c060005b
:10443c00024070009ee5b7001e4090000080fb001b
:10444c004200de006140600061416000615a200062
:10445c0091407800e0cfb30000c0600002407000d3
:10446c00a6e5b7001e4090000080fb004300de0074
:10447c006140600061416000e15a20009140780089
:10448c00e0cfb30000c0600002407000aee5b700a2
:10449c00a00237001e409000614060006140600047
:1044ac004301dd00315920009140780070cfb300fa
:1044bc0000c060000240700093e5b7001e40900001
:1044cc000080fb000000d100614060006140600092
:1044dc004301dd00b15920009140780070cfb3004a
:1044ec0000c06000024070009be5b7001e409000c9
:1044fc000080fb004200de00614060006140600013
:10450c004301dd00315a20009140780070cfb30098
:10451c0000c0600002407000a3e5b7001e40900090
:10452c000080fb004300de006140600061406000e1
:10453c004301dd00b15a20009140780070cfb300e8
:10454c0000c0600002407000abe5b700710237009c
:10455c001e40900061406000614060004201dd003f
:10456c003159200091407800b0cfb30000c06000fa
:10457c000240700093e5b7001e4090000080fb00e5
:10458c000000d10061406000614060004201dd002c
:10459c00b159200091407800b0cfb30000c060004a
:1045ac00024070009be5b7001e4090000080fb00ad
:1045bc004200de0061406000614060004201dd00ad
:1045cc00315a200091407800b0cfb30000c0600099
:1045dc0002407000a3e5b7001e4090000080fb0075
:1045ec004300de0061406000614060004201dd007c
:1045fc00b15a200091407800b0cfb30000c06000e9
:10460c0002407000abe5b700420237001e4090003c
:10461c006140600061406000004140003159200061
:10462c0091407800d0cfb30000c060000240700011
:10463c0093e5b7001e4090000080fb000000d10005
:10464c00614060006140600000414000b1592000b1
:10465c0091407800d0cfb30000c0600002407000e1
:10466c009be5b7001e4090000080fb004200de007e
:10467c00614060006140600000414000315a200000
:10468c0091407800d0cfb30000c0600002407000b1
:10469c00a3e5b7001e4090000080fb004300de0045
:1046ac00614060006140600000414000b15a200050
:1046bc0091407800d0cfb30000c060000240700081
:1046cc00abe5b700130237001e409000614060005c
:1046dc00614160003159200091407800e0cfb30077
:1046ec0000c060000240700093e5b7001e409000cf
:1046fc000080fb000000d10061406000614160005f
:10470c00b159200091407800e0cfb30000c06000a8
:10471c00024070009be5b7001e4090000080fb003b
:10472c004200de006140600061416000315a2000af
:10473c0091407800e0cfb30000c0600002407000f0
:10474c00a3e5b7001e4090000080fb004300de0094
:10475c006140600061416000b15a200091407800d6
:10476c00e0cfb30000c0600002407000abe5b700c2
:10477c00e80137001e40900061406000c700dd007a
:10478c0092c5bf000074a1000140700092e5b70013
:10479c001e4090000080fb000000d10061406000d2
:1047ac00c700dd009ac5bf000074a1000140700075
:1047bc009ae5b7001e4090000080fb004200de002e
:1047cc0061406000c700dd00a2c5bf000074a100fd
:1047dc0001407000a2e5b7001e4090000080fb0075
:1047ec004300de0061406000c700dd00aac5bf00c9
:1047fc000074a10001407000aae5b700c5013700a4
:10480c001e40900061406000614060004501dd0089
:10481c005159200091407800f0cdb30000c06000e9
:10482c000240700095e5b7001e4090000080fb0030
:10483c000000d10061406000614060004501dd0076
:10484c00d159200091407800f0cdb30000c0600039
:10485c00024070009de5b7001e4090000080fb00f8
:10486c004200de0061406000614060004501dd00f7
:10487c00515a200091407800f0cdb30000c0600088
:10488c0002407000a5e5b7001e4090000080fb00c0
:10489c004300de0061406000614060004501dd00c6
:1048ac00d15a200091407800f0cdb30000c06000d8
:1048bc0002407000ade5b700960137001e40900035
:1048cc0061406000614060004401dd0051592000ee
:1048dc0091407800f0ceb30000c060000240700040
:1048ec0095e5b7001e4090000080fb000000d10051
:1048fc0061406000614060004401dd00d15920003e
:10490c0091407800f0ceb30000c06000024070000f
:10491c009de5b7001e4090000080fb004200de00c9
:10492c0061406000614060004401dd00515a20008c
:10493c0091407800f0ceb30000c0600002407000df
:10494c00a5e5b7001e4090000080fb004300de0090
:10495c0061406000614060004401dd00d15a2000dc
:10496c0091407800f0ceb30000c0600002407000af
:10497c00ade5b700670137001e4090006140600054
:10498c00614060004601dd00215920009140780013
:10499c00f0cbb30000c060000240700092e5b7009d
:1049ac001e4090000080fb000000d10061406000c0
:1049bc00614060004601dd00a15920009140780063
:1049cc00f0cbb30000c06000024070009ae5b70065
:1049dc001e4090000080fb004200de006140600041
:1049ec00614060004601dd00215a200091407800b2
:1049fc00f0cbb30000c0600002407000a2e5b7002d
:104a0c001e4090000080fb004300de00614060000f
:104a1c00614060004601dd00a15a20009140780001
:104a2c00f0cbb30000c0600002407000aae5b700f4
:104a3c00380137001e40900061406000614060000a
:104a4c004501dd002159200091407800f0cdb300e4
:104a5c0000c060000240700092e5b7001e4090005c
:104a6c000080fb000000d1006140600061406000ec
:104a7c004501dd00a159200091407800f0cdb30034
:104a8c0000c06000024070009ae5b7001e40900024
:104a9c000080fb004200de0061406000614060006d
:104aac004501dd00215a200091407800f0cdb30083
:104abc0000c0600002407000a2e5b7001e409000ec
:104acc000080fb004300de0061406000614060003c
:104adc004501dd00a15a200091407800f0cdb300d3
:104aec0000c0600002407000aae5b7000901370061
:104afc001e40900061406000614060004401dd0098
:104b0c002159200091407800f0ceb30000c0600025
:104b1c000240700092e5b7001e4090000080fb0040
:104b2c000000d10061406000614060004401dd0084
:104b3c00a159200091407800f0ceb30000c0600075
:104b4c00024070009ae5b7001e4090000080fb0008
:104b5c004200de0061406000614060004401dd0005
:104b6c00215a200091407800f0ceb30000c06000c4
:104b7c0002407000a2e5b7001e4090000080fb00d0
:104b8c004300de0061406000614060004401dd00d4
:104b9c00a15a200091407800f0ceb30000c0600014
:104bac0002407000aae5b700da0037001e40900002
:104bbc006140600061416000215920009140780003
:104bcc00e0cfb30000c060000240700092e5b70077
:104bdc001e4090000080fb000000d100614060008e
:104bec0061416000a159200091407800e0cfb300f2
:104bfc0000c06000024070009ae5b7001e409000b3
:104c0c000080fb004200de006140600061416000fa
:104c1c00215a200091407800e0cfb30000c0600022
:104c2c0002407000a2e5b7001e4090000080fb001f
:104c3c004300de006140600061416000a15a200029
:104c4c0091407800e0cfb30000c0600002407000db
:104c5c00aae5b700af0037001e409000614060002d
:104c6c00c700dd0091c5bf000074a10001407000b9
:104c7c0091e5b7001e4090000080fb000000d100c1
:104c8c0061406000c700dd0099c5bf000074a10041
:104c9c000140700099e5b7001e4090000080fb00b9
:104cac004200de0061406000c700dd00a1c5bf000e
:104cbc000074a10001407000a1e5b7001e409000f7
:104ccc000080fb004300de0061406000c700dd0097
:104cdc00a9c5bf000074a10001407000a9e5b70090
:104cec008c0037001e409000614060006140600005
:104cfc004601dd001159200091407800f0cbb30043
:104d0c0000c060000240700091e5b7001e409000aa
:104d1c000080fb000000d100614060006140600039
:104d2c004601dd009159200091407800f0cbb30092
:104d3c0000c060000240700099e5b7001e40900072
:104d4c000080fb004200de006140600061406000ba
:104d5c004601dd00115a200091407800f0cbb300e1
:104d6c0000c0600002407000a1e5b7001e4090003a
:104d7c000080fb004300de00614060006140600089
:104d8c004601dd00915a200091407800f0cbb30031
:104d9c0000c0600002407000a9e5b7005d0037005c
:104dac001e40900061406000614060004501dd00e4
:104dbc001159200091407800f0cdb30000c0600084
:104dcc000240700091e5b7001e4090000080fb008f
:104ddc000000d10061406000614060004501dd00d1
:104dec009159200091407800f0cdb30000c06000d4
:104dfc000240700099e5b7001e4090000080fb0057
:104e0c004200de0061406000614060004501dd0051
:104e1c00115a200091407800f0cdb30000c0600022
:104e2c0002407000a1e5b7001e4090000080fb001e
:104e3c004300de0061406000614060004501dd0020
:104e4c00915a200091407800f0cdb30000c0600072
:104e5c0002407000a9e5b7002e0037001e409000fc
:104e6c0061406000614060004301dd005159200049
:104e7c009140780070cfb30000c060000240700019
:104e8c0095e5b7001e4090000080fb000000d100ab
:104e9c0061406000614060004301dd00d159200099
:104eac009140780070cfb30000c0600002407000e9
:104ebc009de5b7001e4090000080fb004200de0024
:104ecc0061406000614060004301dd00515a2000e8
:104edc009140780070cfb30000c0600002407000b9
:104eec00a5e5b7001e4090000080fb004300de00eb
:104efc0061406000614060004301dd00d15a200038
:104f0c009140780070cfb30000c060000240700088
:104f1c00ade5b7000080fa00000006000800fa00ba
:104f2c00004f78001e80fb006101b9002207980039
:104f3c003307980040012000010020002e01900052
:104f4c00be019000800f5100818f590049023e0034
:104f5c002e009000be00900000600100140037008d
:104f6c002800370044003700580037007400370021
:104f7c0090003700a4003700c0003700dc00370079
:104f8c00f80037000c0137002401370040013700ce
:104f9c005c0137007801370094013700b00137000d
:104fac00cc013700e0013700f8013700140237005c
:104fbc0090c5bf00614060008040780098c5bf007c
:104fcc00614060000080fb000000400080c0700069
:104fdc00a0c5bf00614060000080fb004200dd0006
:104fec0080c07000a8c5bf00614060000080fb005d
:104ffc004300dd0000c070000080fb00100798002b
:10500c001e02370094c5bf000080fb000000d100d9
:10501c0061406000804078009cc5bf000080fb00b0
:10502c000000d100614060000080fb0000004000e7
:10503c0080c07000a4c5bf000080fb000000d10040
:10504c00614060000080fb004200dd0080c0700009
:10505c00acc5bf000080fb000000d10061406000c7
:10506c000080fb004300dd0000c070000080fb00ee
:10507c00100798000102370094c5bf006140600022
:10508c00804078009cc5bf00614060000080fb0040
:10509c000000400080c07000a4c5bf0061406000eb
:1050ac000080fb004200dd0080c07000acc5bf007a
:1050bc00614060000080fb004300dd0000c0700018
:1050cc000080fb0010079800ec01370096c5bf006c
:1050dc000080fb004200de006140600080407800f0
:1050ec009ec5bf000080fb004200de0061406000f6
:1050fc000080fb000000400080c07000a6c5bf000f
:10510c000080fb004200de00614060000080fb007c
:10511c004200dd0080c07000aec5bf000080fb0007
:10512c004200de00614060000080fb004300dd00b7
:10513c0000c070000080fb0010079800cf01370002
:10514c0095c5bf000080fb004600de00614060009a
:10515c00804078009dc5bf000080fb004600de004b
:10516c00614060000080fb000000400080c07000c7
:10517c00a5c5bf000080fb004600de00614060005a
:10518c000080fb004200dd0080c07000adc5bf0098
:10519c000080fb004600de00614060000080fb00e8
:1051ac004300dd0000c070000080fb001007980079
:1051bc00b201370096c5bf006140600080407800a6
:1051cc009ec5bf00614060000080fb0000004000f5
:1051dc0080c07000a6c5bf00614060000080fb006d
:1051ec004200dd0080c07000aec5bf0061406000b1
:1051fc000080fb004300dd0000c070000080fb005d
:10520c00100798009d01370093c5bf000080fb007c
:10521c004300de0061406000804078009bc5bf0009
:10522c000080fb004300de00614060000080fb005a
:10523c000000400080c07000a3c5bf000080fb00d0
:10524c004300de00614060000080fb004200dd0096
:10525c0080c07000abc5bf000080fb004300de00c7
:10526c00614060000080fb004300dd0000c0700066
:10527c000080fb00100798008001370093c5bf0029
:10528c000080fb004200de0061406000804078003e
:10529c009bc5bf000080fb004200de006140600047
:1052ac000080fb000000400080c07000a3c5bf0060
:1052bc000080fb004200de00614060000080fb00cb
:1052cc004200dd0080c07000abc5bf000080fb0059
:1052dc004200de00614060000080fb004300dd0006
:1052ec0000c070000080fb001007980063013700bd
:1052fc0093c5bf000080fb000000d100614060003e
:10530c00804078009bc5bf000080fb000000d100ee
:10531c00614060000080fb000000400080c0700015
:10532c00a3c5bf000080fb000000d10061406000fd
:10533c000080fb004200dd0080c07000abc5bf00e8
:10534c000080fb000000d100614060000080fb0089
:10535c004300dd0000c070000080fb0010079800c7
:10536c004601370093c5bf00614060008040780063
:10537c009bc5bf00614060000080fb000000400046
:10538c0080c07000a3c5bf00614060000080fb00be
:10539c004200dd0080c07000abc5bf006140600002
:1053ac000080fb004300dd0000c070000080fb00ab
:1053bc00100798003101370092c5bf000080fb0038
:1053cc004700de00804078009ac5bf000080fb00db
:1053dc004700de000080fb000000400080c0700031
:1053ec00a2c5bf000080fb004700de000080fb0070
:1053fc004200dd0080c07000aac5bf000080fb0029
:10540c004700de000080fb004300dd0000c07000a0
:10541c000080fb00100798001801370095c5bf00ed
:10542c000080fb004500de00614060008040780099
:10543c009dc5bf000080fb004500de0061406000a0
:10544c000080fb000000400080c07000a5c5bf00bc
:10545c000080fb004500de00614060000080fb0026
:10546c004200dd0080c07000adc5bf000080fb00b5
:10547c004500de00614060000080fb004300dd0061
:10548c0000c070000080fb0010079800fb00370084
:10549c0095c5bf000080fb004400de006140600049
:1054ac00804078009dc5bf000080fb004400de00fa
:1054bc00614060000080fb000000400080c0700074
:1054cc00a5c5bf000080fb004400de006140600009
:1054dc000080fb004200dd0080c07000adc5bf0045
:1054ec000080fb004400de00614060000080fb0097
:1054fc004300dd0000c070000080fb001007980026
:10550c00de00370092c5bf000080fb004600de00c5
:10551c0061406000804078009ac5bf000080fb00ad
:10552c004600de00614060000080fb00000040008f
:10553c0080c07000a2c5bf000080fb004600de00ea
:10554c00614060000080fb004200dd0080c0700004
:10555c00aac5bf000080fb004600de006140600071
:10556c000080fb004300dd0000c070000080fb00e9
:10557c0010079800c100370092c5bf000080fb00e7
:10558c004500de0061406000804078009ac5bf0095
:10559c000080fb004500de00614060000080fb00e5
:1055ac000000400080c07000a2c5bf000080fb005e
:1055bc004500de00614060000080fb004200dd0021
:1055cc0080c07000aac5bf000080fb004500de0053
:1055dc00614060000080fb004300dd0000c07000f3
:1055ec000080fb0010079800a400370092c5bf0094
:1055fc000080fb004400de006140600080407800c9
:10560c009ac5bf000080fb004400de0061406000d2
:10561c000080fb000000400080c07000a2c5bf00ed
:10562c000080fb004400de00614060000080fb0055
:10563c004200dd0080c07000aac5bf000080fb00e6
:10564c004400de00614060000080fb004300dd0090
:10565c0000c070000080fb00100798008700370026
:10566c0092c5bf000080fb000000d10061406000cb
:10567c00804078009ac5bf000080fb000000d1007c
:10568c00614060000080fb000000400080c07000a2
:10569c00a2c5bf000080fb000000d100614060008b
:1056ac000080fb004200dd0080c07000aac5bf0076
:1056bc000080fb000000d100614060000080fb0016
:1056cc004300dd0000c070000080fb001007980054
:1056dc006a00370092c5bf006140600080407800ce
:1056ec009ac5bf00614060000080fb0000004000d4
:1056fc0080c07000a2c5bf00614060000080fb004c
:10570c004200dd0080c07000aac5bf00614060008f
:10571c000080fb004300dd0000c070000080fb0037
:10572c00100798005500370091c5bf000080fb00a2
:10573c004700de008040780099c5bf000080fb0068
:10574c004700de000080fb000000400080c07000bd
:10575c00a1c5bf000080fb004700de000080fb00fd
:10576c004200dd0080c07000a9c5bf000080fb00b6
:10577c004700de000080fb004300dd0000c070002d
:10578c000080fb00100798003c00370091c5bf005b
:10579c000080fb004600de00614060008040780025
:1057ac0099c5bf000080fb004600de006140600030
:1057bc000080fb000000400080c07000a1c5bf004d
:1057cc000080fb004600de00614060000080fb00b2
:1057dc004200dd0080c07000a9c5bf000080fb0046
:1057ec004600de00614060000080fb004300dd00ed
:1057fc0000c070000080fb00100798001f003700ed
:10580c0091c5bf000080fb004500de0061406000d8
:10581c008040780099c5bf000080fb004500de0089
:10582c00614060000080fb000000400080c0700000
:10583c00a1c5bf000080fb004500de006140600098
:10584c000080fb004200dd0080c07000a9c5bf00d5
:10585c000080fb004500de00614060000080fb0022
:10586c004300dd0000c070000080fb0010079800b2
:10587c000200370011002000110798001e00900054
:10588c000080fa00000006003600f800809fbe0081
:10589c00829fbe00849fbe00869fbe003200f8002f
:1058ac0000202000900188000200fa008460a9000a
:1058bc000040eb00004f7800070037001e00fb0093
:1058cc008000400080d12100008040001000780052
:1058dc00000001001e4fe8001e04e000f7ff34003a
:1058ec0090ec80000000e80090ec88000080fa004a
:1058fc003200f9004f03be004f02be004f01be0044
:10590c004f00be003600f900004006003600f800db
:10591c00809fbe00829fbe00849fbe00869fbe00fb
:10592c003200f80000202000900188000200fa00ec
:10593c0084e0a9000040eb00004f7800070037001e
:10594c001e00fb0080004000a0d121000080400020
:10595c0010007800000001001e4fe8001e04e0005b
:10596c00f7ff340090ec80000000e80090ec880019
:10597c000080fa003200f9004f03be004f02be0057
:10598c004f01be004f00be003600f900004006007b
:10599c003600f800809fbe00829fbe00849fbe0030
:1059ac00869fbe003200f800002020009001880085
:1059bc000200fa008500a9000040eb00004f7800bf
:1059cc00070037001e00fb0080004000c0d1210002
:1059dc000080400010007800000001001e4fe8001d
:1059ec001e04e000f7ff340090ec80000000e8009b
:1059fc0090ec88000080fa003200f9004f03be00e2
:105a0c004f02be004f01be004f00be003600f90031
:105a1c00004006003600f800809fbe00829fbe004a
:105a2c00849fbe00869fbe003200f800002020003c
:105a3c00900188000200fa008760a9000040eb008a
:105a4c00004f7800070037001e00fb00800040006c
:105a5c00e0d121000080400010007800000001001f
