:020000040000FA
:1000000028190020D9000000E1000000E3000000F2
:1000100000000000000000000000000000000000E0
:10002000000000000000000000000000E5000000EB
:100030000000000000000000E7000000E9000000F0
:10004000EB000000EB000000EB000000EB00000004
:10005000EB000000EB000000EB000000EB000000F4
:10006000EB000000EB00000039460000554700009F
:100070007148000085490000994A0000EB0000002B
:10008000CD300000592B0000EB000000EB00000019
:10009000EB000000EB000000EB000000EB000000B4
:1000A000EB000000EB000000EB000000EB000000A4
:1000B00049070000EB0000009D290000EB00000054
:1000C0000448854600F02EFB00480047755E00009E
:1000D000C046C0462819002004488047044800470D
:1000E000FEE7FEE7FEE7FEE7FEE7FEE7D943000096
:1000F000C100000030B50B4601460020202201243B
:1001000009E00D46D5409D4205D31D469540491B4B
:100110002546954040191546521E002DF1DC30BD94
:1001200070B500242546002801DA01244042002948
:1001300001DA01254942FFF7DDFFAC4200D0404221
:10014000002C00D0494270BDF0B51FB40646002017
:1001500082B005464024019100901BE0019922469F
:100160000F46304600F026FA049A059B801A994102
:1001700010D310461946224600F00CFA361A8F4169
:100180000197224601200021009F00F003FA381851
:100190004D4100902046641E0028DFDC019B009842
:1001A0002946324607B0F0BDF0B51FB486B0002036
:1001B0000090019002900698069980B204900798EA
:1001C000090C02040014114307900027089D0998A8
:1001D00006913E463C4603900398A9B20204000CE7
:1001E000039004982D0C154348430021224600F04B
:1001F000D1F9C719714110340E46402CECDB38465A
:10020000029A00F0C7F9009A019B801800905941AA
:1002100002980191103002904028CCDB00980BB07E
:10022000F0BD03460B439B0703D009E008C9121F2A
:1002300008C0042AFAD203E00B780370401C491C62
:10024000521EF9D27047D2B201E00270401C491E22
:10025000FBD270470022F6E710B513460A46044663
:100260001946FFF7F0FF204610BD0000F0B5074625
:100270000846584087B0C00F049048000E46590009
:1002800040084908BC1A884105D2384631461E4606
:1002900017460B4602465800400810434DD0300D1B
:1002A000039040055900400D490D0590401A0290F9
:1002B000402873DA18030121000B09050843019057
:1002C00004980092002806D01146019A4942002065
:1002D000904100910190029840210A1A01990098DA
:1002E00000F058F905460C466B4607CB00F073F951
:1002F000C0197141039A0E0D0023D71756401A46B4
:100300007A40164344D0049A002A2DD0029A012A3A
:10031000039A15DC1205C01A914101263605001C0E
:100320007141D20F059ED2070093019202962A4690
:10033000234600F070F907B0F0BD38463146FAE7C1
:100340001605234A0F46B218C01AB7410121090504
:10035000001C4F4100187F41114618187941E20FE7
:1003600010436D19644113E0E2076D0815436408FA
:10037000C2071443039A01261205C01A914136059B
:10038000001C7141CE07400830434908C018514154
:100390002A46234600F032F9CDE7FFE70498012210
:1003A0004000C117121A00238B4104983146C4172C
:1003B000381AA141EEE730B40124E407634030BCB1
:1003C00054E730B40124E407614030BC4EE700003C
:1003D0000000E0FFF0B51FB488B00B990998002425
:1003E00048400999C00F490049080991C0070B9975
:1003F0000090490049080B9109990898A6460843BE
:100400001CD00B990A98084318D009980124400081
:10041000420D4800410D099824050003000B2043BC
:1004200009900B980003000B20430B9050181C49B7
:100430004018002201901446104605E000200146B5
:100440000DB0F0BD032801DA034600E003239C460B
:10045000C11A0AAE0AE05F0008ADED5B4F00F75B22
:100460007D430027AA187C41491C5B1E6145F2DDD3
:10047000410004AB5A522104120C0A43240C401CC4
:100480000828DFDB019802900099704601910090E6
:10049000059B049A0799069800F0BDF8D0E7000084
:1004A0000DFCFFFFF0B50C465C4085B0E40FE4079F
:1004B00003944C00002664085900944649080246FB
:1004C0000296224321D062460A431ED06200570D95
:1004D0004A000E032303550D012402462C4924052E
:1004E000781B1B0B360B40182343264361460090B4
:1004F0001C46501AB44103D30098401C009002E0FF
:10050000921800985B41002803DA0020014605B0EC
:10051000F0BD0020012109050746864611E064462A
:100520001D46141BB54106D36546521BB3417446A4
:1005300007430C43A646CD074008490828439218B4
:100540005B4105460D43EAD11046184313D060467F
:10055000194650407140084306D06046101AB34116
:1005600006D20122002306E000220123DB0702E07D
:100570000122D2435310009874460105381C614192
:10058000029C039D0019694100F038F8BFE70000A4
:10059000FD03000010B5202A04DB0146203A9140FB
:1005A000002010BD914020239C1A0346E3401943CC
:1005B000904010BD10B5202A04DB0846203AD040F8
:1005C000002110BD0B46D340D0402024A21A9140F8
:1005D0000843194610BD10B5202A06DBCB17084684
:1005E000203A1041C1170B4306E00B461341D0409F
:1005F0002024A21A91400843194610BD10B5002BC3
:1006000008DA0024401C614192185B411A4301D171
:100610004008400010BDF0B51FB482B005460C0084
:1006200003D0084604F0BAFE02E004F0B7FE203022
:100630000246009021462846FFF7ACFF049B059A2E
:1006400004460F4618431143084314D0184610437C
:100650001BD0009840210A1A18460599FFF7AAFFF7
:1006600005460E46009A05990498FFF793FF084344
:1006700005D0012004E02046394607B0F0BD002037
:10068000C11705430E432C43374300990E98630569
:10069000401A7905E40A00220C43FD0A0A3002D50B
:1006A00000200146E9E70105101969410C9C0D9DE8
:1006B00000196941FFF7A2FFDFE700004A000903C4
:1006C0000123090B1B0519430A4B10B5520D9A4221
:1006D00002DA0020014610BD064B34339A4203DC97
:1006E0009A1AFFF767FF10BD034BD218FFF752FFAE
:1006F00010BD0000FF030000CDFBFFFF10B5002977
:1007000004DB0124E40740428C412146002B04DB3A
:100710001C460123DB075242A341994200D190427B
:1007200010BD0000064C0125064E05E0E36807CC2D
:100730002B430C3C98471034B442F7D3FFF7C4FC6A
:10074000C4650000E465000000BF4148C068C00700
:10075000C00F012148404840002878D000BF3C48E5
:100760000069084048404840002870D000BF012080
:100770003749086100BF37480088002804DD354844
:100780000088401E3349088033480088002804DD73
:1007900031480088401E30490880304800880028D1
:1007A00004DD2E480088401E2C4908802C48008813
:1007B000002804DD2A480088401E2949088029486D
:1007C0000088002804DD27480088401E254908804D
:1007D00024484068002804D022484068401E21492F
:1007E000486020480089002804DD1E480089401E1A
:1007F0001C4908811C480078002804DD1A4800784C
:10080000401E1949087019480088002804DD17485F
:100810000088401E1549088015480088002804DD1E
:1008200013480088401E124908801248008800289A
:1008300004DD10480088401E0E4908800E480088DC
:10084000002804DD0C480088401E0B4908807047D2
:1008500000300140600000206800002008000020F7
:10086000520000208C030020430000205000002094
:1008700066000020700000207200002010B502F019
:100880006FFD02F05DFD00F003F800F009F810BD07
:1008900008B5022000901C21684601F0C7FC08BD85
:1008A00000BF04480068012108430249086000BFF6
:1008B0007047000000300140F8B505460E460024A0
:1008C000D8E0B44200DBD6E0201DB04251D8281950
:1008D00004226A4905F01AFA00284AD00020684923
:1008E000088068480078072804D10020654908700E
:1008F0006349088063480078042819D1002700BFA5
:1009000008E0E85D402803DAE85D302800DB03E01A
:10091000781C87B20A2FF4DB00BFE9190F225A486E
:10092000FFF77FFC0020574908705549088000BF39
:100930005448007803281AD1002700BF08E0E85D7A
:10094000402803DAE85D302800DB03E0781C87B23A
:100950000A2FF4DB00BFE9190F224B480F30FFF7D5
:1009600060FC0020474908704549088000BF201DF1
:1009700084B220460E30B04212D828190E224349C4
:1009800005F0C4F900280BD000203D490880012063
:100990003C49087000203A49088020460E3084B255
:1009A00020460830B0421AD828190822384905F0E4
:1009B000ADF9002813D000203149088020460830C6
:1009C0004119142230481E30FFF72BFC02202D491C
:1009D000087000202A4908802046083084B2A01DF3
:1009E000B04232D8281906222A4905F08FF900288A
:1009F0002BD0002022490880A01D285C3038C1B2CD
:100A000021481F30C174C07C0A214843C1B21E482E
:100A10001F30C174C17CE01D285C30380818C1B299
:100A200019481F30C17405201649087016481F3038
:100A3000C07C212807DD14481F30C07C052802DA5D
:100A400000200F490880A01D84B220460E30B0421D
:100A50000ED828190E22104905F058F9002807D0A1
:100A60000020074908800749087020460E3084B2EC
:100A7000601C84B225E700BFF8BD00001301002010
:100A80008C03002045000020D9030020B100002085
:100A9000CB000020F0000020040100207CB503F012
:100AA000A7FB0A2000F078FF002409E00A2000F0EC
:100AB00073FF03F09DFB61006A465052601CC4B294
:100AC000032CF3DB002500241BE060006946085A74
:100AD000C01300280ED06000085A0021C943081A2C
:100AE000401C61006A46505260006946085A281A44
:100AF00085B204E060006946085A401985B2601C5E
:100B0000C4B2032CE1DBE81301280ED1801E401B88
:100B1000401C85B203212846FFF702FB85B2002066
:100B2000C043401B401C85B204E003212846FFF768
:100B3000F7FA85B228467CBD10B50821014801F0BE
:100B400087F810BD000D004010B508480078002857
:100B500002D0012806D102E0FFF7EEFF03E002F029
:100B600003FF00E000BF00BF10BD000049000020EF
:100B700010B50821014801F065F810BD000D0040D6
:100B800010B508480078002802D0012806D102E0FC
:100B9000FFF7EEFF03E002F0EFFE00E000BF00BF52
:100BA00010BD00004900002070B5054608480570DA
:100BB000FFF7E6FFFFF772FF0446FFF7C5FF232CA0
:100BC00002DD2046233884B22646304670BD000040
:100BD0004900002070B5044600257D208001844234
:100BE00000D970BD1249081B0621FFF783FA05469C
:100BF000A8021049FFF77EFA054600BF0E480068BC
:100C0000012108430C49086000BF28460969090B07
:100C100009030143084A116100BF00BF1046C068C4
:100C2000012108431146C86000BF00BFD9E700009A
:100C30006321000039030000009801400FB410B593
:100C4000B4B00E480078002804D134B010BC08BC01
:100C500004B0184737A80190C82102A8019B369A12
:100C600004F084FB044600200190002C03DDA1B2B7
:100C700002A803F0F3FF00BFE7E700000000002038
:100C800010B50821014800F0DDFF10BD800C0040C8
:100C900010B50421014800F0D5FF10BD800C0040C4
:100CA000012101607047000070B50446012500BFB6
:100CB000206800280BD02068012808D0206802286E
:100CC00005D02068032802D02068042801D1012023
:100CD00000E00020002801D100BFFEE700BF00BFF8
:100CE000A068002802D0A068012801D1012000E0FE
:100CF0000020002801D100BFFEE700BF00BFE06870
:100D0000002808D0E068082805D0E068102802D044
:100D1000E068182801D1012000E00020002801D15E
:100D200000BFFEE700BF2068042814D100BF606840
:100D3000002808D06068012805D06068022802D029
:100D40006068032801D1012000E00020002801D1C3
:100D500000BFFEE71AE000BF606800280ED06068A0
:100D600001280BD06068022808D06068032805D0ED
:100D70006068042802D06068052801D1012000E0E5
:100D80000020002801D100BFFEE700BFFF20013096
:100D90002649896B0143254A916300BF20680428D6
:100DA0000ED10421224800F037FA616888012049F9
:100DB0004969C022914301431D4A516100BF20E0AF
:100DC00000211B4800F028FA206818494031896842
:100DD000890889000143154A4032916000BF61686B
:100DE0008800114689681C22914301430F4A403212
:100DF000916000BF90131146C9680143D16000BFE4
:100E000000BFA0680A494969890889000143084A66
:100E1000516100BFE06811464969182291430143BE
:100E2000034A516100BF284670BD00000024004005
:100E3000005C014081684908490081607047816811
:100E40004908490081607047816901221204914379
:100E500081617047026A4B005B089A4302627047E7
:100E60008168012211438160704781680222114329
:100E700081607047026A4B005B081A430262704748
:100E8000F8B505460C4601200090002600BFDB485F
:100E9000854201D1012000E00020002801D100BFDF
:100EA000FEE700BF00BF2068002804D001214902EE
:100EB0002068884201D1012000E00020002801D1F3
:100EC00000BFFEE700BF00BF6068002804D001211A
:100ED000C9026068884201D1012000E0002000289A
:100EE00001D100BFFEE700BF00BFE068002802D0CC
:100EF000E068042801D1012000E00020002801D191
:100F000000BFFEE700BF00BF2069002808D02069AD
:100F1000012805D02069022802D02069032801D1C8
:100F2000012000E00020002801D100BFFEE700BF43
:100F300000BF2020005D002803D02020005D012894
:100F400001D1012000E00020002801D100BFFEE710
:100F500000BF00BF606A002821D001214904606AF7
:100F600088421CD04900606A884218D00321490495
:100F7000606A884213D00121C904606A88420ED099
:100F800005214904606A884209D003218904606A06
:100F9000884204D007214904606A884201D10120B7
:100FA00000E00020002801D100BFFEE700BF00BF25
:100FB000A06A002826D001210905A06A884221D014
:100FC0004900A06A88421DD003210905A06A884211
:100FD00018D001218905A06A884213D0052109058E
:100FE000A06A88420ED003214905A06A884209D030
:100FF00007210905A06A884204D00121C905A06A19
:10100000884201D1012000E00020002801D100BF6A
:10101000FEE700BF012000037949496B0143784A8C
:10102000516300BF00BF77480068C007C00F0121AF
:101030004840484000280DD100BF01207149886018
:1010400000BF00BF08460068012108436D490860E1
:1010500000BF00BF00BF6B48006802210843694918
:10106000086000BF05E07D208002864200D30AE0D0
:10107000761C00BF63488068C007C00F012148404C
:1010800048400028EFD000BF2846FFF7D8FE28468A
:10109000FFF7DAFE00BFA86801210843A86000BF7F
:1010A00000BF5648006908435449086100BF002644
:1010B00000BF00BF5148006810210840070900BF69
:1010C000761C701C002801D0002FF2D0012F7DD19A
:1010D00000BF10204949086000BF2846FFF7AFFE57
:1010E00000BFA868384001214840484000287DD111
:1010F0002068A9697A0291430143A96100BF606831
:10110000A969920091430143A96100BF207A002898
:1011100006D000BFA86951100843A86100BF07E0CE
:1011200000BFA869012189028843A86100BF00BFF0
:10113000607A002807D000BFA869FF210131084369
:10114000A86100BF07E000BFA869FF210131884303
:10115000A86100BF00BFE068A96904229143014370
:10116000A96100BF00BF686920218843686100BF92
:101170002069E968890889000143E96000BF606966
:10118000A969F02291430143A96100BFA069E969FF
:1011900091430143E96100BFE069E9690909090177
:1011A0000143E96100BF2020005D00281AD0606A79
:1011B000A9690722520491430143A96100BFA06AB3
:1011C000A9690F2212059143014301E011E00DE0EE
:1011D000A96100BF00BFA869012109040843A861F3
:1011E00000BF08E02846FFF72FFE04E00020009033
:1011F00001E0002000900098F8BD0000005C014074
:101200000024004000A4014001460868C007C00F48
:101210000122504050407047426904239A430A43D8
:1012200042617047416901221143416170470000EA
:1012300070B505460C46052600BF6148854201D1C0
:10124000012000E00020002801D100BFFEE700BF20
:1012500000BFA06800280BD0A068102808D0A068A4
:10126000202805D0A068402802D0A068602801D1BD
:10127000012000E00020002801D100BFFEE700BFF0
:1012800000BF6069002808D0FF21013160698842F1
:1012900003D049006069884201D1012000E00020AC
:1012A000002801D100BFFEE700BF00BF2069012870
:1012B00002D02069002801D1012000E00020002890
:1012C00001D100BFFEE700BF00BF2068002802D0A8
:1012D0002068802801D1012000E00020002801D1F1
:1012E00000BFFEE700BF206836494968802291436D
:1012F0000143344A516000BF102000F0BDF80120C6
:10130000C00300F0A1F8A069296B090A0902014392
:10131000296300BFA068202804D0402803D060289B
:101320000BD101E000BF00BF0021284600F05AF8B1
:101330002846A16800F050F808E02846A16800F0AF
:1013400051F80021284600F047F800BF00BFE068D0
:10135000E96A090C09040143E96200BF6069296870
:101360000322120291430143296000BF6068A96A09
:10137000090C09040143A96200BF2069012806D1B4
:1013800000BF286880210843286000BF06E000BF36
:10139000286880218843286000BF00BF2846FFF7E7
:1013A00041FF00E0761E064800F00EF8002801D14B
:1013B000002EF7D100BF01200149086100BF70BDB8
:1013C000003001404024004001460869C007C00FBA
:1013D0000122504050407047026860239A430A43FC
:1013E00002607047026810239A430A430260704704
:1013F00001684908490001607047016801221143F2
:101400000160704701680122114301607047016863
:1014100002221143016070470249C96B0143014A2E
:10142000D1637047002400400249C96B0143014A5F
:10143000D1637047002400400249C96B0143014A4F
:10144000D1637047002400400249C9680143014A42
:10145000D1607047402400400249C9680143014AF5
:10146000D1607047402400400249C9680143014AE5
:10147000D160704740240040024909680143014A95
:10148000116070474024004010B5002400BF1B4885
:10149000006807210902084005221202811A9042C1
:1014A00018D006DC00280DD001218902401A1DD178
:1014B0000CE0C81FF938002810D0FF380138002888
:1014C00014D10FE000F0FCF8044613E000F0F8F847
:1014D00044080FE000F0F4F884080BE000F0F0F8A6
:1014E000C40807E000F0ECF8040903E000F0E8F8B5
:1014F000044600BF00BF204610BD0000002400408D
:1015000010B5002400BF1B480068072109040840EB
:1015100005221204811A904218D006DC00280DD052
:1015200001218904401A1DD10CE001200004081A91
:1015300010D001210904401A14D10FE0FFF7A4FFD5
:10154000044613E0FFF7A0FF44080FE0FFF79CFFFD
:1015500084080BE0FFF798FFC40807E0FFF794FF4B
:10156000040903E0FFF790FF044600BF00BF2046D8
:1015700010BD00000024004070B50024002500BF0D
:101580002648C06802210840002802D0022807D15E
:1015900003E000F047F8044606E02148046803E051
:1015A00000F040F8044600BF00BF00BF1B48C06801
:1015B000702108400107090F00291FD10011030005
:1015C00003F01BFF080506080A0C12141A1C16E08B
:1015D000640814E0A40812E0E40810E00C2120469E
:1015E000FEF788FD04460AE0240908E01821204699
:1015F000FEF780FD044602E0640900E000BF00BF82
:1016000000BF0648C0687F2109040840000C451C43
:10161000204668430446204670BD00000024004078
:101620001C010020002000BF0D4949680F22120450
:101630001140002908D001221204891A06D0891A03
:1016400006D0891A08D105E0064807E0064805E0FB
:10165000064803E0064801E0024800BF00BF7047AB
:101660000024004000127A000024F40000366E01CD
:101670000048E801002000BF1049496A0322120413
:101680001140002908D001221204891A07D0891AB2
:1016900008D0891A0CD108E04B2040030BE04B2006
:1016A000C00208E04B20800205E04B20400202E02F
:1016B0004B20400300BF00BF7047000000240040E3
:1016C00010B5002400BF144800684007400F030015
:1016D00003F093FE0705090C1A1014171A00FFF700
:1016E000A1FF044614E00D48046811E0FFF744FF31
:1016F00004460DE0FFF7BEFF044609E00848046811
:1017000006E00124E40303E0FFF78CFF044600BF7A
:1017100000BF204610BD0000002400401C01002036
:1017200018010020034989681C2291430143014AA2
:10173000916070474024004070B505460C46012674
:1017400000BF8748854201D1012000E00020002829
:1017500001D100BFFEE700BF00BF2068002802D013
:101760002068012801D1012000E00020002801D1DB
:1017700000BFFEE700BF00BF606800281AD06068A5
:10178000042817D06068082814D060680C2811D08D
:10179000606810280ED0606814280BD0606830286C
:1017A00008D06068342805D06068382802D06068A6
:1017B0003C2801D1012000E00020002801D100BF19
:1017C000FEE700BF00BFA068002802D0A068012883
:1017D00001D1012000E00020002801D100BFFEE778
:1017E00000BF00BF5F49E068884201D8012000E0E7
:1017F0000020002801D100BFFEE700BF00BF206924
:10180000FF2801D8012000E00020002801D100BFFE
:10181000FEE700BF00BF6069002802D060690128B0
:1018200001D1012000E00020002801D100BFFEE727
:1018300000BF00BFA069002802D0A069012801D123
:10184000012000E00020002801D100BFFEE700BF1A
:1018500000BF45484549486100BF0321434800F0A7
:10186000FCFD0321414800F0E7FD00BF3E48C043B6
:101870003E49486100BF08153D49896B01433C4A18
:10188000916300BF00BF286840084000286000BF87
:1018900000BF2868C007C00F012148404840002809
:1018A0005BD1A068002816D02069E969090A0902FD
:1018B0000143E96100BFE068E9692E4A1140020274
:1018C0001143E96100BF00BFA868FF21013108434F
:1018D000A86000BF07E000BFA868FF21013188436E
:1018E000A86000BF00BF206800280DD06068A9680C
:1018F0003C2291430143A96000BF00BF68680121F9
:101900000843686000BF06E000BF68684008400008
:10191000686000BF00BF6069002806D000BFA868EB
:1019200080210843A86000BF06E000BFA8688021AE
:101930008843A86000BF00BFA069002806D000BF90
:10194000A86801210843A86000BF07E000BFA8689D
:1019500040084000A86000BF00E00026304670BD8F
:1019600000980140FFFF0000DF9B57130028004054
:1019700000240040FF0000FF0648006904210843DE
:1019800004490861084600690121084301490861CA
:101990007047000000E000E038B504460EE07D200E
:1019A000C00000F015F800BF00200090064807496D
:1019B000086008460068009000BF00BF2046641E13
:1019C0000028ECD138BD00005A5A341200140140EE
:1019D00010B504460C490D480068FEF78BFB4443E4
:1019E00001200006844200D900E020460446601E23
:1019F000074948610020886100BF05480069C003AD
:101A0000C00F0028F9D010BD40420F002001002077
:101A100000E000E0826A8BB29A43826270470268FB
:101A20008BB29A430260704782688BB29A4382609D
:101A3000704742688BB29A4342607047026A8BB229
:101A40009A43026270470246D0698BB218408BB24B
:101A5000984201D1012070470020FCE7F8B5064606
:101A60000C460027002500BF724886420ED0714800
:101A7000403086420AD06F488030864206D06D489A
:101A8000C030864202D06C48864201D1012000E07D
:101A90000020002801D100BFFEE700BF00BF206882
:101AA000002805D965492068884201D8012000E056
:101AB0000020002801D100BFFEE700BF00BF606822
:101AC000032808D06068002805D06068012802D08B
:101AD0006068022801D1012000E00020002801D127
:101AE00000BFFEE700BF00BFA068012802D0A068C9
:101AF000002801D1012000E00020002801D100BF12
:101B0000FEE700BF00BFE068002802D0E0680128BF
:101B100001D1012000E00020002801D100BFFEE734
:101B200000BF00BF6069002802D06069012801D1B0
:101B3000012000E00020002801D100BFFEE700BF27
:101B400080203F49496B01433D4A516300BF6AE031
:101B50000121B940206808400546002D62D0606828
:101B600003281AD129463046FFF759FF2946304647
:101B7000FFF75FFF29463046FFF756FF60690128EF
:101B800006D100BFB06AA9B20843B06200BF33E01B
:101B900029463046FFF73EFF2EE029463046FFF744
:101BA00039FF6068002806D100BF3068A9B2084339
:101BB000306000BF03E029463046FFF730FFA068E1
:101BC000002804D129463046FFF72EFF06E000BF6B
:101BD000B068A9B20843B06000BF00BFE068002849
:101BE00006D000BF7068A9B20843706000BF03E070
:101BF00029463046FFF71DFF606802280DD1206995
:101C0000012806D100BF306AA9B20843306200BF84
:101C100003E029463046FFF711FF29463046626847
:101C200000F01CF87F1C2068F840002890D10120AB
:101C3000F8BD0000000C0040000D0040FFFF000058
:101C4000002400408AB2826170478AB28261704784
:101C50008AB2426170478AB24261704730B5C36848
:101C60000C464C4365006419A3430C464C43544353
:101C70002343C36030BD000070B504460D4600BF6D
:101C80004348844201D1012000E00020002801D116
:101C900000BFFEE700BF00BF6868012802D0686887
:101CA000002801D1012000E00020002801D100BF60
:101CB000FEE700BF00BFA868012802D0A86800287E
:101CC00001D1012000E00020002801D100BFFEE783
:101CD00000BF00BFE868012802D0E868002801D1F1
:101CE000012000E00020002801D100BFFEE700BF76
:101CF00001200006FFF790FB00BF606A0421084343
:101D0000606200BF6868012806D100BF606A1021C8
:101D10000843606200BF06E000BF606A102188438C
:101D2000606200BF00BFA86801280AD100BF606AD6
:101D300002210843606200BF2046296800F042F893
:101D40000BE000BF606A02218843606200BF287810
:101D50004106490E204600F035F8E868012807D111
:101D600000BF606A012149020843606200BF07E0CA
:101D700000BF606A012149028843606200BF00BF62
:101D800000BF606A01210843606200BF012070BD8E
:101D9000002401400121C16270470221C1627047E5
:101DA0000146C86AC007C00F01225040504070472A
:101DB0000146C86A02221040400870470146486B3D
:101DC000C0B27047826B920A92020A4382637047E4
:101DD000426B120A12020A4342637047FEB505467F
:101DE0000C46002601200190002700BF3F48854295
:101DF00001D1012000E00020002801D100BFFEE752
:101E000000BF00BF3A496068884201D2012000E06B
:101E10000020002801D100BFFEE700BF00BF2068FE
:101E2000002814D02068012811D0206802280ED084
:101E3000206803280BD02068042808D020680528D3
:101E400005D02068062802D02068072801D101208B
:101E500000E00020002801D100BFFEE700BF2020E5
:101E60002449496B0143234A516300BF00BF00204E
:101E70000090214828602868009000BF2068002159
:101E800000916968C908C900014369602968009127
:101E900000BF284600F032F80746606800281AD0D4
:101EA000002F0CD100BF284600F028F8012812D0DE
:101EB0003046761CFF21F5318842F4D30BE000BF99
:101EC000284600F01BF8002805D03046761CFF217C
:101ED000F5318842F4D36068002100910105090DB5
:101EE000E9602968009100BF0198FEBD001401401F
:101EF000FF0F0000002400405A5A341208B5014672
:101F0000002200928A681005000D0A68009208BD40
:101F100008B500210091024901600168009108BDE7
:101F20005A5A34120021416002210160704710B5F5
:101F3000FFF722FD10BD4168012211434160704747
:101F4000F8B505460C46002700BFAC48854205D0D1
:101F5000AB48854202D0AB48854201D1012000E068
:101F60000020002801D100BFFEE700BF00BF2068AD
:101F7000002805D02068012802D02068022801D15D
:101F8000012000E00020002801D100BFFEE700BFD3
:101F900000BF606805280ED0606804280BD0606818
:101FA000032808D06068022805D06068012802D0A4
:101FB0006068002801D1012000E00020002801D144
:101FC00000BFFEE700BF00BFA068C02808D0A0681F
:101FD000002805D0A068402802D0A068802801D140
:101FE000012000E00020002801D100BFFEE700BF73
:101FF00000BFE068002804D0FF210131E06888427A
:1020000001D1012000E00020002801D100BFFEE73F
:1020100000BF00BF2069002805D02069102802D029
:102020002069202801D1012000E00020002801D1F2
:1020300000BFFEE700BF00BF6069002808D06069EC
:10204000022805D06069012802D06069032801D107
:10205000012000E00020002801D100BFFEE700BF02
:102060006648854213D101200004FFF7DDF9012005
:102070000007FFF7F1F92178080663494968032250
:10208000120691430143604A516000BF29E05C4859
:10209000854212D101204004FFF7C6F9E804FFF79A
:1020A000DBF9217888065849496803229206914352
:1020B0000143554A516000BF13E001208004FFF73F
:1020C000B3F901204005FFF7C7F9218888054E497B
:1020D000496803229205914301434B4A516000BF76
:1020E00000BF206802281AD1032000044649403965
:1020F000496A024691430143434A403A516200BF54
:1021000000BF1046406A012108431146486200BFE3
:1021100000BFE86840004008E86000BF07E000BF7B
:10212000E8680121C9070843E86000BF00BF207DBF
:10213000C007C00F00280DD000BF00BF28680121D4
:102140000843286000BF00BF286808404840484056
:102150000028F2D002216069084000280CD000BF9E
:1021600000BF286802210843286000BF00BF28681C
:10217000084040080028F3D06068E968C908C90031
:102180000143E96000BFE0682968FF220132914302
:102190000143296000BFA0682968C0229143014320
:1021A000296000BF206929683022914301432960DA
:1021B00000BF6068030003F020F9060406080A0D5A
:1021C0001012124E0DE0124E0BE0124E09E00F4EAF
:1021D000C03E06E00F4E761F03E00F4E01E00B4EAF
:1021E00000BF00BF00BFE8680C4908403104084345
:1021F000E86000BF01273846F8BD000000400140FC
:1022000000440140005001404024004052050000BD
:10221000FB1E0000DB16000042080000FFFF00E08C
:102220004269520A52020A434261704770B505463C
:102230000C462868032801D903202860204600287E
:1022400005DBC206D20E01219140094A116000BF90
:102250002046296801F0AAFB2046002806DBC206BA
:10226000D20E01219140024A803A116000BF70BD38
:1022700080E100E030B50246012300BF6C48824295
:1022800001D1012000E00020002801D100BFFEE7BD
:1022900000BF00BF0868002808D0FF240134086888
:1022A000A04203D064000868A04201D1012000E0F0
:1022B0000020002801D100BFFEE700BF00BF486832
:1022C000002804D00124A4024868A04201D10120C2
:1022D00000E00020002801D100BFFEE700BF00BFE2
:1022E0008868002805D08868082802D088680C28EB
:1022F00001D1012000E00020002801D100BFFEE74D
:1023000000BF00BFC868002802D0C868012801D1FA
:10231000012000E00020002801D100BFFEE700BF3F
:1023200000BF4869002802D04869012801D1012076
:1023300000E00020002801D100BFFEE700BF00BF81
:102340000869002814D00869102811D008692028CD
:102350000ED0086930280BD00869002808D0086919
:10236000102805D00869202802D00869302801D13A
:10237000012000E00020002801D100BFFEE700BFDF
:1023800000BF0124A4038869A04203D064008869C7
:10239000A04201D1012000E00020002801D100BFAF
:1023A000FEE700BF0120C002224C646B0443214DB4
:1023B0006C6300BF886814680C25AC430443146048
:1023C00000BF486814682D02AC430443146000BF8A
:1023D00008681468AD10AC430443146000BF48693A
:1023E000012806D100BF106802242043106000BFFE
:1023F00000BF8868082810D1086914683025AC43EC
:102400000443146000BFC868012806D100BF1068EB
:1024100040242043106000BF00BF88691468032572
:10242000AD03AC430443146000BF184630BD000048
:1024300000A001400024004010B5202905D2C26947
:1024400001238B409A43C26106E0026A0B46203B9F
:1024500001249C40A243026210BD10B5202905D280
:10246000C26901238B401A43C26106E0026A0B462F
:10247000203B01249C402243026210BD416801229E
:102480001143416070474168012211434160704728
:1024900041680122114341607047416801221143A4
:1024A000416070474168012211434160704700005C
:1024B000F8B505460C46002700200090002600BF16
:1024C000AD4885420BD0AD48854208D0AC48854226
:1024D00005D0AC48854202D0AB48854201D10120ED
:1024E00000E00020002801D100BFFEE700BF00BFD0
:1024F0002068002814D02068012811D02068022804
:102500000ED0206803280BD02068002808D020684F
:10251000042805D02068082802D020680C2801D1A2
:10252000012000E00020002801D100BFFEE700BF2D
:1025300000BFA068C02808D0A068002805D0A06807
:10254000402802D0A068802801D1012000E00020AE
:10255000002801D100BFFEE700BF00BF20690028AE
:1025600005D02069102802D02069202801D101203F
:1025700000E00020002801D100BFFEE700BF00BF3F
:10258000E068002804D0FF210131E068884201D1D1
:10259000012000E00020002801D100BFFEE700BFBD
:1025A00000BF6069002808D06069022805D0606912
:1025B000012802D06069032801D1012000E0002039
:1025C000002801D100BFFEE700BF6B4885422CD137
:1025D00020686E4949688908890001436B4A516047
:1025E00000BF2068002806D0012808D002280AD0A1
:1025F000032810D10BE0FEF783FF00900FE0FFF7F8
:1026000011F800900BE0FFF75BF8009007E06048DE
:102610000068009003E0FEF773FF009000BF00BF6A
:1026200061680098FDF766FD461E544885422CD12E
:102630002068564949680C2291430143534A51602E
:1026400000BF2068002806D0042808D008280AD037
:102650000C2810D10BE0FEF753FF00900FE0FEF7BF
:10266000E1FF00900BE0FFF72BF8009007E04848EF
:102670000068009003E0FEF743FF009000BF00BF3A
:1026800061680098FDF736FD461E3B48854206D13D
:102690008015FEF7D1FEA815FEF7E6FE35E03748B7
:1026A000854206D14015FEF7C7FE6815FEF7DCFE31
:1026B0002BE0334885420BD1C014FEF7BDFEFEF778
:1026C0001FFF009061680098FDF714FD461E1CE096
:1026D0002C4885420BD18014FEF7AEFEFEF710FFAA
:1026E000009061680098FDF705FD461E0DE0264844
:1026F00085420AD14014FEF79FFEFEF701FF0090CD
:1027000061680098FDF7F6FC461E207DC007C00FEB
:10271000002806D000BF286801210843286000BFB8
:1027200000BF022160690840002805D000BF28686A
:102730000843286000BF00BF00BFA869000C000468
:102740003043A86100BFE0682968FF22013291434D
:102750000143296000BFA0682968C022914301435A
:10276000296000BF20692968302291430143296014
:1027700000BF01273846F8BD002001400068014035
:102780000070014000740140007801404024004086
:102790001C0100204269520A52020A4342617047FA
:1027A0004269520A52020A43426170474269520A20
:1027B00052020A43426170474269520A52020A4376
:1027C000426170474269520A52020A4342617047AD
:1027D00003229202821812690123DB039A43CB037E
:1027E0001A4303239B02C3181A61704770B504464D
:1027F0000D4600BF5F48844201D1012000E0002067
:10280000002801D100BFFEE700BF00BF28680028F4
:1028100002D02868012801D1012000E00020002812
:1028200001D100BFFEE700BF00BF6868002802D0EA
:102830006868012801D1012000E00020002801D1B2
:1028400000BFFEE700BF00BFA868002802D0A8684C
:10285000012801D1012000E00020002801D100BFA3
:10286000FEE700BF00BFE868002808D00121890703
:10287000E868884203D04900E868884201D1012015
:1028800000E00020002801D100BFFEE700BF3A4869
:10289000FEF7BDFD3848FEF7B5FDE8680321890263
:1028A0006118C96889008908014303229202A218AD
:1028B000D16000BF286801280DD100BF032080022D
:1028C000201800680121C903084303218902611807
:1028D000086000BF0DE000BF0320800220180068E0
:1028E0000121C9038843032189026118086000BFE0
:1028F00000BF686801280DD100BF032080022018A6
:1029000040680121C9030843032189026118486016
:1029100000BF0DE000BF03208002201840680121A5
:10292000C9038843032189026118486000BF00BFC2
:10293000A86801280DD100BF0320800220188068FC
:102940000121C9030843032189026118886000BF7F
:102950000DE000BF03208002201880680121C90318
:102960008843032189026118886000BF00BF0120ED
:1029700070BD000000F0014000E0014010B50548C6
:10298000FEF73BFD00210448FFF722FF0148FEF758
:102990002FFD10BD00E0014000F001400420084977
:1029A00049690140814201D1012100E00021012952
:1029B00004D104200249486100BF00BF70470000F5
:1029C000C00D0040F3B581B00E4600270C20FEF785
:1029D000A9FE19491948FEF73DFA18480199FEF772
:1029E00049FA1648FEF75CF91448FEF739FA13481D
:1029F000FEF73BFA00BF1148FEF706FC04467F1CB9
:102A0000781C002801D0002CF5D0012C10D10B48E7
:102A1000FEF746F900BF0948806A80B23060074877
:102A2000FEF708FA05480199FEF714FA002500E0C0
:102A300001252846FEBD0000FFFF0F00005C01409D
:102A4000F1B58AB0002008900790069008A800F021
:102A500035F8059006A90A98FFF7B4FF0490089886
:102A6000002821D0059800281ED1049800281BD1E9
:102A70000F49069802F0A9FC0E4A14890025064663
:102A80000F4622462B46FDF78FFB019100900A4925
:102A9000089802F09AFC02460B46039102900199B5
:102AA0000098FDF751FB079007980BB0F0BD0000B0
:102AB000B80B000000FBFF1FFF0F0000F8B5064633
:102AC00000270C20FEF72EFE00BF204800690121E0
:102AD00008431E49086100BF1D491E48FEF7BAF9A8
:102AE000012109061B48FEF7C5F91A48FEF7D8F878
:102AF0001848FEF7B5F91748FEF7B7F900BF1548B3
:102B0000FEF782FB04467F1C781C002801D0002CB5
:102B1000F5D0012C17D10F48FEF7C2F800BF0D48C1
:102B2000806A80B230600B48FEF784F921060948BC
:102B3000FEF790F900BF05480069A043034908610A
:102B400000BF002500E001252846F8BD00A4014093
:102B5000FFFF0F00005C0140FEB500240020019043
:102B6000002500260090002700F0E8F9BC48FFF798
:102B700025F9BC49087000BFB948806A04210840A3
:102B80008008002837D000BFB548C06A08408008D8
:102B90000028F7D0B248FFF711F9019000BF0420D8
:102BA000AF49C86200BF0198C007C00F00285CD1C0
:102BB0000846FFF7EFF800BFA948FFF7F1F8002833
:102BC000FAD0A748FFF7FAF8A6494870A448FFF7DB
:102BD000E1F8A448407806280ED100BFA048FFF7CE
:102BE000DFF80028FAD09E48FFF7E8F89D49887082
:102BF0009B48FFF7CFF82CE19A48407807280ED180
:102C000000BF9748FFF7CCF80028FAD09448FFF7A8
:102C1000D5F89449C8709248FFF7BCF819E191487B
:102C2000407809280ED100BF8D48FFF7B9F8002879
:102C3000FAD08B48FFF7C2F88A4908718848FFF735
:102C4000A9F806E1874840780828D4D100BF844815
:102C5000FFF7A6F80028FAD08148FFF7AFF88149BE
:102C600048717F48FFF796F8F3E00198C007C00F5E
:102C70000028C0D07B4840780D280ED17A480178D2
:102C80007748FFF7A5F800BF7548FFF791F80028CF
:102C9000FAD07348FFF781F8DBE0724840781028DB
:102CA00030D1724800684000009000980005000E86
:102CB0006F49087000980001F02108406C49487085
:102CC0006C4807683803000EC8703805000E08719C
:102CD0003801F02108406649487100240FE064483B
:102CE000015D5F48FFF774F800BF5D48FFF760F8CB
:102CF0000028FAD05A48FFF750F8601CC4B2122CD2
:102D0000EDDBA6E05748407806280DD1B0215448A5
:102D1000FFF75EF800BF5248FFF74AF80028FAD0E4
:102D20004F48FFF73AF894E04E48407807280DD115
:102D3000B0214B48FFF74CF800BF4948FFF738F87F
:102D40000028FAD04648FFF728F882E04548407846
:102D500009280DD100214248FFF73AF800BF40484A
:102D6000FFF726F80028FAD03D48FFF716F870E084
:102D70003C48407808280DD102213948FFF728F84F
:102D800000BF3748FFF714F80028FAD03448FFF79F
:102D900004F85EE03348407803282BD136480568B4
:102DA0002802010E2E48FFF713F800BF2C48FEF74B
:102DB000FFFF0028FAD02A48FEF7EFFF2804010E93
:102DC0002748FFF705F800BF2548FEF7F1FF002868
:102DD000FAD02348FEF7E1FFE9B22148FEF7F8FFF9
:102DE00000BF1F48FEF7E4FF0028FAD01C48FEF79A
:102DF000D4FF2EE01B48407800282AD11F480668DF
:102E00003002010E1648FEF7E3FF00BF1448FEF73C
:102E1000CFFF0028FAD01248FEF7BFFF3004010EA2
:102E20000F48FEF7D5FF00BF0D48FEF7C1FF002891
:102E3000FAD00B48FEF7B1FFF1B20948FEF7C8FF20
:102E400000BF0748FEF7B4FF0028FAD00448FEF799
:102E5000A4FF00F073F8012009490870FEBD0000CE
:102E600000240140A00E00208800002074000020F3
:102E7000AE0E0020780000207C00002080000020A2
:102E80008400002000B587B0FF20013001900120B0
:102E900002900390002004900590069001A91B4821
:102EA000FEF7DCFD0120400201900120029003901A
:102EB000002004900590069001A91448FEF7CEFD6D
:102EC0004020019001200290039000200490059082
:102ED000069001A90D48FEF7C1FD80200190012058
:102EE00002900390002004900590069001A90748E5
:102EF000FEF7B4FD012149020448FEF7ACFE802133
:102F00000248FEF7A8FE07B000BD0000800C00409C
:102F100010B508480078002800D110BD0648007898
:102F2000002800D0F9E700200249087000F014F8EA
:102F300000BFF2E7420000204300002010B500F07F
:102F400013F801200249087014200249087010BDCE
:102F5000420000204300002010B540210148FEF748
:102F600077FE10BD400C004010B540210148FEF72F
:102F700069FE10BD400C004010B500F0DFFA00F013
:102F800011FB00F031FB1948FEF7C2FF7D20C000A5
:102F9000FEF702FD1548FEF7BBFF7D20C000FEF7DF
:102FA000FBFC1248FEF7B4FF7D20C000FEF7F4FCE6
:102FB0000E48FEF7ADFF00BF0D4800680221084330
:102FC0000B49086000BF00BF0A480068022108439F
:102FD0000849086000BF00BF084600680121084397
:102FE0000449086000BF00F069F810BD00140140FA
:102FF00000E001400050014010B50E480078012863
:1030000016D10D480088002812D1FFF797FF002045
:10301000084908700948028809490A48FDF701F97A
:1030200006480188074800F00FF80020034908808F
:1030300010BD00006A000020720000206C0000201B
:10304000380C0020000D002070B505460C46002C01
:1030500000D170BD64201549088000BF1448007974
:1030600013494979884203D0104800880028F5D1D7
:103070000120FEF791FC224629460E48FDF7D1F8C3
:103080000C480B4908600C710120487100BF0A49C7
:10309000886000BF0846FEF74EFF054800680178CB
:1030A0000548FFF7BDF800BFD3E70000700000201F
:1030B000900E0020C80D0020005001400120024960
:1030C0000871487170470000900E002010B500BFD5
:1030D00031484068FF2101310840000A00281ED015
:1030E00000BF2D4880680840000A002817D000BFA4
:1030F0002948006929492A4A1288885428480088A2
:10310000401C2749088008460088C82801DB0020A9
:10311000088001202349087064202349088000BFEB
:103120001D484068C007C00F0121484048400028A2
:1031300031D000BF18488068084048404840002807
:1031400029D01A4840791949097988420AD100BF23
:1031500011484068400840000F49486000BF012006
:1031600013490870114840791049097988420CDAEE
:103170000E4800680D4A5279815C0748FFF750F805
:103180000A484079401C0949487100BF01200249A2
:10319000886000BF00BF10BD00500140380C002007
:1031A0006C0000206A00002072000020900E0020B9
:1031B0006E0000201FB50120009003200190002028
:1031C000029003906846FDF76FFD1FBD00B591B0FA
:1031D00020200B9003200C9000200D900E900F905B
:1031E00010900BA95148FEF739FC10200B900320DA
:1031F0000C9000200D900E900F9010900BA94B4852
:10320000FEF72CFC01200B9003200C9000200D9069
:103210000E900F9010900BA94448FEF71FFC02205F
:103220000B9003200C9000200D900E900F901090AA
:103230000BA93E48FEF712FC0120C0020B900320B0
:103240000C9000200D900E900F9010900BA9374815
:10325000FEF704FC04200B9003200C9000200D903E
:103260000E900F9010900BA93048FEF7F7FB082046
:103270000B9003200C9000200D900E900F9010905A
:103280000BA92A48FEF7EAFB0120C0020B9003209D
:103290000C9000200D900E900F9010900BA92348D9
:1032A0004038FEF7DBFB012000030B9003200C905D
:1032B00000200D900E900F9010900BA91B484038E5
:1032C000FEF7CCFB40200B9003200C9000200D90CB
:1032D0000E900F9010900BA91448FEF7BFFB002032
:1032E0000090019001216846017241720020039014
:1032F00004900590502006900F200790002108A808
:103300000170032040040990012080050A9069465D
:103310000748FDF7B5FD40210548FDF7ABFD01214C
:1033200009060348FDF7A6FD11B000BDC00C004022
:10333000005C014010B5FFF73DFFFFF747FF10BDF0
:1033400000BF01200549086100BF00BF0846C068F2
:10335000012108430149C86000BF704700300140A7
:1033600000B587B0002000901F200190002002903F
:103370000548039000200590069004906946034894
:10338000FDF756FF07B000BDE70300000030014025
:1033900010B500BF2D480068012108432B49086083
:1033A00000BF00BF0A202A49CA148918486000BF1C
:1033B00000BF26480068400840002449086000BF5C
:1033C00055202449C969090A09020143214AD161EA
:1033D00000BF03200004114649680F2212049143E4
:1033E00001431C4A516000BF00BF104640680121E4
:1033F00008431146486000BF002017490968890842
:1034000089000143144A116000BF00BF11490968D7
:10341000C908C90001430F4A116000BF00BF11462F
:10342000096807221202914301430A4A116000BF52
:1034300000BF114609680722120491430143054A5F
:10344000116000BF00F02AFF10BD000000E0014045
:1034500000F00140002400400010004000B58DB095
:1034600001200003079003200890002009900A9093
:103470000B900C9007A90A48FEF7F0FA0120009083
:1034800000200190029003900490059006906946F8
:103490000448FEF751F900F0AFF80DB000BD000090
:1034A000400C00400098014000B58BB00120C003E3
:1034B00005900220069000200790089009900A903D
:1034C00005A91048FEF7CAFA012000030590022062
:1034D000069000200790089009900A9005A90948D5
:1034E0008030FEF7BBFA0120029077200190002087
:1034F00003900120049001A90348FEF7BDFB0BB027
:1035000000BD0000400C00400024014000BF04202A
:103510000549C86200BF00BF0846806A042108430D
:103520000149886200BF70470024014010B5FFF7D1
:10353000BBFFFFF7EBFF00F04FF810BD00B58DB0FB
:103540001020079002200890002009900A90012086
:103550000B9000200C9007A91048FEF77FFA20205E
:10356000079002200890002009900A9001200B90FB
:1035700000200C9007A90948FEF770FA002002907D
:10358000402003900020049005900690019001A92E
:103590000348FEF7D5FC0DB000BD0000400C004014
:1035A0000050014010B500BFFF200130094988607C
:1035B00000BF00BF084640688915084305494860B8
:1035C00000BF00BF0120886000BF0846FEF7B3FCC3
:1035D00010BD00000050014008B5002000901121EE
:1035E0006846FEF723FE08BD08B5022000901021B2
:1035F0006846FEF71BFE08BD00B58DB00120000334
:10360000079003200890002009900A900B900C90DE
:1036100007A90F48FEF722FA01204002009000207F
:1036200001900C2002900120C0030690002003901E
:103630000490059069460748FEF71CFE00BF054848
:103640000068012108430349086000BF0DB000BDB8
:10365000400C004000A0014000B58DB001204003A7
:103660000790022008900020099001200A90002075
:103670000B900C9007A91148FEF7F0F90120800388
:10368000079002200890002009900A900B900C905F
:1036900007A90A48FEF7E2F9002001904B20C0017B
:1036A0000290032006904020039000200490059093
:1036B00001A90348FEF7FCFE0DB000BD000C004060
:1036C0000020014010B500BFFF200130094988608B
:1036D00000BF00BF08464068891508430549486097
:1036E00000BF00BF0120886000BF0846FEF7CBFE88
:1036F00010BD00000020014000B58DB00120400346
:10370000079002200890002009900A900B900C90DE
:1037100007A91148FEF7A2F90120800307900220B3
:103720000890002009900A900B900C9007A90A4875
:10373000FEF794F9002001904B20C0010290032075
:1037400006904020039000200490059001A90348B2
:10375000FEF7AEFE0DB000BD400C00400068014019
:1037600010B500BFFF2001300949886000BF00BFCD
:1037700008464068891508430549486000BF00BFF6
:103780000120886000BF0846FEF778FE10BD0000EB
:103790000068014000B58DB001200790022008901C
:1037A0000020099001200A9000200B900C9007A99E
:1037B0001048FEF753F90220079008900020099066
:1037C0000A900B900C9007A90A48FEF747F90020D1
:1037D00001904B20C00102900320069040200390EE
:1037E00000200490059001A90348FEF761FE0DB08A
:1037F00000BD0000400C00400070014010B500BF4B
:10380000FF2001300949886000BF00BF08464068BA
:10381000891508430549486000BF00BF0120886042
:1038200000BF0846FEF734FE10BD000000700140E6
:1038300000B58DB00120079002200890002009906B
:1038400001200A9000200B900C9007A91048FEF769
:1038500005F9022007900890002009900A900B902B
:103860000C9007A90A48FEF7F9F800200190E12022
:103870004002029003200690402003900020049014
:10388000059001A90348FEF713FE0DB000BD00002E
:10389000000C00400074014010B500BFFF20013053
:1038A0000949886000BF00BF084640688915084381
:1038B0000549486000BF00BF0120886000BF08467E
:1038C000FEF7EBFD10BD00000074014000B58DB0A7
:1038D00010200790022008900020099001200A90F3
:1038E00000200B900C9007A91048FEF7B7F8202095
:1038F000079002200890002009900A900B900C90ED
:1039000007A90A48FEF7AAF8002001904B20C00141
:103910000290032006904020039000200490059020
:1039200001A90348FEF7C4FD0DB000BD800C0040A6
:103930000078014010B500BFFF20013009498860C0
:1039400000BF00BF08464068891508430549486024
:1039500000BF00BF0120886000BF0846FEF7A2FD3F
:1039600010BD00000078014010B504210148FEF7A9
:1039700069F910BD000D004010B504210148FEF7A3
:1039800061F910BD000D004010B501214902024847
:10399000FEF758F910BD0000400C004010B50121A1
:1039A0000148FEF74FF910BD800C004010B500280B
:1039B00019DB1A4A03231B02D21883089B00D25832
:1039C0008307DC0EFF23A3409A438B071B0E84075B
:1039D000E40EA3401A43114B032424021B1984084C
:1039E000A4001A5118E00E4A03071B0F083B9B085E
:1039F0009B00D2588307DC0EFF23A3409A438B071A
:103A00001B0E8407E40EA3401A43054B0407240F42
:103A1000083CA408A4001A5110BD000000E100E019
:103A20001CED00E000B58BB0402001900120029019
:103A30000020039004900590069001A9FE48FEF72F
:103A40000DF81020019001200290002003900490B6
:103A50000590069001A9F8484030FDF7FFFF0120CE
:103A6000019002900020039004900590069001A917
:103A7000F148C030FDF7F2FF0220019001200290D2
:103A80000020039004900590069001A9EA48C030F8
:103A9000FDF7E4FF08200190012002900020039030
:103AA00004900590069001A9E348C030FDF7D6FFC9
:103AB00004200190012002900020039004900590C2
:103AC000069001A9DC48C030FDF7C8FF082001902E
:103AD000012002900020039004900590069001A917
:103AE000D5484030FDF7BAFF042001900120029034
:103AF0000020039004900590069001A9CE48403024
:103B0000FDF7ACFF022001900120029003900020FD
:103B100004900590069001A9C7488030FDF79EFFEC
:103B2000082001900120029000200390049005904D
:103B3000069001A9C0484038FDF790FF042001908D
:103B4000012002900020039004900590069001A9A6
:103B5000B9484038FDF782FF012080020190002023
:103B6000029003900120049000200590069001A986
:103B7000B1488030FDF772FF012040020190012022
:103B800002900020039004900590069001A9AA4895
:103B9000C030FDF763FF0120C003019000200290B8
:103BA00003900120049000200590069001A9A248EE
:103BB0004038FDF753FF10200190012002900020B3
:103BC00003900120049000200590069001A99A48D6
:103BD0004038FDF743FF0120019002900020039040
:103BE0000120049000200590069001A992484030E1
:103BF000FDF734FF02200190012002900020039085
:103C00000120049000200590069001A98A484030C8
:103C1000FDF724FF01200003019000200290039093
:103C20000120049000200590069001A98248803070
:103C3000FDF714FF0120C0030190002002900390C3
:103C40000120049000200590069001A97A48FDF714
:103C500005FF202001900020029003900120049095
:103C600000200590069001A97348C030FDF7F6FECC
:103C70000120000301900120029000200390049095
:103C80000590069001A96C484038FDF7E7FE012039
:103C9000C002019001200290002003900490059042
:103CA000069001A964484038FDF7D8FE2020019015
:103CB000012002900020039004900590069001A935
:103CC0005D484038FDF7CAFE402001900120029077
:103CD0000020039004900590069001A956484038B2
:103CE000FDF7BCFE8020019001200290002003908F
:103CF00004900590069001A94F484038FDF7AEFEAC
:103D0000FF200130019001200290002003900490D8
:103D10000590069001A948484038FDF79FFE012014
:103D200040020190002002900390049005900690BC
:103D300001A941484038FDF791FE01208002019021
:103D4000012002900020039004900590069001A9A4
:103D500039484038FDF782FE0120400201900120E1
:103D600002900390002004900590069001A932482B
:103D70008030FDF773FE0420019001200290039033
:103D8000002004900590069001A92B48FDF766FEDF
:103D900008200190012002900390002004900590DB
:103DA000069001A92448FDF759FE802001900120CA
:103DB00002900020039004900590069001A91E48EF
:103DC000FDF74CFE012040020190012002900020EE
:103DD000039004900590069001A91748FDF73EFE58
:103DE00001208002019001200290002003900490A5
:103DF0000590069001A91048FDF730FE0120C00291
:103E000001900120029000200390049005900690FC
:103E100001A90948FDF722FE01204003019001207D
:103E200002900020039004900590069001A902489A
:103E30004030FDF713FE01E0400C004001208003FC
:103E400001900120029000200390049005900690BC
:103E500001A94748FDF702FE0120C003019001209F
:103E600002900020039004900590069001A940481C
:103E7000FDF7F4FD20200190012002900020039026
:103E800004900590069001A939488030FDF7E6FDC1
:103E900001208002019001200290002003900490F4
:103EA0000590069001A93248FDF7D8FD3148FDF78D
:103EB000A4FA01202F494968C908C90001432D4AC5
:103EC000516000BF002007900890099001208007F2
:103ED0000A9007A92848FEF789FC2648FDF788FACA
:103EE000FFF73AF801F00AFF01F08CF8FFF756FDF2
:103EF00002F060FB01F02EFFFCF71EFE01F06CFFEC
:103F000001F072FF01F078FF01F07EFF01F098FFF1
:103F1000FEF7B8FF01F080FF01F054FF01F02AFF27
:103F200001F098FF01F09EFF01F002FF01F008FF91
:103F300001F05EF801F07AFF02F016FBFFF724FDB6
:103F400001F074F801F04AF802F020FB02F028FBBF
:103F500002F012FB01F0BAFFFFF720FDFCF798FE1C
:103F6000FCF78EFE01F04EF8FEF708FD0BB000BD29
:103F7000800C004000E0014000F0014070B50446B4
:103F80000D4605480078002800D170BD294620461E
:103F900000F064FE00BFF8E70000002070B50446A2
:103FA0000D462946204600F059FE70BD10B5064862
:103FB00000780649C8700846C07819300871062193
:103FC0000248FFF7EBFF10BD9803002054000020CB
:103FD00070B500240025C8213E48FCF73BF9682253
:103FE0002146641C3B484254AD222146641C425485
:103FF00000222146641C4254374802782146641C42
:10400000344842543448827A2146641C3148425430
:10401000314802792146641C2E4842542E4880883B
:104020000004020E2146641C2A4842542A48027A9F
:104030002146641C27484254274800890112224621
:10404000641C24488154014608190F2222490B316F
:10405000FCF7E7F80F341F4908190F221E491A31DF
:10406000FCF7DFF80F341B49081914221A492931CB
:10407000FCF7D7F8143418482030427F2146641CDE
:1040800014484254011914482230027F0A70407FBC
:104090004870A41CA01C0F4988700020085500BF60
:1040A00008E00C48005D0B49495D40180949085576
:1040B000681C85B2A542F4DB601C84B2162220463F
:1040C000611C8CB203490A5421460248FFF766FF7F
:1040D00070BD0000A006002098030020F3B581B059
:1040E00005460024002000900026002778E0601D8F
:1040F0000299884200DD74E0285D68286ED1601C5A
:10410000285CAA282BD1A01C2E5C642E66DAE01C49
:10411000285C35490978884260D1A019401E285C86
:1041200016285BD100200090002707E0E019295CE9
:1041300000980818C0B20090781C87B2B01EB84230
:10414000F4DC60008019801E295C0098814245D112
:1041500002F098F9FFF72AFFA01984B23EE0601C34
:10416000285CAC283AD1E01C285C1F4909788842B9
:1041700034D1601D285C162830D1601C285CAC2826
:104180002CD1A01C2E5C642E28DAE01C285C164979
:104190000978884222D1A019401E285C16281DD11A
:1041A00000200090002707E0E019295C009808181B
:1041B000C0B20090781C87B2B01EB842F4DC600038
:1041C0008019801E295C0098814207D10748807AB7
:1041D000012801D1FFF7FCFEA01984B2601C84B253
:1041E00085E700BFFEBD0000980300208C0300207F
:1041F00070B5002400250720254908709F204870CD
:1042000000F0DDFF802000F08FFF002000F08CFF29
:1042100002211F4800F0C5FF00F0E4FF10201C49F8
:1042200008700020487000F0CAFF802000F07CFF7A
:10423000052000F079FF0221154800F0B2FF00F0E0
:10424000D1FF1420FDF7A8FB00F0B9FF802000F09B
:104250006BFF042000F068FF00F0B1FF812000F048
:1042600063FF02210B4800F02EFF00F0BBFF09485E
:104270000078000208490880084600880549497806
:10428000401805490880084604882546284670BD20
:10429000470000201A0400202E04002010B54648D4
:1042A00000684007400F030001F0A7F8073C050A2B
:1042B0003C0F32373C00414800684149086051E0FA
:1042C00000F008F93E4908604CE03B48406A800332
:1042D000800F002806D0012809D002280CD003281E
:1042E00014D10EE04B204003354908600EE04B200E
:1042F000C0023349086009E04B2080023049086061
:1043000004E04B2040022E49086000BF00BF29E0B6
:104310002C4800682A49086024E07D2000022849D2
:1043200008601FE0244840680003000F002813D0F5
:10433000012804D0022806D003280CD107E0224827
:104340001F4908600CE021481D49086008E020482A
:104350001B49086004E000BF1E481949086000BFFF
:1043600000BF00BF00BF144800684005400F04288C
:1043700006D005280AD006280ED0072818D111E04B
:104380000F48006840080E49086012E00C480068B9
:1043900080080B4908600CE009480068C00808491B
:1043A000086006E00648006800090549086000E06A
:1043B00000BF00BF10BD0000002400401C01002011
:1043C00020010020180100200024F40000366E01B6
:1043D0000048E80100127A0010B53948406B01210D
:1043E00009030843364948630846406B8021084367
:1043F00033494863084600680121C906084330492B
:1044000008605520C8610320090548602D4880696F
:10441000000C2C49098BC94389B2884202D1294832
:10442000806900E01020C006C00E27498863254837
:10443000C0300068000C2349C0310988C94389B2E3
:10444000884203D11F48C030006800E08020C0B21D
:104450001B4988601B48C0304068000C1949C031B6
:104460008988C94389B2884203D11648C030406860
:1044700000E08020C0B21249886212488030006A91
:10448000000C10498031098CC94389B2884203D19C
:104490000C488030006A00E08020C0B208494861C2
:1044A0000A484068FF2181310843084948600520D7
:1044B0000749086001204860FFF7F0FE10BD0000CA
:1044C0000024004080FAFF1F00200040C00C004084
:1044D0000028004010B500242C48C0688007C00F99
:1044E000002802D001281BD117E0284840680003AB
:1044F000000F00280DD0012804D0022804D0032882
:1045000006D103E0224C06E0224C04E0224C02E0FB
:1045100000BF224C00BF00BF02E02148046800BF7A
:1045200000BF1A48C0684006400F030000F065FF56
:10453000080507090B0D13151B1D00BF15E06408C6
:1045400013E0A40811E0E4080FE00C212046FBF77B
:10455000D1FD044609E0240907E018212046FBF7B5
:10456000C9FD044601E0640900BF00BF0748C068F8
:104570004002400E401C44430448C0680007C00F7E
:10458000002800D06400204610BD00000024004038
:104590000024F40000366E010048E80100127A00A1
:1045A0001C0100207047704710B50421014800F03D
:1045B00069FC10BD9400002010B50621014800F0F0
:1045C00061FC10BD9900002010B50521014800F0E4
:1045D00059FC10BDA000002010B50921014800F0D1
:1045E00051FC10BDDD00002010B50A21014800F08B
:1045F00049FC10BDA600002010B50821014800F0BC
:1046000041FC10BDE700002010B50821014800F072
:1046100039FC10BDD400002010B50A21014800F07B
:1046200031FC10BDC000002010B50C21014800F085
:1046300029FC10BDF7000020F8B500240025002655
:10464000002700BF33484068FF2101310840000ABD
:10465000044600BF2F4880680840000A054600BF96
:104660002C484068C007C00F01214840484006461A
:1046700000BF284880680840484048400746002C52
:1046800019D0012D17D100BF224800692249234AC1
:104690001288885421480088401C20490880084618
:1046A0000088C82801DB0020088001201C49087010
:1046B00064201C490880012E2AD1012F28D11A48D4
:1046C000407919490979884209D100BF11484068E9
:1046D000B0431049486000BF0120144908701248D7
:1046E00040791149097988420CDA0F4800680E4A6E
:1046F0005279815C0748FEF753F80B484079401C1B
:104700000949487100BF01200249886000BF00BF0D
:10471000F8BD000000200140380400204C000020BB
:104720004A00002052000020900600204E00002089
:1047300010B5FEF791FFFEF7C5FF00F003F800F09B
:10474000CFFA10BD08B5022000900A216846FDF797
:104750006DFD08BDF8B5002400250026002700BF28
:1047600033484068FF2101310840000A044600BF79
:104770002F4880680840000A054600BF2C48406862
:10478000C007C00F012148404840064600BF2848E6
:1047900080680840484048400746002C19D0012D49
:1047A00017D100BF224800692249234A1288885441
:1047B00021480088401C2049088008460088C828F5
:1047C00001DB0020088001201C49087064201C497E
:1047D0000880012E2AD1012F28D11A484079194981
:1047E0000979884209D100BF11484068B043104997
:1047F000486000BF012014490870124840791149EF
:10480000097988420CDA0F4800680E4A5279815CB7
:104810000748FDF7BFFF0B484079401C0949487124
:1048200000BF01200249886000BF00BFF8BD000042
:104830000068014024010020040000200300002043
:10484000080000207C0300200200002010B5FEF7C5
:1048500053FFFEF785FF00F003F800F075FA10BD76
:1048600008B5002000900B216846FDF7DFFC08BD6D
:10487000F8B5002400250026002700BF3248406814
:10488000FF2101310840000A044600BF2E4880681D
:104890000840000A054600BF2B484068C007C00F0B
:1048A000012148404840064600BF2748806808402C
:1048B000484048400746002C19D0012D17D100BFB1
:1048C000214800692149224A1288885420480088DA
:1048D000401C1F49088008460088C82801DB0020CA
:1048E000088001201B49087064201B490880012EA4
:1048F00028D1012F26D119484079184909798842D1
:104900000CDA16480068154A5279815C0E48FDF7AA
:104910004DFF12484079401C1049487100BF0120EA
:104920000949886000BF0D4840790C4909798842DF
:1049300008D100BF04484068400840000249486070
:1049400000BF00BFF8BD00000070014068070020F4
:104950005C0000205A00002060000020C0090020F8
:1049600010B5FEF717FFFEF749FF00F003F800F05F
:1049700055FA10BD08B5022000900C216846FDF7DD
:1049800055FC08BDF8B5002400250026002700BF0F
:1049900032484068FF2101310840000A044600BF48
:1049A0002E4880680840000A054600BF2B48406832
:1049B000C007C00F012148404840064600BF2748B5
:1049C00080680840484048400746002C19D0012D17
:1049D00017D100BF214800692149224A1288885412
:1049E00020480088401C1F49088008460088C828C5
:1049F00001DB0020088001201B490870C8201B49EA
:104A00000880012E28D1012F26D119484079184954
:104A1000097988420CDA16480068154A5279815C97
:104A20000E48FDF7C9FE12484079401C10494871F4
:104A300000BF01200949886000BF0D4840790C493A
:104A40000979884208D100BF044840684008400006
:104A50000249486000BF00BFF8BD0000007401407B
:104A6000D0090020640000206200002068000020BF
:104A7000280C002010B5FEF7DBFEFEF70DFF00F05E
:104A800003F800F039FA10BD08B5022000900D219E
:104A90006846FDF7CBFB08BDF8B5002400250026CD
:104AA000002700BF32484068FF2101310840000A5A
:104AB000044600BF2E4880680840000A054600BF33
:104AC0002B484068C007C00F0121484048400646B7
:104AD00000BF274880680840484048400746002CEF
:104AE00019D0012D17D100BF214800692149224A60
:104AF0001288885420480088401C1F4908800846B6
:104B00000088C82801DB0020088001201B490870AC
:104B100064201B490880012E28D1012F26D1194875
:104B200040791849097988420CDA16480068154A14
:104B30005279815C0E48FDF745FE12484079401CD1
:104B40001049487100BF01200949886000BF0D4825
:104B500040790C490979884208D100BF044840686F
:104B6000400840000249486000BF00BFF8BD000097
:104B700000780140C00E00208E0000208C00002034
:104B8000920000201811002010B5FEF79FFEFEF7DE
:104B9000D1FE00F003F800F019FA10BD08B50220AC
:104BA00000900E216846FDF741FB08BD10B586B0A8
:104BB0000446002C01D1019001E002200190012067
:104BC00080030090002002900120039000200490B8
:104BD000059069460248FCF741FF06B010BD000091
:104BE000000C004010B517480078012808D10020BB
:104BF000144908700520FCF7CFFE0020FFF7D6FF10
:104C00001148007801281BD110480088002817D1CE
:104C1000FEF794F900200C4908700D4802880D49F0
:104C20000D48FBF7FEFA0A4801880B48FFF7A6F982
:104C3000074801880848FFF751FA00200449088016
:104C400010BD00004E0000204A000020520000204D
:104C50004C000020380400200005002070B50546F7
:104C60000C46002C00D170BD64201849088000BF9C
:104C70001748007916494979884203D013480088BB
:104C80000028F5D10520FCF787FE0120FFF78EFFF5
:104C9000002010490870224629460F48FBF7C1FA48
:104CA0000D480B4908600C710120487100BF0B4989
:104CB000886000BF0846FDF7E6FB054800680178FC
:104CC0000648FDF76DFD00BFCDE700005000002055
:104CD000900600204E000020C80500200020014062
:104CE00001200249087148717047000090060020B9
:104CF00010B51048007801281BD10F480088002803
:104D000017D1FEF71BF900200A4908700B480288EA
:104D10000B490C48FBF785FA084801880948FFF75A
:104D20002DF9064801880748FFF73CFC002003499D
:104D3000088010BD030000200800002004000020AF
:104D400024010020EC010020012002490871487173
:104D5000704700007C03002010B50E480078012841
:104D600016D10D480088002812D1FEF7E7F8002080
:104D7000084908700948028809490A48FBF751FAAE
:104D800006480188074800F00FF800200349088012
:104D900010BD00005A000020600000205C000020D0
:104DA000680700203008002070B505460C46002C2E
:104DB00000D170BD64201549088000BF14480079F7
:104DC00013494979884203D0104800880028F5D15A
:104DD0000120FCF7E1FD224629460E48FBF721FAA7
:104DE0000C480B4908600C710120487100BF0A494A
:104DF000886000BF0846FDF74BFB05480068017856
:104E00000548FDF7D3FC00BFD3E700005E0000209B
:104E1000C0090020F808002000700140012002496C
:104E20000871487170470000C009002010B5104893
:104E3000007801281BD10F480088002817D1FEF701
:104E40007DF800200A4908700B4802880B490C487D
:104E5000FBF7E7F9084801880948FBF72DFD0648EC
:104E600001880748FFF78AF800200349088010BD31
:104E7000620000206800002064000020D0090020AB
:104E8000980A002070B505460C46002C00D170BD74
:104E900064201549088000BF1448007913494979F6
:104EA000884203D0104800880028F5D10120FCF783
:104EB00073FD224629460E48FBF7B3F90C480B490F
:104EC00008600C710120487100BF0A49886000BF6A
:104ED0000846FDF7E2FA0548006801780548FDF745
:104EE0006BFC00BFD3E7000066000020280C002008
:104EF000600B0020007401400120024908714871D4
:104F000070470000280C002010B50E4800780128DA
:104F100016D10D480088002812D1FEF70FF80020A6
:104F2000084908700948028809490A48FBF779F9D5
:104F300006480188074800F00FF800200349088060
:104F400010BD00008C000020920000208E00002088
:104F5000C00E0020880F002070B505460C46002CBE
:104F600000D170BD64201549088000BF1448007945
:104F700013494979884203D0104800880028F5D1A8
:104F80000120FCF709FD224629460E48FBF749F9A6
:104F90000C480B4908600C710120487100BF0A4998
:104FA000886000BF0846FDF77DFA05480068017873
:104FB0000548FDF707FC00BFD3E700009000002084
:104FC00018110020501000200078014001200249F3
:104FD00008714871704700001811002010B50121B8
:104FE000C9020248FCF72EFE10BD0000400C004034
:104FF00010B5012189020248FCF724FE10BD000013
:10500000000C004010B5012189020248FCF71AFE8D
:1050100010BD0000800C004010B50121890202483B
:10502000FCF716FE10BD0000800C004010B50121F9
:1050300089020248FCF706FE10BD0000400C00404B
:105040000EB501A8FCF76EFF01A90748FCF7C6FEE4
:1050500000BF00200090054803490860084600682A
:10506000009000BF0EBD0000001401405A5A3412D7
:10507000002002E000BF411CC8B23228FADB7047B2
:1050800070B50025002000F043F9002000F0C2F8C0
:10509000FFF7EEFF002412E0012000F0BBF8FFF75D
:1050A000E7FF00F01BF9002802D0802020410543D3
:1050B000002000F0AFF8FFF7DBFF601CC4B2082C43
:1050C000EADB284670BD70B506460D46002428E090
:1050D000FFF7D6FF3055681EA04210DD012000F01A
:1050E00017F9002000F0C8F8FFF7C2FF012000F018
:1050F00091F8FFF7BDFF002000F08CF80FE00120D1
:1051000000F006F9012000F0B7F8FFF7B1FF012029
:1051100000F080F8FFF7ACFF002000F07BF8601C87
:10512000C4B2AC42D4DB70BD70B50446012000F0BF
:10513000EFF8002000F06EF8002518E080202040F5
:10514000002803D0012000F097F802E0002000F0D2
:1051500093F8FFF78DFF012000F05CF8FFF788FF60
:10516000002000F057F86006040E681CC5B2082D38
:10517000E4DB002000F0CCF8FFF77AFF012000F01C
:1051800049F8FFF775FF00F0A9F8002802D100F0F8
:1051900041F802E0002000F03DF8FFF769FF012030
:1051A00070BD70B505460E46002404E0285DFFF78B
:1051B000BBFF601CC4B2B442F8DB012070BD10B567
:1051C000012000F0A5F8012000F056F8012000F0C1
:1051D00021F8FFF74DFF002000F04EF8002000F00E
:1051E00019F810BD10B5012000F092F8002000F071
:1051F00043F8012000F00EF8FFF73AFF012000F01D
:105200003BF8002000F006F8FFF732FF012000F025
:1052100001F810BD10B50446012C13D114480078D4
:10522000002802D001280BD105E0FF2101311148EF
:10523000FCF711FD05E040210E48FCF70CFD00E0F5
:1052400000BF13E00A480078002802D001280BD1E3
:1052500005E0FF2101310748FCF7F7FC05E040219C
:105260000448FCF7F2FC00E000BF00BF10BD0000E6
:1052700049000020800C004010B50446012C13D1D9
:1052800014480078002802D001280BD105E0012144
:1052900049021148FCF7DFFC05E080210E48FCF7CD
:1052A000DAFC00E000BF13E00A480078002802D0D2
:1052B00001280BD105E0012149020748FCF7C5FC94
:1052C00005E080210448FCF7C0FC00E000BF00BFFF
:1052D00010BD000049000020800C004010B50A48B5
:1052E0000078002802D001280BD105E001214902F5
:1052F0000648FCF7A8FB10BD80210448FCF7A3FB7F
:10530000F9E70020F7E7000049000020800C00408A
:1053100010B586B00446012002900390002004904E
:105320000590012C02D10120019001E000200190A4
:105330000C480078002802D001280FD107E0012096
:105340004002009069460848FCF788FB07E080208F
:10535000009069460448FCF781FB00E000BF00BFF5
:1053600006B010BD49000020800C00407CB51D46F1
:1053700016460C0001D0611E00E000210191009052
:10538000054B6A462946304600F00EF9002C02D043
:10539000009A002111707CBDE55C00002021020C08
:1053A00001D010211046020A01D010460839020926
:1053B00001D01046091F820801D01046891E4208FC
:1053C00001D0881E7047081A7047F8B582B28BB2B8
:1053D000040C0D0C10465843002126465E43370C42
:1053E00036048019794116466E43370C360480190D
:1053F000794126466E438919F8BD30B47446641E5F
:105400002578641CAB4204D3635D5B00E31830BCB9
:1054100018471D46F8E702E008C8121F08C1002A15
:10542000FAD170477047002001E001C1121F002A25
:10543000FBD17047F0B51FB486B00998089A030DE8
:105440000021024314D05148514A18185043051402
:105450001198012810981AD0281A401C00264D4F88
:105460004D49009601910490002812DA444211E05F
:105470001198012449A3012801D11098C14306982D
:10548000119A84600360C26041600BB0F0BD40427D
:10549000E4E70446210500203F4A001C51410391E6
:1054A000029012E0E00707D032463B46019900988F
:1054B000FAF790FF0191009032463B46104619469C
:1054C000FAF788FF06460F466410002CEAD10498CC
:1054D000039B0028029A0999089806DAFAF77AFFDE
:1054E000019B009AFAF776FF05E0FAF7DBFF019BD4
:1054F000009AFAF7D7FF04460E460022284BFBF726
:10550000FDF803D80020C043014607E00022254BE8
:1055100020463146FAF7AAFEFBF7D0F8102409E03E
:10552000002C0ADB0A220023FAF70EFE079B30321A
:105530001A55641E02460A43F2D11122641C079BCD
:10554000121B1C19119B012B03D0012308430ED100
:105550000AE0084304D0112010900020119077E752
:105560001098151A6D1E0BE01098824202DD002380
:105570006D1C03E0824201DA00236D1E002BEED089
:10558000069811998260C16030C07EE701FCFFFF80
:10559000104D0000000014400000F03F30000000FB
:1055A0000000F0430000E03FFFB597B0064600253D
:1055B0001BE2252876D100242746F749049400E011
:1055C0000443761C32780120203A90400842F7D1FB
:1055D00030782A280ED00222307801463039092945
:1055E00016D804990A235943303940181443761CBD
:1055F0000490F1E7189802C804911890002904DA81
:105600000120400304434842049002200443761CD6
:1056100030782E2814D1042004437078761C2A2870
:1056200009D11898761C80C8189009E00A214F43C8
:10563000303FC719761C3078014630390929F5D931
:1056400030786C2810D006DC4C281AD068280ED090
:105650006A2817D104E0742813D07A2812D110E0F8
:105660000120400504430CE00121090501E003216C
:1056700009050C437178814203D1012000052418EB
:10568000761C761C307866280BD013DC58287DD029
:1056900009DC00287BD04528F6D04628F4D04728DE
:1056A0001AD1A9E118E0632835D0642870D06528A4
:1056B00012D1A1E170286CD008DC6728F1D06928EC
:1056C0007DD06E280DD06F2806D1BCE073282ED077
:1056D000752873D0782859D01A9A199990476D1C5B
:1056E00082E16002400F022809D003280DD004286F
:1056F000189801680DD00D60001D189074E118987D
:10570000EA1701680D604A60F6E7189801680D8095
:10571000F2E70D70F0E718986A4601781172001DE3
:1057200018900020507202A80090012005E01898FF
:1057300002C8189000200091C04361070ED50021D7
:1057400001E00199491C0191B94213DA8142F8DB69
:10575000019A0099895C0029F3D10BE0002101E056
:105760000199491C01918142FADB019A0099895CF7
:105770000029F5D1019904981A9B471A2146384609
:10578000199A00F099FA4019019903E051E030E1CB
:1057900015E050E0451807E0009800990078491C92
:1057A00000911A9A199990470198401E0190401C47
:1057B000F2D1214638461A9B199A12E137E00A20A5
:1057C0000021009001916002410F022907D0189A30
:1057D00001CA1892C2179446032908D00AE0189803
:1057E000C01DC108C90005C91891944607E000B260
:1057F000C2179446042902D140B2C1178C46002238
:105800006146944506DA0A460021404291418C46A1
:105810002D2102E0210504D52B216A4611730121B7
:1058200003E0E10701D02021F7E7029156E00A20CA
:105830000AE0102008E0102000900021042004431A
:105840000191082703E008200021019100906002E7
:10585000410F022907D0189A01CA189200229446D3
:10586000032908D008E01898C01DC108C90005C95F
:105870001891944603E080B2042900D1C0B20021FF
:10588000029121072AD531780D91702906D0009A0E
:105890001021019B4A401A4305D00EE040216A4680
:1058A0001173012108E06146014306D030216A46A8
:1058B00011730D99517302210291009A0821019BE5
:1058C0004A401A430AD16146014301D1610705D517
:1058D00030216A46117301217F1E029131785829C7
:1058E00004D02EA10E910DA90D910DE030A1F9E784
:1058F0006146019B009AFAF727FC0E9B8C469B5C45
:105900000D9A521E0D92137061460143F0D10D980D
:1059100005A9081A20300190600703D50120000472
:10592000844300E001270198874201DD381A00E036
:105930000020019900904118029809180498401A13
:105940000490E00306D421461A9B199A049800F0AB
:10595000B3F94519002706E003A81A9AC05D199902
:1059600090476D1C7F1C02988742F5DBE0030CD545
:1059700021461A9B199A049800F09EF9451904E0F3
:105980001A9A3020199990476D1C0099481E009072
:105990000029F5DC1FE00000092801003031323316
:1059A000343536373839616263646566000000005B
:1059B0003031323334353637383941424344454645
:1059C000000000000D980D990078491C0D911A9A5D
:1059D000199990476D1C0199481E01900029F1DC2E
:1059E0004DE100F059F94519761C3078002800D0B7
:1059F000DFE528461BB0F0BD600700D406271898E5
:105A0000C01DC108C90048680A680831C30FDB0718
:105A10001891190001D09CA108E0210501D59BA196
:105A200004E0E10701D09AA100E09AA1430010919F
:105A300030785B0865280CD006DC452809D046285C
:105A40001DD0472841D141E0662818D067283CD1B5
:105A50003CE00021112F01DB112000E0781C0191B6
:105A6000009008A911A8FFF7E5FC13990591002102
:105A7000119A15927F1C12980197009150E0012015
:105A8000C00703900120019008A9009711A8FFF713
:105A9000D1FC139A149905920022119B009212983E
:105AA0001593059A0192002901D0104602E0791C55
:105AB00040180190381A01D5019804E04042401E78
:105AC0000090781C0190C01B029043E0012F00DA87
:105AD00001270021112F01DD112000E0384601913E
