:020000040000FA
:10000000401D002081010000890100008B010000DB
:1000100000000000000000000000000000000000E0
:100020000000000000000000000000008D01000042
:1000300000000000000000008F010000910100009E
:100040009301000093010000930100009301000060
:1000500005090000930100009301000093010000D6
:100060009301000093010000195100003552000077
:100070005153000093010000930100009301000020
:100080009301000093010000930100009301000020
:100090009301000093010000930100009301000010
:1000A0009301000093010000930100009301000000
:1000B0004106000093010000491F00009301000069
:1000C00000F002F800F030F80CA030C8083824180E
:1000D0002D18A246671EAB4654465D46AC4201D180
:1000E00000F022F87E460F3E0FCCB6460126334282
:1000F00000D0FB1AA246AB4633431847186D0000E8
:10010000386D00000023002400250026103A01D39A
:1001100078C1FBD8520700D330C100D50B607047BF
:100120001FB51FBD10B510BD00F0F0F91146FFF767
:10013000F7FF06F041FA00F008FA03B4FFF7F2FF08
:1001400003BC00F00FFA000070B505460C461646D9
:1001500002E00FCC0FC5103E102EFAD2082E02D3AB
:1001600003CC03C5083E042E07D301CC01C5361FBE
:1001700003E021782970641C6D1C761EF9D270BDD5
:100180000748804707480047FEE7FEE7FEE7FEE72F
:10019000FEE7FEE704480549054A064B70470000A4
:1001A000A92C0000C1000000400D0020401D0020CF
:1001B00040150020401500204343514330B55C18E2
:1001C000010C130C0D4692B25D4380B251432C19C1
:1001D000054655430A0C09044D1962415843010C68
:1001E00000044019514130BDFEB5054610460C468D
:1001F000184373D0AE468C460020AD1A01469C4190
:1002000067D36646002701243D46B61A9D4102D3B6
:1002100013463A462124654676462F04360C3E4363
:100220002D0CB61A9D4104D3150C1B042B4312044C
:100230001034654676462F06360A3E432D0AB61A16
:100240009D4104D3150E1B022B4312020834654650
:1002500076462F0736093E432D09B61A9D4104D331
:10026000150F1B012B431201241D65467646AF076F
:10027000B6083E43AD08B61A9D4104D3950F9B00C6
:100280002B439200A41C65467646EF0776083E4352
:100290006D08B61A9D411AD392185B41641C16E092
:1002A0000018764665464941B71A9D410191009074
:1002B00009D36046B11A98418E4684460098019948
:1002C0000025401C6941DD0752082A435B08641E73
:1002D000E6D57246634603B0F0BDFFE70020014655
:1002E000C046C0462A462346F5E7F8B5042A2CD373
:1002F000830712D00B78491C0370401C521E8307E1
:100300000BD00B78491C0370401C521E830704D08D
:100310000B78491C0370401C521E8B079B0F05D0A5
:10032000C91ADF002023DE1B08C90AE0FFF70CFF13
:10033000F8BD1D4608C9FD401C46B4402C4310C002
:10034000121F042AF5D2F308C91A521EF0D40B78F2
:10035000491C0370401C521EEAD40B78491C0370E0
:10036000401C012AE4D409780170F8BD01E004C002
:10037000091F0429FBD28B0701D50280801CC90705
:1003800000D00270704700290BD0C30702D0027062
:10039000401C491E022904D3830702D50280801C19
:1003A000891EE3E70022EEE70022DFE700220309CF
:1003B0008B422CD3030A8B4211D300239C464EE080
:1003C00003460B433CD4002243088B4231D303093C
:1003D0008B421CD3030A8B4201D394463FE0C309EE
:1003E0008B4201D3CB01C01A524183098B4201D306
:1003F0008B01C01A524143098B4201D34B01C01AF1
:10040000524103098B4201D30B01C01A5241C30868
:100410008B4201D3CB00C01A524183088B4201D3D7
:100420008B00C01A524143088B4201D34B00C01AC3
:100430005241411A00D201465241104670475DE0D8
:10044000CA0F00D04942031000D34042534000225B
:100450009C4603098B422DD3030A8B4212D3FC2204
:10046000890112BA030A8B420CD3890192118B4283
:1004700008D3890192118B4204D389013AD0921199
:1004800000E08909C3098B4201D3CB01C01A524154
:1004900083098B4201D38B01C01A524143098B421D
:1004A00001D34B01C01A524103098B4201D30B0106
:1004B000C01A5241C3088B4201D3CB00C01A52412B
:1004C00083088B4201D38B00C01A5241D9D2430812
:1004D0008B4201D34B00C01A5241411A00D201464F
:1004E000634652415B10104601D34042002B00D5B9
:1004F0004942704763465B1000D3404201B500207B
:10050000C046C04602BD704770477047754600F050
:1005100025F8AE46050069465346C008C00085462A
:1005200018B020B5FFF736FE60BC00274908B64674
:100530000026C0C5C0C5C0C5C0C5C0C5C0C5C0C5F2
:10054000C0C5403D49008D46704710B50446C046C1
:10055000C0462046FFF7F1FD10BD0000004870477F
:10056000E00C002001491820ABBEFEE72600020087
:10057000704770B58C180578401C6B075B0F01D174
:100580000378401C2A1106D10278401C03E006784B
:10059000401C0E70491C5B1EF9D12B0705D40023AB
:1005A000521E0DD40B70491CFAE70378401CCB1A7D
:1005B000921C03E01D780D70491C5B1C521EF9D57E
:1005C000A142D8D3002070BD30B5014600200022E2
:1005D00000BF10E00B5C1B071B0F8418074D2B5549
:1005E0000B5CF02423401C1183185B1CEC54531C3F
:1005F000DAB2431CD8B20828ECDB30BD9A010020E7
:1006000030B50246002015E0145C092C03DC145CB4
:100610003034E3B208E0145C0A2C05DB145C0F2CC8
:1006200002DC145C3734E3B20C1A641E034D2B5504
:10063000441CE0B28842E7DB30BD0000520C0020D1
:1006400000BF3448C068C007C00F0121484048407F
:1006500000285DD000BF2F4800690840484048404E
:10066000002855D000BF01202A49086100BF2A4850
:100670000088002804DD28480088401E264908809C
:1006800026480088002804DD24480088401E2349AD
:10069000088023480088002804DD21480088401E87
:1006A0001F4908801F480088002804DD1D48008875
:1006B000401E1C4908801C480088002804DD1A4898
:1006C0000088401E1849088018480088002804DD6A
:1006D00016480088401E15490880154800880028E3
:1006E00004DD13480088401E114908801148006845
:1006F000002804D00F480068401E0E4908600E48CC
:100700000068002804D00C480068401E0A490860B0
:1007100070470000003001406200002028000020E7
:10072000200000205C0100201E0000202600002088
:1007300060000020700100207401002010B501F05D
:1007400077FE01F065FE00F003F800F009F810BD37
:1007500008B5022000901C21684601F051F908BD3F
:1007600000BF04480068012108430249086000BF37
:100770007047000000300140F8B505460E46124CA7
:100780001248009000276946684601F01FFD13E0FB
:1007900028786D1C444000270CE0E007C00F0028BB
:1007A00005D06010694609884840044600E064109E
:1007B000781CC7B2082FF0DB3046711E8EB20028BD
:1007C000E6D12046F8BD0000FFFF000005800000D4
:1007D0007CB502F015F90A2000F0E6FD002409E0DE
:1007E0000A2000F0E1FD02F00BF961006A46505268
:1007F000601CC4B2032CF3DB002500241BE0600066
:100800006946085AC01300280ED06000085A00211B
:10081000C943081A401C61006A465052600069468C
:10082000085A281A85B204E060006946085A40193F
:1008300085B2601CC4B2032CE1DBE81301280ED1A1
:10084000801E401B401C85B203212846FFF7B8FDDF
:1008500085B20020C043401B401C85B204E0032148
:100860002846FFF7ADFD85B228467CBD10B502F0E5
:100870001DF90E21014804F0BFFE10BDC900002083
:1008800010B509480078002802D0012808D103E0FB
:10089000022002F007F804E0022002F021F900E053
:1008A00000BF00BF10BD00000E00002010B50948B9
:1008B0000078002802D0012808D103E0012001F0CF
:1008C000F1FF04E0012002F00BF900E000BF00BFDF
:1008D00010BD00000E00002070B5054608480570E8
:1008E000FFF7E4FFFFF774FF0446FFF7C9FF232C6F
:1008F00002DD2046233884B22646304670BD000013
:100900000E00002000BF0A48C06A022108404008CB
:1009100000280CD000BF0648006B084040080028A3
:1009200005D000BF02200249086300BF00BF704726
:1009300000240040012101607047000070B50446AA
:10094000012500BF206800280BD02068012808D0AE
:100950002068022805D02068032802D020680428D7
:1009600001D1012000E00020002801D100BFFEE7F6
:1009700000BF00BFA068002802D0A068012801D1F4
:10098000012000E00020002801D100BFFEE700BFE9
:1009900000BFE068002808D0E068082805D0E068BB
:1009A000102802D0E068182801D1012000E00020C2
:1009B000002801D100BFFEE700BF2068042814D141
:1009C00000BF6068002808D06068012805D0606812
:1009D000022802D06068032801D1012000E0002035
:1009E000002801D100BFFEE71AE000BF60680028C0
:1009F0000ED0606801280BD06068022808D06068BB
:100A0000032805D06068042802D06068052801D159
:100A1000012000E00020002801D100BFFEE700BF58
:100A2000FF2001302649896B0143254A916300BFAD
:100A3000206804280ED10421224800F037FA6168AA
:100A4000880120494969C022914301431D4A5161EF
:100A500000BF20E000211B4800F028FA2068184958
:100A600040318968890889000143154A4032916004
:100A700000BF61688800114689681C2291430143C8
:100A80000F4A4032916000BF90131146C96801437C
:100A9000D16000BF00BFA0680A4949698908890080
:100AA0000143084A516100BFE068114649691822B4
:100AB00091430143034A516100BF284670BD0000C5
:100AC00000240040005C01408168490849008160C1
:100AD0007047816849084900816070478169012237
:100AE0001204914381617047026A4B005B089A438C
:100AF00002627047816801221143816070478168FA
:100B00000222114381607047026A4B005B081A435E
:100B100002627047F8B505460C4601200090002699
:100B200000BFDB48854201D1012000E00020002801
:100B300001D100BFFEE700BF00BF2068002804D03D
:100B4000012149022068884201D1012000E00020F3
:100B5000002801D100BFFEE700BF00BF6068002889
:100B600004D00121C9026068884201D1012000E05F
:100B70000020002801D100BFFEE700BF00BFE068F1
:100B8000002802D0E068042801D1012000E0002004
:100B9000002801D100BFFEE700BF00BF2069002888
:100BA00008D02069012805D02069022802D02069D8
:100BB000032801D1012000E00020002801D100BF5E
:100BC000FEE700BF00BF2020005D002803D02020EA
:100BD000005D012801D1012000E00020002801D1A2
:100BE00000BFFEE700BF00BF606A002821D00121DE
:100BF0004904606A88421CD04900606A884218D063
:100C000003214904606A884213D00121C904606A43
:100C100088420ED005214904606A884209D0032128
:100C20008904606A884204D007214904606A8842C6
:100C300001D1012000E00020002801D100BFFEE723
:100C400000BF00BFA06A002826D001210905A06AC4
:100C5000884221D04900A06A88421DD0032109059D
:100C6000A06A884218D001218905A06A884213D061
:100C700005210905A06A88420ED003214905A06A12
:100C8000884209D007210905A06A884204D00121C1
:100C9000C905A06A884201D1012000E00020002897
:100CA00001D100BFFEE700BF012000037949496B75
:100CB0000143784A516300BF00BF77480068C0070E
:100CC000C00F01214840484000280DD100BF01203D
:100CD0007149886000BF00BF0846006801210843D1
:100CE0006D49086000BF00BF00BF6B48006802216B
:100CF00008436949086000BF05E07D208002864204
:100D000000D30AE0761C00BF63488068C007C00FAC
:100D10000121484048400028EFD000BF2846FFF797
:100D2000D3FE2846FFF7DAFE00BFA868012108437A
:100D3000A86000BF00BF56480069084354490861D5
:100D400000BF002600BF00BF5148006810210840C6
:100D5000070900BF761C701C002801D0002FF2D0BC
:100D6000012F7DD100BF10204949086000BF2846EF
:100D7000FFF7AAFE00BFA86838400121484048405C
:100D800000287DD12068A9697A0291430143A961B5
:100D900000BF6068A969920091430143A96100BF47
:100DA000207A002806D000BFA86951100843A86126
:100DB00000BF07E000BFA869012189028843A8613C
:100DC00000BF00BF607A002807D000BFA869FF21DC
:100DD00001310843A86100BF07E000BFA869FF21F7
:100DE00001318843A86100BF00BFE068A9690422FF
:100DF00091430143A96100BF00BF68692021884376
:100E0000686100BF2069E968890889000143E960D9
:100E100000BF6069A969F02291430143A96100BF45
:100E2000A069E96991430143E96100BFE069E969AB
:100E3000090909010143E96100BF2020005D002884
:100E40001AD0606AA9690722520491430143A9613B
:100E500000BFA06AA9690F2212059143014301E076
:100E600011E00DE0A96100BF00BFA86901210904DC
:100E70000843A86100BF08E02846FFF72FFE04E002
:100E80000020009001E0002000900098F8BD0000D4
:100E9000005C01400024004000A4014001460868B5
:100EA000C007C00F012250405040704742690423E0
:100EB0009A430A43426170474169012211434161EB
:100EC0007047000070B505460C46052600BF614816
:100ED000854201D1012000E00020002801D100BF9F
:100EE000FEE700BF00BFA06800280BD0A068102854
:100EF00008D0A068202805D0A068402802D0A068AB
:100F0000602801D1012000E00020002801D100BFAD
:100F1000FEE700BF00BF6069002808D0FF21013153
:100F20006069884203D049006069884201D101208C
:100F300000E00020002801D100BFFEE700BF00BF95
:100F40002069012802D02069002801D1012000E099
:100F50000020002801D100BFFEE700BF00BF2068CD
:100F6000002802D02068802801D1012000E0002064
:100F7000002801D100BFFEE700BF2068364949685C
:100F8000802291430143344A516000BF102000F099
:100F90009BF80120C00300F087F8A069296B090ABB
:100FA00009020143296300BFA068202804D040281B
:100FB00003D060280BD101E000BF00BF002128460C
:100FC00000F05AF82846A16800F050F808E02846DA
:100FD000A16800F051F80021284600F047F800BF52
:100FE00000BFE068E96A090C09040143E96200BF37
:100FF000606929680322120291430143296000BFFE
:101000006068A96A090C09040143A96200BF20694C
:10101000012806D100BF286880210843286000BF4E
:1010200006E000BF286880218843286000BF00BF19
:101030002846FFF741FF00E0761E064800F00EF854
:10104000002801D1002EF7D100BF0120014908611D
:1010500000BF70BD003001404024004001460869D7
:10106000C007C00F01225040504070470268602303
:101070009A430A4302607047026810239A430A4366
:1010800002607047016801221143016070470168E6
:1010900002221143016070470249C96B0143014AB2
:1010A000D1637047002400400249C9680143014AE6
:1010B000D1607047402400400249C9680143014A99
:1010C000D160704740240040024909680143014A49
:1010D000116070474024004010B5002400BF1B4839
:1010E000006807210902084005221202811A904275
:1010F00018D006DC00280DD001218902401A1DD12C
:101100000CE0C81FF938002810D0FF38013800283B
:1011100014D10FE000F0FCF8044613E000F0F8F8FA
:1011200044080FE000F0F4F884080BE000F0F0F859
:10113000C40807E000F0ECF8040903E000F0E8F868
:10114000044600BF00BF204610BD00000024004040
:1011500010B5002400BF1B4800680721090408409F
:1011600005221204811A904218D006DC00280DD006
:1011700001218904401A1DD10CE001200004081A45
:1011800010D001210904401A14D10FE0FFF7A4FF89
:10119000044613E0FFF7A0FF44080FE0FFF79CFFB1
:1011A00084080BE0FFF798FFC40807E0FFF794FFFF
:1011B000040903E0FFF790FF044600BF00BF20468C
:1011C00010BD00000024004070B50024002500BFC1
:1011D0002648C06802210840002802D0022807D112
:1011E00003E000F047F8044606E02148046803E005
:1011F00000F040F8044600BF00BF00BF1B48C068B5
:10120000702108400107090F00291FD100110300B8
:1012100004F0E8FC080506080A0C12141A1C16E073
:10122000640814E0A40812E0E40810E00C21204651
:10123000FFF7BCF804460AE0240908E0182120461C
:10124000FFF7B4F8044602E0640900E000BF00BF05
:1012500000BF0648C0687F2109040840000C451CF7
:10126000204668430446204670BD0000002400402C
:1012700004000020002000BF0D4949680F2212041D
:101280001140002908D001221204891A06D0891AB7
:1012900006D0891A08D105E0064807E0064805E0AF
:1012A000064803E0064801E0024800BF00BF70475F
:1012B0000024004000127A000024F40000366E0181
:1012C0000048E801002000BF1049496A03221204C7
:1012D0001140002908D001221204891A07D0891A66
:1012E00008D0891A0CD108E04B2040030BE04B20BA
:1012F000C00208E04B20800205E04B20400202E0E3
:101300004B20400300BF00BF704700000024004096
:1013100010B5002400BF144800684007400F0300C8
:1013200004F060FC0705090C1A1014171A00FFF7E7
:10133000A1FF044614E00D48046811E0FFF744FFE4
:1013400004460DE0FFF7BEFF044609E008480468C4
:1013500006E00124E40303E0FFF78CFF044600BF2E
:1013600000BF204610BD0000002400400400002003
:1013700000000020034989681C2291430143014A6F
:1013800091607047402400400648006904210843EA
:1013900004490861084600690121084301490861C0
:1013A0007047000000E000E010B5044603E07D2037
:1013B000C00000F005F82046641E0028F7D110BDDB
:1013C00010B504460C490D480068FEF7EFFF444392
:1013D00001200006844200D900E020460446601E39
:1013E000074948610020886100BF05480069C003C3
:1013F000C00F0028F9D010BD40420F0008000020A7
:1014000000E000E0014600BF0868002804D0012287
:1014100092070868904201D1012000E000200028D6
:1014200001D100BFFEE700BF80200D4A526B02438E
:101430000B4B5A6300BF0006094A4032D268024390
:10144000074B4033DA6000BF08681A4652681B0633
:101450009A430243024B40335A6000BF0120704759
:1014600000240040FEB504460D4600200190664968
:1014700066480068FEF79AFFC8214843009000BF05
:10148000012C2FD0022C2DD0042C2BD0082C29D0AD
:10149000102C27D0202C25D0402C23D0802C21D0DC
:1014A000FF20013084421DD0400084421AD0400009
:1014B000844217D04000844214D04000844211D0AE
:1014C000400084420ED0400084420BD04000844251
:1014D00008D04000844205D04000844202D0400041
:1014E000844201D1012000E00020002801D100BF8A
:1014F000FEE700BF00BF2868002808D02868012840
:1015000005D02868022802D02868032801D10120CC
:1015100000E00020002801D100BFFEE700BF00BFAF
:101520006868002805D06868012802D06868022829
:1015300001D1012000E00020002801D100BFFEE71A
:1015400000BF00BFA868012802D0A868002801D108
:10155000012000E00020002801D100BFFEE700BF0D
:101560000294002604E0029840080290701CC6B263
:1015700002980128F7D13746F017000FC019001163
:101580000001301A4300286898400146B000204B03
:101590001A5820489047A868012809D100BF1D4863
:1015A00000696103490B08431A49086100BF03E061
:1015B0002146184800F03CF83746F017000FC019D4
:1015C0000011800014490B58214612486A68984758
:1015D0000020019003E000BF0198401C0190009999
:1015E00001988842F7D321460A4800F019F81E20D6
:1015F000002805DBC206D20E01219140074A116086
:1016000000BF0120FEBD000040420F000800002086
:10161000C06D0000C00D00400C6E000080E200E0D4
:101620004A03520B426170474A03520B42617047B2
:1016300002694B035B0B9A4302617047826A8BB26B
:101640009A438262704702688BB29A430260704785
:1016500082688BB29A438260704742688BB29A4329
:1016600042607047026A8BB29A4302627047024638
:10167000D0698BB218408BB2984201D101207047DB
:101680000020FCE7F8B506460C460027002500BF01
:10169000724886420ED07148403086420AD06F4868
:1016A0008030864206D06D48C030864202D06C48F9
:1016B000864201D1012000E00020002801D100BFB6
:1016C000FEE700BF00BF2068002805D965492068F3
:1016D000884201D8012000E00020002801D100BF8D
:1016E000FEE700BF00BF6068032808D060680028DC
:1016F00005D06068012802D06068022801D101206D
:1017000000E00020002801D100BFFEE700BF00BFBD
:10171000A068012802D0A068002801D1012000E0C3
:101720000020002801D100BFFEE700BF00BFE06835
:10173000002802D0E068012801D1012000E000204B
:10174000002801D100BFFEE700BF00BF606900288C
:1017500002D06069012801D1012000E000200028AA
:1017600001D100BFFEE700BF80203F49496B014324
:101770003D4A516300BF6AE00121B940206808403A
:101780000546002D62D0606803281AD129463046EC
:10179000FFF759FF29463046FFF75FFF29463046DD
:1017A000FFF756FF6069012806D100BFB06AA9B2F1
:1017B0000843B06200BF33E029463046FFF73EFFE2
:1017C0002EE029463046FFF739FF6068002806D131
:1017D00000BF3068A9B20843306000BF03E029466B
:1017E0003046FFF730FFA068002804D12946304674
:1017F000FFF72EFF06E000BFB068A9B20843B06053
:1018000000BF00BFE068002806D000BF7068A9B222
:101810000843706000BF03E029463046FFF71DFF14
:10182000606802280DD12069012806D100BF306A06
:10183000A9B20843306200BF03E029463046FFF7F3
:1018400011FF29463046626800F0AEF87F1C206820
:10185000F840002890D10120F8BD0000000C0040A5
:10186000000D0040FFFF00000024004002465069C8
:101870004B035B0B18404B035B0B984201D10120DB
:1018800070470020FCE782698BB21A43826170477F
:1018900082698BB21A438261704702689208920093
:1018A0000A430260704702680C239A430A430260AD
:1018B0007047026803231B059A430A43026070477E
:1018C000026803239B059A430A430260704702683B
:1018D00003231B069A430A430260704702680323EE
:1018E0009B069A430A4302607047026803231B0762
:1018F0009A430A43026070470268920092080A43C2
:10190000026070474268920892000A434260704742
:1019100042680C239A430A4342607047426830236E
:101920009A430A4342607047026830239A430A434D
:10193000026070470268C0239A430A4302607047FE
:10194000026803231B029A430A430260704702683D
:1019500003239B029A430A430260704702680323F1
:101960001B039A430A4302607047026803239B03E8
:101970009A430A4302607047026803231B049A4398
:101980000A4302607047026803239B049A430A4398
:101990000260704742698BB21A43426170474269E4
:1019A0008BB21A434261704730B5C3680C464C4352
:1019B00065006419A3430C464C4354432343C3605E
:1019C00030BD30B583680C464C4365006419A343B1
:1019D0000C464C4354432343836030BD10B50B0C7D
:1019E0005B435C001C19C368A3430C0C6443544361
:1019F0002343C36010BD10B5FFF7C6FC10BD000047
:101A000070B505460C462868032801D903202860D4
:101A10002046002805DBC206D20E01219140094A6A
:101A2000116000BF2046296800F082FF2046002890
:101A300006DBC206D20E01219140024A803A1160B3
:101A400000BF70BD80E100E04168012211434160A8
:101A5000704741680122114341607047416801228B
:101A60001143416070470000F8B505460C46002759
:101A700000200090002600BFAD4885420BD0AD4845
:101A8000854208D0AC48854205D0AC48854202D09A
:101A9000AB48854201D1012000E00020002801D19F
:101AA00000BFFEE700BF00BF2068002814D02068F8
:101AB000012811D0206802280ED0206803280BD0FE
:101AC0002068002808D02068042805D0206808284D
:101AD00002D020680C2801D1012000E0002000285D
:101AE00001D100BFFEE700BF00BFA068C02808D03A
:101AF000A068002805D0A068402802D0A0688028EF
:101B000001D1012000E00020002801D100BFFEE744
:101B100000BF00BF2069002805D02069102802D02E
:101B20002069202801D1012000E00020002801D1F7
:101B300000BFFEE700BF00BFE068002804D0FF211F
:101B40000131E068884201D1012000E00020002836
:101B500001D100BFFEE700BF00BF6069002808D0C8
:101B60006069022805D06069012802D060690328F5
:101B700001D1012000E00020002801D100BFFEE7D4
:101B800000BF6B4885422CD120686E49496889089E
:101B9000890001436B4A516000BF2068002806D0CD
:101BA000012808D002280AD0032810D10BE0FFF743
:101BB000CFFA00900FE0FFF75DFB00900BE0FFF71E
:101BC000A7FB009007E060480068009003E0FFF783
:101BD000BFFA009000BF00BF61680098FEF7E6FB07
:101BE000461E544885422CD12068564949680C222B
:101BF00091430143534A516000BF2068002806D03A
:101C0000042808D008280AD00C2810D10BE0FFF7D0
:101C10009FFA00900FE0FFF72DFB00900BE0FFF71D
:101C200077FB009007E048480068009003E0FFF76A
:101C30008FFA009000BF00BF61680098FEF7B6FB06
:101C4000461E3B48854206D18015FFF725FAA815A8
:101C5000FFF732FA35E03748854206D14015FFF7E5
:101C60001BFA6815FFF728FA2BE0334885420BD1A1
:101C7000C014FFF711FAFFF76BFA00906168009843
:101C8000FEF794FB461E1CE02C4885420BD18014C5
:101C9000FFF702FAFFF75CFA009061680098FEF720
:101CA00085FB461E0DE0264885420AD14014FFF709
:101CB000F3F9FFF74DFA009061680098FEF776FBA4
:101CC000461E207DC007C00F002806D000BF286830
:101CD00001210843286000BF00BF0221606908405D
:101CE000002805D000BF28680843286000BF00BF57
:101CF00000BFA869000C00043043A86100BFE06881
:101D00002968FF22013291430143296000BFA06886
:101D10002968C02291430143296000BF20692968D6
:101D2000302291430143296000BF01273846F8BDA6
:101D30000020014000680140007001400074014033
:101D40000078014040240040040000204269520A0B
:101D500052020A43426170474269520A52020A43E0
:101D6000426170474269520A52020A434261704717
:101D700070B505460C4600BF4348854201D101209D
:101D800000E00020002801D100BFFEE700BF00BF37
:101D90002068002814D02068102811D0206820283E
:101DA0000ED0206830280BD02068402808D020684A
:101DB000502805D02068602802D02068702801D102
:101DC000012000E00020002801D100BFFEE700BF95
:101DD00000BF606800282CD06068012829D06068A6
:101DE000022826D06068032823D06068042820D009
:101DF000606805281DD0606806281AD0606807282A
:101E000017D06068082814D06068092811D060686D
:101E10000A280ED060680B280BD060680C2808D008
:101E200060680D2805D060680E2802D060680F2811
:101E300001D1012000E00020002801D100BFFEE711
:101E400000BF1248FFF723F91048FFF71BF960683D
:101E50000121C902691889680909090101430122A0
:101E6000D202AA18916000BF20680121C902691836
:101E700089687022914301430122D202AA1891601D
:101E800000BF012070BD000000F0014000E00140F3
:101E900010B500F00BFE0621014803F0ADFB10BDAC
:101EA0008400002010B500F001FE1221014803F06B
:101EB000A3FB10BDD700002010B5082209490A482D
:101EC000FEF713FA0F210848C01E00F03FFE064936
:101ED000C91E487300F0EAFD0F210348C01E03F03D
:101EE0008BFB10BD64000020AE00002010B500F098
:101EF000DDFD0621014803F07FFB10BD90000020AE
:101F000010B5082209490A48FEF7EFF90F210848E1
:101F1000C01E00F01BFE0649C91E487300F0C6FD36
:101F20000F210348C01E03F067FB10BD64000020B2
:101F3000BD00002010B500F0B9FD0621014803F0F6
:101F40005BFB10BD8A00002010B501210F48FFF790
:101F50008DFC012808D101210C48FFF765FB0C48D6
:101F60000078401C0A490870012109030748FFF75F
:101F70007DFC012808D101030448FFF755FB054803
:101F80000078401C0349087010BD0000C00D0040DF
:101F90006A0100206B010020F3B581B00E460027D6
:101FA0000C20FFF7E7F919491948FEF79DFD18487D
:101FB0000199FEF7A9FD1648FEF7BCFC1448FEF790
:101FC00099FD1348FEF79BFD00BF1148FEF766FF21
:101FD00004467F1C781C002801D0002CF5D0012C71
:101FE00010D10B48FEF7A6FC00BF0948806A80B2FA
:101FF00030600748FEF76DFD05480199FEF774FD56
:10200000002500E001252846FEBD0000FFFF0F006F
:10201000005C0140F1B58AB000200890079006905E
:1020200008A800F035F8059006A90A98FFF7B4FF54
:1020300004900898002821D0059800281ED1049803
:1020400000281BD10F49069803F0B4FD0E4A1489ED
:10205000002506460F4622462B46FEF7ADF80191B5
:1020600000900A49089803F0A5FD02460B4603912B
:10207000029001990098FEF7B7F8079007980BB007
:10208000F0BD0000B80B000000FBFF1FFF0F0000B9
:10209000F8B5064600270C20FFF76CF900BF204872
:1020A0000069012108431E49086100BF1D491E48FF
:1020B000FEF71AFD012109061B48FEF725FD1A4807
:1020C000FEF738FC1848FEF715FD1748FEF717FD18
:1020D00000BF1548FEF7E2FE04467F1C781C00286E
:1020E00001D0002CF5D0012C17D10F48FEF722FCAF
:1020F00000BF0D48806A80B230600B48FEF7E9FCF3
:1021000021060948FEF7F0FC00BF05480069A0431E
:102110000349086100BF002500E001252846F8BDFD
:1021200000A40140FFFF0F00005C014010B500F06B
:10213000BDFC0621014803F05FFA10BD96000020A7
:1021400000B587B0FF20013001900120029003907C
:10215000002004900590069001A91B48FFF792FA11
:102160000120400201900120029003900020049081
:102170000590069001A91448FFF784FA40200190C9
:10218000012002900390002004900590069001A980
:102190000D48FFF777FA802001900120029003900C
:1021A000002004900590069001A90748FFF76AFAFD
:1021B000012149020448FFF7F2FB80210248FFF7A2
:1021C000EEFB07B000BD0000800C00403CB50246AD
:1021D000002300930193002011E00B880124844028
:1021E0002340002B09D06B461B880F24251A01249D
:1021F000AC4023439CB26B461C80431CD8B21028D1
:10220000EBDB6B461B8813803CBD0000F8B506462F
:102210000F460024002568222146641C16484254BB
:10222000AA222146641C425407222146641C4254BF
:102230002146641C46542146641C475400200E4924
:10224000085500BF08E00C48005D0B49495D401887
:1022500009490855681C85B2052DF4DB601C84B261
:1022600016222046611C8CB203490A5421460248BA
:1022700003F02AFAF8BD0000AC090020F0B50246D0
:102280000B4600200021002500243CE0861D9E42D4
:1022900000DD39E0165C682E33D10021861C915D8B
:1022A00046189E422DDC4618761E965D162E28D1C5
:1022B0000025002405E00619965D7619F5B2661C26
:1022C000F4B28E1EA642F6DC4618B61E965DAE42ED
:1022D00017D1C61C965D002E04D0012E06D0022E0A
:1022E0000CD107E00126094F3E7007E00226074F98
:1022F0003E7003E00326054F3E7000BF00BF461846
:10230000B0B2461CB0B2C1E700BFF0BD6D01002005
:1023100010B500210120FFF779FF10BD10B5002195
:102320000846FFF773FF10BD10B504210220FFF728
:102330006DFF10BD06480088002807D11020054910
:1023400049690143034A516100BF00BF7047000063
:102350005C010020400C00401020054989690143C0
:10236000034A916100BFFF20913002490880704705
:10237000400C00405C0100201FB5012000900320AC
:1023800001900020029003906846FEF7D7FA1FBD27
:1023900010B5FFF7F1FF00F001F810BD00B591B0E6
:1023A00004200B9003200C9000200D900E900F90B5
:1023B00010900BA91448FFF765F9002000900190D8
:1023C000012168460172417200200390049005903B
:1023D000502006900F200790002108A801700320CC
:1023E00040040990012080050A9069460748FEF7DD
:1023F00091FB40210548FEF787FB012109060348B0
:10240000FEF782FB11B000BDC00C0040005C014033
:1024100000BF01200549086100BF00BF0846C06831
:10242000012108430149C86000BF704700300140E6
:1024300000B587B000200090072001900020029096
:1024400005480390002005900690049069460348D3
:10245000FEF738FD07B000BDE70300000030014083
:102460001CB5102000900820019069460148FFF734
:102470007FFC1CBD00F0014010B500BF4F48006854
:10248000012108434D49086000BF00BF08460068AD
:10249000022108434949086000BF04204849496BAC
:1024A0000143474A516300BF00204649096B490A6E
:1024B00049020143434A116300BF04204049496B6C
:1024C00081433F4A516300BF00203F49096B490ADD
:1024D000490201433C4A116300BFFFF7C1FF00BF3F
:1024E00005203949CA148918486000BF7D20C00002
:1024F000FEF75AFF55203249C969090A090201430A
:102500002F4AD16100BF31490968090C2F4A12884E
:10251000D24392B2914202D12C49096800E0802155
:10252000C8B227498968090A09020143244A91600F
:1025300000BF0020114649680F2212049143014355
:102540001F4A516000BF00BF104640680121084388
:102550001146486000BF00201D49096889088900AC
:1025600001431B4A116000BF00BF15490968C90833
:10257000C9000143124A116000BF00BF114609683B
:1025800007221202914301430D4A116000BF00BFB0
:10259000114609680722120491430143084A116059
:1025A00000BF00BF05494968C908C9000143034A83
:1025B000516000BF00F0DAFA10BD000000E00140F9
:1025C000002400400010014000F0014040FBFF1FCC
:1025D0000010004008B5002000906846FEF712FF8A
:1025E00008BD10B5FFF7F6FF00F024F800F004F87E
:1025F00000F040F810BD000000B589B0082003903D
:10260000002004900590012006900020079008907B
:1026100003A90748FFF736F8002002900320009036
:102620000020019069460120FEF71CFF09B000BDA3
:10263000000C004000B589B00220039000200490F7
:1026400005900120069000200790089003A90848F3
:10265000FFF718F800200290012000900020019060
:10266000694601200003FEF7FDFE09B000BD000031
:10267000C00C004008B5002000901E216846FFF7FE
:10268000BFF908BD00B587B08020019002200290FC
:102690000020039004900590069001A90948FEF7D8
:1026A000F1FFFF20013001900220029000200390F2
:1026B00004900590069001A90248FEF7E3FF07B0D9
:1026C00000BD0000C00C004000B58DB001204003EB
:1026D0000790022008900020099001200A90002015
:1026E0000B900C9007A91148FEF7CCFF0120800346
:1026F000079002200890002009900A900B900C90FF
:1027000007A90A48FEF7BEFF002001904B20C00138
:102710000290032006904020039000200490059032
:1027200001A90348FFF7A0F90DB000BD000C00405F
:102730000020014010B500BFFF200130094988602A
:1027400000BF00BF08464068891508430549486036
:1027500000BF00BF0120886000BF0846FFF774F982
:1027600010BD00000020014000B58DB001204003E5
:10277000079002200890002009900A900B900C907E
:1027800007A91148FEF77EFF012080030790022071
:102790000890002009900A900B900C9007A90A4815
:1027A000FEF770FF002001904B20C0010290032033
:1027B00006904020039000200490059001A9034852
:1027C000FFF752F90DB000BD400C00400068014019
:1027D00010B500BFFF2001300949886000BF00BF6D
:1027E00008464068891508430549486000BF00BF96
:1027F0000120886000BF0846FFF72BF910BD0000DC
:102800000068014000B58DB00120079002200890BB
:102810000020099001200A900B9000200C9007A93D
:102820001148FEF72FFF0220079008900020099022
:102830000A9001200B9000200C9007A90A48FEF78F
:1028400021FF002001904B20C00102900320069040
:102850004020039000200490059001A90348FFF751
:1028600003F90DB000BD0000400C004000700140B5
:1028700010B500BFFF2001300949886000BF00BFCC
:1028800008464068891508430549486000BF00BFF5
:102890000120886000BF0846FFF7E0F810BD000087
:1028A0000070014010B50446012C02D0022C0AD160
:1028B00004E008210548FEF7E6FF05E0082103488B
:1028C000FFF768F800E000BF00BF10BD000D00403A
:1028D00010B50446012C02D0022C0AD104E02021BC
:1028E0000548FFF757F805E020210348FEF7CBFF26
:1028F00000E000BF00BF10BD800C004010B50822F2
:1029000009490A48FDF7F1FC0F210848C01E00F0F4
:102910001DF90649C91E487300F0C8F80F21034885
:10292000C01E02F069FE10BD640000209F00002060
:1029300010B5002819DB1A4A03231B02D21883089A
:102940009B00D2588307DC0EFF23A3409A438B07DA
:102950001B0E8407E40EA3401A43114B03242402E8
:102960001B198408A4001A5118E00E4A03071B0F14
:10297000083B9B089B00D2588307DC0EFF23A34033
:102980009A438B071B0E8407E40EA3401A43054BA2
:102990000407240F083CA408A4001A5110BD00002D
:1029A00000E100E01CED00E010B50446012C02D06F
:1029B000022C0AD104E008210548FEF7EBFF05E0F0
:1029C00008210348FEF75FFF00E000BF00BF10BD15
:1029D000800C004010B50446012C02D0022C0AD114
:1029E00004E004210548FEF7D5FF05E00421034873
:1029F000FEF749FF00E000BF00BF10BD800C0040A3
:102A000070B5002400250720254908709F204870D4
:102A100002F0F9FF802002F0ABFF002002F0A8FFD7
:102A200002211F4802F0E1FF03F000F810201C49CA
:102A300008700020487002F0E6FF802002F098FF46
:102A4000052002F095FF0221154802F0CEFF02F0AA
:102A5000EDFF1420FEF7A8FC02F0D5FF802002F065
:102A600087FF042002F084FF02F0CDFF812002F0F6
:102A70007FFF02210B4802F04AFF02F0D7FF09480E
:102A8000007800020849088008460088054949780E
:102A9000401805490880084604882546284670BD28
:102AA0000C0000207C0100209001002010B50024C3
:102AB00000BF05E00A21044802F09EFD601CC4B27C
:102AC000782CF7DB10BD00005201002010B5FFF795
:102AD000EDFF0921014802F08FFD10BD75000020B7
:102AE00010B50446012C02D0022C0AD104E00421C6
:102AF0000548FEF7C8FE05E004210348FEF74AFF3B
:102B000000E000BF00BF10BD000D004010B504463E
:102B1000012C02D0022C0AD104E010210548FEF756
:102B200039FF05E010210348FEF7ADFE00E000BFCD
:102B300000BF10BD800C004010B5FFF7B7FF0921A2
:102B4000014802F059FD10BD6C00002010B502468E
:102B50000B460021002000BF04E0545C2418E0B2C2
:102B60004C1CE1B29C1E8C42F7DC10BD10B54648EF
:102B700000684007400F030003F034F8073C050AE3
:102B80003C0F32373C00414800684149086051E041
:102B900000F008F93E4908604CE03B48406A800379
:102BA000800F002806D0012809D002280CD0032865
:102BB00014D10EE04B204003354908600EE04B2055
:102BC000C0023349086009E04B20800230490860A8
:102BD00004E04B2040022E49086000BF00BF29E0FE
:102BE0002C4800682A49086024E07D20000228491A
:102BF00008601FE0244840680003000F002813D03D
:102C0000012804D0022806D003280CD107E022486E
:102C10001F4908600CE021481D49086008E0204871
:102C20001B49086004E000BF1E481949086000BF46
:102C300000BF00BF00BF144800684005400F0428D3
:102C400006D005280AD006280ED0072818D111E092
:102C50000F48006840080E49086012E00C48006800
:102C600080080B4908600CE009480068C008084962
:102C7000086006E00648006800090549086000E0B1
:102C800000BF00BF10BD0000002400400400002071
:102C900008000020000000200024F40000366E012F
:102CA0000048E80100127A0010B53948406B012154
:102CB00009030843364948630846406B80210843AE
:102CC00033494863084600680121C9060843304972
:102CD00008605520C8610320090548602D488069B7
:102CE000000C2C49098BC94389B2884202D129487A
:102CF000806900E01020C006C00E2749886325487F
:102D0000C0300068000C2349C0310988C94389B22A
:102D1000884203D11F48C030006800E08020C0B264
:102D20001B4988601B48C0304068000C1949C031FD
:102D30008988C94389B2884203D11648C0304068A7
:102D400000E08020C0B21249886212488030006AD8
:102D5000000C10498031098CC94389B2884203D1E3
:102D60000C488030006A00E08020C0B20849486109
:102D70000A484068FF21813108430849486005201E
:102D80000749086001204860FFF7F0FE10BD000011
:102D90000024004080FAFF1F00200040C00C0040CB
:102DA0000028004010B500242C48C0688007C00FE0
:102DB000002802D001281BD117E0284840680003F2
:102DC000000F00280DD0012804D0022804D00328C9
:102DD00006D103E0224C06E0224C04E0224C02E043
:102DE00000BF224C00BF00BF02E02148046800BFC2
:102DF00000BF1A48C0684006400F030002F0F2FE10
:102E0000080507090B0D13151B1D00BF15E064080D
:102E100013E0A40811E0E4080FE00C212046FDF7C0
:102E2000C5FA044609E0240907E018212046FDF709
:102E3000BDFA044601E0640900BF00BF0748C0684E
:102E40004002400E401C44430448C0680007C00FC5
:102E5000002800D06400204610BD0000002400407F
:102E60000024F40000366E010048E80100127A00E8
:102E7000040000207047000010B5FE4800680028DC
:102E800000D010BDFC4800782A2874D243007B444F
:102E90009B885B009F44A700A800AE00C900ED001E
:102EA000120135015A017D01A201AF013202530224
:102EB0007402A302C402E5020603270348036F005D
:102EC0006F006F006F006F007803D6016F006F0016
:102ED0006F006F006F0056036F0029005B008200D7
:102EE0006F00C6036F006F003E04E44800680028CE
:102EF00021D0E3480078152817D10020E049087058
:102F0000DC490860DF488088DF49884206D1DF4815
:102F1000DA4908602320D849087017E00020D74913
:102F200008602920D449087010E002F0B9FED848A2
:102F3000D04908600AE00020D04908601021D1483B
:102F40007238FDF72FFA2920CB490870F3E3CB48FC
:102F50000068002816D0CA48007809280CD1002043
:102F6000C7490870C3490860C848C449086024209C
:102F7000C149087011E0DAE303F094FAC448BD498E
:102F800008600AE00020BD4908601021BD48723881
:102F9000FDF708FA2920B8490870CCE3B748006863
:102FA000002814D0B648007816280AD10020B44969
:102FB0000870B0490860B14908602920AE4908701E
:102FC00010E003F035FAB248AA4908600AE0002090
:102FD000AA4908601021AB487238FDF7E3F92920AF
:102FE000A5490870A7E3A6E303F004FC0220A24968
:102FF0000870A0E302F04EFCA249C03948800846A0
:103000004088A44988420CDD9E48C0384088A249C7
:10301000884206DA0320984908709C48974908605E
:1030200002E029209449087085E39448006800284C
:1030300018D09348007801280DD1002090490870DD
:103040007D2000018B49086090488C49086004206D
:10305000894908700CE0FFF761F97D20000185497E
:10306000086005E0894885490860052082490870A4
:1030700061E382480068002819D00020FDF72CFC8D
:103080008049C039C8800846C08804280ADD08463F
:10309000C0881E2806DA7D487849086005207649F0
:1030A00008700AE07D20C0007249086005E077489A
:1030B000724908600520704908703CE36F48006859
:1030C000002817D06E48007802280CD100206C49E7
:1030D00008706F48674908606C48684908600620B6
:1030E000654908700CE0FFF713F97D200001614984
:1030F000086005E065486149086007205E4908707E
:1031000019E35E480068002819D00020FDF7E4FBB1
:103110005C49C03908810846008904280ADD084650
:1031200000891E2806DA5948544908600720524988
:1031300008700AE07D20C0004E49086005E0534851
:103140004E49086007204C490870F4E24B4800687B
:10315000002817D04A48007803280CD1002048499D
:1031600008704B48434908604848444908600820B3
:10317000414908700CE0FFF7D7F87D2000013D4978
:10318000086005E041483D49086008203A49087058
:10319000D1E23A480068002819D00020FDF79CFBD6
:1031A0003849C03948810846408904280ADD084664
:1031B00040891E2806DA35483049086009202E4922
:1031C00008700AE07D20C0002A49086005E02F4809
:1031D0002A490860092028490870ACE22948C0380B
:1031E00040882849C03988810A20234908702B4823
:1031F000224908609FE22148006800281BD0012076
:10320000FDF76AFB1F49C03908820846008A042876
:103210000CDD0846008A1E2808DA002017490860DD
:103220001A4808601A20144908700AE07D20C0007E
:103230001049086005E01548104908601A200E4939
:10324000087078E20D480068002850D00C480078DB
:103250000A2846D100200A490870064908600B4830
:103260000649086007484038407A00060549373962
:10327000497815E0740100206C01002070010020E5
:103280006D010020C40C00209B03000010270000EB
:10329000B80B0000480D00006810000030750000F9
:1032A00009040843FE49897809020843FC49C978A2
:1032B0000843FB4989398867F94800790006893154
:1032C000497909040843F649897909020843F44910
:1032D000C9790843F249093908600B20F14908709F
:1032E0000BE0FEF7D5FDF048F049086005E0F04836
:1032F000F04908602920EB4908701CE2ED4800689D
:10330000002815D0EC48007809280BD10020EA49A4
:103310000870E6490860E648E64908600C20E14983
:1033200008700BE003F07EFCDF48E049086005E030
:10333000DF48E04908600C20DA490870FBE1DD480D
:103340000068002815D0DC48007809280BD100203F
:10335000D9490870D5490860D548D64908600D207C
:10336000D04908700BE003F013FCCF48CF49086048
:1033700005E0CF48CF4908600D20CA490870DAE15E
:10338000CC480068002823D0CB480078052819D104
:103390000020C9490870C5490860C548C54908608A
:1033A000BF483730807B072803D10E20BD49087005
:1033B00014E0BB483730807B06280FD11120B94973
:1033C00008700BE002F036FCB748B849086005E029
:1033D000B748B84908601120B2490870ABE1B54858
:1033E0000068002815D0B448007806280BD10020CA
:1033F000B1490870AD490860AD48AE4908600F207A
:10340000A84908700BE002F0FBFBA748A749086039
:1034100005E0A748A74908602620A24908708AE16C
:10342000A4480068002815D0A348007807280BD1CD
:103430000020A14908709D4908609D489D49086089
:103440001020984908700BE002F0FEFB964897495F
:10345000086005E096489749086026209149087061
:1034600069E194480068002815D09348007808283E
:103470000BD10020904908708C4908608C488D4918
:1034800008601220874908700BE003F081F9864834
:103490008649086005E086488649086026208149FB
:1034A000087048E183480068002815D082480078F9
:1034B00009280BD10020804908707C4908607C48AD
:1034C0007C4908601220774908700BE003F036FC55
:1034D00075487649086005E075487649086012200D
:1034E0007049087027E173480068002815D07248B9
:1034F000007809280BD100206F4908706B490860DB
:103500006B486C4908601320664908700BE003F0B3
:10351000D3FB65486549086005E065486549086072
:1035200013206049087006E10220FFF7EFFA7D20C2
:103530000001FDF739FF0120FFF7E8FA2020594983
:103540000870F8E05B480068002816D05A480078F8
:103550000F280CD10020584908705848534908607A
:1035600040005449086019204E4908700BE0FFF7ED
:10357000C5F94D484D49086005E04D484D49086082
:10358000192048490870D6E04A480068002819D038
:10359000494800780D2810D1414829380078012881
:1035A0000BD1002044490870404908604048414917
:1035B000086026203B49087004E0FEF797FC3A4873
:1035C0003A4908603B480068002810D13C48007820
:1035D000032803DA38480078002808D1002033494E
:1035E000086033483349086026202E490870314866
:1035F0000068002815D132480078032811DA2E48D7
:1036000000780D280DD12E480078401C2C490870F8
:1036100000202949087026482649086020202149B1
:10362000087088E02348006800286CD022480078A1
:103630000A2862D10020204908701C4908601D49F1
:10364000086017480938407A000615494978090486
:10365000084313498978090208431149C978084386
:103660000F498939C8670E480079000689314979C0
:10367000090408430A498979090208430849C979B4
:10368000084307490939486008468038C06F8039C7
:10369000896F884203D9012001498939087511E0F1
:1036A0008D0C00206C010020B80B0000740100207C
:1036B00010270000700100206D0100208813000019
:1036C000780100201E48C06F1D49896F88420DD1C6
:1036D0001B48803041680068814203D901201849A5
:1036E000087506E000201649087502E0002014491C
:1036F00008752920134908700BE0FEF7C9FB124832
:103700001249086005E000201149086029200D4990
:10371000087010E000200B4908700120084908706B
:103720000220FFF741F90220FFF754F903E02920B6
:103730000449087000BF00BF00BFFFF7A2FB0000F4
:10374000040C00206C010020B80B00007401002064
:103750007001002010B5FE480068002800D010BDA0
:10376000FC4800782A2872D243007B449B885B0087
:103770009F4429002A00300049006E009200B500E5
:10378000D900FC0020012B016D006D006D006D0063
:103790006D006D006D006D006D006D006D006D00C1
:1037A0006D006D006D0051019A01BB01DC01110239
:1037B0002B024C026F02B8026D006D00D902270483
:1037C0006D006D009D04FFE103F014F80220E14953
:1037D0000870F8E702F05EF8DF4948800846408844
:1037E000DE4988420BDDDC484088DD49884206DA44
:1037F0000320D8490870DB48DB49086002E0292033
:10380000D4490870DFE7D8480068002818D0D748A6
:10381000007801280DD10020D44908707D200001D6
:10382000CB490860CF48D04908600420C9490870D6
:103830000CE0FEF773FD7D200001C549086005E03E
:10384000C848C94908600520C2490870BBE7FDE3C4
:10385000C5480068002818D00020FDF73DF8BE4993
:10386000C8800846C08804280ADD0846C0881E288B
:1038700006DABC48BC4908600520B64908700AE071
:103880007D20C000B249086005E0B648B64908602E
:103890000520B049087096E7B3480068002817D0A3
:1038A000B248007802280CD10020B0490870B04816
:1038B000A7490860AB48AC4908600620A5490870D4
:1038C0000CE0FEF725FD7D200001A149086005E020
:1038D000A448A549086007209E490870F9E3A2485A
:1038E0000068002818D00020FCF7F6FF9A490881EC
:1038F0000846008904280ADD08460089412806DABE
:103900009848994908600720924908700AE07D208C
:10391000C0008F49086005E092489349086007207D
:103920008C490870D5E390480068002817D08F486C
:10393000007803280CD100208C4908708C488449F9
:1039400008608848884908600820824908700CE0AF
:10395000FEF7EAFC7D2000017D49086005E0814812
:103960008149086008207B490870B2E37E480068FE
:10397000002818D00020FCF7AFFF7749488108469F
:10398000408904280ADD08464089462806DA754839
:103990007549086009206F4908700AE07D20C00061
:1039A0006B49086005E06F486F4908600920694964
:1039B00008708EE368484088674988810A20654915
:1039C00008706C486849086083E36748006800280D
:1039D0001AD00120FCF780FF5F4908820846008A60
:1039E00004280CDD0846008A1E2808DA00205E49FB
:1039F00008605C4808601A20564908700AE07D207B
:103A0000C0005349086005E05648574908601A202D
:103A1000504908705DE35448006800283DD0534881
:103A200000780A2833D100205049087048490860BE
:103A30004C484D49086048488030407A0006464965
:103A40008931497809040843434989318978090251
:103A5000084341498931C97808433F498867084686
:103A600089300079000689314979090408433A49C7
:103A7000893189790902084337498931C97908436D
:103A80003549803108601B20324908700BE0FEF791
:103A9000FFF937482E49086005E03248324908608E
:103AA0001B202C49087014E32F480068002815D00B
:103AB0002E4800780B280BD100202C49087024498F
:103AC00008602848284908601C20224908700BE03B
:103AD000FEF7FCFF26481E49086005E02148224900
:103AE00008601C201B490870F3E21F48006800288A
:103AF00015D01E4800780C280BD100201B490870F7
:103B0000134908601748184908601D2011490870BA
:103B10000BE0FEF70FFA16480D49086005E0114862
:103B2000114908601D200B490870D2E20E48006858
:103B3000002829D00D48007813281FD100200B49F8
:103B4000087003490860084908601E20014913E015
:103B5000740100206C010020040C0020480D0000BE
:103B60006810000010270000700100206D01002087
:103B7000B80B00003075000008700BE0FEF7D6FAB5
:103B8000FB48FC49086005E00020FB4908601E2056
:103B9000FA4908709DE20020F6490860F848F649A5
:103BA0000860F848807E042807D11021F548723853
:103BB000FCF7F8FB2520F1490870F248807E0228C6
:103BC00002D11F20ED49087083E2EB48006800280D
:103BD00015D0ED4800780E280BD10020EA49087076
:103BE000E4490860E648E44908602020E349087099
:103BF0000BE0FCF73BFEDE48DE49086005E0E048EC
:103C0000DD4908602020DD49087062E2DA4800687A
:103C1000002817D0DC4800780F280DD10020DA49A1
:103C200008707D200001D3490860D548D24908605A
:103C30002120D24908700BE0FEF760FECC48CD4948
:103C4000086005E0CE48CC4908602520CB490870C3
:103C50003FE2C9480068002814D0CB4800781028FB
:103C60000BD10020C8490870C2490860C448C24945
:103C700008602220C149087004E0FEF71DF9BC4825
:103C8000BC490860BC480068002810D1BF480078D3
:103C9000032803DABC480078002808D10020B54981
:103CA0000860B748B44908602520B4490870B24894
:103CB0000068002815D1B5480078032811DAB24809
:103CC000007811280DD1B1480078401CAF49087028
:103CD0000020AD490870AA48A74908602020A749DC
:103CE0000870F6E1A4480068002815D0A6480078BE
:103CF00014280BD10020A44908709E490860A048F0
:103D00009D49086025209D4908700BE0FEF7CAF820
:103D100097489849086005E0994897490860252028
:103D200096490870D5E19448006800287ED09648EE
:103D3000007812287BD100209349087091484038C0
:103D4000807C030001F04EFF1E1052F5F541B4F5E2
:103D5000F531A5F5F594F6F5F52084F5F574E4F55F
:103D6000F561D4F5F5C4F3F50121864840380172B8
:103D7000E12000018349C0398880012181488038D1
:103D8000C1722030017004E101217E484038017287
:103D9000E12000017B49C0398880002179488038C2
:103DA000C172012120300170F3E0002175484038D4
:103DB0000172E12000017349C039888001217148F6
:103DC0008038C17220300170E3E001216D48403835
:103DD0000172E12000016B49C039888001216948E6
:103DE0008038C172002120300170D2E00121654885
:103DF0004038017200206349C03988800121614840
:103E00008038C17220300170C3E000215D48403825
:103E10000172E12000015B49C039888000215948C6
:103E20008038C172012120300170B2E0C2E0BBE0F5
:103E30000121544840380172E12000015149C03944
:103E4000888000214F488038C17220300170A0E086
:103E500001214C484038017200204A49C03988800D
:103E6000002148488038C17201212030017090E063
:103E70000021444840380172E12000014149C03925
:103E8000888001213F488038C172002120300170B4
:103E90007FE000213B484038017200203949C03999
:103EA0008880012137488038C1722030017070E06D
:103EB000012134484038017200203249C0398880DD
:103EC000012130488038C17200212030017060E04B
:103ED00000212C4840380172E12000012949C039F5
:103EE0008880002127488038C1722030017050E05E
:103EF000002124484038017200202249C0398880BE
:103F0000002120488038C17201212030017040E03A
:103F100001211C484038017200201A49C0398880AC
:103F2000002118488038C1722030017031E011E062
:103F300000E02DE0002113484038017200201149B3
:103F4000C039888001210F488038C172002120309B
:103F500001701EE000210B488038C17240300172B0
:103F60002038017000200749C039888011E0000026
:103F7000B80B000074010020700100206C010020CB
:103F800010270000C40C00206D01002078010020E3
:103F900000BF00BF002051490860514851490860E6
:103FA0002620514908700BE0FDF7AAFF4F484B4906
:103FB000086005E04A484B49086026204A490870D5
:103FC00087E04848006800286AD0494800780A28F5
:103FD00060D10020464908704049086041490860A6
:103FE0004448407A000643490931497809040843A6
:103FF000404909318978090208433E490931C978A5
:1040000008433C498039C867084689300079000672
:104010008931497909040843364909318979090206
:10402000084334490931C979084332494860084690
:104030008038C06F8039896F884206D92D48007A50
:10404000012802D12B498039087500E03DE029485C
:104050008038C06F27498039896F884212D125483E
:10406000007A01280ED1234841680068814204D9B2
:10407000012020498039087508E000201D49803959
:10408000087503E000201B4980390875292016496E
:1040900008700BE0FDF7FCFE14481049086005E0CD
:1040A00000201049086029200F49087011E0002005
:1040B0000D49087001200F49803908700220FEF771
:1040C00073FC0220FEF786FC03E0292006490870F5
:1040D00000BF00BF00BFFFF742FB000074010020DB
:1040E00010270000700100206C010020B80B0000B8
:1040F0006D010020840C002010B5F74800680028EE
:1041000000D010BDF54800780A2873D008DC030001
:1041100001F068FD0A14151B34587DA0C4E7FDFCAE
:104120001838030001F05EFD12FCFBFAF9F8F2F218
:10413000F2F2F2F2F2F2F2F7F6F5F4F2C9E202F07C
:1041400059FB0220E5490870C3E201F0A3FBE449F2
:10415000488008464088E34988420BDDE0484088B3
:10416000E149884206DA0320DC490870DF48E0496B
:10417000086002E02920D9490870AAE2DC480068FA
:10418000002818D0DB48007801280DD10020D9493B
:1041900008707D200001D0490860D448D4490860E7
:1041A0000420CE4908700CE0FEF7B8F87D2000012D
:1041B000C949086005E0CD48CD4908600520C749D8
:1041C000087086E2CA480068002819D00020FCF771
:1041D00083FBC349C8800846C08805280BDD084614
:1041E000C088282807DAC148C14908600520BB49B2
:1041F00008700BE036E27D20C000B749086005E09A
:10420000BA48BB4908600520B449087061E2B84863
:104210000068002817D0B748007802280CD1002089
:10422000B4490870B448AC490860B048B049086067
:104230000620AA4908700CE0FEF76AF87D2000010C
:10424000A549086005E0A948A94908600720A349D5
:1042500008703EE2A6480068002818D00020FCF74D
:104260003BFB9F4908810846008904280ADD08466F
:104270000089282806DA9D489D490860072097494B
:1042800008700AE07D20C0009349086005E0974867
:10429000974908600720914908701AE2944800681D
:1042A000002817D09348007803280CD100209149AA
:1042B00008709148884908608C488D49086008203A
:1042C000864908700CE0FEF72FF87D200001824936
:1042D000086005E085488649086008207F49087025
:1042E000F7E183480068002824D00020FCF7F4FAA6
:1042F0007B49488108464089042816DD08464089E4
:10430000282812DA79487A4908600AE0DDE118E0E5
:10431000CDE186E174E1FEE0CAE0A8E05EE03CE0C9
:104320001AE009206D4908700AE07D20C0006A4942
:10433000086005E06D486E4908600920674908700B
:10434000C7E167484088664988811820634908703A
:10435000664867490860BCE165480068002815D0D8
:104360006448007804280BD10020624908705A493B
:1043700008605E485E4908601920584908700BE0E3
:10438000FEF7DAFB5C485449086005E05748584995
:1043900008601920514908709BE1554800680028C1
:1043A00015D0544800780D280BD1002051490870D1
:1043B000494908604D484E4908601A20474908702D
:1043C0000BE0FDF793FD4C484349086005E0474882
:1043D000474908601A20414908707AE1444800685A
:1043E00000283DD0434800780A2833D100204149B5
:1043F0000870394908603D483D49086038488030B8
:10440000407A00063649893149780904084334491D
:10441000893189780902084331498931C9780843CB
:104420002F49886708468930007900068931497923
:10443000090408432A49893189790902084328492E
:104440008931C97908432649803108601B202349F6
:1044500008700BE0FDF71CFD27481F49086005E0C8
:104460002248234908601B201C49087031E120487C
:104470000068002815D01F4800780B280BD10020B9
:104480001C490870144908601848194908601C2024
:10449000124908700BE0FEF719FB17480E49086037
:1044A00005E01248124908601C200C49087010E110
:1044B0000F480068002827D00E4800780C281DD12E
:1044C00000200C4908700449086008480849086041
:1044D0002620024908701DE0740100206C010020B4
:1044E000040C0020480D0000681000001027000098
:1044F000700100206D010020B80B0000FDF71AFDCF
:1045000075487649086005E07548764908602620B8
:1045100075490870DDE073480068002869D0734869
:1045200000780A285FD10020704908706B49086044
:104530006B486C4908606E48407A00066C49093146
:104540004978090408436A4909318978090208430E
:1045500067490931C978084365498039C867084601
:104560008930007900068931497909040843604996
:1045700009318979090208435D490931C97908433C
:104580005B49486008468038C06F8039896F88422F
:1045900006D95748007A012802D155498039087553
:1045A00053488038C06F52498039896F884212D190
:1045B0004F48007A01280ED14D4841680068814279
:1045C00004D901204A498039087508E0002048498B
:1045D0008039087503E00020454980390875272097
:1045E000414908700BE0FDF753FC3B483B4908602C
:1045F00005E000203B49086027203B49087068E03F
:104600000120FEF7D1F90120FEF7E4F97D20C0007A
:104610003249086037483349086028203249087019
:1046200057E030480068002815D0304800780D2841
:104630000BD100202D4908702849086028482949D5
:1046400008600A20284908700BE0FDF74FFC22485B
:104650002249086005E02248224908600A202249D0
:10466000087036E01F480068002819D00120FCF7C8
:1046700033F91F49803908820846008A04280ADD78
:104680000846008A1E2806DA0020164908602920FC
:10469000154908700AE07D20C0001049086005E057
:1046A00000201049086029200F49087011E00020FF
:1046B0000D49087001200E49803908700220FEF76C
:1046C00073F90220FEF786F903E0292006490870F5
:1046D00000BF00BF00BF14E5B80B0000740100204C
:1046E00010270000700100206C0100206D010020E7
:1046F000840C0020409C000010B5FB480068002896
:1047000000D010BDF948007815287DD012DC0528AE
:104710007BD006DC030001F065FA052223294266FE
:104720007C00062872D0072871D0082870D0142881
:104730006FD118E11C286DD008DC16286BD0172823
:104740006AD01A2869D01B28F2D1F2E11D2872D054
:10475000252871D0262870D02928E9D1F9E308E26C
:1047600002F048F80220E1490870F8E701F092F8F9
:10477000DF49488008464088DE4988420BDDDC4836
:104780004088DD49884206DA0320D8490870DB48B2
:10479000DB49086002E02920D4490870EAE3D848E0
:1047A0000068002818D0D748007801280DD10020D3
:1047B000D44908707D200001CB490860CF48D0491A
:1047C00008600420C94908700CE0FDF7A7FD7D20B2
:1047D0000001C549086005E0C848C94908600520CE
:1047E000C2490870C6E3C6480068002826D00020E9
:1047F000FCF772F8BE49C8800846C088042815DD59
:104800000846C0881E2809E0D2E01EE040E063E0D0
:1048100085E0ABE3AEE1E6E00AE128E106DAB7487D
:10482000B74908600520B14908700DE07D20C0003F
:10483000AD49086008E0BEE1DDE108E3AF48B049FA
:1048400008600520A949087094E3AD480068002875
:1048500017D0AC48007802280CD10020A949087074
:10486000A948A1490860A548A549086006209F49B4
:1048700008700CE0FDF74CFD7D2000019A490860AE
:1048800005E09E489E49086007209849087071E33A
:104890009B480068002818D00020FCF71DF89449B8
:1048A00008810846008904280ADD08460089412855
:1048B00006DA92489249086007208C4908700AE09D
:1048C0007D20C0008849086005E08C488C4908605C
:1048D0000720864908704DE389480068002817D0F2
:1048E0008848007803280CD1002086490870864843
:1048F0007D49086081488249086008207B4908702A
:104900000CE0FDF711FD7D2000017749086005E00E
:104910007A487B4908600820744908702AE378487F
:104920000068002818D00020FBF7D6FF70494881A6
:104930000846408904280ADD08464089462806DAE8
:104940006E486F4908600920684908700AE07D20B8
:10495000C0006549086005E06848694908600920A9
:104960006249087006E366480068002819D0654867
:10497000007817280BD10020624908705A49086056
:104980005E485F4908601520584908700FE0002014
:104990005E490870012001F005FF5D48524908603A
:1049A00005E05648564908601A2050490870E1E26F
:1049B0005348006800280FD054480078052811D1CA
:1049C000002050490870484908604C484C4908602C
:1049D00016204649087005E04848494908601A20F1
:1049E00042490870C6E246480068002819D0454888
:1049F000007817280BD10020424908703A49086016
:104A00003E483F4908601720384908700FE00020F1
:104A100040490870022001F0C5FE3D483249086057
:104A200005E03648364908601A2030490870A1E28E
:104A300033480068002813D036480078052815D17F
:104A400001212B486030417400202E49087026490E
:104A500008602A482A4908601A202449087005E09D
:104A60002648274908601A202049087082E2244815
:104A70000068002856D0234800780A284CD100202E
:104A800020490870184908601C481D4908601848EA
:104A90008030407A00061649893149780904084374
:104AA0001349893189780902084311498931C97844
:104AB00008430F4988670846893000790006893124
:104AC0004979090408430A49893189790902084367
:104AD00007498931C97908430549803108601B209D
:104AE0000249087024E00000740100206C010020DD
:104AF000040C0020480D0000681000001027000082
:104B0000700100206D010020B80B00006A01002038
:104B1000881300006B010020FDF7BAF9F948FA4943
:104B2000086005E0F948FA4908601B20F949087057
:104B300020E2F7480068002815D0F74800780B28D5
:104B40000BD10020F4490870EF490860EF48F049A4
:104B500008601C20EF4908700BE0FDF7B7FFE9483B
:104B6000E949086005E0E948E94908601C20E9498D
:104B70000870FFE1E6480068002815D0E648007894
:104B80000C280BD10020E4490870DF490860DF4899
:104B9000DF4908601D20DF4908700BE0FDF7CAF906
:104BA000D848D949086005E0D848D94908601D208F
:104BB000D8490870DEE1D6480068002814D0D648ED
:104BC000007813280AD10020D3490870CE49086024
:104BD000CF4908602520CF4908700BE0FDF7A6FA01
:104BE000C848C949086005E00020C9490860252077
:104BF000C8490870BEE1C6480068002877D0C6489A
:104C00000078142874D10020C3490870C348807C00
:104C1000030000F0E7FF1E104EF5F53EAAF5F52F54
:104C20009CF5F58CE5F5F51F7DF5F56ED7F5F55C92
:104C3000C8F5F5B9F6F50121B8480172E120000187
:104C4000B649803988800121B4484038C17220308B
:104C50000170E4E00121B1480172E1200001AF4997
:104C6000803988800021AD484038C1720121203050
:104C70000170D4E00021A9480172E1200001A74998
:104C8000803988800121A5484038C17220300170E8
:104C9000C5E00121A1480172E12000019F4980394E
:104CA000888001219D484038C17200212030017068
:104CB000B5E0012199480172002098498039888027
:104CC000012196484038C17220300170A7E00021D0
:104CD00092480172E12000019049803988800021CA
:104CE0008E484038C17201212030017097E0A7E062
:104CF000A0E0012189480172E12000018749803943
:104D00008880002185484038C1722030017086E0DB
:104D10000121824801720020804980398880002169
:104D20007E484038C17201212030017077E00021B7
:104D30007A480172E1200001784980398880012198
:104D400076484038C17200212030017067E00021B0
:104D500072480172002071498039888001216F48B2
:104D60004038C1722030017059E001216B48017256
:104D700000206A4980398880012168484038C17222
:104D80000021203001704AE0002164480172E120D6
:104D90000001624980398880002160484038C17232
:104DA000203001703BE000215C48017200205B492B
:104DB00080398880002159484038C1720121203053
:104DC00001702CE0012155480172002053498039BF
:104DD0008880002151484038C172203001701EE0A7
:104DE00000214E48017200204C4980398880012101
:104DF0004A484038C1720021203001700FE000E0C5
:104E00000CE0002145484038C17240300172203822
:104E10000170002041498039888000E000BF00BF58
:104E20000020394908603948394908602620394945
:104E300008700BE0FDF764F832483349086005E07C
:104E400032483349086026203249087092E03048E1
:104E50000068002876D0304800780A286BD10020FE
:104E60002D49087028490860294908602B48407A74
:104E700000062A49093149780904084327490931BC
:104E800089780902084325490931C978084323492B
:104E90008039C86708468930007900068931497928
:104EA000090408431D4909318979090208431B494E
:104EB0000931C97908431949486008468038C06FEC
:104EC0008039896F884206D91448007A012802D1B6
:104ED00012498039087511488038C06F0F498039F0
:104EE000896F884220D10D48007A01281CD10B48D7
:104EF00041680068814213D901200849803908754A
:104F000015E01FE0B80B000074010020102700001E
:104F1000700100206C0100206D010020840C002035
:104F200000201649087502E0002014490875292060
:104F3000134908700CE0FCF7ABFF124812490860F7
:104F400006E006E000201149086029200C4908709D
:104F500010E000200A49087001200849087002206A
:104F6000FDF722FD0220FDF735FD03E0292004496D
:104F7000087000BF00BF00BFFFF7C3FB040C002098
:104F80006C010020B80B00007401002070010020AB
:104F900010B50F48807E030000F024FE0604070AC7
:104FA0000D101316FFF7A8F80FE0FDF763FF0CE0F4
:104FB000FEF7D0FB09E0FDF75FFF06E0FEF7CAFB56
:104FC00003E0FFF799FB00E000BF00BF10BD000049
:104FD000C40C002010B500F069FC0120FDF778FC3E
:104FE0000120FDF793FD0220FDF75CFC0220FDF798
:104FF00077FD0220FDF7D8FC0220FDF7EBFC002036
:1050000004490870FDF7A8F9002003490860034926
:10501000086010BD6C0100207401002070010020A8
:1050200010B500203949087039490870374948805F
:105030008880C880088148818881C88108828874F6
:10504000C874087548750F2130481630FBF7AAF967
:105050000F212E482530FBF7A5F914212B483430B9
:10506000FBF7A2F900212948403001724172817298
:10507000C172818110210E30FBF794F90021234881
:10508000403081772030C17401752038C1772030DD
:105090004175817501704170801C0180801E818086
:1050A0008171C1710181801C0181801E0173417376
:1050B0008173C173017441748174002014490870B4
:1050C00012498867C867002110488030016041603C
:1050D000017208210930FBF765F900210B48803087
:1050E000417481744030817304210F30FBF75AF909
:1050F00000210648C030C17441758175C1750176C3
:10510000417600200349087010BD0000040C002007
:105110006D01002078010020F8B50024002500264C
:10512000002700BF33484068FF2101310840000AD2
:10513000044600BF2F4880680840000A054600BFAB
:105140002C484068C007C00F01214840484006462F
:1051500000BF284880680840484048400746002C67
:1051600019D0012D17D100BF224800692249234AD6
:105170001288885421480088401C2049088008462D
:105180000088C82801DB0020088001201C49087025
:10519000C8201C490880012E2AD1012F28D11A4885
:1051A000407919490979884209D100BF11484068FE
:1051B000B0431049486000BF0120144908701248EC
:1051C00040791149097988420CDA0F4800680E4A83
:1051D0005279815C0748FCF7B9FD0B484079401CC7
:1051E0000949487100BF01200249886000BF00BF23
:1051F000F8BD000000200140AC0100201A00002092
:105200001800002020000020040400201C000020C2
:1052100010B5FDF759FAFDF78DFA00F003F800F02C
:10522000B7F910BD08B5022000900A216846FCF7C6
:10523000E7FB08BDF8B5002400250026002700BFC5
:1052400033484068FF2101310840000A044600BF8E
:105250002F4880680840000A054600BF2C48406877
:10526000C007C00F012148404840064600BF2848FB
:1052700080680840484048400746002C19D0012D5E
:1052800017D100BF224800692249234A1288885456
:1052900021480088401C2049088008460088C8280A
:1052A00001DB0020088001201C490870C8201C492F
:1052B0000880012E2AD1012F28D11A484079194996
:1052C0000979884209D100BF11484068B0431049AC
:1052D000486000BF01201449087012484079114904
:1052E000097988420CDA0F4800680E4A5279815CCD
:1052F0000748FCF731FD0B484079401C09494871CB
:1053000000BF01200249886000BF00BFF8BD000057
:105310000068014014040020240000202300002025
:10532000280000206C0600202200002010B5FDF7A8
:105330001BFAFDF74DFA00F003F800F095F910BDE7
:1053400008B5002000900B216846FCF759FB08BD0A
:10535000F8B5002400250026002700BF3248406829
:10536000FF2101310840000A044600BF2E48806832
:105370000840000A054600BF2B484068C007C00F20
:10538000012148404840064600BF27488068084041
:10539000484048400746002C19D0012D17D100BFC6
:1053A000214800692149224A1288885420480088EF
:1053B000401C1F49088008460088C82801DB0020DF
:1053C000088001201B490870C8201B490880012E55
:1053D00028D1012F26D119484079184909798842E6
:1053E0000CDA16480068154A5279815C0E48FCF7C1
:1053F000B9FC12484079401C1049487100BF012097
:105400000949886000BF0D4840790C4909798842F4
:1054100008D100BF04484068400840000249486085
:1054200000BF00BFF8BD0000007001407C060020F6
:105430005E0000205C00002062000020D4080020F4
:1054400010B5FDF7DFF9FDF713FA00F003F800F0EF
:1054500075F910BD08B5022000900C216846FCF7D4
:10546000CFFA08BD10B5FFF7D3FEFFF75FFFFFF7D8
:10547000E7FF10BD10B586B00446002C01D10190A5
:1054800001E00220019001208003009000200290A2
:105490000120039000200490059069460248FCF723
:1054A000F1F806B010BD0000000C004010B5144823
:1054B0000078012808D10020114908700520FBF769
:1054C00073FF0020FFF7D6FF0E480078012816D1A1
:1054D0000D480088002812D1FCF73EFF0020094942
:1054E00008700A4802880A490A48FAF72DFE074858
:1054F0000188084801F080F800200449088010BDA8
:105500001C00002018000020200000201A000020AD
:10551000AC0100207402002070B505460C46002C3A
:1055200000D170BD64201649088000BF154800797D
:1055300014494979884203D0114800880028F5D1E0
:105540000120FBF731FF0120FFF794FF2246294697
:105550000D48FAF7CAFE0C480A4908600C71012090
:10556000487100BF0949886000BF0846FCF76CFA23
:105570000448006801780548FCF7E8FB00BFD0E765
:105580001E000020040400203C03002000200140F5
:10559000012002490871487170470000040400208E
:1055A00010B51048007801281BD10F48008800284A
:1055B00017D1FCF7D1FE00200A4908700B48028879
:1055C0000B490C48FAF7C0FD08480188094800F06B
:1055D00071FB064801880748FAF7E6FE00200349F8
:1055E000088010BD23000020280000202400002097
:1055F00014040020DC04002070B505460C46002C85
:1056000000D170BD7D20C0001349088000BF134841
:10561000007912494979884203D00F480088002850
:10562000F5D1224629460E48FAF75FFE0C480B4991
:1056300008600C710120487100BF0A49886000BFF2
:105640000846FCF706FA0548006801780548FCF7AB
:1056500083FB00BFD5E70000260000206C06002079
:10566000A40500200068014001200249087148712A
:10567000704700006C06002010B50E480078012825
:1056800016D10D480088002812D1FCF765FE0020D5
:10569000084908700948028809490A48FAF754FD80
:1056A000064801880748FCF7E9FD00200349088007
:1056B00010BD00005C000020620000205E000020A1
:1056C0007C0600204407002070B505460C46002CDF
:1056D00000D170BD64201549088000BF14480079CE
:1056E00013494979884203D0104800880028F5D131
:1056F0000120FBF759FE224629460E48FAF7F5FD30
:105700000C480B4908600C710120487100BF0A4920
:10571000886000BF0846FCF7A1F9054800680178D9
:105720000548FCF71FFB00BFD3E700006000002026
:10573000D40800200C08002000700140012002491C
:105740000871487170470000D408002000B587B088
:1057500010200190012002900020039004900590F9
:10576000069001A94A48FBF78DFF202001900020F8
:10577000029003900120049000200590069001A95A
:105780004348C030FBF77EFF0120C003019000209A
:10579000029003900120049000200590069001A93A
:1057A0003B48FBF76FFF01200003019000200290AF
:1057B00003900120049000200590069001A9344830
:1057C0008030FBF75FFF01200190002002900390E2
:1057D0000120049000200590069001A92C4840303B
:1057E000FBF750FF0420019001200290002003905D
:1057F00004900590069001A925484030FBF742FF30
:105800000820019001200290002003900490059050
:10581000069001A91E484030FBF734FF102001908C
:10582000012002900020039004900590069001A9A9
:1058300017484030FBF726FF2020019001200290FE
:105840000020039004900590069001A91048403074
:10585000FBF718FF04200190012002900020039024
:1058600004900590069001A90948C030FBF70AFF93
:1058700008200190012002900020039004900590E0
:10588000069001A90248C030FBF7FCFE07B000BD3E
:10589000400C004010B500BFFF200130FCF7BAFB00
:1058A00004460B204443204610BD0000032001495C
:1058B00048707047040C0020002002E000BF411C2B
:1058C000C8B23228FADB704770B50025002000F01E
:1058D00043F9002000F0C2F8FFF7EEFF002412E0C9
:1058E000012000F0BBF8FFF7E7FF00F01BF90028EC
:1058F00002D0802020410543002000F0AFF8FFF7E0
:10590000DBFF601CC4B2082CEADB284670BD70B512
:1059100006460D46002428E0FFF7D6FF3055681EE6
:10592000A04210DD012000F017F9002000F0C8F8B7
:10593000FFF7C2FF012000F091F8FFF7BDFF002044
:1059400000F08CF80FE0012000F006F9012000F0D3
:10595000B7F8FFF7B1FF012000F080F8FFF7ACFFC8
:10596000002000F07BF8601CC4B2AC42D4DB70BDF8
:1059700070B50446012000F0EFF8002000F06EF84A
:10598000002518E080202040002803D0012000F0EE
:1059900097F802E0002000F093F8FFF78DFF012058
:1059A00000F05CF8FFF788FF002000F057F8600671
:1059B000040E681CC5B2082DE4DB002000F0CCF812
:1059C000FFF77AFF012000F049F8FFF775FF00F0BC
:1059D000A9F8002802D100F041F802E0002000F010
:1059E0003DF8FFF769FF012070BD70B505460E4612
:1059F000002404E0285DFFF7BBFF601CC4B2B44282
:105A0000F8DB012070BD10B5012000F0A5F80120E1
:105A100000F056F8012000F021F8FFF74DFF0020BC
:105A200000F04EF8002000F019F810BD10B501206C
:105A300000F092F8002000F043F8012000F00EF88A
:105A4000FFF73AFF012000F03BF8002000F006F8D5
:105A5000FFF732FF012000F001F810BD10B5044639
:105A6000012C13D114480078002802D001280BD152
:105A700005E0FF2101311148FBF791FF05E04021CE
:105A80000E48FBF78CFF00E000BF13E00A480078E7
:105A9000002802D001280BD105E0FF210131074881
:105AA000FBF7F6FE05E040210448FBF7F1FE00E0BD
:105AB00000BF00BF10BD00000E000020800C0040A1
:105AC00010B50446012C13D114480078002802D0E8
:105AD00001280BD105E0012149021148FBF75FFFC6
