:020000040000FA
:10000000282100209D010000A5010000A70100009B
:1000100000000000000000000000000000000000E0
:10002000000000000000000000000000A901000026
:100030000000000000000000AB010000AD01000066
:10004000AF010000AF010000AF010000AF010000F0
:100050005D0A0000AF010000AF010000AF01000029
:10006000AF010000AF01000005360000213700009D
:10007000AF01000041380000AF010000AF010000F7
:10008000AF010000AF010000AF010000AF010000B0
:10009000AF010000AF010000AF010000AF010000A0
:1000A000AF010000AF010000AF010000AF01000090
:1000B0001D060000AF010000F11F0000AF010000AD
:1000C00000F002F800F03EF80CA030C80838241800
:1000D0002D18A246671EAB4654465D46AC4201D180
:1000E00000F030F87E460F3E0FCCB6460126334274
:1000F00000D0FB1AA246AB4633431847104000001D
:1001000030400000103A02D378C878C1FAD85207BC
:1001100001D330C830C101D504680C6070470000BD
:100120000023002400250026103A01D378C1FBD813
:10013000520700D330C100D50B6070471FB51FBDFB
:1001400010B510BD00F0F0F91146FFF7F7FF03F00E
:100150008FFF00F008FA03B4FFF7F2FF03BC00F0D2
:100160000FFA000070B505460C46164602E00FCCAB
:100170000FC5103E102EFAD2082E02D303CC03C5B1
:10018000083E042E07D301CC01C5361F03E02178B9
:100190002970641C6D1C761EF9D270BD074880471B
:1001A00007480047FEE7FEE7FEE7FEE7FEE7FEE75B
:1001B00004480549054A064B7047000021310000FC
:1001C000C10000002811002028210020281900204B
:1001D000281900204343514330B55C18010C130C1F
:1001E0000D4692B25D4380B251432C1905465543EA
:1001F0000A0C09044D1962415843010C00044019CE
:10020000514130BDFEB5054610460C46184373D02B
:10021000AE468C460020AD1A01469C4167D3664627
:10022000002701243D46B61A9D4102D313463A46A3
:100230002124654676462F04360C3E432D0CB61A13
:100240009D4104D3150C1B042B4312041034654646
:1002500076462F06360A3E432D0AB61A9D4104D330
:10026000150E1B022B4312020834654676462F07F3
:1002700036093E432D09B61A9D4104D3150F1B01C3
:100280002B431201241D65467646AF07B6083E4350
:10029000AD08B61A9D4104D3950F9B002B439200E5
:1002A000A41C65467646EF0776083E436D08B61AED
:1002B0009D411AD392185B41641C16E000187646E3
:1002C00065464941B71A9D410191009009D36046A6
:1002D000B11A98418E468446009801990025401C29
:1002E0006941DD0752082A435B08641EE6D5724661
:1002F000634603B0F0BDFFE700200146C046C0469C
:100300002A462346F5E7F8B5042A2CD3830712D0F2
:100310000B78491C0370401C521E83070BD00B78CE
:10032000491C0370401C521E830704D00B78491CE3
:100330000370401C521E8B079B0F05D0C91ADF00AB
:100340002023DE1B08C90AE0FFF70CFFF8BD1D469D
:1003500008C9FD401C46B4402C4310C0121F042A9B
:10036000F5D2F308C91A521EF0D40B78491C037059
:10037000401C521EEAD40B78491C0370401C012A11
:10038000E4D409780170F8BD01E004C0091F042914
:10039000FBD28B0701D50280801CC90700D00270F8
:1003A000704700290BD0C30702D00270401C491EC1
:1003B000022904D3830702D50280801C891EE3E74B
:1003C0000022EEE70022DFE7002203098B422CD354
:1003D000030A8B4211D300239C464EE003460B4395
:1003E0003CD4002243088B4231D303098B421CD3F7
:1003F000030A8B4201D394463FE0C3098B4201D3E9
:10040000CB01C01A524183098B4201D38B01C01A20
:10041000524143098B4201D34B01C01A5241030997
:100420008B4201D30B01C01A5241C3088B4201D346
:10043000CB00C01A524183088B4201D38B00C01AF3
:10044000524143088B4201D34B00C01A5241411A1A
:1004500000D201465241104670475DE0CA0F00D0FD
:100460004942031000D34042534000229C460309F6
:100470008B422DD3030A8B4212D3FC22890112BA7C
:10048000030A8B420CD3890192118B4208D3890154
:1004900092118B4204D389013AD0921100E089096C
:1004A000C3098B4201D3CB01C01A524183098B424D
:1004B00001D38B01C01A524143098B4201D34B0136
:1004C000C01A524103098B4201D30B01C01A524199
:1004D000C3088B4201D3CB00C01A524183088B4220
:1004E00001D38B00C01A5241D9D243088B4201D3A9
:1004F0004B00C01A5241411A00D201466346524194
:100500005B10104601D34042002B00D54942704792
:1005100063465B1000D3404201B50020C046C04690
:1005200002BD704770477047754600F025F8AE462B
:10053000050069465346C008C000854618B020B57E
:10054000FFF736FE60BC00274908B6460026C0C546
:10055000C0C5C0C5C0C5C0C5C0C5C0C5C0C5403D7B
:1005600049008D46704710B50446C046C046204637
:10057000FFF7F1FD10BD000000487047C8100020D3
:1005800001491820ABBEFEE72600020070470000BC
:1005900070B505460C46052D04D0062D14D0072D48
:1005A00036D123E0012C02D0022C0AD104E008212C
:1005B000194801F0A5FA05E00821174801F019FAD9
:1005C00000E000BF00BF24E0012C02D0022C0AD1C1
:1005D00004E01021104801F093FA05E010210E48C4
:1005E00001F007FA00E000BF00BF12E0012C02D0CA
:1005F000022C0AD104E02021074801F081FA05E02D
:100600002021054801F0F5F900E000BF00BF00E03F
:1006100000BF00BF70BD0000800C004000BF2B4831
:10062000C068C007C00F01214840484000284BD097
:1006300000BF26480069084048404840002843D091
:1006400000BF01202149086100BF2148008800281F
:1006500004DD1F480088401E1D4908801D48008891
:10066000002804DD1B480088401E1A4908801A48EB
:100670000088002804DD18480088401E16490880BC
:1006800016480088002804DD14480088401E1349DD
:10069000088013480068002804D011480068401EF4
:1006A0000F4908600F480068002804D00D48006812
:1006B000401E0C4908600C480068002804D00A4815
:1006C0000068401E08490860704700000030014083
:1006D00062000020140000201C0000205C000020AC
:1006E000680000206C0000207000002010B501F0B0
:1006F00073FF01F061FF00F003F800F009F810BD8E
:1007000008B5022000901C21684601F029FA08BDB6
:1007100000BF04480068012108430249086000BF87
:10072000704700000030014070B5002400BFC821B0
:100730006748FFF745FE68222146641C644842541E
:10074000DB222146641C425468222146641C425428
:1007500055222146641C42545E4882782146641C1E
:100760005B4842545B4880880004020E2146641CAA
:1007700057484254574802792146641C5448425411
:10078000544880680A2148435249886008460089D5
:100790000004020E2146641C4D4842544D48027A22
:1007A0002146641C4A4842544A4880890004020E8B
:1007B0002146641C464842544648027B2146641C3C
:1007C00043484254434800690A214843414908616B
:1007D0000846008A0004020E2146641C3C4842542C
:1007E0003C48027C2146641C394842543948027D09
:1007F0002146641C36484254012036498875084613
:10080000827D2146641C324842543248C27D2046D3
:10081000611C8CB22E490A542E48827E2046611CEF
:100820008CB22B490A5401202A49C8760846C27E58
:100830002046611C8CB226490A5408192D222549EC
:100840001C31FFF760FD20462D3084B22049081985
:100850000F2220494931FFF756FD20460F3084B260
:100860001B4908190F221B495831FFF74CFD204640
:100870000F3084B216490819142216496731FFF760
:1008800042FD2046143084B21148011911486330EA
:10089000027E0A70407E4870A01C84B2002508E0E9
:1008A0000B48005D0A49495D401809490855681C14
:1008B000C5B2A542F4DB601C84B216222046611C3E
:1008C0008CB203490A542146014803F0D3F870BDA5
:1008D000001000206C0F00207CB502F0DFFA0A2027
:1008E00000F00EFE002409E00A2000F009FE02F0EC
:1008F000D5FA61006A465052601CC4B2032CF3DB87
:10090000002500241BE060006946085AC013002837
:100910000ED06000085A0021C943081A401C61002B
:100920006A46505260006946085A281A85B204E0A7
:1009300060006946085A401985B2601CC4B2032C95
:10094000E1DBE81301280ED1801E401B401C85B25C
:1009500003212846FFF742FD85B20020C043401B1B
:10096000401C85B204E003212846FFF737FD85B21D
:1009700028467CBD10B50446012C02D0022C0CD1B7
:1009800005E001214902064801F033F806E00121A3
:100990004902034801F0B4F800E000BF00BF10BDF9
:1009A000000C004010B50446012C02D0022C0CD1E2
:1009B00005E001218902064801F01BF806E001214B
:1009C0008902034801F09CF800E000BF00BF10BDA1
:1009D000000C004010B509480078002802D001281A
:1009E00008D103E00220FFF7DDFF04E00220FFF75B
:1009F000C1FF00E000BF00BF10BD0000610000208B
:100A000010B509480078002802D0012808D103E079
:100A10000120FFF7C7FF04E00120FFF7ABFF00E074
:100A200000BF00BF10BD00006100002070B505468A
:100A300009480570FFF7E4FFC82000F061FDFFF7EB
:100A40004BFF0446FFF7C6FF232C02DD2046233868
:100A500084B22646304670BD6100002000BF0A48BF
:100A6000C06A02210840400800280CD000BF064898
:100A7000006B08404008002805D000BF0220024952
:100A8000086300BF00BF70470024004001210160DF
:100A90007047000070B50446012500BF206800289B
:100AA0000BD02068012808D02068022805D02068D3
:100AB000032802D02068042801D1012000E0002092
:100AC000002801D100BFFEE700BF00BFA0680028DA
:100AD00002D0A068012801D1012000E000200028F8
:100AE00001D100BFFEE700BF00BFE068002808D0CA
:100AF000E068082805D0E068102802D0E0681828CF
:100B000001D1012000E00020002801D100BFFEE754
:100B100000BF2068042814D100BF6068002808D0F6
:100B20006068012805D06068022802D06068032848
:100B300001D1012000E00020002801D100BFFEE724
:100B40001AE000BF606800280ED0606801280BD052
:100B50006068022808D06068032805D0606804280F
:100B600002D06068052801D1012000E000200028A3
:100B700001D100BFFEE700BFFF2001302649896B8D
:100B80000143254A916300BF206804280ED1042147
:100B9000224800F037FA6168880120494969C0227B
:100BA000914301431D4A516100BF20E000211B48D1
:100BB00000F028FA206818494031896889088900BE
:100BC0000143154A4032916000BF616888001146B8
:100BD00089681C22914301430F4A4032916000BF53
:100BE00090131146C9680143D16000BF00BFA068DF
:100BF0000A494969890889000143084A516100BFCF
:100C0000E06811464969182291430143034A516142
:100C100000BF284670BD000000240040005C014079
:100C20008168490849008160704781684908490026
:100C3000816070478169012212049143816170478C
:100C4000026A4B005B089A43026270478168012286
:100C500011438160704781680222114381607047AF
:100C6000026A4B005B081A4302627047F8B50546FA
:100C70000C4601200090002600BFDB48854201D1D0
:100C8000012000E00020002801D100BFFEE700BFE6
:100C900000BF2068002804D0012149022068884252
:100CA00001D1012000E00020002801D100BFFEE7B3
:100CB00000BF00BF6068002804D00121C90260683D
:100CC000884201D1012000E00020002801D100BFAE
:100CD000FEE700BF00BFE068002802D0E0680428FB
:100CE00001D1012000E00020002801D100BFFEE773
:100CF00000BF00BF2069002808D02069012805D066
:100D00002069022802D02069032801D1012000E0D7
:100D10000020002801D100BFFEE700BF00BF202057
:100D2000005D002803D02020005D012801D10120B2
:100D300000E00020002801D100BFFEE700BF00BF97
:100D4000606A002821D001214904606A88421CD0D1
:100D50004900606A884218D003214904606A8842C9
:100D600013D00121C904606A88420ED005214904CC
:100D7000606A884209D003218904606A884204D0ED
:100D800007214904606A884201D1012000E0002067
:100D9000002801D100BFFEE700BF00BFA06A002805
:100DA00026D001210905A06A884221D04900A06A05
:100DB00088421DD003210905A06A884218D001216C
:100DC0008905A06A884213D005210905A06A8842D6
:100DD0000ED003214905A06A884209D007210905E0
:100DE000A06A884204D00121C905A06A884201D1C5
:100DF000012000E00020002801D100BFFEE700BF75
:100E0000012000037949496B0143784A516300BFCF
:100E100000BF77480068C007C00F01214840484024
:100E200000280DD100BF01207149886000BF00BFBC
:100E300008460068012108436D49086000BF00BFF3
:100E400000BF6B480068022108436949086000BF81
:100E500005E07D208002864200D30AE0761C00BFB8
:100E600063488068C007C00F0121484048400028FF
:100E7000EFD000BF2846FFF7D3FE2846FFF7DAFE83
:100E800000BFA86801210843A86000BF00BF564802
:100E9000006908435449086100BF002600BF00BF35
:100EA0005148006810210840070900BF761C701CDB
:100EB000002801D0002FF2D0012F7DD100BF1020DB
:100EC0004949086000BF2846FFF7AAFE00BFA8688E
:100ED000384001214840484000287DD12068A96958
:100EE0007A0291430143A96100BF6068A969920039
:100EF00091430143A96100BF207A002806D000BFBA
:100F0000A86951100843A86100BF07E000BFA869A5
:100F1000012189028843A86100BF00BF607A0028D0
:100F200007D000BFA869FF2101310843A86100BFB5
:100F300007E000BFA869FF2101318843A86100BF15
:100F400000BFE068A969042291430143A96100BF81
:100F500000BF686920218843686100BF2069E96893
:100F6000890889000143E96000BF6069A969F0222E
:100F700091430143A96100BFA069E969914301431D
:100F8000E96100BFE069E969090909010143E96113
:100F900000BF2020005D00281AD0606AA9690722DE
:100FA000520491430143A96100BFA06AA9690F22BD
:100FB00012059143014301E011E00DE0A96100BF7A
:100FC00000BFA869012109040843A86100BF08E027
:100FD0002846FFF72FFE04E00020009001E00020EB
:100FE00000900098F8BD0000005C01400024004023
:100FF00000A4014001460868C007C00F012250400C
:1010000050407047426904239A430A434261704743
:1010100041690122114341617047000070B50546E6
:101020000C46052600BF6148854201D1012000E041
:101030000020002801D100BFFEE700BF00BFA0686C
:1010400000280BD0A068102808D0A068202805D060
:10105000A068402802D0A068602801D1012000E0EB
:101060000020002801D100BFFEE700BF00BF60697B
:10107000002808D0FF2101316069884203D049006F
:101080006069884201D1012000E00020002801D1E0
:1010900000BFFEE700BF00BF2069012802D0206921
:1010A000002801D1012000E00020002801D100BF6C
:1010B000FEE700BF00BF2068002802D0206880281B
:1010C00001D1012000E00020002801D100BFFEE78F
:1010D00000BF206836494968802291430143344A61
:1010E000516000BF102000F09BF80120C00300F009
:1010F00087F8A069296B090A09020143296300BF27
:10110000A068202804D0402803D060280BD101E03B
:1011100000BF00BF0021284600F05AF82846A16809
:1011200000F050F808E02846A16800F051F80021CE
:10113000284600F047F800BF00BFE068E96A090CE4
:1011400009040143E96200BF6069296803221202B1
:1011500091430143296000BF6068A96A090C090432
:101160000143A96200BF2069012806D100BF286899
:1011700080210843286000BF06E000BF2868802166
:101180008843286000BF00BF2846FFF741FF00E00A
:10119000761E064800F00EF8002801D1002EF7D187
:1011A00000BF01200149086100BF70BD003001404F
:1011B0004024004001460869C007C00F012250408A
:1011C00050407047026860239A430A4302607047A8
:1011D000026810239A430A430260704701680122A3
:1011E000114301607047016802221143016070479A
:1011F0000249C96B0143014AD16370470024004092
:101200000249C9680143014AD16070474024004047
:101210000249C9680143014AD16070474024004037
:10122000024909680143014A1160704740240040A7
:1012300010B5002400BF1B480068072109020840C0
:1012400005221202811A904218D006DC00280DD027
:1012500001218902401A1DD10CE0C81FF93800286D
:1012600010D0FF380138002814D10FE000F0FCF84E
:10127000044613E000F0F8F844080FE000F0F4F83A
:1012800084080BE000F0F0F8C40807E000F0ECF888
:10129000040903E000F0E8F8044600BF00BF204660
:1012A00010BD00000024004010B5002400BF1B4802
:1012B000006807210904084005221204811A90429F
:1012C00018D006DC00280DD001218904401A1DD158
:1012D0000CE001200004081A10D001210904401A72
:1012E00014D10FE0FFF7A4FF044613E0FFF7A0FFBF
:1012F00044080FE0FFF79CFF84080BE0FFF798FF1E
:10130000C40807E0FFF794FF040903E0FFF790FF2C
:10131000044600BF00BF204610BD0000002400406E
:1013200070B50024002500BF2648C068022108408F
:10133000002802D0022807D103E000F047F8044655
:1013400006E02148046803E000F040F8044600BFCE
:1013500000BF00BF1B48C068702108400107090F8B
:1013600000291FD10011030002F074FE08050608D1
:101370000A0C12141A1C16E0640814E0A40812E007
:10138000E40810E00C212046FFF71EF804460AE0AE
:10139000240908E018212046FFF716F8044602E069
:1013A000640900E000BF00BF00BF0648C0687F219D
:1013B00009040840000C451C2046684304462046AA
:1013C00070BD00000024004004000020002000BF89
:1013D0000D4949680F2212041140002908D001224A
:1013E0001204891A06D0891A06D0891A08D105E094
:1013F000064807E0064805E0064803E0064801E025
:10140000024800BF00BF70470024004000127A006D
:101410000024F40000366E010048E801002000BFFF
:101420001049496A032212041140002908D0012200
:101430001204891A07D0891A08D0891A0CD108E039
:101440004B2040030BE04B20C00208E04B20800201
:1014500005E04B20400202E04B20400300BF00BFEC
:10146000704700000024004010B5002400BF14485D
:1014700000684007400F030002F0ECFD0705090C6F
:101480001A1014171A00FFF7A1FF044614E00D48C4
:10149000046811E0FFF744FF04460DE0FFF7BEFFCC
:1014A000044609E00848046806E00124E40303E078
:1014B000FFF78CFF044600BF00BF204610BD0000B0
:1014C0000024004004000020000000200349896837
:1014D0001C2291430143014A91607047402400401F
:1014E0000648006904210843044908610846006968
:1014F00001210843014908617047000000E000E055
:1015000010B5044603E07D20C00000F005F8204639
:10151000641E0028F7D110BD10B504460C490D48D3
:101520000068FEF751FF444301200006844200D9C1
:1015300000E020460446601E07494861002088619B
:1015400000BF05480069C003C00F0028F9D010BDD6
:1015500040420F000800002000E000E0014600BF0C
:101560000868002804D0012292070868904201D13F
:10157000012000E00020002801D100BFFEE700BFED
:1015800080200D4A526B02430B4B5A6300BF00068A
:10159000094A4032D2680243074B4033DA6000BF49
:1015A00008681A4652681B069A430243024B4033AE
:1015B0005A6000BF0120704700240040FEB5044679
:1015C0000D4600200190664966480068FEF7FCFE63
:1015D000C8214843009000BF012C2FD0022C2DD0F1
:1015E000042C2BD0082C29D0102C27D0202C25D02F
:1015F000402C23D0802C21D0FF20013084421DD0EC
:10160000400084421AD04000844217D040008442F7
:1016100014D04000844211D0400084420ED04000DB
:1016200084420BD04000844208D04000844205D060
:101630004000844202D04000844201D1012000E0F9
:101640000020002801D100BFFEE700BF00BF2868CE
:10165000002808D02868012805D02868022802D070
:101660002868032801D1012000E00020002801D1D2
:1016700000BFFEE700BF00BF6868002805D06868AB
:10168000012802D06868022801D1012000E0002072
:10169000002801D100BFFEE700BF00BFA8680128F5
:1016A00002D0A868002801D1012000E00020002815
:1016B00001D100BFFEE700BF0294002604E00298BB
:1016C00040080290701CC6B202980128F7D1374634
:1016D000F017000FC01900110001301A43002868EC
:1016E00098400146B000204B1A5820489047A868FF
:1016F000012809D100BF1D4800696103490B084357
:101700001A49086100BF03E02146184800F038F884
:101710003746F017000FC0190011800014490B580C
:10172000214612486A6898470020019003E000BFF4
:101730000198401C0190009901988842F7D32146F6
:101740000A4800F019F81E20002805DBC206D20E58
:1017500001219140074A116000BF0120FEBD000039
:1017600040420F0008000020B8400000C00D0040BB
:101770000441000080E200E04A03520B42617047DE
:1017800002694B035B0B9A4302617047826A8BB21A
:101790009A438262704702688BB29A430260704734
:1017A00082688BB29A438260704742688BB29A43D8
:1017B00042607047026A8BB29A43026270470246E7
:1017C000D0698BB218408BB2984201D1012070478A
:1017D0000020FCE70246D0698BB218408BB29842D9
:1017E00001D1012070470020FCE70246D0698BB28E
:1017F00018408BB2984201D1012070470020FCE7CD
:10180000F8B506460C460027002500BF7248864200
:101810000ED07148403086420AD06F4880308642F0
:1018200006D06D48C030864202D06C48864201D155
:10183000012000E00020002801D100BFFEE700BF2A
:1018400000BF2068002805D965492068884201D872
:10185000012000E00020002801D100BFFEE700BF0A
:1018600000BF6068032808D06068002805D0606861
:10187000012802D06068022801D1012000E0002088
:10188000002801D100BFFEE700BF00BFA06801280B
:1018900002D0A068002801D1012000E0002000282B
:1018A00001D100BFFEE700BF00BFE068002802D002
:1018B000E068012801D1012000E00020002801D1CA
:1018C00000BFFEE700BF00BF6069002802D060696A
:1018D000012801D1012000E00020002801D100BF33
:1018E000FEE700BF80203F49496B01433D4A5163F9
:1018F00000BF6AE00121B940206808400546002D7C
:1019000062D0606803281AD129463046FFF743FFAA
:1019100029463046FFF749FF29463046FFF740FF8A
:101920006069012806D100BFB06AA9B20843B0625D
:1019300000BF33E029463046FFF728FF2EE0294656
:101940003046FFF723FF6068002806D100BF3068EB
:10195000A9B20843306000BF03E029463046FFF7D4
:101960001AFFA068002804D129463046FFF718FF67
:1019700006E000BFB068A9B20843B06000BF00BF76
:10198000E068002806D000BF7068A9B20843706004
:1019900000BF03E029463046FFF707FF60680228D2
:1019A0000DD12069012806D100BF306AA9B20843D1
:1019B000306200BF03E029463046FFF7FBFE2946B0
:1019C0003046626800F0A1F87F1C2068F8400028CB
:1019D00090D10120F8BD0000000C0040000D004037
:1019E000FFFF00000024004082698BB21A4382612D
:1019F000704782698BB21A4382617047026892080D
:101A000092000A430260704702680C239A430A431B
:101A100002607047026803231B059A430A43026071
:101A20007047026803239B059A430A43026070478C
:101A3000026803231B069A430A4302607047026848
:101A400003239B069A430A430260704702680323FC
:101A50001B079A430A43026070470268920092088B
:101A60000A43026070474268920892000A4342604B
:101A7000704742680C239A430A43426070474268A9
:101A800030239A430A4342607047026830239A43E6
:101A90000A43026070470268C0239A430A43026007
:101AA0007047026803231B029A430A43026070478F
:101AB000026803239B029A430A430260704702684C
:101AC00003231B039A430A430260704702680323FF
:101AD0009B039A430A4302607047026803231B0476
:101AE0009A430A4302607047026803239B049A43A7
:101AF0000A430260704742698BB21A4342617047E1
:101B000042698BB21A434261704730B5C3680C46D4
:101B10004C4365006419A3430C464C435443234390
:101B2000C36030BD30B583680C464C436500641912
:101B3000A3430C464C4354432343836030BD10B54C
:101B40000B0C5B435C001C19C368A3430C0C64437F
:101B500054432343C36010BD10B5FFF7C1FC10BD53
:101B600070B505460C462868032801D90320286073
:101B70002046002805DBC206D20E01219140094A09
:101B8000116000BF2046296801F09CF8204600281B
:101B900006DBC206D20E01219140024A803A116052
:101BA00000BF70BD80E100E0416801221143416047
:101BB000704741680122114341607047416801222A
:101BC0001143416070470000F8B505460C460027F8
:101BD00000200090002600BFAD4885420BD0AD48E4
:101BE000854208D0AC48854205D0AC48854202D039
:101BF000AB48854201D1012000E00020002801D13E
:101C000000BFFEE700BF00BF2068002814D0206896
:101C1000012811D0206802280ED0206803280BD09C
:101C20002068002808D02068042805D020680828EB
:101C300002D020680C2801D1012000E000200028FB
:101C400001D100BFFEE700BF00BFA068C02808D0D8
:101C5000A068002805D0A068402802D0A06880288D
:101C600001D1012000E00020002801D100BFFEE7E3
:101C700000BF00BF2069002805D02069102802D0CD
:101C80002069202801D1012000E00020002801D196
:101C900000BFFEE700BF00BFE068002804D0FF21BE
:101CA0000131E068884201D1012000E000200028D5
:101CB00001D100BFFEE700BF00BF6069002808D067
:101CC0006069022805D06069012802D06069032894
:101CD00001D1012000E00020002801D100BFFEE773
:101CE00000BF6B4885422CD120686E49496889083D
:101CF000890001436B4A516000BF2068002806D06C
:101D0000012808D002280AD0032810D10BE0FFF7E1
:101D1000CBFA00900FE0FFF759FB00900BE0FFF7C4
:101D2000A3FB009007E060480068009003E0FFF725
:101D3000BBFA009000BF00BF61680098FEF744FB4B
:101D4000461E544885422CD12068564949680C22C9
:101D500091430143534A516000BF2068002806D0D8
:101D6000042808D008280AD00C2810D10BE0FFF76F
:101D70009BFA00900FE0FFF729FB00900BE0FFF7C4
:101D800073FB009007E048480068009003E0FFF70D
:101D90008BFA009000BF00BF61680098FEF714FB4B
:101DA000461E3B48854206D18015FFF721FAA8154B
:101DB000FFF72EFA35E03748854206D14015FFF788
:101DC00017FA6815FFF724FA2BE0334885420BD148
:101DD000C014FFF70DFAFFF767FA009061680098EA
:101DE000FEF7F2FA461E1CE02C4885420BD1801407
:101DF000FFF7FEF9FFF758FA009061680098FEF7C8
:101E0000E3FA461E0DE0264885420AD14014FFF74A
:101E1000EFF9FFF749FA009061680098FEF7D4FAED
:101E2000461E207DC007C00F002806D000BF2868CE
:101E300001210843286000BF00BF022160690840FB
:101E4000002805D000BF28680843286000BF00BFF5
:101E500000BFA869000C00043043A86100BFE0681F
:101E60002968FF22013291430143296000BFA06825
:101E70002968C02291430143296000BF2069296875
:101E8000302291430143296000BF01273846F8BD45
:101E900000200140006801400070014000740140D2
:101EA0000078014040240040040000204269520AAA
:101EB00052020A43426170474269520A52020A437F
:101EC000426170474269520A52020A4342617047B6
:101ED00070B505460C4600BF4348854201D101203C
:101EE00000E00020002801D100BFFEE700BF00BFD6
:101EF0002068002814D02068102811D020682028DD
:101F00000ED0206830280BD02068402808D02068E8
:101F1000502805D02068602802D02068702801D1A0
:101F2000012000E00020002801D100BFFEE700BF33
:101F300000BF606800282CD06068012829D0606844
:101F4000022826D06068032823D06068042820D0A7
:101F5000606805281DD0606806281AD060680728C8
:101F600017D06068082814D06068092811D060680C
:101F70000A280ED060680B280BD060680C2808D0A7
:101F800060680D2805D060680E2802D060680F28B0
:101F900001D1012000E00020002801D100BFFEE7B0
:101FA00000BF1248FFF71FF91048FFF717F96068E4
:101FB0000121C9026918896809090901014301223F
:101FC000D202AA18916000BF20680121C9026918D5
:101FD00089687022914301430122D202AA189160BC
:101FE00000BF012070BD000000F0014000E0014092
:101FF0001020094949690140814201D1012100E0D5
:102000000021012906D110200349486100BF0120A9
:102010000249487570470000C00D00406C0F002059
:10202000F3B581B00E4600270C20FFF74FFA19498F
:102030001948FEF705FE18480199FEF711FE1648EB
:10204000FEF724FD1448FEF701FE1348FEF703FED9
:1020500000BF1148FEF7CEFF04467F1C781C002805
:1020600001D0002CF5D0012C10D10B48FEF70EFD4D
:1020700000BF0948806A80B230600748FEF7D5FD8E
:1020800005480199FEF7DCFD002500E00125284602
:10209000FEBD0000FFFF0F00005C0140F1B58AB0FB
:1020A000002008900790069008A800F035F80590E9
:1020B00006A90A98FFF7B4FF04900898002821D0D9
:1020C000059800281ED1049800281BD10F490698B6
:1020D00001F0A8FF0E4A1489002506460F46224645
:1020E0002B46FEF777F8019100900A49089801F015
:1020F00099FF02460B460391029001990098FEF762
:1021000081F8079007980BB0F0BD0000B80B0000F5
:1021100000FBFF1FFF0F0000F8B5064600270C204C
:10212000FFF7D4F900BF20480069012108431E4988
:10213000086100BF1D491E48FEF782FD0121090606
:102140001B48FEF78DFD1A48FEF7A0FC1848FEF765
:102150007DFD1748FEF77FFD00BF1548FEF74AFFDB
:1021600004467F1C781C002801D0002CF5D0012CDF
:1021700017D10F48FEF78AFC00BF0D48806A80B275
:1021800030600B48FEF751FD21060948FEF758FD67
:1021900000BF05480069A0430349086100BF00254E
:1021A00000E001252846F8BD00A40140FFFF0F0014
:1021B000005C014010B500BF0220FFF76FFF04462E
:1021C0000B204443204610BD10B500BF8020FFF710
:1021D00065FF04460B204443204610BD00B587B080
:1021E000FF20013001900120029003900020049014
:1021F0000590069001A91B48FFF702FB0120400251
:102200000190012002900390002004900590069018
:1022100001A91448FFF7F4FA402001900120029030
:102220000390002004900590069001A90D48FFF747
:10223000E7FA802001900120029003900020049092
:102240000590069001A90748FFF7DAFA0121490233
:102250000448FFF750FC80210248FFF74CFC07B010
:1022600000BD0000800C0040F3B5FFB082B0054611
:1022700000240026002080907F90FF21F53102A8E5
:10228000FEF7A0F8002001904127D9E020462B302E
:102290008299884200D9D4E0285D682829D1601C41
:1022A000285CAB2825D120461030285C133021460D
:1022B0000F31695C0902401886B22919324602A81A
:1022C000FEF721F8314602A800F07CFE8090B01E97
:1022D00002A9095C809881420BD101205B494870BA
:1022E0008876324602A959481C30FDF73BFFA019F9
:1022F00084B2285D682874D1E01D285C6828FAD172
:1023000020460A302E5C3102401E285C08180D3031
:1023100086B2A019801E285C80902919324602A836
:10232000FDF7F1FF314602A800F04CFE7F907F9947
:1023300080988842DFD120461330285C01900198B4
:10234000010220461230285C081880B20190012159
:1023500009030198401A08D03D494018002841D08F
:10236000012858D00D2865D106E002203749487071
:102370000020384908605EE003203449487000209E
:10238000344908602046153029180F222F4849305B
:10239000FDF7B9FF2046243029180F222B4858306A
:1023A000FDF7B1FF20463330291814222748673043
:1023B000FDF7A9FF204675302918062223487D30F5
:1023C000FDF7A1FF20467B30295C20488030C1709A
:1023D00020467C30291804221C488430FDF793FFE6
:1023E00029E02BE0042019494870002019490860B1
:1023F000E019285CC019401C87B2E019285CC0199C
:10240000401C87B22819C119104863300A7F027630
:10241000497F41760FE005200C49487000200D49A6
:10242000086020469F302918082208488830FDF7A8
:102430006AFF00E000BF00BFA01984B2601C84B234
:1024400024E700BF7FB004B0F0BD00006C0F002097
:10245000E84AFFFF6C00002006480088002807D1EA
:102460000820054949690143034A516100BF00BF83
:102470007047000062000020000C00400820054961
:1024800089690143034A916100BFFF2091300249ED
:1024900008807047000C0040620000201FB501203A
:1024A0000090032001900020029003906846FEF700
:1024B000F1FA1FBD10B5FFF7F1FF00F001F810BDF4
:1024C00000B591B001200B9003200C9000200D90DE
:1024D0000E900F9010900BA93548FFF791F902204C
:1024E0000B9003200C9000200D900E900F901090F8
:1024F0000BA92F48FFF784F904200B9003200C90C0
:1025000000200D900E900F9010900BA92848FFF717
:1025100077F908200B9003200C9000200D900E906E
:102520000F9010900BA92248FFF76AF910200B902A
:1025300003200C9000200D900E900F9010900BA98E
:102540001B48FFF75DF90120C0020B9003200C909F
:1025500000200D900E900F9010900BA91448FFF7DB
:102560004FF90020009001900121684601724172EC
:102570000020039004900590502006900F200790B3
:10258000002108A801700320400409900120800563
:102590000A9069460748FEF769FB40210548FEF7A7
:1025A0005FFB012109060348FEF75AFB11B000BD8D
:1025B000C00C0040005C014000BF012005490861DB
:1025C00000BF00BF0846C068012108430149C86038
:1025D00000BF70470030014000B587B00020009078
:1025E0001F200190002002900548039000200590D4
:1025F0000690049069460348FEF710FD07B000BD41
:10260000E7030000003001401CB5102000900820B6
:10261000019069460148FFF75BFC1CBD00F00140DA
:1026200010B500BF4F480068012108434D490860BC
:1026300000BF00BF084600680221084349490860FE
:1026400000BF04204849496B0143474A516300BF1A
:1026500000204649096B490A49020143434A116374
:1026600000BF04204049496B81433F4A516300BF8A
:1026700000203F49096B490A490201433C4A116362
:1026800000BFFFF7C1FF00BF05203949CA148918F0
:10269000486000BF7D20C000FEF732FF5520324960
:1026A000C969090A090201432F4AD16100BF3149B2
:1026B000496B090C2F4A928ED24392B2914202D1B9
:1026C0002C49496B00E08021C8B227498968090A72
:1026D00009020143244A916000BF0320000411460F
:1026E00049680F221204914301431F4A516000BF01
:1026F00000BF10464068012108431146486000BFF2
:1027000001201D4909688908890001431A4A11609E
:1027100000BF002014490968C908C9000143124AD2
:10272000116000BF00BF11460968072212029143E1
:1027300001430D4A116000BF00BF1146096807221E
:10274000120491430143084A116000BF0220054969
:102750004968C908C9000143024A516000BF00F03E
:1027600041FC10BD00E00140002400400010014089
:1027700000F0014000FBFF1F0010004008B50020E2
:1027800000906846FEF7EAFE08BD10B5FFF7F6FFB9
:1027900000F006F800F022F800F036F910BD000055
:1027A00000B589B00420039000200490059001201A
:1027B000069000200790089003A90748FFF720F82B
:1027C0000020029002200090002001906946012024
:1027D000FEF7F4FE09B000BD000C004000B589B062
:1027E0000420039000200490059001200690002012
:1027F0000790089003A90748FFF702F8002002900D
:10280000022000900020019069461020FEF7D6FEBD
:1028100009B000BD400C004000B587B00820019011
:10282000012002900020039004900590069001A9D9
:102830007448FEF7E5FF012040020190012002905C
:102840000020039004900590069001A96D48FEF7C2
:10285000D7FF012080020190012002900020039008
:1028600004900590069001A96648FEF7C9FF202054
:102870000190002002900390012004900020059018
:10288000069001A95F484030FEF7BAFF4020019052
:1028900000200290039001200490002005900690F3
:1028A00001A958484030FEF7ABFF8020019000207E
:1028B000029003900120049000200590069001A949
:1028C00050484030FEF79CFFFF200130019000206F
:1028D000029003900120049000200590069001A929
:1028E00048484030FEF78CFF012040020190012053
:1028F00002900020039004900590069001A94148A1
:102900004030FEF77DFF01208002019001200290FF
:102910000020039004900590069001A939484030AA
:10292000FEF76EFF0120C0020190012002900020FE
:10293000039004900590069001A932484030FEF7BC
:102940005FFF082001900120029000200390049076
:102950000590069001A92B488030FEF751FF10200A
:1029600001900120029000200390049005900690B1
:1029700001A924488030FEF743FF20200190012068
:1029800002900020039004900590069001A91D4834
:102990008030FEF735FF2020019000200290039048
:1029A00004900590069001A91648C030FEF728FF54
:1029B0004020019000200290039004900590069022
:1029C00001A91048C030FEF71BFF012000F0E6F916
:1029D000012000F0CBF90220FDF7E4FF0220FDF713
:1029E000C9FF02210520FDF7D3FD02210620FDF7D6
:1029F000CFFD02210720FDF7CBFD022000F09EF95C
:102A000007B000BD000C004008B5002000901E215A
:102A10006846FFF7A5F808BD00B587B08020019093
:102A2000022002900020039004900590069001A9D6
:102A30000948FEF7E5FEFF200130019002200290D8
:102A40000020039004900590069001A90248FEF72B
:102A5000D7FE07B000BD0000C00C004000B58DB02F
:102A600001204003079002200890002009900120D7
:102A70000A9000200B900C9007A91148FEF7C0FEA9
:102A800001208003079002200890002009900A90FE
:102A90000B900C9007A90A48FEF7B2FE00200190A7
:102AA0004B20C0010290032006904020039000209C
:102AB0000490059001A90348FFF786F80DB000BD0A
:102AC000000C00400020014010B500BFFF20013085
:102AD0000949886000BF00BF08464068891508435F
:102AE0000549486000BF00BF0120886000BF08465C
:102AF000FFF75AF810BD00000020014000B58DB06E
:102B000001204003079002200890002009900A90BD
:102B10000B900C9007A91148FEF772FE012080036C
:102B2000079002200890002009900A900B900C90CA
:102B300007A90A48FEF764FE002001904B204001DF
:102B400002900320069040200390002004900590FE
:102B500001A90348FFF738F80DB000BD400C004054
:102B60000068014010B500BFFF20013009498860AE
:102B700000BF00BF08464068891508430549486002
:102B800000BF00BF0120886000BF0846FFF711F8B2
:102B900010BD00000068014000B58DB00120079015
:102BA000022008900020099001200A9000200B903C
:102BB0000C9007A91048FEF723FE0220079008900A
:102BC000002009900A900B900C9007A90A48FEF784
:102BD00017FE002001904B20C001029003200690B8
:102BE00040200390800004900020059001A9034834
:102BF000FEF7EAFF0DB000BD000C0040007401407C
:102C000010B500BFFF2001300949886000BF00BF38
:102C100008464068891508430549486000BF00BF61
:102C20000120886000BF0846FEF7C8FF10BD000005
:102C30000074014010B514480078062822D10820FD
:102C400000F026F8012807D1092000F021F800281B
:102C500002D101200D490876082000F019F800285B
:102C600006D1092000F014F8012801D1074948765F
:102C70000648007E012805D10448407E012801D184
:102C80000249C87510BD0000640000206C0F0020D0
:102C900070B504460025082C02D0092C0CD105E0A3
:102CA00020210748FEF796FDC5B206E04021044802
:102CB000FEF790FDC5B200E000BF00BF284670BD22
:102CC000C00C004010B5002819DB1A4A03231B0270
:102CD000D21883089B00D2588307DC0EFF23A34041
:102CE0009A438B071B0E8407E40EA3401A43114B33
:102CF000032424021B198408A4001A5118E00E4A68
:102D000003071B0F083B9B089B00D2588307DC0E70
:102D1000FF23A3409A438B071B0E8407E40EA340B6
:102D20001A43054B0407240F083CA408A4001A51B9
:102D300010BD000000E100E01CED00E010B504460D
:102D4000012C02D0022C0CD105E00121C902064859
:102D5000FEF74FFE06E00121C9020348FEF7D0FE50
:102D600000E000BF00BF10BD400C004010B504469D
:102D7000012C02D0022C0CD105E0012149020648A9
:102D8000FEF737FE06E0012149020348FEF7B8FED0
:102D900000E000BF00BF10BD400C004010B504466D
:102DA000012C02D0022C0CD105E001218902064839
:102DB000FEF71FFE06E0012189020348FEF7A0FE90
:102DC00000E000BF00BF10BD400C0040F0B5B5B042
:102DD00005460F460024002034903390C82101A8F6
:102DE000FDF7F0FA08264AE020460830B84200D93C
:102DF00046E0285D682840D1601C285CAB283CD1A7
:102E00002919324601A8FDF77EFAA019801E285C18
:102E10003490314601A800F0D5F8339033993498B6
:102E200088422AD1201D285C0A2802D00B2820D1F4
:102E30000DE0601D285C14498978884206D1A019EC
:102E4000401E285C162801D100F0D0FB12E0601D66
:102E5000285C0D49897888420AD1A019401E285C57
:102E6000162805D108480078012801D1FDF75CFC3F
:102E700000E000BF00BFA019C4B2601CC4B2B3E739
:102E800000BF35B0F0BD00006C0F002010B5012070
:102E9000FFF784FF0120FFF769FF10BD70B5002424
:102EA00000250720254908709F20487000F0E3FFA7
:102EB000802000F095FF002000F092FF02211F48C3
:102EC00000F0CBFF00F0EAFF10201C490870002042
:102ED000487000F0D0FF802000F082FF052000F055
:102EE0007FFF0221154800F0B8FF00F0D7FF142043
:102EF000FEF706FB00F0BFFF802000F071FF04200A
:102F000000F06EFF00F0B7FF812000F069FF0221A2
:102F10000B4800F034FF00F0C1FF094800780002C0
:102F2000084908800846008805494978401805493D
:102F30000880084604882546284670BD5F000020AA
:102F40004C0F0020600F002010B500F01BF8182176
:102F5000014800F0FBFD10BDA000002010B500F0FE
:102F600011F81721014800F0F1FD10BDB800002054
:102F700010B500F007F81621014800F0E7FD10BD7C
:102F80007400002010B5002400BF05E00A210648A7
:102F900000F0DCFD601CC4B23C2CF7DB0A210348C6
:102FA00000F0D4FD10BD0000E6000020F00000207D
:102FB00010B5FFF7E7FF1621014800F0C7FD10BD6F
:102FC0008A00002010B502460B460021002000BFF9
:102FD00004E0545C2418E0B24C1CE1B29C1E8C420C
:102FE000F7DC10BD10B5464800684007400F0300ED
:102FF00001F030F8073C050A3C0F32373C004148ED
:1030000000684149086051E000F008F93E49086055
:103010004CE03B48406A8003800F002806D001281E
:1030200009D002280CD0032814D10EE04B20400315
:10303000354908600EE04B20C0023349086009E0C2
:103040004B2080023049086004E04B2040022E49AA
:10305000086000BF00BF29E02C4800682A490860CA
:1030600024E07D200002284908601FE024484068D1
:103070000003000F002813D0012804D0022806D036
:1030800003280CD107E022481F4908600CE02148C2
:103090001D49086008E020481B49086004E000BFA3
:1030A0001E481949086000BF00BF00BF00BF144898
:1030B00000684005400F042806D005280AD00628DD
:1030C0000ED0072818D111E00F48006840080E49BB
:1030D000086012E00C48006880080B4908600CE0AA
:1030E00009480068C0080849086006E0064800680A
:1030F00000090549086000E000BF00BF10BD0000E6
:1031000000240040040000200800002000000020EF
:103110000024F40000366E010048E80100127A0035
:1031200010B53948406B012109030843364948630B
:103130000846406B802108433349486308460068CD
:103140000121C9060843304908605520C8610320A1
:10315000090548602D488069000C2C49098BC9433A
:1031600089B2884202D12948806900E01020C00657
:10317000C00E274988632548C0300068000C2349E9
:10318000C0310988C94389B2884203D11F48C03081
:10319000006800E08020C0B21B4988601B48C03036
:1031A0004068000C1949C0318988C94389B28842F6
:1031B00003D11648C030406800E08020C0B21249F8
:1031C000886212488030006A000C10498031098CF6
:1031D000C94389B2884203D10C488030006A00E0BC
:1031E0008020C0B2084948610A484068FF21813107
:1031F00008430849486005200749086001204860E5
:10320000FFF7F0FE10BD00000024004080FAFF1F11
:1032100000200040C00C00400028004010B50024F1
:103220002C48C0688007C00F002802D001281BD19D
:1032300017E0284840680003000F00280DD001283F
:1032400004D0022804D0032806D103E0224C06E073
:10325000224C04E0224C02E000BF224C00BF00BF21
:1032600002E02148046800BF00BF1A48C068400659
:10327000400F030000F0EEFE080507090B0D1315C3
:103280001B1D00BF15E0640813E0A40811E0E4086A
:103290000FE00C212046FDF797F8044609E02409C9
:1032A00007E018212046FDF78FF8044601E0640985
:1032B00000BF00BF0748C0684002400E401C4443A6
:1032C0000448C0680007C00F002800D064002046F2
:1032D00010BD0000002400400024F40000366E0100
:1032E0000048E80100127A000400002010B58B4865
:1032F0000068002800D010BD89480078030000F065
:10330000A9FE0D08090F3A5EF0DD828B9DBDF0FF2E
:10331000F00000E100F06AF9022081490870FAE04B
:10332000FEF752FF7F494860FEF744FF7D49C860C1
:10333000084640681921C901884218D9794840686F
:103340007D214901884212D27648C0681921C901FD
:1033500088420CD97348C0687D214901884206D251
:1033600003206F49087070487049086002E00C2023
:103370006B490870CFE06D480068002818D0002025
:10338000FDF754FB674988600846806806280AD91B
:1033900008468068322806D26348644908600420E1
:1033A0005F4908700AE07D20C0005C49086005E0C4
:1033B0005D485E490860042059490870ABE05B48ED
:1033C0000068002818D00120FDF730FB554908613E
:1033D0000846006900280AD0084600690A2806D273
:1033E00053485249086007204D4908700AE07D2083
:1033F000C0004A49086005E04D484C490860072074
:103400004749087087E0FFF7D3FD4A484349086001
:103410000820434908707EE044480068002803D033
:1034200040484078022808D106203E4948703E486E
:103430003E49086009203A4908706CE03B48006842
:10344000002814D037484078032809D10620354990
:1034500048703548354908600A20314908700CE049
:10346000FFF772FD7D2000012C49086005E02E4821
:103470002E4908600A202A4908704CE02B48006851
:10348000002814D027484078042809D1062025496F
:1034900048702548254908600620214908700CE03D
:1034A000FFF75CFD7D2000011C49086005E01E4817
:1034B0001E49086006201A4908702CE01B48006865
:1034C000002816D01748407801280BD1062015494E
:1034D00048700020154908600C20114908700EE062
:1034E0000EE014E0FFF744FD7D2040010B49086029
:1034F00005E000200D4908600C20094908700AE029
:1035000000200749087001200649087003E00C20DC
:103510000349087000BF00BF00BFECE66C0000204C
:10352000640000206C0F0020983A00006800002022
:1035300050C30000A861000010B5FFF7A7FC00F021
:10354000AFFB0220FFF7FAFB0220FDF713FA02207F
:10355000FDF728FA02210520FDF71AF802210620BE
:10356000FDF716F802210720FDF712F800200149A7
:10357000087010BD6400002010B500201A490870C2
:1035800006204870002048608860C860086108759F
:103590008875C875087648768876C8762D211248D1
:1035A0001C30FCF70FFF0F210F484930FCF708FFD4
:1035B0000F210D485830FCF705FF14210A486730E9
:1035C000FCF7FEFE084863300021017641760621B3
:1035D0001A30FCF7F5FE002103488030C1704160CD
:1035E0008160C160017410BD6C0F002010B5FFF741
:1035F000A3FFFFF7C1FF01200149087010BD0000C3
:1036000064000020F8B5002400250026002700BF34
:1036100033484068FF2101310840000A044600BFDA
:103620002F4880680840000A054600BF2C484068C3
:10363000C007C00F012148404840064600BF284847
:1036400080680840484048400746002C19D0012DAA
:1036500017D100BF224800692249234A12888854A2
:1036600021480088401C2049088008460088C82856
:1036700001DB0020088001201C490870C8201C497B
:103680000880012E2AD1012F28D11A4840791949E2
:103690000979884209D100BF11484068B0431049F8
:1036A000486000BF01201449087012484079114950
:1036B000097988420CDA0F4800680E4A5279815C19
:1036C0000748FEF7F3FB0B484079401C0949487155
:1036D00000BF01200249886000BF00BFF8BD0000A4
:1036E000002001400C0100200E0000200C000020F2
:1036F00014000020640300201000002010B5FFF724
:10370000ADF9FFF7E1F900F003F800F0EFF910BDB3
:1037100008B5022000900A216846FEF721FA08BD8C
:10372000F8B5002400250026002700BF3448406873
:10373000FF2101310840000A044600BF304880687C
:103740000840000A054600BF2D484068C007C00F6A
:10375000012148404840064600BF2948806808408B
:10376000484048400746002C1CD0012D1AD100BF0C
:10377000234800692349244A128888542248008833
:10378000401C2149088008460088192149018842C7
:1037900002DB00201C49088001201C490870C82059
:1037A0001B490880012E2AD1012F28D119484079C0
:1037B00018490979884209D100BF11484068B043CF
:1037C0000F49486000BF0120134908701148407933
:1037D0001049097988420CDA0E4800680D4A52797E
:1037E000815C0748FEF768FB0A484079401C09499C
:1037F000487100BF01200249886000BF00BFF8BDCA
:103800000068014074030020180000201700002009
:103810001C000020D40C00201600002010B5FFF77B
:103820006DF9FFF79FF900F003F800F0C7F910BD3C
:1038300008B5002000900B216846FEF791F908BDFD
:10384000F8B5002400250026002700BF3348406853
:10385000FF2101310840000A044600BF2F4880685C
:103860000840000A054600BF2C484068C007C00F4A
:10387000012148404840064600BF2848806808406B
:10388000484048400746002C19D0012D17D100BFF1
:10389000224800692249234A128888542148008816
:1038A000401C2049088008460088C82801DB002009
:1038B000088001201C490870C8201C490880012E7E
:1038C0002AD1012F28D11A4840791949097988420B
:1038D00009D100BF11484068B0431049486000BF9B
:1038E0000120144908701248407911490979884229
:1038F0000CDA0F4800680E4A5279815C0748FEF7DF
:10390000E1FA0B484079401C0949487100BF012089
:103910000249886000BF00BFF8BD0000007401408C
:10392000E40C002058000020570000205C0000201C
:103930003C0F00205600002010B5FFF72DF9FFF7CF
:103940005FF900F003F800F0A3F910BD08B50220FC
:1039500000900D216846FEF703F908BD10B5FFF78A
:10396000CDFEFFF75BFFFFF7E7FF10BD10B586B098
:103970000446002C01D1019001E0022001900120B9
:10398000800300900020029001200390002004900A
:10399000059069460248FDF733FF06B010BD0000F0
:1039A000000C004010B5024600200BE0431C8B4287
:1039B00000D908E0135C542B02D10123034C23757A
:1039C000431CD8B2F2E700BF10BD00006C0F00200E
:1039D00010B51221014800F021F910BDFA000020B5
:1039E00010B507480068002809D10648007800286B
:1039F00005D0FFF7EDFF7D2000010149086010BDF3
:103A0000700000206400002010B5144800780128E0
:103A100008D10020114908700520FDF771FD002034
:103A2000FFF7A4FF0E480078012816D10D48008842
:103A3000002812D1FEF722FD0020094908700A482B
:103A400002880A490A48FCF78DFB074801880848A4
:103A5000FFF7BCF900200449088010BD10000020C9
:103A60000C000020140000200E0000200C0100209B
:103A7000D401002070B505460C46002C00D170BD65
:103A800064201649088000BF154800791449497917
:103A9000884203D0114800880028F5D10120FDF7A5
:103AA0002FFD0120FFF762FF224629460D48FCF753
:103AB0002AFC0C480A4908600C710120487100BFBB
:103AC0000949886000BF0846FEF76EF804480068A0
:103AD00001780548FEF7EAF900BFD0E712000020A0
:103AE000640300209C0200200020014001200249C4
:103AF00008714871704700006403002010B50E483B
:103B00000078012816D10D480088002812D1FEF750
:103B1000B5FC0020084908700948028809490A488C
:103B2000FCF720FB064801880748FEF79DFB0020B4
:103B30000349088010BD0000170000201C00002071
:103B400018000020740300209406002070B505467C
:103B50000C46002C00D170BD7D20C00013490880A8
:103B600000BF1348007912494979884203D00F48B1
:103B700000880028F5D1224629460E48FCF7C3FBF1
:103B80000C480B4908600C710120487100BF0A49BC
:103B9000886000BF0846FEF70CF805480068017809
:103BA0000548FEF789F900BFD5E700001A0000209C
:103BB000D40C0020B4090020006801400120024913
:103BC0000871487170470000D40C002010B50E48F1
:103BD0000078012816D10D480088002812D1FEF780
:103BE0004DFC0020084908700948028809490A4824
:103BF000FCF7B8FA064801880748FFF7D3FE002013
:103C00000349088010BD0000570000205C00002020
:103C100058000020E40C0020AC0D002070B50546D3
:103C20000C46002C00D170BD7D20C00013490880D7
:103C300000201349087000BF11480078012803D103
:103C40000E4800880028F7D1224629460D48FCF787
:103C50005AFB0C480C4908600C710120487100BFE8
:103C60000A49886000BF0846FDF7A8FF06480068BB
:103C700001780648FEF726F900BFD4E75A00002075
:103C800056000020740E00203C0F002000740140FC
:103C90000120024908714871704700003C0F002064
:103CA00010B5FF2101311E48FDF79FFD002807D107
:103CB00080211B48FDF799FD002801D11949887022
:103CC000FF2101311648FDF790FD002807D1802122
:103CD0001348FDF78AFD012801D112498870FF21A0
:103CE00001310F48FDF781FD012808D180210C48E2
:103CF000FDF77BFD002802D102200A498870FF21D0
:103D000001310748FDF771FD012808D180210448E1
:103D1000FDF76BFD012802D103200249887010BD18
:103D2000400C00406C0F0020002002E000BF411C4E
:103D3000C8B23228FADB704770B50025002000F0C9
:103D400043F9002000F0C2F8FFF7EEFF002412E074
:103D5000012000F0BBF8FFF7E7FF00F01BF9002897
:103D600002D0802020410543002000F0AFF8FFF78B
:103D7000DBFF601CC4B2082CEADB284670BD70B5BE
:103D800006460D46002428E0FFF7D6FF3055681E92
:103D9000A04210DD012000F017F9002000F0C8F863
:103DA000FFF7C2FF012000F091F8FFF7BDFF0020F0
:103DB00000F08CF80FE0012000F006F9012000F07F
:103DC000B7F8FFF7B1FF012000F080F8FFF7ACFF74
:103DD000002000F07BF8601CC4B2AC42D4DB70BDA4
:103DE00070B50446012000F0EFF8002000F06EF8F6
:103DF000002518E080202040002803D0012000F09A
:103E000097F802E0002000F093F8FFF78DFF012003
:103E100000F05CF8FFF788FF002000F057F860061C
:103E2000040E681CC5B2082DE4DB002000F0CCF8BD
:103E3000FFF77AFF012000F049F8FFF775FF00F067
:103E4000A9F8002802D100F041F802E0002000F0BB
:103E50003DF8FFF769FF012070BD70B505460E46BD
:103E6000002404E0285DFFF7BBFF601CC4B2B4422D
:103E7000F8DB012070BD10B5012000F0A5F801208D
:103E800000F056F8012000F021F8FFF74DFF002068
:103E900000F04EF8002000F019F810BD10B5012018
:103EA00000F092F8002000F043F8012000F00EF836
:103EB000FFF73AFF012000F03BF8002000F006F881
:103EC000FFF732FF012000F001F810BD10B50446E5
:103ED000012C13D114480078002802D001280BD1FE
:103EE00005E0FF2101311148FDF705FE05E0402105
:103EF0000E48FDF700FE00E000BF13E00A4800781E
:103F0000002802D001280BD105E0FF21013107482C
:103F1000FDF76AFD05E040210448FDF765FD00E07E
:103F200000BF00BF10BD000061000020800C0040F9
:103F300010B50446012C13D114480078002802D093
:103F400001280BD105E0012149021148FDF7D3FDFD
:103F500005E080210E48FDF7CEFD00E000BF13E034
:103F60000A480078002802D001280BD105E0012181
:103F700049020748FDF738FD05E080210448FDF7B8
:103F800033FD00E000BF00BF10BD00006100002055
:103F9000800C004010B50A480078002802D00128A3
:103FA0000BD105E0012149020648FDF708FC10BDD0
:103FB00080210448FDF703FCF9E70020F7E7000043
:103FC00061000020800C004010B586B0044601203E
:103FD00002900390002004900590012C02D1012052
:103FE000019001E0002001900C480078002802D0E8
:103FF00001280FD107E001204002009069460848DF
:10400000FDF7FEFB07E08020009069460448FDF7BD
:10401000F7FB00E000BF00BF06B010BD610000204C
:10402000800C0040F8B582B28BB2040C0D0C104627
:104030005843002126465E43370C360480197941E7
:1040400016466E43370C36048019794126466E4376
:104050008919F8BD30B47446641E2578641CAB42DF
:1040600004D3635D5B00E31830BC18471D46F8E7D6
:10407000FDF772FDFEF7D4FAFEF7CEFCFEF7CCFB9F
:10408000FEF783FBFCF732FBFFF768FCFEF7A6F8B0
:10409000FEF710FAFFF750FA0DE0FEF7DDF9FFF733
:1040A000B3FCFFF72BFDFFF791FDFFF71FF9FEF7BC
:1040B000C1FDFFF795FCF0E7FD190000091A0000AB
:1040C0008B1A0000971A0000A31A0000B11A000012
:1040D000BF1A0000CD1A0000DB1A0000E91A000028
:1040E000151A0000231A0000311A00003F1A0000C0
:1040F0004D1A00005B1A0000671A0000731A0000D6
:104100007F1A0000251B00003F1B00002C4100000F
:10411000000000200C0100000401000038420000F3
:104120000C0100201C200000200100000080000085
:1041300000127A0000127A00000000000100000066
:1041400000000100000000000000FEFEFEFEFEFE7A
:10415000FEFEFEFEFEFEFEFEFEFEFEFEFEFEFEFE7F
:10416000FEFEFEFEFEFEFEFEFEFEFEFEFEFEFEFE6F
:10417000FEFEFEFEFEFEFEFEFEFEFEFEFEFEFEFE5F
:10418000FE010100000064000000010000000000CA
:10419000000000000000000000000000000000001F
:1041A00068AB5758AAAAAAAAAAF277889955030019
:1041B00003E20A01E61668AB5758AAAAAAAAAAF20D
:1041C00077889955030003E50501E41668AAAAAAB1
:1041D000AAAAAA68010B002110110914131625C5FB
:1041E00000DA241668FFFFFFFFFFFF68010A0024C2
:1041F00009021608250218C500261668FFFFFFFFF2
:10420000FFFF68010A002409021612430219C500C3
:104210004F1655555555555555555555FEFEFEFEEF
:10422000FEFEFEFEFEFE020186A001084C380108DB
:084230004C3807D01E1E03F1FB
:04000005000000C136
:00000001FF
